:100000000C94D0030C94F8030C94F8030C94F803AC
:100010000C94F8030C94F8030C94F8030C94F80374
:100020000C94F8030C94F8030C94F8030C94502AE5
:100030000C94F8030C94F8030C94F8030C94F80354
:100040000C94C72A0C94F8030C94F8030C94F8034E
:100050000C94F8030C94F8030C94F8030C94F80334
:100060000C94F8030C94F803482300000082540019
:100070000000000000015B15B5000000000001D287
:1000800055250000000000015154A30000000000AD
:100090000000000100000000000FFFFFFA600000F8
:1000A0000000000000000000000014000000012813
:1000B000000000155A4C14C2A36000001D552A14FC
:1000C00083AA50000015956A0982A950000000001B
:1000D00000000000000000000000000000FF8000A1
:1000E000000000000003FFE0000E0000000007FF1A
:1000F000E00031800000000FFFF0004040000000F1
:100100000FFFF0008F200000000FFFF00090A00014
:1001100000000FFFE0013FD00000000FFFC0013FD3
:10012000D0000000027F800165500000000FFE003B
:1001300003E0500000000FFC000566900000000F77
:10014000FE0006B0A00000000A8F80055F6000007E
:10015000000007C003AAA0000000003FF004756083
:100160000001F001FFF8050FC010011BC1FFF808E6
:10017000C3FFF8000FFCFEF80837FCF8007FFCFD19
:10018000E80A0FFFF00007BF67D811803FF0021E9A
:1001900053FF781078148003F3EFFDF02007F3008D
:1001A0000000FFF7F00404F0F0F0F0040470F0F049
:1001B000F00404E0F0F0F00404F0F0F0E00404F0E7
:1001C000F0F070040460F0F0F0040470F0F07004DB
:1001D00004F0F0F0600404E0F0F0E0040470F0F0EB
:1001E000E00404E0F0F070040460F0F070040460D7
:1001F000F0F0E00404E0F0F060040470F0F060045B
:10020000040000000004048000000004041000004A
:1002100000040400000010040400000080040490A6
:10022000100000040480000080040400000090041A
:1002300004100000100404800000100404100000EA
:100240008004049000008004049000001004041056
:10025000000090040480000090040460F0609004AA
:100260000490F060900404F0F0609004046060601A
:1002700090150C00000000000000000000000000CD
:100280000008400018E00078E00038C00038E000C6
:1002900078F104F8FFFFF8150C0000000000008062
:1002A0001000C01800C00808C01C38C21C78C61C4A
:1002B00078E61C78F61C78FF3FF8FFFFF8150C0075
:1002C000000000000000010001030001960000BCD6
:1002D0001000F810807010807838C07878E4787852
:1002E000FFFFF8150C000000000000000080000176
:1002F000809001C8FC03C8FE07D8F00FF8E007F8AB
:10030000C003F8F807F8FFFFF8150C003FF80009E4
:10031000F80000F80000B8020038760018FF003836
:10032000FFC0B8FF81F8FF01F8FF80F8FFFFF81564
:100330000C000000000000000008800018C8000841
:10034000FED808FFFC08FFF008FFA008FF0018FF18
:1003500080F8FFFFF8150C03789803D00801C01847
:100360008080088000088007C0C00FE8E01FE8C058
:10037000F878E073387DE798FFFFF8150C0000006F
:1003800000000000450081FF80C7FFC0E3FFE0C11F
:10039000FFC0F09380F80000FC0000FE0008FFFFA3
:1003A000F8150C07C03807E0180780180300080389
:1003B0008000030400810400C00C00E00E00F01E69
:1003C00000E0FF80FFFFF8150C00F03800600838EF
:1003D000C008E0C000C183C0818740830FE0021BDA
:1003E000E0800FB0901FF0D03EF0FFFFF8150C0139
:1003F000E03800F018487808FC3F88FC3FC0F87FE0
:1004000080F07F00F0F600D040089000188000785F
:10041000FFFFF8180A30900078F0003060C0489074
:1004200020000040000000786040786000306000EC
:1004300048900003053F213F1208120A100A0E1CC3
:100440000E0C1E0C141A14161F161E131E1E1B1E35
:100450001E1F1E3F213F3A2F3A173D173F213F18DD
:100460001F02040A041F0E04040E1F0A1F0A0E0EA8
:100470001F04110E2E252E2F2A2E262929021F0297
:10048000081F08150E04040E150E15151B151B0468
:100490000604040C040000000017000300031F0AF8
:1004A0001F16371A1904130A153A000300000E111B
:1004B000110E000A040A040E0400300004040400B3
:1004C00010001804031F111F121F101D15171115FE
:1004D0001F07041F17151D1F151D01011F1F151FC5
:1004E00017151F000A00003200040A110A0A0A1137
:1004F0000A040115020E11171E051E1F150A0E1102
:100500000A1F110E1F15111F05010E111D1F041FBB
:10051000111F1108100F1F041B1F10101F061F1E94
:10052000040F0E110E1F09060E112E1F051A1215AB
:1005300009011F011F101F0F180F1F0C1F1B041B89
:10054000031C03191513001F11030418111F0002C7
:1005500001022020200001020C121E1F120C0C129E
:10056000120C121F0C1A14041E05242A1E1F021C32
:10057000141D1020201D1F0814111F101E041E1E04
:10058000021C0C120C3E0A040C123E1E040214162D
:100590000A020F120E101E0E100E1E081E120C1252
:1005A00026281E322A26041E21001F00211E0401B7
:1005B00002013F213F0A4E6F205344206361726461
:1005C000206F720A6E6F204C4F414445522E4845B1
:1005D000580A0A153A45786974001D20466C617303
:1005E00068696E670A20206C6F616465722E2E2E1A
:1005F0000A0A444F4E2754205455524E204F464627
:1006000021006D560A0A504C454153450A54555233
:100610004E204F4646004C4F5720424154544552BD
:10062000590A00177361766500166261636B0015E5
:1006300074797065000A0A0A153A6F6B61792016A1
:100640003A6564697400596F7520656E74657265EA
:10065000640A00540A03E181867F3E186D830F0F00
:100660000E0183866033186DC3198F1803C38E6023
:1006700033186DE330CF1803C39E603630CDE3608E
:10068000CF3006C79E7E3E30CDB360CF300CC6F66D
:10069000603330D9B660CF33CFCCF66061B0DB1EAB
:1006A00060CF30D86CE6C061B0DB1E618F19986CEA
:1006B000C6C063B19B0E330F0FB078C6FF7E1F1B01
:1006C000061E0F1753440016137800161314001556
:1006D00010200015201000000005008930080238A5
:1006E00002497868140000450068010000050068B0
:1006F00001380100000500380168010000F6E8DB60
:10070000CFC3B8AEA49B928A827B746E68625C573A
:10071000524E4945413E3A3734312E2C2927252364
:10072000211F1D1C1A1917161514131211100F0E64
:100730000D0C0B0A090807063C0740070101F703E7
:100740000101FF0300000000240027002A00000030
:100750000000250028002B000000000023002600D8
:100760002900040404040404040402020202020234
:100770000303030303030102040810204080010265
:1007800004081020010204081020000000070002E5
:100790000100000304060000000000000000180E25
:1007A00011241FBECFEFD8E0DEBFCDBF12E0A0E026
:1007B000B1E0EEECF4E602C005900D92A038B1076E
:1007C000D9F717E0A0E8B2E001C01D92AE3AB10738
:1007D000E1F717E0C0EAD7E004C02297FE010E94CB
:1007E0002A32CE39D107C9F70E94402D0C946532C8
:1007F0000C940000A0E0B0E0E0E0F4E00C943632AD
:10080000EC01A880B980CA80DB80A114B104C104C6
:10081000D10441F484E2A82E89EDB82E8BE5C82ED0
:1008200087E0D82EC601B5012DE133EF41E050E05D
:100830000E940D3227EA31E440E050E00E949931F5
:100840007B018C01C601B5012DE133EF41E050E0A1
:100850000E940D32CA01B9012CEE34EF4FEF5FEF69
:100860000E9499316E0D7F1D801F911F97FF04C05C
:100870006150704080409048688379838A839B836D
:100880009B01AC015F77B901CA01CDB7DEB7EAE0E1
:100890000C9452320E94FA0308958AE991E00E9472
:1008A000FA03089560939A0170939B0180939C01D1
:1008B00090939D010895742F643530F547FD24C051
:1008C000403314F5842F859585958595992787FD67
:1008D0009095462F552747FD509524E530E0829F9F
:1008E000F001839FF00D929FF00D1124E40FF51F8E
:1008F000E955FA4F808190E0777002C09595879511
:100900007A95E2F78170089580E008950F931F9320
:10091000FC01062F142F643508F03FC047FD3DC091
:100920004033DCF5978D923039F4CF010E945B049F
:1009300090E0882309F491E0812F85958595859530
:10094000602F772767FD7095412F4770992399F4A1
:10095000E4E58E02F0011124E60FF71FE955FA4F86
:1009600081E090E002C0880F991F4A95E2F78095D8
:100970002081282311C0E4E58E02F0011124E60F46
:10098000F71FE955FA4F81E090E002C0880F991FE8
:100990004A95E2F72081282B20831F910F9108951B
:1009A00090918E05963069F4E0918D05F0E033E08A
:1009B000EE0FFF1F3A95E1F7EA5FFC4F818183500C
:1009C0001DC0953069F4E0918D05F0E023E0EE0F55
:1009D000FF1F2A95E1F7EA5FFC4F818182500EC02C
:1009E000943071F4E0918D05F0E083E0EE0FFF1F8D
:1009F0008A95E1F7EA5FFC4F81818150818302C0D3
:100A0000992319F0915090938E0508952F923F925B
:100A10004F925F926F927F928F929F92AF92BF920E
:100A2000CF92DF92EF92FF920F931F93CF93DF93BA
:100A30008824C4C0850133E0000F111F3A95E1F707
:100A40000A5F1C4FE80169916E5FD80111964C91C5
:100A50004C5F8EEC92E00E945B04882309F0BCC0DE
:100A6000F80160816F5F41814C5F8EEC92E00E94E3
:100A70005B04882309F0B0C09924780125E0222E78
:100A8000312C200E311E93E0692E712C600E711EE8
:100A9000650183E0CC0CDD1C8A95E1F78AE093E0E8
:100AA000C80ED91EB7E04B2E512C400E511E4EC021
:100AB000D7016C916E5F48814C5F8EEC92E00E9492
:100AC0005B04882309F041C0F70160816F5F4881B2
:100AD0004C5F8EEC92E00E945B048823B1F5988114
:100AE000892F8153873978F5D3018C91882369F553
:100AF000D601EC91F0E0EE0FFF1FEA57FC4F80812A
:100B000081508083F2011082E1E0D301EC93F8E0A0
:100B1000F0938E0380919005E6E8F3E090E0282FB3
:100B200030E0220F331F2E0F3F1F04C08081811140
:100B30009F5F3296E217F307C9F7923030F085E0F5
:100B400080938E0302C09F5F98839394D1014C9150
:100B5000242F30E0892D90E0281739070CF0A8CF1A
:100B60004F5FF8014583E50163E0CC0FDD1F6A9517
:100B7000E1F7CA5FDC4F68816E5F49814D5F8EECA3
:100B800092E00E945B04813069F068816F5F498167
:100B90004D5F8EEC92E00E945B04813071F48B819A
:100BA000882359F4F50153E0EE0FFF1F5A95E1F742
:100BB000EA5FFC4F8181815081838394A82CBB2400
:100BC0008091900520918F05829FC0011124A81665
:100BD000B9060CF42FCF0AC0F50143E0EE0FFF1F5A
:100BE0004A95E1F7EA5FFC4F1582BDCFDF91CF91C7
:100BF0001F910F91FF90EF90DF90CF90BF90AF903B
:100C00009F908F907F906F905F904F903F902F902C
:100C10000895CF93DF932091900590918C05892FB3
:100C200090E00196622F70E00E94D831982FC82F73
:100C3000D0E0FE01EE0FFF1FEA57FC4F80818823B2
:100C400071F390938C0530918F05939F402D112463
:100C50009181892F90E00196632F70E00E94D83136
:100C6000982F282F240FE22FF0E053E0EE0FFF1F04
:100C70005A95E1F7EA5FFC4F8381813051F320936D
:100C80008D05CC0FDD1FCA57DC4F998380E090E0C3
:100C9000A0E0B0E08093A1059093A205A093A305E6
:100CA000B093A40588E08093A50585E080938E032A
:100CB000DF91CF9108952F923F924F925F926F9262
:100CC0007F928F929F92AF92BF92CF92DF92EF92DC
:100CD000FF920F931F93DF93CF9300D000D0CDB737
:100CE000DEB79091900580918F05989F9001112417
:100CF0003A83298320909105309092054090930586
:100D00005090940560909505709096058090970599
:100D100090909805B0908E03AA24C92EDD24CC0CA7
:100D2000DD1C86E893E0C80ED91EBBC0870143E0F6
:100D3000000F111F4A95E1F70A5F1C4FF8018381EC
:100D4000882309F0ADC08081282F30E03C832B83BD
:100D5000B901882777FD8095982F0E948230A201E3
:100D600091010E94E32F18160CF463C08B819C81C3
:100D70000496FC01BF01882777FD8095982F0E947B
:100D80008230A20191010E94323188230CF451C0BB
:100D9000F8018181282F30E03C832B83B90188271B
:100DA00077FD8095982F0E948230A40193010E94C4
:100DB000E32F18160CF43DC08B819C810496FC0136
:100DC000BF01882777FD8095982F0E948230A4016B
:100DD00093010E943231882364F1F80187818150A8
:100DE0008783882331F5F70133E0EE0FFF1F3A9533
:100DF000E1F7E65FFC4FE081F0E0EE0FFF1FEA57FE
:100E0000FC4F80818150808321E0F8012383E6E854
:100E1000F3E090E004C0808181119F5F3296EC1571
:100E2000FD05C9F7923018F498E0B92E02C085E0AC
:100E3000B82EF70103E0EE0FFF1F0A95E1F7EA5F16
:100E4000FC4F8181813318F48081843548F113E0AF
:100E5000EE0CFF1C1A95E1F7F701E65FFC4FE0810D
:100E6000F0E0EE0FFF1FEA57FC4F80818150808336
:100E7000F701EA5FFC4F178231E03383E6E8F3E0E5
:100E800090E004C0808181119F5F3296EC15FD05D2
:100E9000C9F7923018F4E8E0BE2E02C075E0B72E14
:100EA000A394EA2CFF2489819A81E816F9060CF4B0
:100EB0003DCFB0928E030F900F900F900F90CF9177
:100EC000DF911F910F91FF90EF90DF90CF90BF9037
:100ED000AF909F908F907F906F905F904F903F90DA
:100EE0002F9008952F923F924F925F926F927F9230
:100EF0008F929F92AF92BF92CF92DF92EF92FF922A
:100F00000F931F93DF93CF93CDB7DEB729970FB61B
:100F1000F894DEBF0FBECDBF60909505709096052A
:100F20008090970590909805A0909105B0909205BB
:100F3000C0909305D0909405C601B50120E030E043
:100F400048EA52E40E94323118161CF487E080937C
:100F50008E03C601B50120E030E040E050E00E9481
:100F6000E32F88231CF487E080938E03C401B30130
:100F700020E030E040E452E40E94323118161CF4C4
:100F800087E080938E036091990570919A05809116
:100F90009B0590919C0520E030E040EF51E40E94D9
:100FA000E72F6D837E838F83988760919D05709175
:100FB0009E0580919F059091A00520E030E040EFD4
:100FC00051E40E94E72F69837A838B839C8320906E
:100FD0009105309092054090930550909405E090D3
:100FE0009905F0909A0500919B0510919C056091E0
:100FF000950570919605809197059091980520919F
:101000009D0530919E0540919F055091A0050E943D
:101010007F2F9B01AC01C401B3010E94323118162D
:101020001CF481E0898711C01986C201B101A801B1
:1010300097010E947F2F9B01AC01C601B5010E9460
:101040003231181614F4E1E0E987C601B5010E94B7
:101050004F307B018C01C401B3010E944F309B01D2
:10106000AC018EEC92E06E2D422F0E945B04813029
:10107000B1F4A0929105B0929205C0929305D092DE
:1010800094056092950570929605809297059092CE
:10109000980587E080938E030E945B0618C0F9854F
:1010A000FF23A9F4C601B5012D813E814F815885EA
:1010B0000E947F2F5B016C01C401B30129813A8139
:1010C0004B815C810E947F2F3B014C0180CF299690
:1010D0000FB6F894DEBF0FBECDBFCF91DF911F9149
:1010E0000F91FF90EF90DF90CF90BF90AF909F90C7
:1010F0008F907F906F905F904F903F902F900895CA
:101100006F927F928F929F92AF92BF92CF92DF9217
:10111000EF92FF920F931F93DF93CF93CDB7DEB77C
:101120003B01E989FA89AB89BC894130510509F055
:1011300014C121153105A1F40115110509F040C0B4
:10114000C114D10499F441E0A416B10479F4E1305A
:10115000F10561F4A130B10549F442E050E008C066
:101160000115110519F041E050E015C041E050E0D3
:10117000E114F10481F461E0C616D10461F4A11414
:10118000B10449F461E08616910429F4E130F105D7
:1011900011F443E050E021303105A1F40130110594
:1011A00009F058C061E0C616D10479F4A114B10465
:1011B00061F4309751F4109741F444E050E005C0D9
:1011C00041E050E00130110591F461E0E616F104D0
:1011D00071F4C114D10459F461E0A616B10439F4D4
:1011E0008114910421F4309711F445E050E0211569
:1011F0003105E9F401151105D1F4E114F10409F008
:10120000BDC1C114D10461F5A114B10421F4E130D0
:10121000F10509F4DDC161E0A616B104F1F4811411
:101220009104D9F43097C9F447E050E016C001307A
:10123000110581F4C114D10401F5A114B104E9F43C
:1012400081149104D1F43097C1F41097B1F448E0BF
:1012500050E013C00115110581F4E114F10469F4A3
:1012600061E0C616D10449F4A114B10431F43097F9
:1012700021F4109711F449E050E021153105E1F413
:10128000012B09F055C121E0E216F10409F07BC100
:10129000C114D10409F0A8C1A114B10409F0A4C17A
:1012A00061E08616910409F09FC1309709F09CC156
:1012B000109709F490C198C12130310509F038C167
:1012C000012B09F035C1EF2809F032C1CD2809F012
:1012D0002FC1AB2809F02CC1892809F029C1EF2BB7
:1012E00009F026C1A130B10501F578C1C114D104BE
:1012F00009F07AC1A114B10409F076C181149104F6
:1013000031F4309721F4A130B10509F46AC121E02C
:101310008216910409F068C1309709F065C11097F1
:1013200009F062C14DE050E05FC1AB2B09F000C194
:101330004EE050E0FDC0CD2809F0FAC0AB2809F01E
:10134000F7C0892809F0F4C0EF2B09F0F1C0AB2BEE
:1013500009F0EEC04FE050E0EBC001301105A9F4F8
:1013600041E0C416D10409F018C161E0A616B10429
:1013700009F00EC1309709F43DC119C1E130F10502
:1013800009F03BC146E150E044C00115110509F0E8
:101390000EC141E0C416D10409F004C161E0A616F3
:1013A000B10409F007C1E130F10509F003C147E1DB
:1013B00050E002C141E0A416B10409F025C1E130BA
:1013C000F10519F448E150E007C040E150E008C0E1
:1013D000309709F41CC11DC061E0A616B104C9F420
:1013E0003097B9F442E150E014C041E0A416B104D2
:1013F00009F0E0C0E130F10509F0DCC043E150E064
:10140000DBC0A114B10429F4E130F10511F444E189
:1014100050E021303105F9F40130110509F08BC09D
:10142000E114F10409F0CEC061E0C616D10409F060
:101430006CC021E0A216B10409F067C081149104C8
:1014400009F063C0E130F10509F05FC0A130B105DA
:1014500009F05BC0DFC0232B09F06DC0013011051E
:1014600009F069C061E0E616F10409F0D8C021E096
:10147000C216D10409F0D3C061E0A616B10409F088
:10148000CEC021E08216910409F0C9C0E130F10517
:1014900009F0C5C0109709F4C0C0C1C061E0C6160C
:1014A000D10409F0C4C021E0A216B10409F0BFC004
:1014B00061E08616910409F0BAC0E130F10509F047
:1014C000B6C0109709F4B1C0B2C021E0A216B104B1
:1014D00091F5892881F5319771F5119761F54CE106
:1014E00050E029C061E0C616D10429F521E0A2161A
:1014F000B10409F561E086169104E9F43197D9F455
:101500001197C9F44DE150E016C021E0C216D10494
:1015100091F461E0A616B10471F421E08216910401
:1015200051F4319741F4119731F44EE150E003C08A
:1015300021E030E002C020E030E0FC01EE0FFF1FB0
:10154000E80FF91FEE0FFF1FEE0FFF1FE60DF71D4F
:10155000DF01AD56BC4F2C93E157FB4F4083CF9139
:10156000DF911F910F91FF90EF90DF90CF90BF9090
:10157000AF909F908F907F906F900895C114D10489
:1015800009F06BCE48CEE114F10409F4AFCE2CC0C3
:10159000A114B10409F4F2CE30C0C114D10409F48D
:1015A00009CF05C0C114D10409F41FCF03C040E125
:1015B00050E02FCF40E150E061E0C616D10409F0C1
:1015C00028CF1FCF21E0E216F10409F467CF35C020
:1015D00046E050E020CE4AE050E006C04BE050E04C
:1015E000A7CF4CE050E093CE61E0E616F10409F09D
:1015F0009FCFA1CE45E150E00CCF40E150E0A114D7
:10160000B10409F4E5CE05CF40E150E0E5CE41E17B
:1016100050E0FFCE49E150E078CF4AE150E021E0D0
:10162000E216F10409F087CF5DCF4BE150E061E0B5
:10163000C616D10409F07FCF48CFEF2809F465CF53
:101640007ACF2F923F924F925F926F927F928F92BA
:101650009F92AF92BF92CF92DF92EF92FF920F9341
:101660001F93DF93CF93CDB7DEB729970FB6F894CA
:10167000DEBF0FBECDBF4424552421E02A833FEFB7
:101680003983DDC06E828EEC92E0662D4F810E9420
:101690005B048D836114710491F04114510431F4A1
:1016A000B1E0AB2EB12C01E010E022C08EEC92E054
:1016B0006B8149810E945B04082F10E011C0411426
:1016C000510461F4A1E0CA2ED12CF1E0AF2EB12C6F
:1016D000E1E0EE2EF12C01E010E038C001E010E076
:1016E0008EEC92E06E8149810E945B04A82EBB249F
:1016F00084E16816710421F471E0E72EF12C16C024
:101700004114510421F461E0E62EF12C08C08EEC66
:1017100092E06C8149810E945B04E82EFF246114F1
:10172000710421F451E0C52ED12C10C08EEC92E052
:101730006B814F810E945B04C82EDD2494E1691601
:10174000710421F441E0242E312C0BC08EEC92E088
:101750006C814F810E945B04282E33246114710434
:10176000A9F0EBE04E16510441F421E030E0398756
:10177000288731E0832E912C22C08EEC92E06B8181
:101780004A810E945B04882E99240FC03BE04316D7
:10179000510441F481E090E09987888721E0822E0E
:1017A000912C1FC0B1E08B2E912C8EEC92E06E81BB
:1017B0004A810E945B04E82FF0E0F987E887F4E1B2
:1017C0006F16710461F02BE04216510441F08EEC6B
:1017D00092E06C814A810E945B0490E002C081E04B
:1017E00090E000D000D028853985EDB7FEB7328370
:1017F000218394838383C301B2014D8150E098011A
:10180000850151010E9480080894611C711C3C8173
:101810003F5F3C838B818F5F8B830F900F900F9086
:101820000F90843109F02ECF0894411C511C9A81ED
:101830009F5F9A83E981EF5FE983EB3041F0662493
:101840007724F1E0FC832FEF2B834F821BCF299667
:101850000FB6F894DEBF0FBECDBFCF91DF911F91C1
:101860000F91FF90EF90DF90CF90BF90AF909F903F
:101870008F907F906F905F904F903F902F90089542
:101880002F923F924F925F926F927F928F929F9290
:10189000AF92BF92CF92DF92EF92FF920F931F937E
:1018A000DF93CF9300D000D0CDB7DEB76091950520
:1018B00070919605809197059091980520E030E011
:1018C00040E85EE30E9436310E944F307B018C017C
:1018D0006091910570919205809193059091940586
:1018E00020E030E040E85EE30E9436310E944F3055
:1018F000FB01EE0FFF1FE60FF71FEE0FFF1FEE0FAE
:10190000FF1FEE0DFF1DED56FC4F1082662477245D
:10191000CDC0EB81FC818585282F30E03A83298377
:101920004114510471F06114710429F401E010E0D4
:1019300021E030E01AC0EB81FC818081282F30E06B
:101940000FC06114710451F4A1E0CA2ED12C01E042
:1019500010E0A1E0B0E021E030E02DC021E030E077
:10196000EB81FC818485082F10E0F4E14F165104CF
:1019700019F4A1E0B0E012C06114710419F4A1E0FF
:10198000B0E005C0EB81FC81808DA82FB0E0411450
:10199000510421F4F1E0CF2ED12C0DC0EB81FC815C
:1019A0008181C82EDD24F4E14F16510421F4E1E0D9
:1019B000AE2EB12C08C0EB81FC81818DA82EBB24FA
:1019C0004114510481F0FBE06F16710431F441E0E1
:1019D00050E071E0872E912C1AC0EB81FC8182814E
:1019E000882E99240FC0FBE06F16710441F481E04A
:1019F00090E041E050E061E0862E912C17C081E03C
:101A0000882E912CEB81FC818685482F50E0F4E1F3
:101A10004F16510449F08BE06816710429F0EB81F0
:101A2000FC81828D90E002C081E090E000D000D087
:101A3000EDB7FEB75283418394838383C201B30120
:101A400049815A817D010E9480080F900F900F906C
:101A50000F9029813A812230310529F42FE1F101DB
:101A6000208322E008C089819A81039739F420E21B
:101A7000F101208323E0EB81FC8125870894411C40
:101A8000511C8CE090E0280E391EEB81FC813C96C5
:101A9000FC83EB83F5E14F16510409F03ACF08942B
:101AA000611C711C2CE06216710471F01FE8212E7C
:101AB00014E0312E260C371CC3018A579C4F9C839F
:101AC0008B834424552425CF0F900F900F900F90B7
:101AD000CF91DF911F910F91FF90EF90DF90CF900A
:101AE000BF90AF909F908F907F906F905F904F903E
:101AF0003F902F900895CF92DF92EF92FF920F9335
:101B00001F930EECC02E02E0D02E609191057091D3
:101B1000920580919305909194050E944F307B012E
:101B20008C01609195057091960580919705909133
:101B300098050E944F309B01AC01C6016E2D422FCB
:101B40000E948604609191057091920580919305A1
:101B50009091940520E030E040E85FE30E947F2F01
:101B60000E944F307B018C01609195057091960524
:101B700080919705909198050E944F309B01AC0190
:101B8000C6016E2D422F0E948604609191057091CE
:101B9000920580919305909194050E944F307B01AE
:101BA0008C016091950570919605809197059091B3
:101BB000980520E030E040E85FE30E947E2F0E941D
:101BC0004F309B01AC01C6016E2D422F0E9486044E
:101BD0006091910570919205809193059091940583
:101BE00020E030E040E85FE30E947F2F0E944F300A
:101BF0007B018C0160919505709196058091970508
:101C00009091980520E030E040E85FE30E947E2F4D
:101C10000E944F309B01AC01C6016E2D422F0E94E5
:101C200086041F910F91FF90EF90DF90CF90089561
:101C30001092D1021092D0028CE792E09093CF02E2
:101C40008093CE0208958F929F92AF92BF92CF92CF
:101C5000DF92EF92FF920F931F937C01162F55EAAC
:101C6000852E52E0952E48E1A42E42E0B42E6C0160
:101C700034E0CC0CDD1C3A95E1F7CA0CDB1CC40146
:101C800060E0F601448520E0012F0E941928C4017C
:101C900061E0F601408120E00E941928F6012085CC
:101CA0002195C40162E042850E94192894E0EE0C5F
:101CB000FF1C9A95E1F7F60124812A53C40163E0E1
:101CC00046810E941928AE0CBF1CC401F501628137
:101CD000F6014685212F0E9413291F910F91FF9035
:101CE000EF90DF90CF90BF90AF909F908F9008952E
:101CF00080E892E068E670E00E944827109298021F
:101D000081E080938E03109291038BE080938F0388
:101D100010928B0582E08093900583E080938F057D
:101D20000895EF92FF920F931F93CF93DF936091EB
:101D3000A1057091A2058091A3059091A40520E0D2
:101D400030E040E050E00E94323118160CF059C0EB
:101D50008EEC92E060E00E94ED1D8EEC92E060E07F
:101D600040E02CE004E00E94861E8EEC92E061E0F0
:101D70000E94ED1D8EEC92E060E040E00E9486043F
:101D80008EEC92E060E043E00E9486048EEC92E0EC
:101D90006BE040E00E9486048EEC92E06BE043E052
:101DA0000E948604C1E0D0E00DC08EEC92E06C2F62
:101DB00041E00E9486048EEC92E06C2F42E00E948B
:101DC00086042196BE01882777FD8095982F0E9472
:101DD00082307B018C016091A1057091A2058091F8
:101DE000A3059091A40520E030E040E85FE30E9465
:101DF0007F2F9B01AC01C801B7010E94E32F87FD33
:101E0000D4CFDF91CF911F910F91FF90EF90089564
:101E10008EEC92E060E071E00E94DF2E0895609108
:101E2000A1057091A2058091A3059091A40520E0E1
:101E300030E040E050E00E94E32F882389F48EECEC
:101E400092E06FE071E00E94DF2E60918C0570E0FF
:101E50006F5F7F4F8EEC92E04AE050E00E94CC2E04
:101E60000895EF92FF920F936EECE62E62E0F62E4D
:101E7000C70160E00E94ED1DC70164E045E02CE46D
:101E800008E10E94861EC70161E00E94ED1DC701A6
:101E900065E046E02AE406E10E94BC1E8BE08093E8
:101EA000D80281E18093D702C70161E171E00E940D
:101EB000DF2E60918C0570E06F5F7F4FC7014AE0B5
:101EC00050E00E94CC2EC70169E171E00E94E22E31
:101ED00087E08093D702C7016FE171E00E94E22E94
:101EE0000F91FF90EF9008952F923F924F925F9243
:101EF0006F927F928F929F92AF92BF92CF92DF921A
:101F0000EF92FF920F931F93DF93CF93CDB7DEB77E
:101F100060970FB6F894DEBF0FBECDBF8091A605C7
:101F20008230C1F1833030F4882371F0813009F0C0
:101F3000B6C20AC0853009F4EAC1863009F48CC201
:101F4000833009F0ACC2DEC08EEC92E062E00E9409
:101F5000ED1D60919105709192058091930590918E
:101F6000940520E030E040E85FE30E947E2F0E946D
:101F70004F307B018C0160919505709196058091A1
:101F800097059091980520E030E040E85FE30E94DB
:101F90007E2F7BC28EEC92E060E00E94ED1D60918E
:101FA000910570919205809193059091940520E0A0
:101FB00030E040E85FE30E947E2F0E944F307B01BB
:101FC0008C0160919505709196058091970590918F
:101FD000980520E030E040E85FE30E947E2F0E94F9
:101FE0004F309B01AC018EEC92E06E2D422F0E948F
:101FF00086048EEC92E062E00E94ED1DE090910577
:10200000F0909205009193051091940560909505CC
:10201000709096058090970590909805C801B7013B
:1020200020E030E040E050E40E947E2F0E944F30DC
:1020300069837A838B839C83C401B30120E030E001
:1020400040E85FE30E947E2F0E944F301B012C016D
:10205000C801B70120E030E040E85FE30E947E2F36
:102060000E944F305B016C01C401B30120E030E0FD
:1020700040E050E40E947E2F0E944F307B018C0193
:102080008EEC92E06981422D2A2D0E2D0E94F51DC5
:10209000E0909105F09092050091930510919405C0
:1020A00060909505709096058090970590909805A2
:1020B000C801B7010E944F306D837E838F8398875C
:1020C000C401B30120E030E040E85FE30E947E2FCE
:1020D0000E944F301B012C01C801B70120E030E005
:1020E00040E85FE30E947E2F0E944F305B016C014D
:1020F000C401B3010E944F307B018C018EEC92E051
:102100006D81A4C18EEC92E060E00E94ED1D6091B3
:10211000910570919205809193059091940520E02E
:1021200030E040E85FE30E947E2F0E944F307B0149
:102130008C0160919505709196058091970590911D
:10214000980520E030E040E85FE30E947E2F0E9487
:102150004F309B01AC018EEC92E06E2D422F22E0BD
:1021600002E00E94861E8EEC92E062E00E94ED1D6D
:102170008090910590909205A0909305B090940561
:1021800060919505709196058091970590919805BD
:1021900020E030E040E050E40E947E2F0E944F306B
:1021A0002B013C01C501B40120E030E040E85FE3D1
:1021B0000E947E2F0E944F306B017C01C501B4014B
:1021C0000E944F308B019C018EEC92E06C2D442DCF
:1021D000202F042D0E94F51DE0909505F0909605A6
:1021E0000091970510919805609191057091920565
:1021F000809193059091940520E030E040E85FE302
:102200000E947F2F0E944F303B014C01C801B70153
:1022100020E030E040E85FE30E947E2F0E944F30D4
:102220005B016C01C801B7010E944F307B018C013A
:102230008EEC92E0662D4A2D262D0E2D0E94F51D66
:10224000E0909505F09096050091970510919805FE
:1022500060919105709192058091930590919405FC
:1022600020E030E040E050E40E947E2F0E944F309A
:102270003B014C01C801B70120E030E040E85FE3DA
:102280000E947E2F0E944F305B016C01C801B70194
:102290000E944F307B018C018EEC92E0662D4A2D1E
:1022A000262D0E2D0E94F51D80909105909092058F
:1022B000A0909305B0909405609195057091960556
:1022C000809197059091980520E030E040E85FE329
:1022D0000E947F2F0E944F302B013C01C501B401A9
:1022E00020E030E040E85FE30E947E2F0E944F3004
:1022F0006B017C01C501B4010E944F308B019C0130
:102300008EEC92E06C2D442D202F042DA2C08EEC7B
:1023100092E060E00E94ED1D609191057091920540
:1023200080919305909194050E944F307B018C0120
:10233000609195057091960580919705909198050B
:102340000E944F309B01AC018EEC92E06E2D422F2B
:102350000E9486048EEC92E062E00E94ED1DE09007
:102360009105F09092050091930510919405A0902D
:102370009505B0909605C0909705D0909805C80136
:10238000B70120E030E040E85FE30E947E2F0E942A
:102390004F3069877A878B879C87C601B5010E9479
:1023A0004F301B012C01C801B7010E944F303B0187
:1023B0004C01C601B50120E030E040E85FE30E9437
:1023C0007E2F0E944F307B018C018EEC92E069855C
:1023D000422D262D0E2D0E94F51DE0909105F090C6
:1023E0009205009193051091940560909505709069
:1023F00096058090970590909805C801B7010E94B6
:102400004F306D877E878F87988BC401B30120E0A2
:1024100030E040E85FE30E947F2F0E944F301B01B5
:102420002C01C801B70120E030E040E85FE30E94E2
:102430007F2F0E944F305B016C01C401B3010E94E9
:102440004F307B018C018EEC92E06D85422D2A2D60
:102450000E2D0E94F51D23C08EEC92E062E00E94DA
:10246000ED1D609191057091920580919305909179
:1024700094050E944F307B018C016091950570910D
:10248000960580919705909198050E944F309B0189
:10249000AC018EEC92E06E2D422F0E948604609675
:1024A0000FB6F894DEBF0FBECDBFCF91DF911F9165
:1024B0000F91FF90EF90DF90CF90BF90AF909F90E3
:1024C0008F907F906F905F904F903F902F900895E6
:1024D0002F923F924F925F926F927F928F929F9234
:1024E000AF92BF92CF92DF92EF92FF920F931F9322
:1024F000DF93CF93CDB7DEB728970FB6F894DEBF42
:102500000FBECDBFE0918D05F0E093E0EE0FFF1F11
:102510009A95E1F7E85FFC4F8081813029F001E076
:102520001FEF83E0E82E03C002E011E0EE248EEC02
:1025300092E060E00E94ED1DE0918D05F0E0B3E0D7
:10254000EE0FFF1FBA95E1F7EA5FFC4F8081080F9D
:1025500041814F5F8EEC92E0602F0E9486048EECEA
:1025600092E061E00E94ED1D60918D05862E992418
:102570002091A505622E7724089461087108612FC7
:1025800070E0882777FD8095982F0E9482306D83B8
:102590007E838F8398876E2D70E0882777FD8095E6
:1025A000982F0E94823069837A838B839C83A3E077
:1025B000880C991CAA95E1F726E033E0820E931E61
:1025C000F401608170E0882777FD8095982F0E9444
:1025D00082307B018C01660C771C660C771CF30142
:1025E000E056FE4F608171818281938120E030E06E
:1025F00040E050E40E947F2F2D813E814F8158851D
:102600000E9436319B01AC01C801B7010E947F2FA7
:1026100029813A814B815C810E947F2F5B016C0193
:10262000F401618170E0882777FD8095982F0E94E2
:1026300082302CED31E0620E731EF3012081318176
:10264000428153810E947F2F7B018C01C601B5011D
:1026500020E030E040E85FE30E947E2F0E944F3090
:102660001B012C01C801B70120E030E040E85FE326
:102670000E947F2F0E944F303B014C01C601B501E3
:1026800020E030E040E050E00E947F2F0E944F3079
:102690005B016C01C801B70120E030E040E050E090
:1026A0000E947F2F0E944F307B018C018EEC92E0C4
:1026B000622D462D2A2D0E2D0E94F51D60918D054F
:1026C000862E99242091A505622E7724089461080E
:1026D0007108E3E0880C991CEA95E1F726E033E005
:1026E000820E931EF401608170E0882777FD80954B
:1026F000982F0E9482307B018C01660C771C660C3F
:10270000771CF301E056FE4F6081718182819381D5
:1027100020E030E040E050E40E947F2F2D813E8198
:102720004F8158850E9436319B01AC01C801B70129
:102730000E947F2F29813A814B815C810E947F2FEB
:102740005B016C01F401618170E0882777FD809561
:10275000982F0E9482302CED31E0620E731EF3013F
:1027600020813181428153810E947F2F7B018C0126
:10277000C601B50120E030E040E85FE30E947F2F12
:102780000E944F301B012C01C801B70120E030E04E
:1027900040E85FE30E947F2F0E944F303B014C01D5
:1027A000C601B50120E030E040E050E00E947F2FFC
:1027B0000E944F305B016C01C801B70120E030E09E
:1027C00040E050E40E947F2F0E944F307B018C013B
:1027D0008EEC92E0622D462D2A2D0E2D0E94F51DC5
:1027E00028960FB6F894DEBF0FBECDBFCF91DF9114
:1027F0001F910F91FF90EF90DF90CF90BF90AF901F
:102800009F908F907F906F905F904F903F902F9010
:102810000895DF92EF92FF920F931F9308ED12E05D
:102820001092D8028CE1F80182937F010A50104087
:10283000C80162E371E00E94DF2E8FE08093D8022E
:1028400020E1D22EF701D082C80168E371E00E9436
:10285000DF2E89E18093D802F701D082C80165E4B8
:1028600071E00E94DF2E83E28093D802F701D082CC
:10287000C80165E571E00E94DF2E40918B058AE07A
:10288000489FA0011124405FC8016BE029E532E0B8
:102890000E94A3201F910F91FF90EF90DF90089569
:1028A000EF92FF920F931F93CF93DF9300E010E01E
:1028B000EE2421C08881882389F090E001979C0153
:1028C000220F331F280F391F220F331F2B553E4F66
:1028D0008EEC92E06F2D4E2D0E94A3202C9684E06A
:1028E000F80E84E5F81631F70F5F1F4F84E0E80E0D
:1028F00080E3E81629F0E801C157DB4FFF24DACF67
:10290000DF91CF911F910F91FF90EF9008951F934A
:10291000CF93DF9310E038C0FE0173E0EE0FFF1F8E
:102920007A95E1F7EA5FFC4F8381882361F5858121
:10293000882349F580918D05181721F480918E0523
:10294000882309F58EEC92E061E00E94ED1DFE0106
:1029500063E0EE0FFF1F6A95E1F7EA5FFC4F8781A6
:10296000823049F0833079F4418143508EEC92E01B
:10297000608124E006C0418143508EEC92E060818A
:1029800022E00E94721E1F5FC12FD0E0809190054F
:1029900020918F05829FC0011124C817D9070CF41C
:1029A000BBCFDF91CF911F910895FF920F931F939B
:1029B000CF93DF93FF2477C08A0123E0000F111F1C
:1029C0002A95E1F70A5F1C4FF8018381EA01CC0FD9
:1029D000DD1F8823C9F4CC0FDD1FCC0FDD1FC65FC0
:1029E000DC4F888190E04E969C01220F331F280F08
:1029F000391F220F331F2B553E4F8EEC92E0608122
:102A000041810E94A3204EC0F80160816F5F8EEC6F
:102A100092E0418124E00E947C1ECC0FDD1FCC0F90
:102A2000DD1FC65FDC4F8881813059F0813028F08E
:102A30008230C9F08330B1F525C0F80141814F5F84
:102A40000BC08EEC92E0F8016081418123E00E948E
:102A5000721EF80141814E5F8EEC92E0608123E0AE
:102A60000E94721E1FC08EEC92E0F80160814181CD
:102A70000E948604F80160816E5F41814F5F8EEC99
:102A800092E00EC0F80141814F5F8EEC92E06081D0
:102A90000E948604F80160816E5F8EEC92E04181B5
:102AA0000E948604F3944F2D50E080919005209170
:102AB0008F05829FC0011124481759070CF47CCF61
:102AC000DF91CF911F910F91FF900895BF92CF9208
:102AD000DF92EF92FF920F931F9308ED12E0109296
:102AE000D8028CE1F80182937F010A501040C8019E
:102AF00066E671E00E94DF2E8FE08093D80240E10D
:102B0000B42EF701B082C8016FE671E00E94DF2E9B
:102B1000C801609190054AE050E00E947A2E3AE7A1
:102B2000C32E31E0D32EC801B6010E94DF2E89E109
:102B30008093D802F701B082C8016CE771E00E946F
:102B4000DF2EC80160918F054AE050E00E947A2E86
:102B5000C801B6010E94DF2E83E28093D802F701FC
:102B6000B082C80167E871E00E94DF2E40918B05BA
:102B70008AE0489FA0011124405FC8016BE029E56D
:102B800032E00E94A3201F910F91FF90EF90DF9001
:102B9000CF90BF9008958F929F92AF92BF92CF92A5
:102BA000DF92EF92FF920F931F93CF93DF932091C9
:102BB0009103822F63E00E94B83191E1899FC001A7
:102BC00011244D977CF0822F90E0039763E070E032
:102BD0000E94D831CB01F4E0880F991FFA95E1F7F4
:102BE000860F11C08EEC92E063E047E027E10EE033
:102BF0000E94BC1E8EEC92E064E049E023E134E0E8
:102C00000E94A32080E0DD24EBE18E2E912C78E061
:102C1000C72EC81A66E2A62EB12C51C02D2D30E069
:102C200079010894E11CF11CC70163E070E00E9487
:102C3000D831889DE001899DD00D989DD00D11243B
:102C4000CE018C5F482FC70163E070E00E94D8314D
:102C5000CB0154E0880F991F5A95E1F7860F971F13
:102C60001C2D180FC9018A9D90018B9D300D9A9DD6
:102C7000300D11242F583D4F8EEC92E0642F412FE0
:102C80000E94A320CE018D5F682F412F41508EEC12
:102C900092E027E10EE00E94BC1E8091910390E03B
:102CA000E816F90659F4CE018E5F682F12508EECAB
:102CB00092E0412F29E100E10E94BC1ED394809153
:102CC0008F03D81608F4AACF8EEC92E060E00E9441
:102CD000ED1D8EEC92E060E040E024E506E00E940D
:102CE000861E8EEC92E061E00E94ED1D80919103C2
:102CF000882391F48BE18093D7028EEC92E066E614
:102D000071E00E94DF2E8EEC92E062E046E029E165
:102D100000E10E94BC1E11C08CE18093D7028EECB2
:102D200092E06CE871E00E94DF2E8EEC92E0609100
:102D300091034AE050E00E947A2EDF91CF911F91DB
:102D40000F91FF90EF90DF90CF90BF90AF909F904A
:102D50008F9008952F923F924F925F926F927F9241
:102D60008F929F92AF92BF92CF92DF92EF92FF929B
:102D70000F931F93DF93CF93CDB7DEB765970FB651
:102D8000F894DEBF0FBECDBF8E010F5F1F4F7801DD
:102D90009E012A5E3F4F8E2D801BD7018D937D01B2
:102DA000A217B307C1F76E010894C11CD11C60E0E3
:102DB00070E080E090E025E130E040E050E00E94EB
:102DC000602FF8019081F601E60FF11D8081D80196
:102DD0008D938D019083AE15BF0549F777242E01A1
:102DE0000894411C511C22242394F4E16F2E3324B7
:102DF0003A94AFC09501E3E0220F331FEA95E1F763
:102E00002A5F3C4FF901138283E08783F50173E069
:102E1000EE0FFF1F7A95E1F7E65FFC4F872D90E0FC
:102E200070E00E94C4316083D90115961C921597F9
:102E300016961C921697F201EA0DFB1D8080E82C75
:102E4000FF24C701880F991F880F991F8C93C70112
:102E50008170907080FE28C0019709F066C0CC2474
:102E60005BE0D52E4CE2942E89010F5F1F4F8EEC54
:102E700092E0682D4D2D0E945B04882361F4CC20E4
:102E800051F48EEC92E0682D4D2D0E948604F801DD
:102E90009082CC24C394DA94FCEF9F0EDD2039F7A6
:102EA000CC2009F042C02CC09924DD24CC24890117
:102EB0000F5F1F4F8EEC92E0682D4C2D0E945B043B
:102EC000882309F054C0DD2009F051C09C2C12C0A9
:102ED000DD2081F48EEC92E0682D492D0E9486045D
:102EE000892D90E0880F991F880F991FD8018C9326
:102EF000DD24D394C394BBE0CB16E1F6DD20A9F426
:102F0000F701EE0FFF1FEE0DFF1DEE0FFF1FEE0F7F
:102F1000FF1FED56FC4F1582F50103E0EE0FFF1F7A
:102F20000A95E1F7EA5FFC4F6182F501EE0FFF1FA2
:102F3000EE0FFF1F8AE0881530F4EE0FFF1FE85FE9
:102F4000FC4F308205C0EE0FFF1FE85FFC4F208270
:102F50007394A72CBB2460918F0580919005689F86
:102F6000C0011124A816B9060CF444CF04C099205E
:102F700009F0AECFBFCF65960FB6F894DEBF0FBE97
:102F8000CDBFCF91DF911F910F91FF90EF90DF9018
:102F9000CF90BF90AF909F908F907F906F905F90F9
:102FA0004F903F902F900895EF92FF920F93AEECC9
:102FB000EA2EA2E0FA2EC70160E00E94ED1DC701D3
:102FC00060E040E025E10CE00E94861EC70161E060
:102FD0000E94ED1D2091920386E2289F900111240A
:102FE0002F583D4FC70160E040E00E94A3200E949F
:102FF000210B0E94AA16C70160E00E94ED1DC701C7
:1030000060E040E025E10E94861EC70161E00E9469
:10301000ED1D83E080938E030F91FF90EF90089554
:1030200080E892E00E944E270E94780E0895AF92A9
:10303000BF92CF92DF92EF92FF920F931F93CF93A5
:10304000DF9380918E03853009F40EC1863030F411
:10305000813059F0843009F0EDC2C8C0883009F4DD
:10306000FAC0893009F0E6C25CC08AE892E063E009
:103070000E949D1D882379F040919103242F30E018
:103080002E5F3F4F80918F0390E0281739071CF483
:103090004D5F409391038AE892E061E00E949D1D9C
:1030A000882349F020919103822F90E003971CF030
:1030B0002350209391038AE892E062E00E949D1DD4
:1030C000882369F040919103242F30E080918F0391
:1030D00090E0281739071CF44F5F409391038AE86A
:1030E00092E060E00E949D1D882339F08091910359
:1030F000882319F08150809391038AE892E064E07C
:103100000E949D1D882309F495C280919103882314
:1031100031F489E080938E0310928B058BC282E09C
:1031200062C08AE892E063E00E949D1D882339F026
:1031300080918B05823018F48F5F80938B058AE82D
:1031400092E061E00E949D1D882339F080918B05FB
:10315000882319F0815080938B058AE892E062E021
:103160000E949D1D8823A9F080918B05882341F43E
:1031700080919005843068F48F5F8093900509C03A
:10318000813039F480918F05843018F48F5F8093FB
:103190008F058AE892E060E00E949D1D8823A9F0D7
:1031A00080918B05882341F480919005833068F0ED
:1031B00081508093900509C0813039F480918F054A
:1031C000823018F0815080938F058AE892E064E0A5
:1031D0000E949D1D882309F42DC280918B058230A9
:1031E00009F028C281E080938E0324C28AE892E02D
:1031F00063E00E949D1D882339F080918B05823009
:1032000018F48F5F80938B058AE892E061E00E945A
:103210009D1D882339F080918B05882319F08150FA
:1032200080938B058AE892E064E00E949D1D8823CC
:1032300009F400C280918B058130A9F2813020F021
:10324000823009F0F7C102C085E0CDCF80E892E07E
:103250000E944E27EFC18AE892E064E00E949D1D23
:10326000882309F4E7C1BECF8AE892E064E041E038
:103270000E94A71D882309F4C9C1E090A105F09020
:10328000A2050091A3051091A405C801B70120E093
:1032900030E040E251E40E94E32F88230CF0B6C1F5
:1032A000C801B70120E030E040E85FE30E947F2FD3
:1032B0006093A1057093A2058093A3059093A40544
:1032C000B9C186E080938E0380918D05C82FD0E030
:1032D000FE01A3E0EE0FFF1FAA95E1F7E85FFC4FA8
:1032E0008081FE0173E0EE0FFF1F7A95E1F78130D8
:1032F000F9F4EA5FFC4F608170E06C5F7F4F8827D4
:1033000077FD8095982F0E9482306093910570938D
:10331000920580939305909394050F2EF0E0AF2EC5
:10332000F0E0BF2EF0E8CF2EFFE3DF2EF02D1EC021
:10333000EA5FFC4F608170E061507040882777FD44
:103340008095982F0E94823060939105709392052A
:1033500080939305909394050F2EF0E0AF2EF0E04C
:10336000BF2EF0E8CF2EFFEBDF2EF02D63E0CC0F69
:10337000DD1F6A95E1F7CA5FDC4F698170E061503B
:103380007040882777FD8095982F0E948230609347
:103390009505709396058093970590939805609195
:1033A000A505C62FD0E02197C801B70120E030E085
:1033B00040E450E40E94E72F7B018C01CC0FDD1F1D
:1033C000CC0FDD1FFE01E056FE4F608171818281CE
:1033D000938120E030E040EA50E40E94E72FA8010A
:1033E00097010E943631A60195010E943631609303
:1033F000990570939A0580939B0590939C05C45200
:10340000DE4F688179818A819B8120E030E040EA4B
:1034100050E40E94E72FA80197010E943631609383
:103420009D0570939E0580939F059093A00502C112
:103430008AE892E061E041E00E94A71D882339F00C
:103440008091A505823018F081508093A5058AE807
:1034500092E063E041E00E94A71D882339F080914B
:10346000A5058F3018F48F5F8093A5058AE892E058
:1034700062E00E949D1D882361F0E0918D05F0E0DF
:1034800043E0EE0FFF1F4A95E1F7E85FFC4F81E054
:1034900028C08AE892E062E041E00E94A71D8823EC
:1034A00009F1E0918D05F0E033E0EE0FFF1F3A9552
:1034B000E1F7EA5FFC4F60816C5F41814D5F8EEC0C
:1034C00092E00E945B04882369F4E0918D05F0E0AE
:1034D00023E0EE0FFF1F2A95E1F7EA5FFC4F8081A2
:1034E0008F5F80838AE892E060E00E949D1D8823C0
:1034F00061F0E0918D05F0E093E0EE0FFF1F9A95EB
:10350000E1F7E85FFC4F108229C08AE892E060E0B2
:1035100041E00E94A71D882309F1E0918D05F0E0AC
:1035200083E0EE0FFF1F8A95E1F7EA5FFC4F6081B1
:10353000615041814D5F8EEC92E00E945B048823D4
:1035400069F4E0918D05F0E003E0EE0FFF1F0A95AE
:10355000E1F7EA5FFC4F8081815080838AE892E046
:1035600065E00E949D1D882309F445C080918E0569
:10357000882309F040C06091A1057091A205809157
:10358000A3059091A40520E030E040E050E00E94C7
:10359000E32F882381F5E0918D05F0E013E0EE0F35
:1035A000FF1F1A95E1F7EA5FFC4F418143508EEC13
:1035B00092E060810E945B048823E9F4E0918D052C
:1035C000F0E0B3E0EE0FFF1FBA95E1F7EA5FFC4FC2
:1035D00060816D5F418143508EEC92E00E945B04FC
:1035E000882349F485E090E060E070E00E94230EBB
:1035F00086E080938E058AE892E066E00E949D1D39
:103600008823C1F010928B0584E0EDCDE090A105F8
:10361000F090A2050091A3051091A405C801B7017F
:1036200020E030E040E050E00E94323118160CF407
:1036300048CEFECEDF91CF911F910F91FF90EF907A
:10364000DF90CF90BF90AF900895AF92BF92CF928E
:10365000DF92EF92FF920F931F9380E892E00E9417
:103660002C25882309F463C180918E03853009F4E9
:103670006BC0863078F4823011F1833020F48130D1
:1036800009F055C114C0833009F44DC0843009F0ED
:103690004EC157C0873009F422C1873008F4B8C042
:1036A000883009F43CC1893009F041C105C00E944D
:1036B00017180E94CB153BC10E94661536C1809138
:1036C00091038150809392030E94D417209190051A
:1036D0002093900380E090E0A0E0B0E08093A1050B
:1036E0009093A205A093A305B093A40588E08093CE
:1036F000A5058AE08093A60510928E0510928C0590
:1037000010928D0580918F05E6E8F3E030E0220FFE
:10371000331F2E0F3F1F03C0808311823296E217A2
:10372000F307D1F704C10E94080F8091A6058150CC
:103730008093A605882309F0FAC085E080938E0364
:10374000F6C00E940914F1C00E9450140E94D514C2
:103750000E94910E0E940F0FE0918D05F0E003E0B2
:10376000EE0FFF1F0A95E1F7EA5FFC4F8681882381
:1037700011F40E9417180E94D00480918E058330A6
:1037800060F50E940605E0918D05F0E013E0EE0F74
:10379000FF1F1A95E1F7EA5FFC4F83818130E9F45E
:1037A0000E94090688E080938E0380919005E6E8E8
:1037B000F3E090E0282F30E0220F331F2E0F3F1F41
:1037C00004C0808181119F5F3296E217F307C9F729
:1037D000923018F085E080938E030E9487146091E8
:1037E000A1057091A2058091A3059091A40520E008
:1037F00030E040E050E00E94E32F882309F097C0BA
:1038000080918E05882309F092C00E9468128FC0B3
:1038100080E090E060E070E00E94230E0E9450146F
:103820000E94D514A0909905B0909A05C0909B0570
:10383000D0909C05609191057091920580919305BF
:1038400090919405A60195010E947F2F60939105A8
:10385000709392058093930590939405E0909D0555
:10386000F0909E0500919F051091A005609195052F
:10387000709196058091970590919805A801970100
:103880000E947F2F6093950570939605809397050E
:1038900090939805C601B50120E030E040E050E08B
:1038A0000E947F2F6093990570939A0580939B05E2
:1038B00090939C05C801B7012FE135E84BE65EE324
:1038C0000E947F2F60939D0570939E0580939F05B6
:1038D0009093A0050E9472070E947B0D28C081E092
:1038E00090E060E070E00E94230E0E9450140E945D
:1038F000D5148091A6058F5F8093A6050E94740F52
:103900008091A605843019F0873079F403C00E94B5
:10391000400C0BC01092A6050E94090606C00E942A
:1039200050140E94D5140E94310F0E9417181F9145
:103930000F91FF90EF90DF90CF90BF90AF900895E0
:10394000882319F48CB5806202C08CB58F7D8CBD44
:1039500008959CB5937F982B9CBD08952CB5382F66
:1039600033702C7F322B3CBD2DB590E0959587951B
:103970009595879581702E7F822B8DBD08958AE065
:1039800061E00E94982C8AE061E00E94592C8CB57D
:1039900080618CBD8CB580648CBD8DE061E00E943F
:1039A000592C8BE061E00E94592C0895FC0181E0C4
:1039B0008083089585E070E00E94F92B08956F924E
:1039C0007F928F929F92AF92BF92CF92DF92EF92AF
:1039D000FF920F931F93CF93DF93EC0189819A811C
:1039E0008C0124E0000F111F2A95E1F7081B190B29
:1039F00085E10E94D72BBC01600F711F84E0769592
:103A000067958A95E1F77A8369838881882381F1B4
:103A10002E813F816217730710F4B90106C08885B3
:103A200099858617970708F4BC0100D000D080E084
:103A300090E040E050E0E884F98400E010E0AD80E0
:103A4000BB24CC24DD246C80772488249924EDB712
:103A5000FEB761827282838294820E94F52E6B830C
:103A60000F900F900F900F9085E070E00E94F92B5F
:103A7000DF91CF911F910F91FF90EF90DF90CF904A
:103A8000BF90AF909F908F907F906F900895FC01B2
:103A90008CE39FE09383828384E0818381E0848749
:103AA0000895CF93DF93EC018C8590E08F71907037
:103AB000892B69F584E10E94D72BAA2797FDA09551
:103AC000BA2FBC01CD010E94823026EE3FE34EECBE
:103AD00050E40E9436310E9454309B01AC017B833C
:103AE0006A836115710589F084E08983B901FE015B
:103AF00020E0848195816817790710F429830AC032
:103B00002F5F32962430A9F702C08FEF89838C850E
:103B10008F5F8C87DF91CF910895FC0188E08083CF
:103B200089E0818387E0828386E0838384E08483E5
:103B300082E0858381E18683089520E0FC01E60F21
:103B4000F11D8781813009F421E0822F0895E62F4D
:103B5000F0E0423040F420E0E80FF91F8781815007
:103B60008E3F88F40FC0E80FF91F87818F3F11F453
:103B700020E009C020E090E0642F70E00E94C43192
:103B8000019709F421E0822F08950F931F93CF939B
:103B9000DF93EC0110E00FEF888162E00E94592C66
:103BA00088810E94EC2C2F81892B19F42F5F2F83A1
:103BB00007C0222349F02F3F11F41F8201C00F8359
:103BC000888160E00E94592C1F5F2196173021F7F1
:103BD000DF91CF911F910F910895FC01678F60A332
:103BE0000895FC01678F40A30895AF92BF92CF92D2
:103BF000DF92EF92FF920F931F93CF93DF93EC012D
:103C0000162FF42EE22EAA24402F552747FD50955B
:103C10008F2D992787FD9095481B590B57FF03C09F
:103C2000509541955F4F2E2D332727FD3095812FDD
:103C3000992787FD9095281B390B37FF03C03095D6
:103C400021953F4F2417350744F4AA24A3948F2DC0
:103C5000F12E182F802F0E2DE82EE11634F48E2D24
:103C6000E12E182F802F0F2DF82EDE2CD11A202FA9
:103C7000332727FD30958F2D992787FD9095281B99
:103C8000390B37FF03C0309521953F4FB22EF01608
:103C90001CF0CC24CA9402C0CC24C3948D2DD7FC34
:103CA0008F5F082F059511C0AA2021F0CE016F2D3E
:103CB000412F03C0CE01612F4F2D0E9486040B19A6
:103CC00007FF02C0FC0C0D0D1F5FE1166CF7DF91C2
:103CD000CF911F910F91FF90EF90DF90CF90BF9009
:103CE000AF9008950F93042F322F262F2150230FCA
:103CF0000E94F51D0F9108950F93362F042F015048
:103D0000020F232F0E94F51D0F9108959F92AF92ED
:103D1000BF92CF92DF92EF92FF920F931F93CF93B8
:103D2000DF936C01B62E942EA02EC0E0D0E0E62EDC
:103D3000FF24E7FCF094022F112707FD10950E0DCC
:103D40001F1D06C0C601492D2A2D0E947C1E2196EA
:103D50006B2D6C0FCE018E0D9F1D8017910794F374
:103D6000DF91CF911F910F91FF90EF90DF90CF9057
:103D7000BF90AF909F900895CF92DF92EF92FF9205
:103D80000F931F937C01162FD42EC22E0E94721EF9
:103D90004D2D4150400FC701612F2C2D0E94721EE6
:103DA000C701612F4D2D202F0E947C1E11501C0D2C
:103DB000C701612F4D2D202F0E947C1E1F910F9156
:103DC000FF90EF90DF90CF9008952F923F925F92F7
:103DD0006F927F928F929F92AF92BF92CF92DF921B
:103DE000EF92FF920F931F93DF93CF9300D000D0F9
:103DF00000D0CDB7DEB79E838D83C62ED42EEE24A1
:103E0000E394E21A8EEF289F502C1124842E8A947A
:103E1000962E9A94A42EA394B62EB394F22E6624D2
:103E200023E0722E10E0C801847090709A83898319
:103E3000F801E270F070FC83EB8398E0292E312CBE
:103E4000202231220170107054C0E7FC04C0FA94A3
:103E5000F2E05F0EE50C639489819A81892B71F001
:103E60004F2D4D0D8D819E816B2D0E9486046F2DEF
:103E70006C0D8D819E814A2D0E948604EB81FC8110
:103E8000EF2B71F04D2D4F198D819E816B2D0E946E
:103E900086046F2D6C0D8D819E81482D0E948604B5
:103EA0002114310471F06C2D6F198D819E814A2D82
:103EB0000E9486044F2D4D0D8D819E81692D0E949B
:103EC00086040115110571F06C2D6F198D819E818D
:103ED000482D0E9486044D2D4F198D819E81692D9C
:103EE0000E948604E70CF2E07F0E8A949A94A394D1
:103EF000B3946F140CF4A9CF26960FB6F894DEBFD6
:103F00000FBECDBFCF91DF911F910F91FF90EF902A
:103F1000DF90CF90BF90AF909F908F907F906F90E9
:103F20005F903F902F9008954F925F926F927F9293
:103F30008F929F92AF92BF92CF92DF92EF92FF92B9
:103F40000F931F93CF93DF93EC01A62E742E9E2D1B
:103F5000FF24F394F21A8EEF289F802C1124B42EA4
:103F6000BA9453E0C52ECE0CE22EDD2443E0942E0D
:103F700010E031E0432E512C40225122692E6394EF
:103F80000270107034C0F7FC04C0EA9482E0880E1E
:103F9000F80CD3944114510489F06D2D6A0D472D0E
:103FA0004E192E2D220F260DCE010E947C1E6E2D45
:103FB0006A0DCE014B2D2C2D0E947C1E0115110582
:103FC00089F06A2D6D19472D4E192E2D220F260DC1
:103FD000CE010E947C1E6A2D6E19CE014B2D2C2D18
:103FE0000E947C1EF90C82E0980EBA94C80EDE1472
:103FF00054F2DF91CF911F910F91FF90EF90DF90DE
:10400000CF90BF90AF909F908F907F906F905F9078
:104010004F9008957F928F929F92AF92BF92CF92CE
:10402000DF92EF92FF920F931F936C01962EA42EB6
:10403000F22E7E2C760E1EEFE19E102D1124812E85
:10404000820E672D282D0E94721EB02EBA0CBA94D3
:10405000C601672D4B2D282D0E94721EAE0C100F2D
:10406000C601692D4A2D212F0E947C1EF90CFA945D
:10407000C6016F2D4A2D212F0E947C1EC601672D7F
:104080004A2D2E2D01E00E94E51EFE18C6016F2D5F
:104090004A2D2E2D02E00E94E51EBE18C6016F2D8E
:1040A0004B2D2E2D04E00E94E51EC601672D4B2DE1
:1040B0002E2D08E00E94E51E1F910F91FF90EF90BA
:1040C000DF90CF90BF90AF909F908F907F9008959A
:1040D0008F929F92AF92BF92CF92DF92EF92FF9218
:1040E0000F931F936C01162FA42E922EF02EBE2C30
:1040F0008E2C860E2EEFE29EE02C11242E2D290D03
:10410000682D0E94861EAB0CFA94FE0C1150190DFE
:104110001B19C601612F4A2D2B2D01E0EF2C0E94A7
:10412000941FC601682D4A2D2B2D02E00E94941F7A
:104130001F910F91FF90EF90DF90CF90BF90AF90C5
:104140009F908F9008953F924F925F926F927F92CF
:104150008F929F92AF92BF92CF92DF92EF92FF9297
:104160000F931F93CF93DF934C01362E442EF9010A
:10417000A490319654906F010894C11CD11C8A2DD3
:10418000992787FD9095079668E070E00E94D831E6
:10419000E62EFF24E7FCF09400E0C0E0D0E060E809
:1041A000662E712C26C0E12FE595E595E595FF2754
:1041B000E7FDF095EC0FFD1FEC0DFD1DE4912E2F9A
:1041C00030E0812F8770A30102C0559547958A95ED
:1041D000E2F724233523232B31F0612F630DC40133
:1041E0004B2D0E9486041F5F1A15ECF20F5FCE0D57
:1041F000DF1D051524F410E0B02EB40CF5CFDF91CF
:10420000CF911F910F91FF90EF90DF90CF90BF90D3
:10421000AF909F908F907F906F905F904F903F9066
:1042200008953F924F925F926F927F928F929F92EA
:10423000AF92BF92CF92DF92EF92FF920F931F93B4
:10424000CF93DF93EC01862EA42E422F102F3F8CAC
:1042500023E526170CF4ABC03FE23A150CF4A7C0D7
:10426000C02EDD248C8190E001979C01C29EC0018C
:10427000C39E900DD29E900D1124262F332727FD2B
:104280003095820F931F181619060CF090C08D817F
:1042900090E09C01C29EC001C39E900DD29E900DE5
:1042A00011242A2D332727FD3095820F931F1816CE
:1042B00019060CF07CC09924442E55246DC09C0135
:1042C000215030404217530711F460E00EC0429E67
:1042D000C001439E900D529E900D1124840F951F96
:1042E000ED8DFE8DE80FF91F64914C9DC0014D9D31
:1042F000900D5C9D900D1124682C680EBB24792CC8
:10430000780C3FC0E62EFF2460FF19C0113039F44D
:104310004B2D4A0DCE01672D0E9486042EC02C9D88
:10432000C0012D9D900D3C9D900D11244A2D480FEC
:10433000CE01662D212F012F0E94861E1EC098A13E
:104340008F8D9817D1F09F8F113039F44B2D4A0D76
:10435000CE01672D0E9486040FC02C9DC0012D9DAB
:10436000900D3C9D900D11244A2D480FCE01662DD5
:10437000212F012F0E94861E3F8EF594E7946E2D0B
:10438000B3942B2D332727FD30958D8190E028178E
:1043900039070CF4B7CF9394492D552747FD509515
:1043A0008C8190E0481759070CF489CF3F8EDF913C
:1043B000CF911F910F91FF90EF90DF90CF90BF9022
:1043C000AF909F908F907F906F905F904F903F90B5
:1043D00008950F93CF93DF93EC01262F6A3049F4B1
:1043E0008D819885899F802D11249A85980F9A87B1
:1043F00026C06D3029F169854A8508850E94112102
:104400009C816885969F402D11248985480F498796
:104410008F818823A9F0552747FD5095699F90010A
:10442000112484E590E0821B930B8417950744F4D4
:104430009D81699F902D11248A85890F8A8719860D
:1044400081E090E0DF91CF910F9108951F93CF937A
:10445000DF93EC01162FF8948E8560E00E94982C73
:104460008F8518161CF460E00E94982C1EBD0DB4B8
:1044700007FEFDCF8EB58F8518161CF461E00E94F3
:10448000982C7894DF91CF911F910895FF920F930C
:104490001F93CF93DF93EC01FF2400E010E06F2D1A
:1044A0006064CE010E942622CE0160E80E9426228E
:1044B0008E8561E00E94982C8F8518161CF460E0B0
:1044C0000E94982CF801E955FA4F90E080818EBD4A
:1044D0000DB407FEFDCF8EB59F5F31969435B1F7D1
:1044E0008F8518161CF461E00E94982CF3940C5AE6
:1044F0001F4F86E0F81699F6CE0160E40E9426224E
:10450000DF91CF911F910F91FF900895CF93DF938B
:10451000DC0188EF91E0E7EAF5E0EF019C011992F8
:1045200021503040E1F719961C9219971A961C9267
:10453000DF91CF910895EF920F93CF93DF93EC012A
:104540004D876C872E87E88A0F8781E088878F8F59
:1045500018A28F83E3E3F4E084918F5F8C8331961C
:1045600084918F5F8D833196FE8FED8F0E94BF1CEB
:1045700081E00E94A01C85E00E94AE1C8CE00E949D
:10458000A91C8D8561E00E94592C8C8561E00E94F8
:10459000592C8E8561E00E94592C888918161CF4CC
:1045A00061E00E94592C8F8518161CF461E00E946E
:1045B000592C888918166CF460E00E94982C6AE0E7
:1045C00070E080E090E00E94432B888961E00E94C7
:1045D000982CEC852E2F332727FD3095F901EE59C5
:1045E000F84FE491F0E0EE0FFF1FE25BF84F85918A
:1045F00094919C8B8B8B2A58384FF90184918A8F28
:10460000ED852E2F332727FD3095F901EE59F84F10
:10461000E491F0E0EE0FFF1FE25BF84F859194917B
:104620009A8B898B2A58384FF9018491898FEF85AD
:104630002E2F332727FD3095F901EE59F84FE491DD
:10464000F0E0EE0FFF1FE25BF84F859194919E8B97
:104650008D8B2A58384FF90184918B8FEE852E2F40
:10466000332727FD3095F901EE59F84FE491F0E03A
:10467000EE0FFF1FE25BF84F85919491988F8F8B1F
:104680002A58384FF90184918C8FCE0161E20E9443
:104690002622CE0164E10E9426228B8587FF02C07C
:1046A0008FE78B876B856068CE010E942622CE0142
:1046B00060E20E942622CE016CE00E942622CE01FA
:1046C0000E944622DF91CF910F91EF900895CF93F2
:1046D000DF93DC01E0E8F7E785919491ED01C75A9B
:1046E000DF4FAD0141595F4F8150904C09F04EC0F2
:1046F000E6E9F7E7E491E883E7E9F7E7E491149660
:10470000EC931497E8E9F7E7E4911596EC93159785
:10471000E9E9F7E78591949117969C938E93169704
:10472000EBE9F7E78591949119969C938E931897EE
:10473000EDE9F7E7E4919B96EC939B97EEE9F7E7B9
:10474000E4919A96EC939A97EFE9F7E7E491EA01FE
:10475000E883E0EAF7E7859194915D969C938E93C8
:104760005C97E2EAF7E7859194915F969C938E932C
:104770005E97E4EAF7E78591949191969C938E93E6
:104780009097E6EAF7E78591949132C08CE38883AD
:1047900014961C9214972FEF15962C93159780E280
:1047A00093E017969C938E93169784ED93E0199659
:1047B0009C938E93189781E09B968C939B979A96E7
:1047C0008C939A97FA0120838CEA9DE05D969C93E6
:1047D0008E935C978EED9DE05F969C938E935E9793
:1047E00084E79EE091969C938E9390978CE39FE054
:1047F00093969C938E939297DF91CF910895EF9229
:10480000FF920F931F93CF93DF937C018C01025B88
:104810001F4FC8010E948622C8016AED75E00E9400
:104820007B2DC8010E94462283E00E94AE1C83E9D2
:1048300091E0EEEFFFE3099584E590E0E80EF91EC4
:10484000F7011082C80165EB75E00E94C62DC80112
:104850000E944622E701CA54D040CE010E94C51DE5
:10486000CE0164E00E949D1D882339F462E370E06C
:1048700080E090E00E94432BF0CFDF91CF911F9119
:104880000F91FF90EF9008950F931F93CF93DF93B5
:10489000EC018C01025B1F4FC80161E040E00E9407
:1048A000F11DFE01E95AFF4FCE5ADF4F85E5988191
:1048B000891B808326961882C855D040698D613047
:1048C00009F43EC0613028F0888D653008F051C091
:1048D0004BC0CE0185960E941528CE0160E00E9453
:1048E000DA1CC8010E948622CA5ADF4F81E0888301
:1048F000C655D040C80166E176E00E947B2D6A8DE6
:104900007B8DC8014AE050E00E94692EC80162E038
:1049100076E00E947B2DC8010E94462283B7817FEA
:10492000846083BF83B7816083BF83B7816083BFA7
:10493000889583B78E7F83BF83B78E7F83BF1FC069
:10494000C059DF4F88819981AA81BB818F70907097
:10495000A070B0700897A105B10518F4C80167E010
:104960000CC0C80168E709C0882349F06B5FC80123
:1049700004C0882321F0C8016FE20E949E2DDF91C0
:10498000CF911F910F910895AF92BF92CF92DF9276
:10499000EF92FF920F931F93CF93DF93EC01CB57CE
:1049A000DF4F8881C558D040882309F44AC08C3035
:1049B00010F010E002C01CE0181BCA5ADF4F81E063
:1049C0008883C655D0406EE4C62ED12CCC0EDD1E99
:1049D000C60160E00E94ED1D53E5A52EB12CAC0E82
:1049E000BD1EF50100814DE2F42E4F2D401B410FFD
:1049F0000D5FC60160E024E533E0E32E0E946820ED
:104A0000C60161E00E94ED1DF5010081F01AF10E72
:104A10000D5FC60160E04F2D24E50E940A20C95AAF
:104A2000DF4F84E08993F5018081181B115D1883A5
:104A3000AB9669917991C6010E947B2D8881815046
:104A40008883DF91CF911F910F91FF90EF90DF90BE
:104A5000CF90BF90AF900895AF92BF92CF92DF9268
:104A6000EF92FF920F931F93CF93DF93EC01EFE749
:104A7000AE2EB12CA80EB91EF501E080F1800281A6
:104A800013810E940F2BE61AF70A080B190B7EE719
:104A9000C72ED12CCC0EDD1EF601808190E0A0E067
:104AA000B0E08E159F05A007B10708F081C08E0108
:104AB00006581F4FF80180819181A281B381009730
:104AC000A105B10509F474C00E940F2BF6012081E5
:104AD000620F711D811D911DF501608371838283B9
:104AE0009383FE01E059FF4F80819181A281B381C0
:104AF0000196A11DB11D80839183A283B383F80128
:104B000010821182128213820E941D2BCA58DF4F1D
:104B1000688379838A839B83C657D040CE010E94E5
:104B2000DF1CCE010A960E94C51DCE0148960E9448
:104B3000511D81E032C08E010B5D1F4FC8010E94E4
:104B40001128C8010E940F29C8010E94172ACE010E
:104B50000E94C424CE010E9444248E01025B1F4F98
:104B6000C8010E944622CC5ADF4F8881C455D040EC
:104B7000882319F4C8010E9486220E941D2BC65862
:104B8000DF4F688379838A839B83249728813981C7
:104B9000621B730B7A936A9380E0DF91CF911F9130
:104BA0000F91FF90EF90DF90CF90BF90AF9008955E
:104BB000C658DF4F88819981AA81BB81CA57D040EE
:104BC0000097A105B10541F7B6CF2F923F924F92C2
:104BD0005F926F927F928F929F92AF92BF92CF928D
:104BE000DF92EF92FF920F931F93DF93CF93CDB796
:104BF000DEB72B970FB6F894DEBF0FBECDBF9B87F5
:104C00008A877A8369835C834B838C0101591F4FA8
:104C1000F8018081882309F422C18A859B858A5AFC
:104C20009F4F9B878A8781E0EA85FB85808312926C
:104C30001292E455F040FB87EA87108E9EE4E92E3D
:104C4000F12CEE0EFF1EC70161E00E94ED1D8AE00F
:104C5000282E312C8A859B85280E391EB5E26B2EB5
:104C6000712C680E791EE981FA81F491FD83A7E524
:104C70008A2E912C880E991EF8E5CF2ED12CC80EC5
:104C8000D91EE2E54E2E512C480E591E8D5A9F4FCB
:104C90009F838E8370E7A72EB12C8A859B85A80EF3
:104CA000B91E198708878A859B850E942C25882331
:104CB000D1F39D81992311F410E003C0EE81FF81AF
:104CC0001081C70160E040E023E536E00E94A320A8
:104CD0008B819C81892B41F0145FC70160E0412FDB
:104CE0002B813C810E94A320F40110828CE0F6010C
:104CF0008083C70169817A810E947B2DF201208126
:104D000030E0C901880F991F820F931F90958195FC
:104D10009F4F8D5AF4018083EE81FF81208130E026
:104D2000C901880F991F820F931F909581959F4FFE
:104D3000835DF6018083F501808184FF04C0C70193
:104D400063ED76E003C0C7016FEC76E00E94C62DEC
:104D5000F201208130E0C901880F991F820F931F53
:104D6000909581959F4F8D5AF4018083F601808143
:104D70008F5F8083EA85FB8582A5882321F0C701A8
:104D80006BEC76E003C0C70167EC76E00E94C62DAD
:104D9000F201808190E09C01220F331F280F391F00
:104DA000309521953F4F2D5AF4012083F6018081E3
:104DB0008F5F8083C70163EC76E00E94C62DC1013E
:104DC00065E00E949D1D882351F0EA85FB8562A560
:104DD0006F5FC3010E94802AC3010E947A2AC10129
:104DE00064E00E949D1D882399F4E885F98560811F
:104DF000262F30E040E050E0F50180819181A281D2
:104E0000B38182179307A407B50708F16F3FF9F044
:104E10008A859B8581599F4F9B878A878FEFEA857B
:104E2000FB858083EF56F040FB87EA87C30160E093
:104E30000E94B527C3010E94742A81E0EA85FB85A0
:104E4000808F0DC08A859B850E94FF232CCFC101D6
:104E500066E00E949D1D882309F425CFF3CF2B9691
:104E60000FB6F894DEBF0FBECDBFCF91DF911F917B
:104E70000F91FF90EF90DF90CF90BF90AF909F90F9
:104E80008F907F906F905F904F903F902F900895FC
:104E9000AB0168ED76E00E94E5250895AF92BF92E0
:104EA000CF92DF92EF920F93CF93DF936C018EE757
:104EB00090E0C80ED91E82E3F601808381E090E085
:104EC000A0E0B0E0B293A293929382936F0185EF3A
:104ED0009FEFC80ED91E8FEFF601808381E99FEF07
:104EE000C80ED91EC6010E946723C6010E94D61CA7
:104EF000C6016FEF0E94DA1C4AE0A42EB12CAC0C64
:104F0000BD1CC5010E948D1DC5010E94C51DC601A5
:104F100048960E94471DC601825B9F4F6DE04BE0A3
:104F200020E10FE03EE0E32E0E949B22E601A596E1
:104F3000CE010E948D2AC50165E00E949D1D882337
:104F400029F0CE0160E00E94802A06C0CE0169ED02
:104F500076E040E00E94C727DF91CF910F91EF905C
:104F6000DF90CF90BF90AF900895FC01662371F45D
:104F7000178A158A14A213A2108E1092A3071092FA
:104F8000A2071092A0071092B400118208950F9307
:104F90001F93CF93DF93EC018B01442371F460E006
:104FA0000E94B5271E870D871B8A1A8A81E0898394
:104FB00089E08E8B198E1B8E1D8EDF91CF911F91F4
:104FC0000F910895CF93DF93EC01662339F5888123
:104FD000882321F18981882309F5898590E0880F4C
:104FE000991FEF81F885E80FF91F859194912FEFB4
:104FF0008F3F920711F4188211C09C8790E0880FB0
:10500000991FEA85FB85E80FF91F65917491CE0120
:1050100040E00E94C72789858F5F8987DF91CF9104
:10502000089560E00E94E227089560E00E94B5279D
:1050300008950F93DC01002309F069C0623009F480
:1050400043C0633030F4662359F0613009F05FC02B
:105050000DC0633009F444C0643009F058C04CC03E
:105060004B3008F04AE056964C9351C0842F90E0A4
:10507000880F991F1F962D913C915097280F391F2B
:10508000F9018591949190969C938E935F97FC0182
:105090004591549114968C911497849F602D1124FE
:1050A00091966C939197252F3327862F90E02817A0
:1050B000390708F4652F14968C911497689F802DFA
:1050C000112492968C9323C014968C911497489F28
:1050D000802D112459968C9359975A962C9317C06A
:1050E00014968C911497489F802D11245B968C9375
:1050F0005B975C962C930BC014968C911497489FE9
:10510000802D11245D968C935D975E962C930F9164
:1051100008950F93CF93DF93EC01662309F07BC0D2
:105120008981882309F477C08D89882309F073C0A9
:10513000EA89FB89EE0FFF1F4D855E85E40FF51FA1
:10514000259134912115310509F049C089898130B3
:1051500031F41B8A1A8AFA012591349140C01982D0
:105160008881882379F0CE0160E00E94E2278A8955
:105170009B89880F991FED85FE85E80FF91F259102
:1051800034912DC01F8A1D8A1CA21BA2188E10925A
:10519000A3071092A2071092A0071092B4003BC080
:1051A00006E0369527950A95E1F76F70422F4F710B
:1051B000B5E036952795BA95E1F72051CE0100E08C
:1051C0000E9419288A899B8901969B8B8A8B880F5C
:1051D000991FED85FE85E80FF91F25913491B901DE
:1051E000769567957695679520FDDACF862F8F7334
:1051F0008C8B8C81839F802D11248D8B1DA21CA2F2
:105200001BA281E08F8B8093A007188E8A899B89CF
:1052100001969B8B8A8BDF91CF910F91089560E06F
:105220000E9489280895FC01222371F4648B8481F3
:10523000489F802D1124858B15A214A213A281E012
:10524000878B8093A007108E0895CF93DF93EC0196
:10525000662309F0E9C08F89882309F4E5C08D89A8
:10526000882371F41F8A1D8A1CA21BA2188E10921B
:10527000A3071092A2071092A0071092B400D4C006
:1052800081508D8B8DA1882309F044C08BA19CA1F6
:105290000196880F991FEF8DF8A1E80FF91F8591EE
:1052A0009491282F27702EA3AC0173E05695479553
:1052B0007A95E1F79A0136952795892F9927869552
:1052C00086958FA32F738C81289F202D11242DA3C9
:1052D00041704093A4078BA19CA101969CA38BA332
:1052E00029A130E082179307A8F08AA1882329F02A
:1052F000281B31093CA32BA30DC01F8A1D8A1CA2A9
:105300001BA2188E1092A3071092A2071092A0075A
:105310001092B4008DA181508DA3988D9F5F988FBE
:105320002FA18C89280F8C85280F2A836B8D6623EB
:1053300069F0892F992787FD909570E00E94D831F8
:105340008C8D869F802D1124820F8A838A8190E024
:10535000CB966BE370E00E94D8318A832E892B8331
:10536000698D662379F0888D772767FD7095992779
:1053700087FD90950E94D8318A8D869F802D1124BB
:10538000820F8B836D8D662399F0888D992787FD19
:10539000909570E00E94D831CB0162E070E00E94ED
:1053A000D8319E8D899F802D11249B81890F8B83FD
:1053B0008B818A300CF089E087FD80E08B838C89BB
:1053C0008F3309F41B82F894EA81F0E0E350F94F3F
:1053D000E491E093A1072D8130E08B81992787FD2F
:1053E0009095A901489F9001499F300D589F300D1D
:1053F000112488A590E0A901489F9001499F300D94
:10540000589F300D11248EA1992787FD9095AC01EE
:10541000249FC001259F900D349F900D11248093EF
:10542000A2078093A3077894DF91CF91089560E05D
:105430000E94252908956091A207662381F1809139
:105440009F078F5F80939F079091A107891738F17D
:1054500030E08091A007882309F431E03093A00761
:1054600010929F078091A4078823A9F080919E0144
:1054700023E4829FC0011124895B80939E0190E008
:1054800070E00E94C4318093A30705C08091A307F8
:105490008093B40008953323C9F780E0F9CF0895CD
:1054A0001F920F920FB60F9211242F933F934F9399
:1054B0005F936F937F938F939F93AF93BF93EF937C
:1054C000FF930E941B2AFF91EF91BF91AF919F9193
:1054D0008F917F916F915F914F913F912F910F909D
:1054E0000FBE0F901F90189565EF76E040E00E9488
:1054F000C727089567EE76E040E00E94C727089529
:10550000FC01862F668170E06F5F7F4F992787FDD2
:1055100090950E94D831858308950F93FC0181E016
:10552000848384E080A788E397E0908B8787CF010E
:1055300061E040E020E000E00E94192883E061E0A3
:1055400070E00E94F92BE1EBF0E08081887F8160C0
:105550008083F89410928000E1E8F0E010821092CD
:1055600085001092840088E191E0909389008093F7
:105570008800808188608083808181608083EFE6FD
:10558000F0E080818260808378940F9108951F926B
:105590000F920FB60F9211242F933F938F939F93E7
:1055A000AF93BF938091A9079091AA07A091AB07F1
:1055B000B091AC073091AD070196A11DB11D232F0D
:1055C0002D5F2D3720F02D570196A11DB11D209381
:1055D000AD078093A9079093AA07A093AB07B09358
:1055E000AC078091A5079091A607A091A707B0915D
:1055F000A8070196A11DB11D8093A5079093A6074A
:10560000A093A707B093A807BF91AF919F918F91E7
:105610003F912F910F900FBE0F901F9018958FB74D
:10562000F8942091A9073091AA074091AB075091B7
:10563000AC078FBFB901CA0108959FB7F8942091B4
:10564000A5073091A6074091A7075091A80786B5F6
:10565000A89B06C08F3F21F02F5F3F4F4F4F5F4FFA
:105660009FBF542F432F322F2227280F311D411D5A
:10567000511D82E0220F331F441F551F8A95D1F719
:10568000B901CA0108959B01AC017FB7F8948091DC
:10569000A5079091A607A091A707B091A80766B5A6
:1056A000A89B05C06F3F19F00196A11DB11D7FBFDA
:1056B000BA2FA92F982F8827860F911DA11DB11DE4
:1056C00062E0880F991FAA1FBB1F6A95D1F7BC0122
:1056D0002DC0FFB7F8948091A5079091A607A091DF
:1056E000A707B091A807E6B5A89B05C0EF3F19F042
:1056F0000196A11DB11DFFBFBA2FA92F982F882792
:105700008E0F911DA11DB11DE2E0880F991FAA1FE8
:10571000BB1FEA95D1F7861B970B885E9340C8F2B2
:10572000215030404040504068517C4F2115310598
:105730004105510571F60895789484B5826084BD61
:1057400084B5816084BD85B5826085BD85B5816085
:1057500085BDEEE6F0E0808181608083E1E8F0E0E5
:105760001082808182608083808181608083E0E814
:10577000F0E0808181608083E1EBF0E080818460F3
:105780008083E0EBF0E0808181608083EAE7F0E0F5
:105790008081846080838081826080838081816059
:1057A00080838081806880831092C1000895982F43
:1057B0008E3008F09E50977080919F018295880FDF
:1057C000880F807C892B80937C0080917A00806494
:1057D00080937A0080917A0086FDFCCF209178003A
:1057E00040917900942F80E030E0282B392BC901BB
:1057F00008951F93CF93DF93182FEB0161E00E9470
:10580000592C209709F44AC0CF3FD10509F449C06B
:10581000E12FF0E0E657F84F84918330C1F08430F7
:1058200028F4813051F08230B1F50CC0863019F186
:10583000873049F1843079F514C084B5806884BD1F
:10584000C7BD33C084B5806284BDC8BD2EC0809101
:105850008000806880938000D0938900C093880086
:1058600024C080918000806280938000D0938B0060
:10587000C0938A001AC08091B00080688093B00005
:10588000C093B30012C08091B00080628093B000DA
:10589000C093B4000AC0C038D1051CF4812F60E069
:1058A00002C0812F61E00E94982CDF91CF911F915F
:1058B0000895CF93DF93482F50E0CA018A58984F3C
:1058C000FC0134914E59584FFA018491882369F1B3
:1058D00090E0880F991FFC01EC5BF84FA591B49103
:1058E000FC01E25BF84FC591D491662351F42FB7C8
:1058F000F8948C91932F909589238C938881892398
:105900000BC0623061F42FB7F8948C91932F90956F
:1059100089238C938881832B88832FBF06C09FB7F0
:10592000F8948C91832B8C939FBFDF91CF91089536
:10593000482F50E0CA018657984FFC012491CA01B4
:105940008A58984FFC0194914E59584FFA0134915E
:10595000332309F440C0222351F1233071F0243065
:1059600028F42130A1F0223011F514C02630B1F016
:105970002730C1F02430D9F404C0809180008F77A3
:1059800003C0809180008F7D8093800010C084B51B
:105990008F7702C084B58F7D84BD09C08091B0002F
:1059A0008F7703C08091B0008F7D8093B000E32F8C
:1059B000F0E0EE0FFF1FE25BF84FA591B4912FB717
:1059C000F894662321F48C919095892302C08C91E0
:1059D000892B8C932FBF0895682F70E0CB018657D9
:1059E000984FFC012491CB018A58984FFC014491B7
:1059F0006E59784FFB019491992319F420E030E01F
:105A00003CC0222351F1233071F0243028F421309E
:105A1000A1F0223011F514C02630B1F02730C1F0CA
:105A20002430D9F404C0809180008F7703C0809126
:105A300080008F7D8093800010C084B58F7702C076
:105A400084B58F7D84BD09C08091B0008F7703C07D
:105A50008091B0008F7D8093B000892F90E0880FF7
:105A6000991F885A984FFC01A591B4918C9120E020
:105A700030E0842311F021E030E0C9010895089559
:105A8000CF93DF930E949C2B0E943F2D0E94101801
:105A9000C0E0D0E00E94251B2097E1F30E940000A7
:105AA000F9CFCF92DF92EF92FF920F931F93CF9394
:105AB000DF937C016B018A01C0E0D0E00FC0D6010A
:105AC0006D916D01D701ED91FC910190F081E02D78
:105AD000C7010995C80FD91F0150104001151105C4
