:100000000C94BB030C94E3030C94E3030C94E30300
:100010000C94E3030C94E3030C94E3030C94E303C8
:100020000C94E3030C94E3030C94E3030C941B2B58
:100030000C94E3030C94E3030C94E3030C94E303A8
:100040000C94C72C0C94E3030C94E3030C94E3038B
:100050000C94E3030C94E3030C94E3030C94E30388
:100060000C94E3030C94E303482300000082540043
:100070000000000000015B15B5000000000001D287
:1000800055250000000000015154A30000000000AD
:100090000000000100000000000FFFFFFA600000F8
:1000A0000000000000000000000014000000012813
:1000B000000000155A4C14C2A36000001D552A14FC
:1000C00083AA50000015956A0982A950000000001B
:1000D00000000000000000000000000000FF8000A1
:1000E000000000000003FFE0000E0000000007FF1A
:1000F000E00031800000000FFFF0004040000000F1
:100100000FFFF0008F200000000FFFF00090A00014
:1001100000000FFFE0013FD00000000FFFC0013FD3
:10012000D0000000027F800165500000000FFE003B
:1001300003E0500000000FFC000566900000000F77
:10014000FE0006B0A00000000A8F80055F6000007E
:10015000000007C003AAA0000000003FF004756083
:100160000001F001FFF8050FC010011BC1FFF808E6
:10017000C3FFF8000FFCFEF80837FCF8007FFCFD19
:10018000E80A0FFFF00007BF67D811803FF0021E9A
:1001900053FF781078148003F3EFFDF02007F3008D
:1001A0000000FFF7F00404F0F0F0F0040470F0F049
:1001B000F00404E0F0F0F00404F0F0F0E00404F0E7
:1001C000F0F070040460F0F0F0040470F0F07004DB
:1001D00004F0F0F0600404E0F0F0E0040470F0F0EB
:1001E000E00404E0F0F070040460F0F070040460D7
:1001F000F0F0E00404E0F0F060040470F0F060045B
:10020000040000000004048000000004041000004A
:1002100000040400000010040400000080040490A6
:10022000100000040480000080040400000090041A
:1002300004100000100404800000100404100000EA
:100240008004049000008004049000001004041056
:10025000000090040480000090040460F0609004AA
:1002600004F0F06090150C00000000000080100009
:10027000C01800C00808C01C38C21C78C61C78E62C
:100280001C78F61C78FF3FF8FFFFF8150C00000003
:1002900000000000010001030001960000BC1000F6
:1002A000F810807010807838C07878E47878FFFF94
:1002B000F8150C0000000000000000000000000025
:1002C0000008400018E00078E00038C00038E00086
:1002D00078F104F8FFFFF8150C00000000000000A2
:1002E00000800001809001C8FC03C8FE07D8F00F11
:1002F000F8E007F8C003F8F807F8FFFFF8150C005E
:100300003FF80009F80000F80000B8020038760055
:1003100018FF0038FFC0B8FF81F8FF01F8FF80F830
:10032000FFFFF8150C00000000000000000880002E
:1003300018C80008FED808FFFC08FFF008FFA00856
:10034000FF0018FF80F8FFFFF8150C03789803D022
:100350000801C0188080088000088007C0C00FE82E
:10036000E01FE8C0F878E073387DE798FFFFF815E4
:100370000C00000000000000450081FF80C7FFC0A6
:10038000E3FFE0C1FFC0F09380F80000FC0000FE36
:100390000008FFFFF8150C07C03807E018078018A1
:1003A000030008038000030400810400C00C00E087
:1003B0000E00F01E00E0FF80FFFFF8150C00F03883
:1003C00000600838C008E0C000C183C08187408356
:1003D0000FE0021BE0800FB0901FF0D03EF0FFFF57
:1003E000F8150C01E03800F018487808FC3F88FC4C
:1003F0003FC0F87F80F07F00F0F600D0400890000A
:1004000018800078FFFFF803053F213F1208120A09
:10041000100A0E1C0E0C1E0C141A14161F161E1396
:100420001E1E1B1E1E1F1E3F213F3A2F3A173D174F
:100430003F213F181F02040A041F0E04040E1F0A66
:100440001F0A0E0E1F04110E2E252E2F2A2E2629CE
:1004500029021F02081F08150E04040E150E15159B
:100460001B151B040604040C040000000017000305
:1004700000031F0A1F16371A1904130A153A00033E
:1004800000000E11110E000A040A040E04003000D0
:100490000404040010001804031F111F121F101D74
:1004A000151711151F07041F17151D1F151D010115
:1004B0001F1F151F17151F000A00003200040A1124
:1004C0000A0A0A110A040115020E11171E051E1F41
:1004D000150A0E110A1F110E1F15111F05010E110D
:1004E0001D1F041F111F1108100F1F041B1F1010C8
:1004F0001F061F1E040F0E110E1F09060E112E1FC0
:10050000051A121509011F011F101F0F180F1F0CCC
:100510001F1B041B031C03191513001F11030418D0
:10052000111F000201022020200001020C121E1FD8
:10053000120C0C12120C121F0C1A14041E05242A81
:100540001E1F021C141D1020201D1F0814111F1037
:100550001E041E1E021C0C120C3E0A040C123E1E2F
:10056000040214160A020F120E101E0E100E1E08A0
:100570001E120C1226281E322A26041E21001F00DD
:10058000211E040102013F213F0A4E6F20534420E7
:1005900063617264206F720A6E6F204C4F41444554
:1005A000522E4845580A0A153A45786974001D20AC
:1005B000466C617368696E670A20206C6F616465C0
:1005C000722E2E2E0A0A444F4E2754205455524E56
:1005D000204F464621006D560A0A504C454153456E
:1005E0000A5455524E204F4646004C4F5720424128
:1005F00054544552590A00177361766500166261BA
:10060000636B001574797065000A0A0A153A6F6BFE
:10061000617920163A6564697400596F7520656EBA
:1006200074657265640A00540A03E181867F3E188E
:100630006D830F0F0E0183866033186DC3198F18F9
:1006400003C38E6033186DE330CF1803C39E60364A
:1006500030CDE360CF3006C79E7E3E30CDB360CF55
:10066000300CC6F6603330D9B660CF33CFCCF660ED
:1006700061B0DB1E60CF30D86CE6C061B0DB1E61BC
:100680008F19986CC6C063B19B0E330F0FB078C63C
:10069000FF7E1F1B061E0F1753440016137800160B
:1006A000131400151020001520100000000500890B
:1006B00030080238024978681400004500680100DB
:1006C00000050068013801000005003801680100DC
:1006D00000F6E8DBCFC3B8AEA49B928A827B746E2F
:1006E00068625C57524E4945413E3A3734312E2CB0
:1006F00029272523211F1D1C1A191716151413123B
:1007000011100F0E0D0C0B0A09080706100714072D
:100710000101F7030101FF0300000000240027008E
:100720002A0000000000250028002B000000000027
:100730002300260029000404040404040404020223
:100740000202020203030303030301020408102050
:10075000408001020408102001020408102000005B
:100760000007000201000003040600000000000072
:100770000000510B4A0B11241FBECFEFD8E0DEBFA3
:10078000CDBF12E0A0E0B1E0E8E8FBE602C00590D2
:100790000D92A439B107D9F717E0A4E9B2E001C07E
:1007A0001D92A83FB107E1F717E0C4E7D7E004C006
:1007B0002297FE010E947C35C237D107C9F70E94FB
:1007C000402F0C94B7350C940000A0E0B0E0EBEEA5
:1007D000F3E00C948835EC01A880B980CA80DB80F6
:1007E000A114B104C104D10441F484E2A82E89ED1E
:1007F000B82E8BE5C82E87E0D82EC601B5012DE1B5
:1008000033EF41E050E00E945F3527EA31E440E0F9
:1008100050E00E94EB347B018C01C601B5012DE153
:1008200033EF41E050E00E945F35CA01B9012CEE80
:1008300034EF4FEF5FEF0E94EB346E0D7F1D801F92
:10084000911F97FF04C061507040804090486883BA
:1008500079838A839B839B01AC015F77B901CA01CD
:10086000CDB7DEB7EAE00C94A4350E94E503089505
:1008700088EB91E00E94E50308956093B8017093BE
:10088000B9018093BA019093BB010895FB01DC018B
:1008900002C001900D9241505040D8F70895FB01DD
:1008A000DC018D91019080190110D9F3990B089505
:1008B000FB01DC0101900D920020E1F70895742FF7
:1008C000643530F547FD24C0403314F5842F8595F9
:1008D00085958595992787FD9095462F552747FD46
:1008E000509524E530E0829FF001839FF00D929FA8
:1008F000F00D1124E40FF51FE351FA4F808190E0D1
:10090000777002C0959587957A95E2F78170089582
:1009100080E008950F931F93FC01062F142F643578
:1009200008F03FC047FD3DC04033DCF5978D923065
:1009300039F4CF010E945F0490E0882309F491E02C
:10094000812F859585958595602F772767FD709513
:10095000412F4770992399F4E4E58E02F0011124A8
:10096000E60FF71FE351FA4F81E090E002C0880FD5
:10097000991F4A95E2F780952081282311C0E4E56C
:100980008E02F0011124E60FF71FE351FA4F81E0C8
:1009900090E002C0880F991F4A95E2F72081282B2A
:1009A00020831F910F9108956F927F928F929F9253
:1009B000AF92BF92CF92DF92EF92FF920F931F936D
:1009C000DF93CF93CDB7DEB73B01E989FA89AB89D5
:1009D000BC894130510509F014C121153105A1F43C
:1009E0000115110509F040C0C114D10499F441E08A
:1009F000A416B10479F4E130F10561F4A130B10538
:100A000049F442E050E008C00115110519F041E039
:100A100050E015C041E050E0E114F10481F461E0E0
:100A2000C616D10461F4A114B10449F461E086163C
:100A3000910429F4E130F10511F443E050E0213054
:100A40003105A1F40130110509F058C061E0C61666
:100A5000D10479F4A114B10461F4309751F41097E2
:100A600041F444E050E005C041E050E001301105A0
:100A700091F461E0E616F10471F4C114D10459F463
:100A800061E0A616B10439F48114910421F4309781
:100A900011F445E050E021153105E9F40115110587
:100AA000D1F4E114F10409F0BDC1C114D10461F520
:100AB000A114B10421F4E130F10509F4DDC161E0D4
:100AC000A616B104F1F481149104D9F43097C9F455
:100AD00047E050E016C00130110581F4C114D10483
:100AE00001F5A114B104E9F481149104D1F4309713
:100AF000C1F41097B1F448E050E013C0011511059E
:100B000081F4E114F10469F461E0C616D10449F4FA
:100B1000A114B10431F4309721F4109711F449E095
:100B200050E021153105E1F4012B09F055C121E018
:100B3000E216F10409F07BC1C114D10409F0A8C187
:100B4000A114B10409F0A4C161E08616910409F072
:100B50009FC1309709F09CC1109709F490C198C1CA
:100B60002130310509F038C1012B09F035C1EF28DA
:100B700009F032C1CD2809F02FC1AB2809F02CC1F2
:100B8000892809F029C1EF2B09F026C1A130B10550
:100B900001F578C1C114D10409F07AC1A114B104DE
:100BA00009F076C18114910431F4309721F4A13019
:100BB000B10509F46AC121E08216910409F068C107
:100BC000309709F065C1109709F062C14DE050E01F
:100BD0005FC1AB2B09F000C14EE050E0FDC0CD2855
:100BE00009F0FAC0AB2809F0F7C0892809F0F4C071
:100BF000EF2B09F0F1C0AB2B09F0EEC04FE050E055
:100C0000EBC001301105A9F441E0C416D10409F08C
:100C100018C161E0A616B10409F00EC1309709F4BD
:100C20003DC119C1E130F10509F03BC146E150E099
:100C300044C00115110509F00EC141E0C416D104EC
:100C400009F004C161E0A616B10409F007C1E13062
:100C5000F10509F003C147E150E002C141E0A416EB
:100C6000B10409F025C1E130F10519F448E150E083
:100C700007C040E150E008C0309709F41CC11DC016
:100C800061E0A616B104C9F43097B9F442E150E02E
:100C900014C041E0A416B10409F0E0C0E130F10550
:100CA00009F0DCC043E150E0DBC0A114B10429F439
:100CB000E130F10511F444E150E021303105F9F45F
:100CC0000130110509F08BC0E114F10409F0CEC028
:100CD00061E0C616D10409F06CC021E0A216B1048F
:100CE00009F067C08114910409F063C0E130F10597
:100CF00009F05FC0A130B10509F05BC0DFC0232B54
:100D000009F06DC00130110509F069C061E0E61617
:100D1000F10409F0D8C021E0C216D10409F0D3C013
:100D200061E0A616B10409F0CEC021E0821691045C
:100D300009F0C9C0E130F10509F0C5C0109709F408
:100D4000C0C0C1C061E0C616D10409F0C4C021E032
:100D5000A216B10409F0BFC061E08616910409F043
:100D6000BAC0E130F10509F0B6C0109709F4B1C07E
:100D7000B2C021E0A216B10491F5892881F531971E
:100D800071F5119761F54CE150E029C061E0C6169C
:100D9000D10429F521E0A216B10409F561E0861617
:100DA0009104E9F43197D9F41197C9F44DE150E079
:100DB00016C021E0C216D10491F461E0A616B10478
:100DC00071F421E08216910451F4319741F41197A6
:100DD00031F44EE150E003C021E030E002C020E0F9
:100DE00030E0FC01EE0FFF1FE80FF91FEE0FFF1FB1
:100DF000EE0FFF1FE60DF71DDF01A952BC4F2C932C
:100E0000ED52FB4F4083CF91DF911F910F91FF90E7
:100E1000EF90DF90CF90BF90AF909F908F907F909A
:100E20006F900895C114D10409F06BCE48CEE1143F
:100E3000F10409F4AFCE2CC0A114B10409F4F2CE30
:100E400030C0C114D10409F409CF05C0C114D104C4
:100E500009F41FCF03C040E150E02FCF40E150E044
:100E600061E0C616D10409F028CF1FCF21E0E216B9
:100E7000F10409F467CF35C046E050E020CE4AE0E7
:100E800050E006C04BE050E0A7CF4CE050E093CEDE
:100E900061E0E616F10409F09FCFA1CE45E150E0F4
:100EA0000CCF40E150E0A114B10409F4E5CE05CF28
:100EB00040E150E0E5CE41E150E0FFCE49E150E0B5
:100EC00078CF4AE150E021E0E216F10409F087CF43
:100ED0005DCF4BE150E061E0C616D10409F07FCF51
:100EE00048CFEF2809F465CF7ACF2F923F924F92E7
:100EF0005F926F927F928F929F92AF92BF92CF92AA
:100F0000DF92EF92FF920F931F93DF93CF93CDB7B2
:100F1000DEB729970FB6F894DEBF0FBECDBF4424CD
:100F2000552421E02A833FEF3983DDC06E8282EEB3
:100F300092E0662D4F810E945F048D8361147104DD
:100F400091F04114510431F481E0A82EB12C01E05C
:100F500010E022C082EE92E06B8149810E945F0422
:100F6000082F10E011C04114510461F401E0C02EBB
:100F7000D12C11E0A12EB12CB1E0EB2EF12C01E02F
:100F800010E038C001E010E082EE92E06E8149810D
:100F90000E945F04A82EBB2484E16816710421F42A
:100FA000A1E0EA2EF12C16C04114510421F4F1E025
:100FB000EF2EF12C08C082EE92E06C8149810E94F4
:100FC0005F04E82EFF246114710421F4E1E0CE2EC9
:100FD000D12C10C082EE92E06B814F810E945F04A1
:100FE000C82EDD2494E16916710421F471E0272EE6
:100FF000312C0BC082EE92E06C814F810E945F0425
:10100000282E332461147104A9F0EBE04E1651042C
:1010100041F421E030E03987288761E0862E912C69
:1010200022C082EE92E06B814A810E945F04882E8A
:1010300099240FC03BE04316510441F481E090E055
:101040009987888751E0852E912C1FC041E0842E1E
:10105000912C82EE92E06E814A810E945F04E82F1B
:10106000F0E0F987E887F4E16F16710461F02BE096
:101070004216510441F082EE92E06C814A810E9456
:101080005F0490E002C081E090E000D000D02885AD
:101090003985EDB7FEB73283218394838383C301FF
:1010A000B2014D8150E09801850151010E94D404A4
:1010B0000894611C711C3C813F5F3C838B818F5F76
:1010C0008B830F900F900F900F90843109F02ECFEB
:1010D0000894411C511C9A819F5F9A83E981EF5FBC
:1010E000E983EB3041F066247724F1E0FC832FEFB5
:1010F0002B834F821BCF29960FB6F894DEBF0FBE0D
:10110000CDBFCF91DF911F910F91FF90EF90DF90B6
:10111000CF90BF90AF909F908F907F906F905F9097
:101120004F903F902F9008952F923F924F925F9251
:101130006F927F928F929F92AF92BF92CF92DF92E7
:10114000EF92FF920F931F93DF93CF9300D000D0C5
:10115000CDB7DEB76091D9057091DA058091DB05D6
:101160009091DC0520E030E040E85EE30E948834A6
:101170000E94A1337B018C016091D5057091D60549
:101180008091D7059091D80520E030E040E85EE3FB
:101190000E9488340E94A133FB01EE0FFF1FE60F6F
:1011A000F71FEE0FFF1FEE0FFF1FEE0DFF1DE952A1
:1011B000FC4F108266247724CDC0EB81FC818585AD
:1011C000282F30E03A8329834114510471F06114CF
:1011D000710429F401E010E021E030E01AC0EB8155
:1011E000FC818081282F30E00FC06114710451F41C
:1011F000A1E0CA2ED12C01E010E0A1E0B0E021E096
:1012000030E02DC021E030E0EB81FC818485082FA7
:1012100010E0F4E14F16510419F4A1E0B0E012C05F
:101220006114710419F4A1E0B0E005C0EB81FC8108
:10123000808DA82FB0E04114510421F4F1E0CF2EAD
:10124000D12C0DC0EB81FC818181C82EDD24F4E11D
:101250004F16510421F4E1E0AE2EB12C08C0EB8111
:10126000FC81818DA82EBB244114510481F0FBE048
:101270006F16710431F441E050E071E0872E912C3B
:101280001AC0EB81FC818281882E99240FC0FBE07B
:101290006F16710441F481E090E041E050E061E0BC
:1012A000862E912C17C041E0842E912CEB81FC817D
:1012B0008685482F50E0F4E14F16510449F08BE049
:1012C0006816710429F0EB81FC81828D90E002C0E8
:1012D00081E090E000D000D0EDB7FEB752834183AB
:1012E00094838383C201B30149815A817D010E94A5
:1012F000D4040F900F900F900F9029813A812230E3
:10130000310529F42FE1F101208322E008C0898111
:101310009A81039739F420E2F101208323E0EB81E5
:10132000FC8125870894411C511C8CE090E0280E1C
:10133000391EEB81FC813C96FC83EB83F5E14F1673
:10134000510409F03ACF0894611C711C2CE062161C
:10135000710471F093ED292E94E0392E260C371C80
:10136000C30186539C4F9C838B834424552425CFF3
:101370000F900F900F900F90CF91DF911F910F91D1
:10138000FF90EF90DF90CF90BF90AF909F908F90A5
:101390007F906F905F904F903F902F900895FF92B5
:1013A0000F931F93CF93DF93CAE1D3E0FF24F3940D
:1013B00068816E5F49814C5F82EE92E00E945F041B
:1013C000882309F062C068816F5F49814C5F82EEBB
:1013D00092E00E945F04882309F057C00D810F5FDF
:1013E00010E02DC068816E5F49814C5F82EE92E013
:1013F0000E945F04882311F568816F5F49814C5F0B
:1014000082EE92E00E945F048823C1F489818133D7
:1014100098F08B81882371F48C81882331F480913A
:10142000D30581508093D30505C08091D4058150A8
:101430008093D405FB8202C08F5F89831F5F1017E2
:1014400088F28D818F5F8D8368816E5F49814D5FEA
:1014500082EE92E00E945F04813069F068816F5FE4
:1014600049814D5F82EE92E00E945F04813031F449
:101470008B81882319F4898181508983269683E0A2
:10148000CE33D80709F094CF02C01D82DDCFDF91A3
:10149000CF911F910F91FF9008952091D005263094
:1014A00081F48091CF0590E00197FC01EE0FFF1FC2
:1014B000E80FF91FEE0FFF1FE65EFC4F818183509E
:1014C00023C0253081F48091CF0590E00197FC0185
:1014D000EE0FFF1FE80FF91FEE0FFF1FE65EFC4F38
:1014E0008181825011C0243089F48091CF0590E031
:1014F0000197FC01EE0FFF1FE80FF91FEE0FFF1F12
:10150000E65EFC4F81818150818302C0222319F065
:1015100021502093D0050895CF92DF92EF92FF9251
:101520000F931F93E2EECE2EE2E0DE2E6091D50502
:101530007091D6058091D7059091D8050E94A1336E
:101540007B018C016091D9057091DA058091DB05F2
:101550009091DC050E94A1339B01AC01C6016E2D68
:10156000422F0E948A046091D5057091D605809122
:10157000D7059091D80520E030E040E85FE30E9475
:10158000D1320E94A1337B018C016091D905709109
:10159000DA058091DB059091DC050E94A1339B0167
:1015A000AC01C6016E2D422F0E948A046091D505C0
:1015B0007091D6058091D7059091D8050E94A133EE
:1015C0007B018C016091D9057091DA058091DB0572
:1015D0009091DC0520E030E040E85FE30E94D032EB
:1015E0000E94A1339B01AC01C6016E2D422F0E94C7
:1015F0008A046091D5057091D6058091D7059091A8
:10160000D80520E030E040E85FE30E94D1320E943C
:10161000A1337B018C016091D9057091DA0580912D
:10162000DB059091DC0520E030E040E85FE30E94BC
:10163000D0320E94A1339B01AC01C6016E2D422F16
:101640000E948A041F910F91FF90EF90DF90CF903E
:10165000089581309105A1F46F5F7F4FD1F410920E
:10166000E5021092E40280E992E09093E302809315
:10167000E2028EEC93E060E071E00E94B7310895E1
:10168000892B39F46F5F7F4F21F48EEC93E00E9439
:10169000E931089580E090E06FEF7FEF0E94290B21
:1016A000089581E090E06FEF7FEF0E94290B08958D
:1016B0008F929F92AF92BF92CF92DF92EF92FF9262
:1016C0000F931F937C01162F99EB892E92E0992E90
:1016D0008CE3A82E82E0B82E670104E0CC0CDD1C60
:1016E0000A95E1F7CA0CDB1CC40160E0F6014485F1
:1016F00020E0012F0E94E428C40161E0F60140814E
:1017000020E00E94E428F60120852195C40162E0D2
:1017100042850E94E428A4E0EE0CFF1CAA95E1F7A4
:10172000F60124812A53C40163E046810E94E42823
:10173000AE0CBF1CC401F5016281F6014685212F64
:101740000E94DE291F910F91FF90EF90DF90CF90C4
:10175000BF90AF909F908F900895EF92FF920F935C
:101760001F93CF93DF9382EE92E060E00E94031E0E
:1017700082EE92E060E04CE22CE004E00E949C1ECD
:1017800082EE92E061E00E94031E82EE92E060E051
:101790004CE20E948A0482EE92E060E04FE20E94F6
:1017A0008A0482EE92E06BE04CE20E948A0482EEB0
:1017B00092E06BE04FE20E948A04C1E0D0E00DC0ED
:1017C00082EE92E06C2F4DE20E948A0482EE92E05B
:1017D0006C2F4EE20E948A042196BE01882777FD75
:1017E0008095982F0E94D4337B018C016091E50590
:1017F0007091E6058091E7059091E80520E030E0E2
:1018000040E85FE30E94D1329B01AC01C801B701FF
:101810000E94353387FDD4CFDF91CF911F910F9177
:10182000FF90EF9008950F938091D305882371F571
:1018300082EE92E060E00E94031E82EE92E064E09D
:1018400045E02CE408E10E949C1E82EE92E061E0FB
:101850000E94031E82EE92E065E046E02AE406E183
:101860000E94D21E8BE08093EC0286E18093EB0213
:1018700082EE92E061E071E00E948F3087E0809319
:10188000EB0282EE92E06BE071E036C082EE92E015
:1018900060E00E94031E82EE92E062E045E020E5F7
:1018A00008E10E949C1E82EE92E061E00E94031E0D
:1018B00082EE92E063E046E02EE406E10E94D21E52
:1018C00088E08093EC028AE08093EB0282EE92E063
:1018D0006DE171E00E948F308EE08093EB0282EE2A
:1018E00092E06EE271E00E948F3080E18093EB0223
:1018F00082EE92E06CE371E00E948F300F910895C8
:101900008FE18093EB0281E18093EC0282EE92E022
:1019100069E471E00E948C30089581E28093EB02CB
:1019200081E18093EC0282EE92E060E571E00E943A
:101930008C3008952F923F924F925F926F927F92D8
:101940008F929F92AF92BF92CF92DF92EF92FF92CF
:101950000F931F93DF93CF93CDB7DEB728970FB6C2
:10196000F894DEBF0FBECDBF8091CF0590E0019708
:10197000FC01EE0FFF1FE80FF91FEE0FFF1FE45EE3
:10198000FC4F8081813039F0EE24EA9423E0C22EAE
:101990006624639405C0EE24E394CC2492E0692E7F
:1019A00082EE92E060E00E94031E0091CF0510E0FD
:1019B000015010402091EA05822E99240894810854
:1019C00091086E2D70E0882777FD8095982F0E94F2
:1019D000D4336D837E838F8398876C2D70E0882746
:1019E00077FD8095982F0E94D43369837A838B8307
:1019F0009C837801EE0CFF1CE00EF11EEE0CFF1C28
:101A00002AE133E0E20EF31EF701608170E08827DF
:101A100077FD8095982F0E94D4335B016C01880C70
:101A2000991C880C991CF401EC53FE4F6081718164
:101A30008281938120E030E040E050E40E94D13286
:101A40002D813E814F8158850E9488349B01AC01D5
:101A5000C601B5010E94D13229813A814B815C8156
:101A60000E94D13220E030E040E050E00E94D132CC
:101A70000E94A1335B016C01F701618170E088274E
:101A800077FD8095982F0E94D43320E032E0820EBB
:101A9000931EF40120813181428153810E94D13211
:101AA00020E030E040E85FE30E94D1320E94A133A1
:101AB0009B01AC0182EE92E06A2D422F0E948A04C3
:101AC0008091CF0590E00197FC01EE0FFF1FE80F1A
:101AD000F91FEE0FFF1FE65EFC4F8081680E41810B
:101AE0004F5F82EE92E0662D0E948A0482EE92E0C1
:101AF00061E00E94031E8091CF0590E00197209144
:101B0000EA05822E99240894810891088C01000F1F
:101B1000111F080F191F000F111F065E1C4FF8013F
:101B2000608170E0882777FD8095982F0E94D433DC
:101B30006B017C01880C991C880C991CF401EC53F6
:101B4000FE4F608171818281938120E030E040E02E
:101B500050E40E94D1322D813E814F8158850E94F0
:101B600088349B01AC01C701B6010E94D1322981A2
:101B70003A814B815C810E94D1325B016C01F8019A
:101B8000618170E0882777FD8095982F0E94D4337B
:101B900020E032E0820E931EF401208131814281E7
:101BA00053810E94D1327B018C01C601B50120E036
:101BB00030E040E85FE30E94D0320E94A1331B0175
:101BC0002C01C801B70120E030E040E85FE30E944B
:101BD000D1320E94A1333B014C01C601B50120E086
:101BE00030E040E050E00E94D1320E94A1335B011E
:101BF0006C01C801B70120E030E040E050E00E94F5
:101C0000D1320E94A1337B018C0182EE92E0622DE1
:101C1000462D2A2D0E2D0E940B1E8091CF0590E09F
:101C200001972091EA05822E992408948108910851
:101C30008C01000F111F080F191F000F111F065EE6
:101C40001C4FF801608170E0882777FD8095982F00
:101C50000E94D4336B017C01880C991C880C991C60
:101C6000F401EC53FE4F608171818281938120E009
:101C700030E040E050E40E94D1322D813E814F811E
:101C800058850E9488349B01AC01C701B6010E94AF
:101C9000D13229813A814B815C810E94D1325B0132
:101CA0006C01F801618170E0882777FD8095982F9D
:101CB0000E94D43320E032E0820E931EF401208192
:101CC0003181428153810E94D1327B018C01C60156
:101CD000B50120E030E040E85FE30E94D1320E948D
:101CE000A1331B012C01C801B70120E030E040E81E
:101CF0005FE30E94D1320E94A1333B014C01C60137
:101D0000B50120E030E040E050E00E94D1320E9476
:101D1000A1335B016C01C801B70120E030E040E075
:101D200050E40E94D1320E94A1337B018C0182EEEB
:101D300092E0622D462D2A2D0E2D0E940B1E289614
:101D40000FB6F894DEBF0FBECDBFCF91DF911F91CC
:101D50000F91FF90EF90DF90CF90BF90AF909F904A
:101D60008F907F906F905F904F903F902F9008954D
:101D7000EF92FF920F931F93CF93DF9300E010E059
:101D8000EE2421C08881882389F090E001979C018E
:101D9000220F331F280F391F220F331F2B553E4FA1
:101DA00082EE92E06F2D4E2D0E94B9202C9684E099
:101DB000F80E84E5F81631F70F5F1F4F84E0E80E48
:101DC00080E3E81629F0E801CD52DB4FFF24DACF9B
:101DD000DF91CF911F910F91FF90EF900895EF92B7
:101DE0000F93CF93DF93CAE1D3E08B81882371F502
:101DF0008A819C81813099F4892F90E04E969C01D4
:101E0000220F331F280F391F220F331F2B553E4F30
:101E100082EE92E0688149810E94B92034C06881D5
:101E20006150892F90E04E969C01220F331F280F9E
:101E3000391F220F331F2B553E4F82EE92E049810E
:101E400000E0EE24E3940E9427211DC068816F5FAB
:101E500082EE92E0498124E00E94921E8C818823C8
:101E600019F449814F5F09C082EE92E0688149818F
:101E700023E00E94881E49814E5F82EE92E06881D5
:101E800023E00E94881E269683E0CE33D80709F00F
:101E9000ACCFDF91CF910F91EF9008958F929F92E9
:101EA000AF92BF92CF92DF92EF92FF920F931F9368
:101EB000CF93DF938091D503282F30E0C90101979C
:101EC00063E070E00E942A35CB0144E0880F991F3F
:101ED0004A95E1F7860F971F4D9714F480E00DC0E7
:101EE000C901049763E070E00E942A35CB0124E029
:101EF000880F991F2A95E1F7860FDD249BE1892E33
:101F000008E0C02EC81A11E1912EB6E2AB2EB12C1A
:101F100043C08D2D63E00E940A35989DE001112495
:101F2000CE018C5F482F8D2D0E940A35899DC001FE
:101F300011241C2D180FED2CFF24EA9C9001EB9C22
:101F4000300DFA9C300D11242B593D4F82EE92E05A
:101F5000642F412F0E94B920CE018D5F682F412F41
:101F6000415082EE92E027E10EE00E94D21E0894DA
:101F7000E11CF11C8091D50390E0E816F90659F4B4
:101F8000CE018E5F682F125082EE92E0412F29E140
:101F900000E10E94D21ED3948091D403D81608F495
:101FA000B8CF82EE92E060E00E94031E82EE92E0E3
:101FB00060E040E024E506E00E949C1E82EE92E094
:101FC00061E00E94031E8CE18093EB0282EE92E0BE
:101FD00066E571E00E948C3082EE92E06091D5035C
:101FE0004AE050E00E947A30DF91CF911F910F912B
:101FF000FF90EF90DF90CF90BF90AF909F908F9029
:1020000008952F923F924F925F926F927F928F929C
:102010009F92AF92BF92CF92DF92EF92FF920F9377
:102020001F93DF93CF9300D000D0CDB7DEB7809160
:10203000E905882309F044C08091CF05869590E09A
:10204000FC01EE0FFF1FE80FF91FEE0FFF1FEE0F51
:10205000FF1FE25CFC4FAF014F5F5F4F818190E05B
:10206000FC01EE0FFF1FE80FF91FEE0FFF1FE65EEA
:10207000FC4F83818130D9F420E0FA0107C0149627
:102080008C91882311F4208301C02F5F822F90E070
:10209000DC01AA0FBB1FA80FB91FAA0FBB1FA65EAA
:1020A000BC4F13968C911397882379F7E8CF85E07E
:1020B0008093E90584E08093EB058AE08093EC054A
:1020C0008091EC05882311F081500AC0E090EA0568
:1020D0008091EB058E1538F4EA94E092EA0581E0F0
:1020E0008093EC05ECC08091E5059091E605A09108
:1020F000E705B091E80589839A83AB83BC8360913F
:10210000E90570E0882777FD8095982F0E94D433E9
:102110009B01AC0169817A818B819C810E9435335E
:1021200088239CF469817A818B819C8120E030E056
:1021300040E85FE30E94D1326093E5057093E605C5
:102140008093E7059093E805BAC08091CF05282FCA
:1021500030E021503040F901EE0FFF1FE20FF31F76
:10216000EE0FFF1FE45EFC4F8081813059F00F2E8F
:10217000F0E02F2EF0E03F2EF0E84F2EFFEB5F2E29
:10218000F02D0AC00F2EF0E02F2EF0E03F2EF0E8E9
:102190004F2EFFE35F2EF02DFF240894E108F10895
:1021A000EE0CFF1CEE0CFF1CF701EC53FE4F6080A1
:1021B0007180828093808901000F111F020F131F0D
:1021C000000F111F065E1C4FD8016C9170E088272C
:1021D00077FD8095982F0E94D4335B016C01C40178
:1021E000B301A20191010E9488349B01AC01C60198
:1021F000B5010E94D1326093D5057093D6058093C6
:10220000D7059093D805E0E0F2E0EE0EFF1ED7016F
:10221000AD90BD90CD90DC90F801618170E0882791
:1022200077FD8095982F0E94D433A60195010E94D6
:10223000D1326093D9057093DA058093DB059093D2
:10224000DC0569817A818B819C8120E030E040E46B
:1022500050E40E9439337B018C01C401B30120E0BA
:1022600030E040EA50E40E943933A80197010E940F
:102270008834A20191010E9488346093DD05709337
:10228000DE058093DF059093E005C601B50120E0EF
:1022900030E040EA50E40E943933A80197010E94DF
:1022A00088346093E1057093E2058093E305909391
:1022B000E4058EEC93E06DE571E00E94D0310F9063
:1022C0000F900F900F90CF91DF911F910F91FF9082
:1022D000EF90DF90CF90BF90AF909F908F907F90C6
:1022E0006F905F904F903F902F9008955F926F9204
:1022F0007F928F929F92AF92BF92CF92DF92EF9296
:10230000FF920F931F93CF93DF936090D50570904A
:10231000D6058090D7059090D805A090D905B090AB
:10232000DA05C090DB05D090DC05E090D405F09094
:10233000D3050AE113E055245394F8018081C82F96
:10234000D0E0BE01882777FD8095982F0E94D43376
:10235000A40193010E9435331816CCF12496BE01D6
:10236000882777FD8095982F0E94D433A40193018C
:102370000E94843488235CF1F8018181C82FD0E069
:10238000BE01882777FD8095982F0E94D433A6013F
:1023900095010E9435331816D4F02496BE01882783
:1023A00077FD8095982F0E94D433A60195010E9455
:1023B0008434882364F0F8018381882331F4848194
:1023C000882311F4FA9401C0EA94F8015382F801C9
:1023D0008181813318F48081843560F0F801838134
:1023E000882331F48481882311F4FA9401C0EA949B
:1023F000F80153820A5F1F4FF3E00E331F0709F005
:102400009CCFE092D405F092D305FF2011F0EE208E
:10241000A9F482E090E061E070E00E94580B8EEC3D
:1024200093E066E671E00E94D0311092CF051092E1
:10243000D10581E08093D2051092D005DF91CF9134
:102440001F910F91FF90EF90DF90CF90BF90AF90D2
:102450009F908F907F906F905F9008952091CF050F
:10246000822F90E00097B1F00197FC01EE0FFF1F63
:10247000E80FF91FEE0FFF1FE65EFC4F3481332398
:1024800051F42093D1058091D2058093CF052091FE
:10249000CF0506C031E02093D2058091D105F5CF5C
:1024A0002F5F273008F021E0822F90E00197FC0198
:1024B000EE0FFF1FE80FF91FEE0FFF1FE65EFC4F48
:1024C0008381882369F78481831751F32093CF0593
:1024D00080E090E0A0E0B0E08093E5059093E60511
:1024E000A093E705B093E80588E08093EA05109291
:1024F000EC058EEC93E06FE671E00E94D031089518
:102500002F923F924F925F926F927F928F929F9203
:10251000AF92BF92CF92DF92EF92FF920F931F93F1
:10252000DF93CF93CDB7DEB760970FB6F894DEBFD9
:102530000FBECDBF8091EC05823078F582EE92E03F
:1025400062E00E94031E6091D5057091D6058091CE
:10255000D7059091D80520E030E040E85FE30E9485
:10256000D0320E94A1337B018C016091D90570911A
:10257000DA058091DB059091DC0520E030E040E851
:102580005FE30E94D0320E94A1339B01AC0182EE36
:1025900092E06E2D422F0E948A048091EC058230D9
:1025A00009F0BCC082EE92E060E00E94031E6091E0
:1025B000D5057091D6058091D7059091D80520E07A
:1025C00030E040E85FE30E94D0320E94A1337B01FB
:1025D0008C016091D9057091DA058091DB059091AD
:1025E000DC0520E030E040E85FE30E94D0320E944A
:1025F000A1339B01AC0182EE92E06E2D422F0E942E
:102600008A0482EE92E062E00E94031EE090D5050B
:10261000F090D6050091D7051091D8056090D905A6
:102620007090DA058090DB059090DC05C801B70159
:1026300020E030E040E050E40E94D0320E94A1331C
:1026400069837A838B839C83C401B30120E030E0EB
:1026500040E85FE30E94D0320E94A1331B012C01AD
:10266000C801B70120E030E040E85FE30E94D032CB
:102670000E94A1335B016C01C401B30120E030E092
:1026800040E050E40E94D0320E94A1337B018C01D3
:1026900082EE92E06981422D2A2D0E2D0E940B1EA2
:1026A000E090D505F090D6050091D7051091D8059A
:1026B0006090D9057090DA058090DB059090DC057C
:1026C000C801B7010E94A1336D837E838F839887F1
:1026D000C401B30120E030E040E85FE30E94D03263
:1026E0000E94A1331B012C01C801B70120E030E09A
:1026F00040E85FE30E94D0320E94A1335B016C018D
:10270000C401B3010E94A1337B018C0182EE92E0EF
:102710006D81422D2A2D0E2D0E940B1E8091EC05FD
:10272000833009F006C182EE92E060E00E94031E51
:102730006091D5057091D6058091D7059091D80507
:1027400020E030E040E85FE30E94D0320E94A133F5
:102750007B018C016091D9057091DA058091DB05D0
:102760009091DC0520E030E040E85FE30E94D03249
:102770000E94A1339B01AC0182EE92E06E2D422FAC
:1027800022E002E00E949C1E82EE92E062E00E9443
:10279000031E8090D5059090D605A090D705B090E7
:1027A000D8056091D9057091DA058091DB0590918B
:1027B000DC0520E030E040E050E40E94D0320E948E
:1027C000A1332B013C01C501B40120E030E040E819
:1027D0005FE30E94D0320E94A1336B017C01C501EE
:1027E000B4010E94A1338B019C0182EE92E06C2D1A
:1027F000442D202F042D0E940B1EE090D905F0904F
:10280000DA050091DB051091DC056091D50570912A
:10281000D6058091D7059091D80520E030E040E8BA
:102820005FE30E94D1320E94A1333B014C01C801F9
:10283000B70120E030E040E85FE30E94D0320E9420
:10284000A1335B016C01C801B7010E94A1337B0178
:102850008C0182EE92E0662D4A2D262D0E2D0E94CF
:102860000B1EE090D905F090DA050091DB05109180
:10287000DC056091D5057091D6058091D7059091C2
:10288000D80520E030E040E050E40E94D0320E94C1
:10289000A1333B014C01C801B70120E030E040E822
:1028A0005FE30E94D0320E94A1335B016C01C8013A
:1028B000B7010E94A1337B018C0182EE92E0662D6C
:1028C0004A2D262D0E2D0E940B1E8090D50590902E
:1028D000D605A090D705B090D8056091D905709124
:1028E000DA058091DB059091DC0520E030E040E8DE
:1028F0005FE30E94D1320E94A1332B013C01C5014C
:10290000B40120E030E040E85FE30E94D0320E9452
:10291000A1336B017C01C501B4010E94A1338B017D
:102920009C0182EE92E06C2D442D202F042D0E94FC
:102930000B1E8091EC05843011F40E949408809164
:10294000EC05853009F0A4C082EE92E060E00E94C0
:10295000031E6091D5057091D6058091D7059091A1
:10296000D8050E94A1337B018C016091D90570913B
:10297000DA058091DB059091DC050E94A1339B0173
:10298000AC0182EE92E06E2D422F0E948A0482EE0C
:1029900092E062E00E94031EE090D505F090D6051B
:1029A0000091D7051091D805A090D905B090DA050F
:1029B000C090DB05D090DC05C801B70120E030E015
:1029C00040E85FE30E94D0320E94A13369877A8792
:1029D0008B879C87C601B5010E94A1331B012C0186
:1029E000C801B7010E94A1333B014C01C601B501EA
:1029F00020E030E040E85FE30E94D0320E94A13343
:102A00007B018C0182EE92E06985422D262D0E2DF0
:102A10000E940B1EE090D505F090D6050091D705D9
:102A20001091D8056090D9057090DA058090DB058B
:102A30009090DC05C801B7010E94A1336D877E87A5
:102A40008F87988BC401B30120E030E040E85FE35A
:102A50000E94D1320E94A1331B012C01C801B70191
:102A600020E030E040E85FE30E94D1320E94A133D1
:102A70005B016C01C401B3010E94A1337B018C0195
:102A800082EE92E06D85422D2A2D0E2D0E940B1EA6
:102A90008091EC05863019F582EE92E062E00E94AA
:102AA000031E6091D5057091D6058091D705909150
:102AB000D8050E94A1337B018C016091D9057091EA
:102AC000DA058091DB059091DC050E94A1339B0122
:102AD000AC0182EE92E06E2D422F0E948A0480911A
:102AE000EC058F5F8093EC05883010F00E942E1269
:102AF00060960FB6F894DEBF0FBECDBFCF91DF91C9
:102B00001F910F91FF90EF90DF90CF90BF90AF900B
:102B10009F908F907F906F905F904F903F902F90FD
:102B200008952F923F924F925F926F927F928F9271
:102B30009F92AF92BF92CF92DF92EF92FF920F934C
:102B40001F93DF93CF93CDB7DEB729970FB6F894D5
:102B5000DEBF0FBECDBF2090D9053090DA05409082
:102B6000DB055090DC05A090D505B090D605C0904F
:102B7000D705D090D805C601B50120E030E048EA7D
:102B800052E40E948434181634F48EEC93E067E724
:102B900071E00E94D0316091D5057091D605809189
:102BA000D7059091D80520E030E040E050E00E9449
:102BB0003533882334F48EEC93E067E771E00E94AC
:102BC000D0316091D9057091DA058091DB05909143
:102BD000DC0520E030E040E452E40E948434181622
:102BE00034F48EEC93E067E771E00E94D03160919D
:102BF000DD057091DE058091DF059091E00520E014
:102C000030E040EF51E40E9439336D837E838F833F
:102C100098876091E1057091E2058091E3059091BC
:102C2000E40520E030E040EF51E40E94393369834D
:102C30007A838B839C836090D5057090D6058090B5
:102C4000D7059090D805E090DD05F090DE05009165
:102C5000DF051091E0056091D9057091DA0580914A
:102C6000DB059091DC052091E1053091E205409172
:102C7000E3055091E4050E94D1329B01AC01C201F1
:102C8000B1010E94843418161CF481E0898711C0B8
:102C90001986C401B301A80197010E94D1329B019A
:102CA000AC01C601B5010E948434181614F4E1E0A9
:102CB000E987C601B5010E94A1337B018C01C201E5
:102CC000B1010E94A1339B01AC0182EE92E06E2D16
:102CD000422F0E945F048130C9F4A092D505B092C2
:102CE000D605C092D705D092D8052092D90530924A
:102CF000DA054092DB055092DC058EEC93E067E745
:102D000071E00E94D0310E94761118C0F985FF232E
:102D1000A9F4C601B5012D813E814F8158850E94DD
:102D2000D1325B016C01C201B10129813A814B8131
:102D30005C810E94D1321B012C017DCF29960FB6F8
:102D4000F894DEBF0FBECDBFCF91DF911F910F91E1
:102D5000FF90EF90DF90CF90BF90AF909F908F90BB
:102D60007F906F905F904F903F902F90089584E9EF
:102D700092E068E670E00E9413281092AC028EEC9C
:102D800093E06CE771E00E94D03181E08093D5033D
:102D90009BE09093D4031092CF051092D1058093BD
:102DA000D20583E08093D3058093D4051092D0059B
:102DB00008952F923F924F925F926F927F928F92DF
:102DC0009F92AF92BF92CF92DF92EF92FF920F93BA
:102DD0001F93DF93CF93CDB7DEB7AA970FB6F894C2
:102DE000DEBF0FBECDBF8E010F5F1F4FF80180E029
:102DF00090E001968193919385319105D1F76E0111
:102E00000894C11CD11C8BE2E82EF12CEC0EFD1EA7
:102E100060E070E080E090E025E130E040E050E0EC
:102E20000E940D31DC01CB01D8014D915C911197CD
:102E3000880F991F8C0D9D1DFC01208131812D93E0
:102E40003D938D0151834083AE15BF0509F7F8E12D
:102E5000EF2EF3E0FF2EAA24BB2465012501F70124
:102E600015821682A114B10419F080818F5F8683C8
:102E7000D70116968C911697823010F016961C92F8
:102E800060E070E080E090E023E030E040E050E07F
:102E90000E940D3126E030E040E050E00E94EB342B
:102EA000DC01CB018A0D9B1DAC1DBD1D880F991F38
:102EB000E1E0F0E0EC0FFD1F8E0F9F1FDC018D9015
:102EC0009C90662477240BE010E082EE92E0682D5F
:102ED000402F0E945F04882369F46114710451F447
:102EE00082EE92E0682D402F0E948A04180171E062
:102EF000672E712C0150104041F7C1019401220F3F
:102F0000331F220F331FF7012283880F991F880F69
:102F1000991F838321E024833BE08316910414F0FE
:102F20008FEF8483D70117961C92179716963C91C2
:102F30003130E1F5C20195958795FC01EE0FFF1F39
:102F4000E80FF91FEE0FFF1FEE0FFF1FCF01825C8E
:102F50009C4FDC01AC922A2D215011962C93DF015D
:102F6000A05CBC4F25E02C9324E0DC0113962C934D
:102F70001397EE5BFC4F1082ECEF1596EC931597D0
:102F8000F4E11696FC93169725E017962C93179765
:102F9000E4E01896EC93189719963C931997F5E589
:102FA0001A96FC931A9724E11B962C930894A11C63
:102FB000B11CC11CD11C86E090E0E80EF91E9CE318
:102FC000E91693E0F90609F049CFAA960FB6F894EE
:102FD000DEBF0FBECDBFCF91DF911F910F91FF904C
:102FE000EF90DF90CF90BF90AF909F908F907F90A9
:102FF0006F905F904F903F902F900895EF92FF92C7
:103000000F9392EEE92E92E0F92EC70160E00E9444
:10301000031EC70160E040E025E10CE00E949C1E19
:10302000C70161E00E94031E2091D60386E2289F1B
:10303000900111242B593D4FC70160E040E00E94F0
:10304000B9200E9475070E94D916C70160E00E944E
:10305000031EC70160E040E025E10E949C1EC701FD
:1030600061E00E94031E8EEC93E066E871E00E942E
:10307000D0310F91FF90EF900895AF92BF92CF9211
:10308000DF92EF92FF920F931F93CF93DF938EEC1B
:1030900093E06CE771E00E942B31882309F457C05C
:1030A0008EE992E063E00E94A91D882379F04091A7
:1030B000D503242F30E02E5F3F4F8091D40390E062
:1030C000281739071CF44D5F4093D5038EE992E031
:1030D00061E00E94A91D882349F02091D503822F29
:1030E00090E004971CF023502093D5038EE992E0E2
:1030F00062E00E94A91D882369F04091D503242F26
:1031000030E08091D40390E0281739071CF44F5F1A
:103110004093D5038EE992E060E00E94A91D8823C8
:1031200049F02091D503822F90E002971CF02150A6
:103130002093D5038EE992E064E00E94A91D8823C4
:1031400031F08EEC93E06EE871E00E94D0318EECAD
:1031500093E066E871E00E942B31882369F08EE9E4
:1031600092E064E00E94B31D882331F08EEC93E07E
:103170006FE671E00E94D0318EEC93E067E971E078
:103180000E942B31882369F08EE992E064E00E946E
:10319000B31D882331F08EEC93E064EA71E00E9465
:1031A000D0318EEC93E06FE671E00E942B318823E2
:1031B00009F4D8C18EE992E064E041E00E94BD1DAF
:1031C000882309F416C2E090E505F090E605009129
:1031D000E7051091E805C801B70120E030E040E2C2
:1031E00051E40E94353388230CF003C2C801B701B3
:1031F00020E030E040E85FE30E94D1326093E505D3
:103200007093E6058093E7059093E805ABC18EECDB
:1032100093E06DE571E00E94D0318091CF05C82F19
:10322000D0E02197CE01880F991F8C0F9D1F880F2A
:10323000991FFC01E45EFC4F2081FC012130F9F470
:10324000E65EFC4F608170E06C5F7F4F882777FD02
:103250008095982F0E94D4336093D5057093D6053E
:103260008093D7059093D8050F2EF0E0AF2EF0E0B5
:10327000BF2EF0E8CF2EFFE3DF2EF02D1EC0E65E5E
:10328000FC4F608170E061507040882777FD809529
:10329000982F0E94D4336093D5057093D605809300
:1032A000D7059093D8050F2EF0E0AF2EF0E0BF2E9B
:1032B000F0E8CF2EFFEBDF2EF02DFE01EE0FFF1F0B
:1032C000EC0FFD1FEE0FFF1FE65EFC4F618170E00B
:1032D00061507040882777FD8095982F0E94D433E5
:1032E0006093D9057093DA058093DB059093DC0534
:1032F0006091EA05C62FD0E021976091E5057091B5
:10330000E6058091E7059091E80520E030E040E493
:1033100050E40E9439337B018C01CC0FDD1FCC0FB0
:10332000DD1FFE01EC53FE4F60817181828193812C
:1033300020E030E040EA50E40E943933A8019701D0
:103340000E948834A60195010E9488346093DD05AF
:103350007093DE058093DF059093E005C050DE4F4B
:10336000688179818A819B8120E030E040EA50E4E5
:103370000E943933A80197010E9488346093E105C7
:103380007093E2058093E3059093E405EBC08EE92A
:1033900092E061E041E00E94BD1D882339F08091F8
:1033A000EA05823018F081508093EA058EE992E0B8
:1033B00063E041E00E94BD1D882339F08091EA0559
:1033C0008F3018F48F5F8093EA058EE992E062E017
:1033D0000E94A91D8823A9F083E090E061E070E0DD
:1033E0000E94580B8091CF0590E00197FC01EE0FF1
:1033F000FF1FE80FF91FEE0FFF1FE45EFC4F81E097
:1034000034C08EE992E062E041E00E94BD1D882355
:1034100069F183E090E061E070E00E94580B8091D8
:10342000CF0590E00197FC01EE0FFF1FE80FF91F99
:10343000EE0FFF1FE65EFC4F60816C5F41814F5FC6
:1034400082EE92E00E945F04882381F48091CF0590
:1034500090E00197FC01EE0FFF1FE80FF91FEE0F40
:10346000FF1FE65EFC4F80818F5F80838EE992E0D4
:1034700060E00E94A91D8823A9F083E090E061E04C
:1034800070E00E94580B8091CF0590E00197FC01FD
:10349000EE0FFF1FE80FF91FEE0FFF1FE45EFC4F5A
:1034A000108235C08EE992E060E041E00E94BD1DCF
:1034B000882369F183E090E061E070E00E94580B9E
:1034C0008091CF0590E00197FC01EE0FFF1FE80F00
:1034D000F91FEE0FFF1FE65EFC4F608161504181D6
:1034E0004F5F82EE92E00E945F04882381F4809116
:1034F000CF0590E00197FC01EE0FFF1FE80FF91FC9
:10350000EE0FFF1FE65EFC4F8081815080838EE9C5
:1035100092E065E00E94A91D8823B9F08091D00552
:10352000882399F46091E5057091E6058091E7059F
:103530009091E80520E030E040E050E00E94353313
:10354000882319F486E08093D0058EE992E066E046
:103550000E94A91D882331F08EEC93E06CE771E0A6
:103560000E94D0318EEC93E064EA71E00E942B312E
:10357000882369F08EE992E064E00E94A91D882307
:1035800031F08EEC93E066E871E00E94D0318EEC71
:1035900093E06AEA71E00E942B31882379F08EE98A
:1035A00092E064E00E94A91D882341F00E942E123F
:1035B0008EEC93E066E871E00E94D0318EEC93E0EF
:1035C00066E671E00E942B31882329F18EE992E0B2
:1035D00064E00E94A91D8823F1F083E08093D30565
:1035E0008093D4058EEC93E06CE771E00E94D031BB
:1035F00012C06091E5057091E6058091E705909114
:10360000E80520E030E040E050E00E9484341816E5
:103610000CF4FDCDBCCEDF91CF911F910F91FF90A7
:10362000EF90DF90CF90BF90AF900895AF92BF9290
:10363000CF92DF92EF92FF920F931F9384E992E073
:103640000E94F725882309F477C18EEC93E06CE79C
:1036500071E00E942B31882321F00E943D180E94C6
:103660004E0F8EEC93E06EE871E00E942B318823C0
:1036700049F08091D50381508093D6030E942E1289
:103680000E94FE178EEC93E066E871E00E942B31F9
:10369000882341F48EEC93E067E971E00E942B31BE
:1036A000882311F00E943D188EEC93E064EA71E0EB
:1036B0000E942B31882321F00E943D180E948D0C1E
:1036C0008EEC93E06FE671E00E942B31882309F4C1
:1036D00084C00E94B80E0E94EF0E0E94AD0B809134
:1036E000CF0590E00197FC01EE0FFF1FE80FF91FD7
:1036F000EE0FFF1FE65EFC4F8481882319F40E94C1
:103700003D1839C00E9401108091CF05869590E048
:10371000FC01EE0FFF1FE80FF91FEE0FFF1FEE0F6A
:10372000FF1FE25CFC4F82EE92E061814AE050E0D4
:103730000E947A308091CF05869590E0FC01EE0FD3
:10374000FF1FE80FF91FEE0FFF1FEE0FFF1FE25CD8
:10375000FC4F818190E0FC01EE0FFF1FE80FF91F85
:10376000EE0FFF1FE65EFC4F82EE92E063814AE0BF
:1037700050E00E947A300E944D0A8091D00583303B
:1037800010F40E94CF098091CF0590E00197FC01D1
:10379000EE0FFF1FE80FF91FEE0FFF1FE65EFC4F55
:1037A0008381813021F40E9476110E942E12609153
:1037B000E5057091E6058091E7059091E80520E028
:1037C00030E040E050E00E943533882331F48091AE
:1037D000D005882311F40E949A0C8EEC93E06DE5DD
:1037E00071E00E942B31882309F466C080E090E0EC
:1037F00060E070E00E94580B0E94B80E0E94EF0E2D
:10380000A090DD05B090DE05C090DF05D090E0050A
:103810006091D5057091D6058091D7059091D80516
:10382000A60195010E94D1326093D5057093D6050B
:103830008093D7059093D805E090E105F090E205DC
:103840000091E3051091E4056091D9057091DA05C6
:103850008091DB059091DC05A80197010E94D1328F
:103860006093D9057093DA058093DB059093DC05AE
:10387000C601B50120E030E040E050E00E94D132C6
:103880006093DD057093DE058093DF059093E0057E
:10389000C801B7012FE135E84BE65EE30E94D13263
:1038A0006093E1057093E2058093E3059093E4054E
:1038B0000E9491150E948C0A8EEC93E067E771E0FC
:1038C0000E942B318823B1F081E090E061E070E04C
:1038D0000E94580B0E94B80E0E94EF0E0E94AD0B82
:1038E0000E9480120E943D188091EC05873010F0F4
:1038F0000E942E128EEC93E06AEA71E00E942B3156
:10390000882351F00E94B80E0E94EF0E0E94AD0B6A
:103910000E94800C0E943D188EEC93E066E671E0F8
:103920000E942B31882341F00E94B80E0E94EF0EB6
:103930000E94130C0E943D181F910F91FF90EF9071
:10394000DF90CF90BF90AF90089584E992E00E94FD
:1039500019280E94B7160895882319F48CB580623F
:1039600002C08CB58F7D8CBD08959CB5937F982B3C
:103970009CBD08952CB5382F33702C7F322B3CBD65
:103980002DB590E0959587959595879581702E7FBB
:10399000822B8DBD08958AE061E00E94982E8AE016
:1039A00061E00E94592E8CB580618CBD8CB580641D
:1039B0008CBD8DE061E00E94592E8BE061E00E9499
:1039C000592E0895FC0181E08083089585E070E020
:1039D0000E94F92D08956F927F928F929F92AF92DD
:1039E000BF92CF92DF92EF92FF920F931F93CF93EC
:1039F000DF93EC0189819A818C0124E0000F111F73
:103A00002A95E1F7081B190B85E10E94D72DBC010F
:103A1000600F711F84E0769567958A95E1F77A8348
:103A200069838881882381F12E813F816217730722
:103A300010F4B90106C0888599858617970708F4A0
:103A4000BC0100D000D080E090E040E050E0E8848D
:103A5000F98400E010E0AD80BB24CC24DD246C8030
:103A6000772488249924EDB7FEB76182728283821D
:103A700094820E94A2306B830F900F900F900F9052
:103A800085E070E00E94F92DDF91CF911F910F9199
:103A9000FF90EF90DF90CF90BF90AF909F908F906E
:103AA0007F906F900895FC018CE39FE09383828365
:103AB00084E0818381E084870895CF93DF93EC01D4
:103AC0008C8590E08F719070892B69F584E10E945C
:103AD000D72DAA2797FDA095BA2FBC01CD010E9432
:103AE000D43326EE3FE34EEC50E40E9488340E942B
:103AF000A6339B01AC017B836A836115710589F054
:103B000084E08983B901FE0120E0848195816817F2
:103B1000790710F429830AC02F5F32962430A9F761
:103B200002C08FEF89838C858F5F8C87DF91CF9167
:103B30000895FC0188E0808389E0818387E08283A7
:103B400086E0838384E0848382E0858381E18683C9
:103B5000089520E0FC01E60FF11D8781813009F412
:103B600021E0822F089520E0FC01E60FF11D8781FE
:103B70008F3F09F421E0822F0895E62FF0E04230D4
:103B800040F420E0E80FF91F878181508E3F88F4D0
:103B90000FC0E80FF91F87818F3F11F420E009C0A3
:103BA00020E090E0642F70E00E941635019709F440
:103BB00021E0822F08950F931F93CF93DF93EC01A1
:103BC00010E00FEF888162E00E94592E88810E94E8
:103BD000EC2E2F81892B19F42F5F2F8307C022230E
:103BE00049F02F3F11F41F8201C00F83888160E0EC
:103BF0000E94592E1F5F2196173021F7DF91CF9138
:103C00001F910F910895FC01678F60A30895FC0137
:103C1000678F40A30895AF92BF92CF92DF92EF9249
:103C2000FF920F931F93CF93DF93EC01162FF42E87
:103C3000E22EAA24402F552747FD50958F2D992716
:103C400087FD9095481B590B57FF03C05095419530
:103C50005F4F2E2D332727FD3095812F992787FD24
:103C60009095281B390B37FF03C0309521953F4FA6
:103C70002417350744F4AA24A3948F2DF12E182F6E
:103C8000802F0E2DE82EE11634F48E2DE12E182F04
:103C9000802F0F2DF82EDE2CD11A202F332727FD51
:103CA00030958F2D992787FD9095281B390B37FF6D
:103CB00003C0309521953F4FB22EF0161CF0CC2456
:103CC000CA9402C0CC24C3948D2DD7FC8F5F082FDB
:103CD000059511C0AA2021F0CE016F2D412F03C000
:103CE000CE01612F4F2D0E948A040B1907FF02C0DD
:103CF000FC0C0D0D1F5FE1166CF7DF91CF911F914A
:103D00000F91FF90EF90DF90CF90BF90AF9008950C
:103D10000F93042F322F262F2150230F0E940B1EAA
:103D20000F9108950F93362F042F0150020F232F68
:103D30000E940B1E0F9108959F92AF92BF92CF9257
:103D4000DF92EF92FF920F931F93CF93DF936C015B
:103D5000B62E942EA02EC0E0D0E0E62EFF24E7FC85
:103D6000F094022F112707FD10950E0D1F1D06C0A0
:103D7000C601492D2A2D0E94921E21966B2D6C0F93
:103D8000CE018E0D9F1D8017910794F3DF91CF9187
:103D90001F910F91FF90EF90DF90CF90BF90AF9069
:103DA0009F900895CF92DF92EF92FF920F931F930F
:103DB0007C01162FD42EC22E0E94881E4D2D4150FC
:103DC000400FC701612F2C2D0E94881EC701612F53
:103DD0004D2D202F0E94921E11501C0DC701612FE6
:103DE0004D2D202F0E94921E1F910F91FF90EF905A
:103DF000DF90CF9008952F923F925F926F927F92C3
:103E00008F929F92AF92BF92CF92DF92EF92FF92EA
:103E10000F931F93DF93CF9300D000D000D0CDB786
:103E2000DEB79E838D83C62ED42EEE24E394E21A51
:103E30008EEF289F502C1124842E8A94962E9A94CB
:103E4000A42EA394B62EB394F22E662423E0722EF1
:103E500010E0C801847090709A838983F801E27041
:103E6000F070FC83EB8398E0292E312C2022312244
:103E70000170107054C0E7FC04C0FA94F2E05F0EC9
:103E8000E50C639489819A81892B71F04F2D4D0D3A
:103E90008D819E816B2D0E948A046F2D6C0D8D810A
:103EA0009E814A2D0E948A04EB81FC81EF2B71F0E8
:103EB0004D2D4F198D819E816B2D0E948A046F2D8F
:103EC0006C0D8D819E81482D0E948A04211431043D
:103ED00071F06C2D6F198D819E814A2D0E948A048C
:103EE0004F2D4D0D8D819E81692D0E948A040115F3
:103EF000110571F06C2D6F198D819E81482D0E94E6
:103F00008A044D2D4F198D819E81692D0E948A044E
:103F1000E70CF2E07F0E8A949A94A394B3946F1402
:103F20000CF4A9CF26960FB6F894DEBF0FBECDBF16
:103F3000CF91DF911F910F91FF90EF90DF90CF9085
:103F4000BF90AF909F908F907F906F905F903F90C9
:103F50002F9008954F925F926F927F928F929F92CF
:103F6000AF92BF92CF92DF92EF92FF920F931F9387
:103F7000CF93DF93EC01A62E742E9E2DFF24F39495
:103F8000F21A8EEF289F802C1124B42EBA9453E09D
:103F9000C52ECE0CE22EDD2443E0942E10E031E05D
:103FA000432E512C40225122692E639402701070CE
:103FB00034C0F7FC04C0EA9482E0880EF80CD39475
:103FC0004114510489F06D2D6A0D472D4E192E2D87
:103FD000220F260DCE010E94921E6E2D6A0DCE017B
:103FE0004B2D2C2D0E94921E0115110589F06A2D72
:103FF0006D19472D4E192E2D220F260DCE010E9430
:10400000921E6A2D6E19CE014B2D2C2D0E94921EF0
:10401000F90C82E0980EBA94C80EDE1454F2DF91C7
:10402000CF911F910F91FF90EF90DF90CF90BF90B5
:10403000AF909F908F907F906F905F904F9008957A
:104040007F928F929F92AF92BF92CF92DF92EF9228
:10405000FF920F931F936C01962EA42EF22E7E2CAE
:10406000760E1EEFE19E102D1124812E820E672DFB
:10407000282D0E94881EB02EBA0CBA94C601672D56
:104080004B2D282D0E94881EAE0C100FC601692DE5
:104090004A2D212F0E94921EF90CFA94C6016F2D11
:1040A0004A2D212F0E94921EC601672D4A2D2E2DCA
:1040B00001E00E94FB1EFE18C6016F2D4A2D2E2D19
:1040C00002E00E94FB1EBE18C6016F2D4B2D2E2D47
:1040D00004E00E94FB1EC601672D4B2D2E2D08E02B
:1040E0000E94FB1E1F910F91FF90EF90DF90CF90E9
:1040F000BF90AF909F908F907F9008958F929F92E6
:10410000AF92BF92CF92DF92EF92FF920F931F93E5
:104110006C01162FA42E922EF02EBE2C8E2C860E05
:104120002EEFE29EE02C11242E2D290D682D0E94E9
:104130009C1EAB0CFA94FE0C1150190D1B19C601F4
:10414000612F4A2D2B2D01E0EF2C0E94AA1FC601E2
:10415000682D4A2D2B2D02E00E94AA1F1F910F915E
:10416000FF90EF90DF90CF90BF90AF909F908F9097
:1041700008953F924F925F926F927F928F929F929B
:10418000AF92BF92CF92DF92EF92FF920F931F9365
:10419000CF93DF934C01362E442EF901A490319633
:1041A00054906F010894C11CD11C8A2D992787FD5A
:1041B0009095079668E070E00E942A35E62EFF246D
:1041C000E7FCF09400E0C0E0D0E060E8662E712CDF
:1041D00026C0E12FE595E595E595FF27E7FDF095EC
:1041E000EC0FFD1FEC0DFD1DE4912E2F30E0812F13
:1041F0008770A30102C0559547958A95E2F724235D
:104200003523232B31F0612F630DC4014B2D0E9408
:104210008A041F5F1A15ECF20F5FCE0DDF1D051526
:1042200024F410E0B02EB40CF5CFDF91CF911F91A4
:104230000F91FF90EF90DF90CF90BF90AF909F9045
:104240008F907F906F905F904F903F9008952F9246
:104250003F924F925F926F927F928F929F92AF9216
:10426000BF92CF92DF92EF92FF920F931F93DF9353
:10427000CF9300D000D00F92CDB7DEB73C01862E91
:104280004A83F901BE2C002329F4EE2019F40E9480
:10429000B9207AC0A490319694901F010894211CF3
:1042A000311C037009838A2D992787FD9095079605
:1042B00068E070E00E942A35462E552447FC509451
:1042C000C92CCA94FF241D821C824A2D41504B8365
:1042D00056C0E02FE595E595E595FF27E7FDF095BC
:1042E0008C819D81E80FF91FE20DF31DE4912E2FC3
:1042F00030E0802F8770A0E8B0E002C0B595A795A8
:104300008A95E2F72A233B23232B61F1B981B1304F
:1043100051F0B13028F0B23049F0B33061F409C047
:10432000102FEF2C08C0ED2C1F2D05C01D2DEC2CDF
:1043300002C01C2DE02EBB2069F0E3E0BE228B2DD5
:10434000B0FE03C0FA2DF11B1F2F81FF03C0492DC2
:104350004E19E42E180D5A81E50EC301612F4E2D22
:104360000E948A040F5FDA940A150CF4B2CFF3941A
:104370008C819D81840D951D9D838C83CA94F91435
:104380001CF4DB8000E0F0CF0F900F900F900F90A7
:104390000F90CF91DF911F910F91FF90EF90DF90E1
:1043A000CF90BF90AF909F908F907F906F905F90D5
:1043B0004F903F902F9008953F924F925F926F924F
:1043C0007F928F929F92AF92BF92CF92DF92EF92A5
:1043D000FF920F931F93CF93DF93EC01862EA42EB1
:1043E000422F102F3F8C23E526170CF4ABC03FE281
:1043F0003A150CF4A7C0C02EDD248C8190E0019703
:104400009C01C29EC001C39E900DD29E900D1124AE
:10441000262F332727FD3095820F931F1816190674
:104420000CF090C08D8190E09C01C29EC001C39EA3
:10443000900DD29E900D11242A2D332727FD309503
:10444000820F931F181619060CF07CC09924442E75
:1044500055246DC09C01215030404217530711F480
:1044600060E00EC0429EC001439E900D529E900D92
:104470001124840F951FED8DFE8DE80FF91F6491B7
:104480004C9DC0014D9D900D5C9D900D1124682C9C
:10449000680EBB24792C780C3FC0E62EFF2460FF09
:1044A00019C0113039F44B2D4A0DCE01672D0E94F1
:1044B0008A042EC02C9DC0012D9D900D3C9D900D19
:1044C00011244A2D480FCE01662D212F012F0E9465
:1044D0009C1E1EC098A18F8D9817D1F09F8F113010
:1044E00039F44B2D4A0DCE01672D0E948A040FC06E
:1044F0002C9DC0012D9D900D3C9D900D11244A2DA9
:10450000480FCE01662D212F012F0E949C1E3F8E49
:10451000F594E7946E2DB3942B2D332727FD30951A
:104520008D8190E0281739070CF4B7CF9394492D6B
:10453000552747FD50958C8190E0481759070CF49A
:1045400089CF3F8EDF91CF911F910F91FF90EF9018
:10455000DF90CF90BF90AF909F908F907F906F90A3
:104560005F904F903F9008950F93CF93DF93EC01AE
:10457000262F6A3049F48D819885899F802D1124DA
:104580009A85980F9A8726C06D3029F169854A85EA
:1045900008850E94DC219C816885969F402D11240E
:1045A0008985480F49878F818823A9F0552747FDC2
:1045B0005095699F9001112484E590E0821B930B34
:1045C0008417950744F49D81699F902D11248A8555
:1045D000890F8A87198681E090E0DF91CF910F9152
:1045E00008951F93CF93DF93EC01162FF8948E85D7
:1045F00060E00E94982E8F8518161CF460E00E94DF
:10460000982E1EBD0DB407FEFDCF8EB58F851816F2
:104610001CF461E00E94982E7894DF91CF911F9155
:104620000895FF920F931F93CF93DF93EC01FF2424
:1046300000E010E06F2D6064CE010E94F122CE01F7
:1046400060E80E94F1228E8561E00E94982E8F859D
:1046500018161CF460E00E94982EF801E351FA4FFE
:1046600090E080818EBD0DB407FEFDCF8EB59F5FBB
:1046700031969435B1F78F8518161CF461E00E94CD
:10468000982EF3940C5A1F4F86E0F81699F6CE0137
:1046900060E40E94F122DF91CF911F910F91FF9072
:1046A0000895CF93DF93DC0188EF91E0EDEEF5E024
:1046B000EF019C01199221503040E1F719961C92AC
:1046C00019971A961C92DF91CF910895EF920F934C
:1046D000CF93DF93EC014D876C872E87E88A0F8795
:1046E00081E088878F8F18A28F83E7E0F4E08491C0
:1046F0008F5F8C83319684918F5F8D833196FE8F8F
:10470000ED8F0E94CB1C81E00E94AC1C85E00E94D2
:10471000BA1C8CE00E94B51C8D8561E00E94592E68
:104720008C8561E00E94592E8E8561E00E94592E91
:10473000888918161CF461E00E94592E8F8518167E
:104740001CF461E00E94592E888918166CF460E010
:104750000E94982E6AE070E080E090E00E94432D75
:10476000888961E00E94982EEC852E2F332727FD43
:104770003095F901EA5CF84FE491F0E0EE0FFF1F8D
:10478000EE5DF84F859194919C8B8B8B265B384F17
:10479000F90184918A8FED852E2F332727FD3095DF
:1047A000F901EA5CF84FE491F0E0EE0FFF1FEE5DD7
:1047B000F84F859194919A8B898B265B384FF9013C
:1047C0008491898FEF852E2F332727FD3095F901AE
:1047D000EA5CF84FE491F0E0EE0FFF1FEE5DF84F5A
:1047E000859194919E8B8D8B265B384FF901849136
:1047F0008B8FEE852E2F332727FD3095F901EA5C4C
:10480000F84FE491F0E0EE0FFF1FEE5DF84F859159
:104810009491988F8F8B265B384FF90184918C8F00
:10482000CE0161E20E94F122CE0164E10E94F122F8
:104830008B8587FF02C08FE78B876B856068CE0111
:104840000E94F122CE0160E20E94F122CE016CE0D2
:104850000E94F122CE010E941123DF91CF910F918E
:10486000EF900895CF93DF93DC01E0E8F7E78591BF
:104870009491ED01C75ADF4FAD0141595F4F81500F
:10488000904C09F04EC0E6E9F7E7E491E883E7E9E8
:10489000F7E7E4911496EC931497E8E9F7E7E491CD
:1048A0001596EC931597E9E9F7E78591949117969A
:1048B0009C938E931697EBE9F7E78591949119965F
:1048C0009C938E931897EDE9F7E7E4919B96EC9310
:1048D0009B97EEE9F7E7E4919A96EC939A97EFE9C4
:1048E000F7E7E491EA01E883E0EAF7E7859194913C
:1048F0005D969C938E935C97E2EAF7E7859194919D
:104900005F969C938E935E97E4EAF7E78591949186
:1049100091969C938E939097E6EAF7E78591949110
:1049200032C08CE3888314961C9214972FEF15964F
:104930002C93159780E293E017969C938E9316978D
:1049400084ED93E019969C938E93189781E09B9643
:104950008C939B979A968C939A97FA0120838CEA72
:104960009DE05D969C938E935C978EED9DE05F96A7
:104970009C938E935E9784E79EE091969C938E9392
:1049800090978CE39FE093969C938E939297DF9100
:10499000CF910895EF92FF920F931F93CF93DF93E0
:1049A0007C018C01025B1F4FC8010E945123C8018A
:1049B0006EEA75E00E947B2FC8010E94112383E0FC
:1049C0000E94BA1C81EB91E0EEEFFFE3099584E5CC
:1049D00090E0E80EF91EF7011082C80169E875E061
:1049E0000E94C62FC8010E941123E701CA54D0407B
:1049F000CE010E94DB1DCE0164E00E94A91D882328
:104A000039F462E370E080E090E00E94432DF0CF43
:104A1000DF91CF911F910F91FF90EF9008950F9329
:104A20001F93CF93DF93EC018C01025B1F4FC801F2
:104A300061E040E00E94071EFE01E95AFF4FCE5A96
:104A4000DF4F85E59881891B808326961882C8559B
:104A5000D040698D613009F43EC0613028F0888D06
:104A6000653008F051C04BC0CE0185960E94E02809
:104A7000CE0160E00E94E61CC8010E945123CA5A80
:104A8000DF4F81E08883C655D040C8016AEE75E0EB
:104A90000E947B2F6A8D7B8DC8014AE050E00E9406
:104AA0006930C80166ED75E00E947B2FC8010E9445
:104AB000112383B7817F846083BF83B7816083BF05
:104AC00083B7816083BF889583B78E7F83BF83B7A9
:104AD0008E7F83BF1FC0C059DF4F88819981AA8113
:104AE000BB818F709070A070B0700897A105B10560
:104AF00018F4C80167E00CC0C80168E709C0882342
:104B000049F06B5FC80104C0882321F0C8016FE23F
:104B10000E949E2FDF91CF911F910F910895AF9228
:104B2000BF92CF92DF92EF92FF920F931F93CF939A
:104B3000DF93EC01CB57DF4F8881C558D0408823E5
:104B400009F44AC08C3010F010E002C01CE0181BC1
:104B5000CA5ADF4F81E08883C655D0406EE4C62E26
:104B6000D12CCC0EDD1EC60160E00E94031E53E571
:104B7000A52EB12CAC0EBD1EF50100814DE2F42E28
:104B80004F2D401B410F0D5FC60160E024E533E06F
:104B9000E32E0E947E20C60161E00E94031EF50103
:104BA0000081F01AF10E0D5FC60160E04F2D24E583
:104BB0000E942020C95ADF4F84E08993F50180814B
:104BC000181B115D1883AB9669917991C6010E94FB
:104BD0007B2F888181508883DF91CF911F910F9126
:104BE000FF90EF90DF90CF90BF90AF900895AF927D
:104BF000BF92CF92DF92EF92FF920F931F93CF93CA
:104C0000DF93EC01EFE7AE2EB12CA80EB91EF50133
:104C1000E080F180028113810E940F2DE61AF70ACD
:104C2000080B190B7EE7C72ED12CCC0EDD1EF6012A
:104C3000808190E0A0E0B0E08E159F05A007B1074D
:104C400008F081C08E0106581F4FF80180819181C4
:104C5000A281B3810097A105B10509F474C00E9437
:104C60000F2DF6012081620F711D811D911DF5012F
:104C70006083718382839383FE01E059FF4F8081BB
:104C80009181A281B3810196A11DB11D8083918381
:104C9000A283B383F80110821182128213820E94D0
:104CA0001D2DCA58DF4F688379838A839B83C6573B
:104CB000D040CE010E94EB1CCE010A960E94DB1D63
:104CC000CE0148960E945D1D81E032C08E010B5DD1
:104CD0001F4FC8010E94DC28C8010E94DA29C801C0
:104CE0000E94E22ACE010E948F25CE010E940F254C
:104CF0008E01025B1F4FC8010E941123CC5ADF4F67
:104D00008881C455D040882319F4C8010E945123DA
:104D10000E941D2DC658DF4F688379838A839B8349
:104D2000249728813981621B730B7A936A9380E000
:104D3000DF91CF911F910F91FF90EF90DF90CF9077
:104D4000BF90AF900895C658DF4F88819981AA819E
:104D5000BB81CA57D0400097A105B10541F7B6CF36
:104D60002F923F924F925F926F927F928F929F927B
:104D7000AF92BF92CF92DF92EF92FF920F931F9369
:104D8000DF93CF93CDB7DEB72B970FB6F894DEBF86
:104D90000FBECDBF9B878A877A8369835C834B83F1
:104DA0008C0101591F4FF8018081882309F422C129
:104DB0008A859B858A5A9F4F9B878A8781E0EA85EF
:104DC000FB85808312921292E455F040FB87EA87BC
:104DD000108E9EE4E92EF12CEE0EFF1EC70161E05D
:104DE0000E94031E8AE0282E312C8A859B85280E7E
:104DF000391EB5E26B2E712C680E791EE981FA819D
:104E0000F491FD83A7E58A2E912C880E991EF8E572
:104E1000CF2ED12CC80ED91EE2E54E2E512C480EB5
:104E2000591E8D5A9F4F9F838E8370E7A72EB12CFA
:104E30008A859B85A80EB91E198708878A859B8558
:104E40000E94F7258823D1F39D81992311F410E066
:104E500003C0EE81FF811081C70160E040E027E2DE
:104E600036E00E94B9208B819C81892B41F0145F30
:104E7000C70160E0412F2B813C810E94B920F401E1
:104E800010828CE0F6018083C70169817A810E94DB
:104E90007B2FF201208130E0C901880F991F820F1A
:104EA000931F909581959F4F8D5AF4018083EE81D9
:104EB000FF81208130E0C901880F991F820F931F65
:104EC000909581959F4F835DF6018083F5018081E8
:104ED00084FF04C0C70167EA76E003C0C70163EA44
:104EE00076E00E94C62FF201208130E0C901880FD0
:104EF000991F820F931F909581959F4F8D5AF401B2
:104F00008083F60180818F5F8083EA85FB8582A59F
:104F1000882321F0C7016FE976E003C0C7016BE980
:104F200076E00E94C62FF201808190E09C01220F62
:104F3000331F280F391F309521953F4F2D5AF4010B
:104F40002083F60180818F5F8083C70167E976E067
:104F50000E94C62FC10165E00E94A91D882351F05F
:104F6000EA85FB8562A56F5FC3010E944B2BC301DD
:104F70000E94452BC10164E00E94A91D882399F479
:104F8000E885F9856081262F30E040E050E0F501AA
:104F900080819181A281B38182179307A407B5070D
:104FA00008F16F3FF9F08A859B8581599F4F9B8758
:104FB0008A878FEFEA85FB858083EF56F040FB8779
:104FC000EA87C30160E00E948028C3010E943F2B52
:104FD00081E0EA85FB85808F0DC08A859B850E94D4
:104FE000CA242CCFC10166E00E94A91D882309F4C0
:104FF00025CFF3CF2B960FB6F894DEBF0FBECDBFF3
:10500000CF91DF911F910F91FF90EF90DF90CF90A4
:10501000BF90AF909F908F907F906F905F904F90D8
:105020003F902F900895AB016CEA76E00E94B02685
:105030000895AF92BF92CF92DF92EF920F93CF93EA
:10504000DF936C018EE790E0C80ED91E82E3F60173
:10505000808381E090E0A0E0B0E0B293A2939293CD
:1050600082936F0185EF9FEFC80ED91E8FEFF60177
:10507000808381E99FEFC80ED91EC6010E943224A9
:10508000C6010E94E21CC6016FEF0E94E61C4AE0C6
:10509000A42EB12CAC0CBD1CC5010E94991DC501EC
:1050A0000E94DB1DC60148960E94531DC601825B0B
:1050B0009F4F6DE04BE020E10FE03EE0E32E0E94C9
:1050C0006623E601A596CE010E94582BC50165E036
:1050D0000E94A91D882329F0CE0160E00E944B2B7D
:1050E00006C0CE016DEA76E040E00E949228DF9192
:1050F000CF910F91EF90DF90CF90BF90AF90089538
:10510000FC01662371F4178A158A14A213A2108E6B
:105110001092E9071092E8071092E6071092B40087
:10512000118208950F931F93CF93DF93EC018B01AE
:10513000442371F460E00E9480281E870D871B8A3B
:105140001A8A81E0898389E08E8B198E1B8E1D8ED1
:10515000DF91CF911F910F910895CF93DF93EC01D1
:10516000662339F58881882321F18981882309F50F
:10517000898590E0880F991FEF81F885E80FF91F66
:10518000859194912FEF8F3F920711F4188211C0EF
:105190009C8790E0880F991FEA85FB85E80FF91F2F
:1051A00065917491CE0140E00E94922889858F5FBD
:1051B0008987DF91CF91089560E00E94AD2808951E
:1051C00060E00E94802808950F93DC01002309F01D
:1051D00069C0623009F443C0633030F4662359F08B
:1051E000613009F05FC00DC0633009F444C0643021
:1051F00009F058C04CC04B3008F04AE056964C932A
:1052000051C0842F90E0880F991F1F962D913C91DB
:105210005097280F391FF9018591949190969C938E
:105220008E935F97FC014591549114968C9114973D
:10523000849F602D112491966C939197252F33278D
:10524000862F90E02817390708F4652F14968C9163
:105250001497689F802D112492968C9323C01496E6
:105260008C911497489F802D112459968C935997AF
:105270005A962C9317C014968C911497489F802DA2
:1052800011245B968C935B975C962C930BC01496C1
:105290008C911497489F802D11245D968C935D9777
:1052A0005E962C930F9108950F93CF93DF93EC01AB
:1052B000662309F07BC08981882309F477C08D8932
:1052C000882309F073C0EA89FB89EE0FFF1F4D8523
:1052D0005E85E40FF51F259134912115310509F004
:1052E00049C08989813031F41B8A1A8AFA012591D3
:1052F000349140C019828881882379F0CE0160E022
:105300000E94AD288A899B89880F991FED85FE85AB
:10531000E80FF91F259134912DC01F8A1D8A1CA208
:105320001BA2188E1092E9071092E8071092E60768
:105330001092B4003BC006E0369527950A95E1F738
:105340006F70422F4F71B5E036952795BA95E1F70A
:105350002051CE0100E00E94E4288A899B890196B1
:105360009B8B8A8B880F991FED85FE85E80FF91FAF
:1053700025913491B901769567957695679520FDCD
:10538000DACF862F8F738C8B8C81839F802D112495
:105390008D8B1DA21CA21BA281E08F8B8093E60740
:1053A000188E8A899B8901969B8B8A8BDF91CF917E
:1053B0000F91089560E00E9454290895FC01222372
:1053C00071F4648B8481489F802D1124858B15A2F4
:1053D00014A213A281E0878B8093E607108E0895B4
:1053E000CF93DF93EC01662309F0E9C08F8988230E
:1053F00009F4E5C08D89882371F41F8A1D8A1CA2D7
:105400001BA2188E1092E9071092E8071092E60787
:105410001092B400D4C081508D8B8DA1882309F0E7
:1054200044C08BA19CA10196880F991FEF8DF8A114
:10543000E80FF91F85919491282F27702EA3AC01B6
:1054400073E0569547957A95E1F79A013695279539
:10545000892F9927869586958FA32F738C81289FF6
:10546000202D11242DA341704093EA078BA19CA10C
:1054700001969CA38BA329A130E082179307A8F083
:105480008AA1882329F0281B31093CA32BA30DC036
:105490001F8A1D8A1CA21BA2188E1092E907109267
:1054A000E8071092E6071092B4008DA181508DA3F9
:1054B000988D9F5F988F2FA18C89280F8C85280F3E
:1054C0002A836B8D662369F0892F992787FD909534
:1054D00070E00E942A358C8D869F802D1124820FCA
:1054E0008A838A8190E0CB966BE370E00E942A3534
:1054F0008A832E892B83698D662379F0888D77279F
:1055000067FD7095992787FD90950E942A358A8DB1
:10551000869F802D1124820F8B836D8D662399F0D9
:10552000888D992787FD909570E00E942A35CB01E0
:1055300062E070E00E942A359E8D899F802D1124A3
:105540009B81890F8B838B818A300CF089E087FDEA
:1055500080E08B838C898F3309F41B82F894EA8175
:10556000F0E0EF52F94FE491E093E7072D8130E04E
:105570008B81992787FD9095A901489F9001499FAC
:10558000300D589F300D112488A590E0A901489F47
:105590009001499F300D589F300D11248EA19927FD
:1055A00087FD9095AC01249FC001259F900D349FED
:1055B000900D11248093E8078093E9077894DF9198
:1055C000CF91089560E00E94F02908956091E80766
:1055D000662381F18091E5078F5F8093E5079091C5
:1055E000E707891738F130E08091E607882309F44E
:1055F00031E03093E6071092E5078091EA078823AF
:10560000A9F08091BC0123E4829FC0011124895B31
:105610008093BC0190E070E00E9416358093E9070A
:1056200005C08091E9078093B40008953323C9F73A
:1056300080E0F9CF08951F920F920FB60F921124B8
:105640002F933F934F935F936F937F938F939F938A
:10565000AF93BF93EF93FF930E94E62AFF91EF91E0
:10566000BF91AF919F918F917F916F915F914F917A
:105670003F912F910F900FBE0F901F90189569ECDE
:1056800076E040E00E94922808956BEB76E040E0DF
:105690000E9492280895FC01862F668170E06F5F5A
:1056A0007F4F992787FD90950E942A35858308951D
:1056B0000F93FC0181E0848384E080A78CE097E075
:1056C000908B8787CF0161E040E020E000E00E94FE
:1056D000E42883E061E070E00E94F92DE1EBF0E066
:1056E0008081887F81608083F89410928000E1E857
:1056F000F0E01082109285001092840088E191E021
:105700009093890080938800808188608083808165
:1057100081608083EFE6F0E080818260808378940E
:105720000F9108950F931F93CF93DF93BC018230A5
:10573000910510F462E070E0E091F607F091F70750
:1057400040E050E0A0E0B0E024C080819181861765
:105750009707D0F08617970771F48281938110978D
:1057600029F013969C938E9312972CC09093F70771
:105770008093F60727C04115510519F08417950746
:1057800018F48D01AC01EF01DF01828193819C014E
:10579000F9013097D1F641155105F9F0CA01861B80
:1057A000970B8430910580F48A819B810115110546
:1057B00021F0F8019383828304C09093F7078093CC
:1057C000F607FE01329645C0FE01E80FF91F61930E
:1057D00071930297998388833CC08091F4079091DC
:1057E000F507892B41F48091BF019091C0019093FE
:1057F000F5078093F4074091C1015091C201411512
:10580000510541F44DB75EB78091BD019091BE0145
:10581000481B590B2091F4073091F50724173507E1
:10582000B0F4CA01821B930B8617970780F0AB0177
:105830004E5F5F4F8417950750F0420F531F5093F0
:10584000F5074093F407F9016193719302C0E0E01A
:10585000F0E0CF01DF91CF911F910F910895CF9389
:10586000DF939C01009709F48FC0EC0122971B8203
:105870001A826091F6077091F7076115710581F43E
:1058800088819981820F931F2091F4073091F50749
:105890002817390739F5D093F507C093F40774C07A
:1058A000DB0140E050E0AC17BD0708F1BB83AA83E1
:1058B000FE0121913191E20FF31FAE17BF0779F47A
:1058C0008D919C911197280F391F2E5F3F4F39837F
:1058D000288312968D919C9113979B838A834115FF
:1058E000510571F4D093F707C093F6074DC0129697
:1058F0008D919C911397AD01009711F0DC01D3CFEE
:10590000DA011396DC93CE931297FA01219131912B
:10591000E20FF31FCE17DF0769F488819981280F02
:10592000391F2E5F3F4FFA01318320838A819B818B
:1059300093838283E0E0F0E0DB0112968D919C91ED
:105940001397009719F0BC01FD01F6CFAB014E5F34
:105950005F4FDB018D919C91840F951F2091F4077F
:105960003091F5072817390779F4309729F4109208
:10597000F7071092F60702C013821282425050407D
:105980005093F5074093F407DF91CF9108951F924C
:105990000F920FB60F9211242F933F938F939F93E3
:1059A000AF93BF938091EF079091F007A091F1071B
:1059B000B091F2073091F3070196A11DB11D232F7D
:1059C0002D5F2D3720F02D570196A11DB11D20937D
:1059D000F3078093EF079093F007A093F107B0933C
:1059E000F2078091EB079091EC07A091ED07B09141
:1059F000EE070196A11DB11D8093EB079093EC0774
:105A0000A093ED07B093EE07BF91AF919F918F9157
:105A10003F912F910F900FBE0F901F9018958FB749
:105A2000F8942091EF073091F0074091F1075091E1
:105A3000F2078FBFB901CA0108959FB7F89420916A
:105A4000EB073091EC074091ED075091EE0786B5DA
:105A5000A89B06C08F3F21F02F5F3F4F4F4F5F4FF6
:105A60009FBF542F432F322F2227280F311D411D56
:105A7000511D82E0220F331F441F551F8A95D1F715
:105A8000B901CA0108959B01AC017FB7F8948091D8
:105A9000EB079091EC07A091ED07B091EE0766B58A
:105AA000A89B05C06F3F19F00196A11DB11D7FBFD6
:105AB000BA2FA92F982F8827860F911DA11DB11DE0
:105AC00062E0880F991FAA1FBB1F6A95D1F7BC011E
:105AD0002DC0FFB7F8948091EB079091EC07A0914F
