:100000000C94BA030C94E2030C94E2030C94E20304
:100010000C94E2030C94E2030C94E2030C94E203CC
:100020000C94E2030C94E2030C94E2030C94692A0E
:100030000C94E2030C94E2030C94E2030C94E203AC
:100040000C94E02A0C94E2030C94E2030C94E20377
:100050000C94E2030C94E2030C94E2030C94E2038C
:100060000C94E2030C94E203482300000082540045
:100070000000000000015B15B5000000000001D287
:1000800055250000000000015154A30000000000AD
:100090000000000100000000000FFFFFFA600000F8
:1000A0000000000000000000000014000000012813
:1000B000000000155A4C14C2A36000001D552A14FC
:1000C00083AA50000015956A0982A950000000001B
:1000D00000000000000000000000000000FF8000A1
:1000E000000000000003FFE0000E0000000007FF1A
:1000F000E00031800000000FFFF0004040000000F1
:100100000FFFF0008F200000000FFFF00090A00014
:1001100000000FFFE0013FD00000000FFFC0013FD3
:10012000D0000000027F800165500000000FFE003B
:1001300003E0500000000FFC000566900000000F77
:10014000FE0006B0A00000000A8F80055F6000007E
:10015000000007C003AAA0000000003FF004756083
:100160000001F001FFF8050FC010011BC1FFF808E6
:10017000C3FFF8000FFCFEF80837FCF8007FFCFD19
:10018000E80A0FFFF00007BF67D811803FF0021E9A
:1001900053FF781078148003F3EFFDF02007F3008D
:1001A0000000FFF7F00404F0F0F0F0040470F0F049
:1001B000F00404E0F0F0F00404F0F0F0E00404F0E7
:1001C000F0F070040460F0F0F0040470F0F07004DB
:1001D00004F0F0F0600404E0F0F0E0040470F0F0EB
:1001E000E00404E0F0F070040460F0F070040460D7
:1001F000F0F0E00404E0F0F060040470F0F060045B
:10020000040000000004048000000004041000004A
:1002100000040400000010040400000080040490A6
:10022000100000040480000080040400000090041A
:1002300004100000100404800000100404100000EA
:100240008004049000008004049000001004041056
:10025000000090040480000090040460F0609004AA
:1002600004F0F06090150C00000000000080100009
:10027000C01800C00808C01C38C21C78C61C78E62C
:100280001C78F61C78FF3FF8FFFFF8150C00000003
:1002900000000000010001030001960000BC1000F6
:1002A000F810807010807838C07878E47878FFFF94
:1002B000F8150C0000000000000000000000000025
:1002C0000008400018E00078E00038C00038E00086
:1002D00078F104F8FFFFF8150C00000000000000A2
:1002E00000800001809001C8FC03C8FE07D8F00F11
:1002F000F8E007F8C003F8F807F8FFFFF8150C005E
:100300003FF80009F80000F80000B8020038760055
:1003100018FF0038FFC0B8FF81F8FF01F8FF80F830
:10032000FFFFF8150C00000000000000000880002E
:1003300018C80008FED808FFFC08FFF008FFA00856
:10034000FF0018FF80F8FFFFF8150C03789803D022
:100350000801C0188080088000088007C0C00FE82E
:10036000E01FE8C0F878E073387DE798FFFFF815E4
:100370000C00000000000000450081FF80C7FFC0A6
:10038000E3FFE0C1FFC0F09380F80000FC0000FE36
:100390000008FFFFF8150C07C03807E018078018A1
:1003A000030008038000030400810400C00C00E087
:1003B0000E00F01E00E0FF80FFFFF8150C00F03883
:1003C00000600838C008E0C000C183C08187408356
:1003D0000FE0021BE0800FB0901FF0D03EF0FFFF57
:1003E000F8150C01E03800F018487808FC3F88FC4C
:1003F0003FC0F87F80F07F00F0F600D0400890000A
:1004000018800078FFFFF803053F213F1208120A09
:10041000100A0E1C0E0C1E0C141A14161F161E1396
:100420001E1E1B1E1E1F1E3F213F3A2F3A173D174F
:100430003F213F181F02040A041F0E04040E1F0A66
:100440001F0A0E0E1F04110E2E252E2F2A2E2629CE
:1004500029021F02081F08150E04040E150E15159B
:100460001B151B040604040C040000000017000305
:1004700000031F0A1F16371A1904130A153A00033E
:1004800000000E11110E000A040A040E04003000D0
:100490000404040010001804031F111F121F101D74
:1004A000151711151F07041F17151D1F151D010115
:1004B0001F1F151F17151F000A00003200040A1124
:1004C0000A0A0A110A040115020E11171E051E1F41
:1004D000150A0E110A1F110E1F15111F05010E110D
:1004E0001D1F041F111F1108100F1F041B1F1010C8
:1004F0001F061F1E040F0E110E1F09060E112E1FC0
:10050000051A121509011F011F101F0F180F1F0CCC
:100510001F1B041B031C03191513001F11030418D0
:10052000111F000201022020200001020C121E1FD8
:10053000120C0C12120C121F0C1A14041E05242A81
:100540001E1F021C141D1020201D1F0814111F1037
:100550001E041E1E021C0C120C3E0A040C123E1E2F
:10056000040214160A020F120E101E0E100E1E08A0
:100570001E120C1226281E322A26041E21001F00DD
:10058000211E040102013F213F0A4E6F20534420E7
:1005900063617264206F720A6E6F204C4F41444554
:1005A000522E4845580A0A153A45786974001D20AC
:1005B000466C617368696E670A20206C6F616465C0
:1005C000722E2E2E0A0A444F4E2754205455524E56
:1005D000204F464621006D560A0A504C454153456E
:1005E0000A5455524E204F4646004C4F5720424128
:1005F00054544552590A00177361766500166261BA
:10060000636B001574797065000A0A0A153A6F6BFE
:10061000617920163A6564697400596F7520656EBA
:1006200074657265640A00540A03E181867F3E188E
:100630006D830F0F0E0183866033186DC3198F18F9
:1006400003C38E6033186DE330CF1803C39E60364A
:1006500030CDE360CF3006C79E7E3E30CDB360CF55
:10066000300CC6F6603330D9B660CF33CFCCF660ED
:1006700061B0DB1E60CF30D86CE6C061B0DB1E61BC
:100680008F19986CC6C063B19B0E330F0FB078C63C
:10069000FF7E1F1B061E0F1753440016137800160B
:1006A000131400151020001520100000000500890B
:1006B00030080238024978681400004500680100DB
:1006C00000050068013801000005003801680100DC
:1006D00000F6E8DBCFC3B8AEA49B928A827B746E2F
:1006E00068625C57524E4945413E3A3734312E2CB0
:1006F00029272523211F1D1C1A191716151413123B
:1007000011100F0E0D0C0B0A09080706100714072D
:100710000101F7030101FF0300000000240027008E
:100720002A0000000000250028002B000000000027
:100730002300260029000404040404040404020223
:100740000202020203030303030301020408102050
:10075000408001020408102001020408102000005B
:100760000007000201000003040600000000000072
:100770000000CF0C11241FBECFEFD8E0DEBFCDBFED
:1007800012E0A0E0B1E0EAE5F4E602C005900D92C7
:10079000AA34B107D9F717E0AAE4B2E001C01D926C
:1007A000A53AB107E1F717E0C4E7D7E004C0229704
:1007B000FE010E94F031C237D107C9F70E94592DBE
:1007C0000C942B320C940000A0E0B0E0EAEEF3E0D1
:1007D0000C94FC31EC01A880B980CA80DB80A114A4
:1007E000B104C104D10441F484E2A82E89EDB82EED
:1007F0008BE5C82E87E0D82EC601B5012DE133EF79
:1008000041E050E00E94D33127EA31E440E050E07B
:100810000E945F317B018C01C601B5012DE133EFF0
:1008200041E050E00E94D331CA01B9012CEE34EF0F
:100830004FEF5FEF0E945F316E0D7F1D801F911F94
:1008400097FF04C06150704080409048688379836E
:100850008A839B839B01AC015F77B901CA01CDB745
:10086000DEB7EAE00C9418320E94E403089583E6B0
:1008700091E00E94E4030895609363017093640122
:1008800080936501909366010895742F643530F567
:1008900047FD24C0403314F5842F859585958595B3
:1008A000992787FD9095462F552747FD509524E5BC
:1008B00030E0829FF001839FF00D929FF00D112494
:1008C000E40FF51FE256FA4F808190E0777002C086
:1008D000959587957A95E2F78170089580E008955F
:1008E0000F931F93FC01062F142F643508F03FC0AF
:1008F00047FD3DC04033DCF5978D923039F4CF0190
:100900000E94450490E0882309F491E0812F8595A9
:1009100085958595602F772767FD7095412F4770E6
:10092000992399F4E4E58E02F0011124E60FF71FF4
:10093000E256FA4F81E090E002C0880F991F4A9575
:10094000E2F780952081282311C0E4E58E02F001B2
:100950001124E60FF71FE256FA4F81E090E002C043
:10096000880F991F4A95E2F72081282B20831F9139
:100970000F9108956F927F928F929F92AF92BF9244
:10098000CF92DF92EF92FF920F931F93DF93CF935B
:10099000CDB7DEB73B01E989FA89AB89BC89413023
:1009A000510509F014C121153105A1F401151105F6
:1009B00009F040C0C114D10499F441E0A416B10477
:1009C00079F4E130F10561F4A130B10549F442E078
:1009D00050E008C00115110519F041E050E015C0C4
:1009E00041E050E0E114F10481F461E0C616D10465
:1009F00061F4A114B10449F461E08616910429F46C
:100A0000E130F10511F443E050E021303105A1F46B
:100A10000130110509F058C061E0C616D10479F41F
:100A2000A114B10461F4309751F4109741F444E0FB
:100A300050E005C041E050E00130110591F461E063
:100A4000E616F10471F4C114D10459F461E0A6165C
:100A5000B10439F48114910421F4309711F445E084
:100A600050E021153105E9F401151105D1F4E11427
:100A7000F10409F0BDC1C114D10461F5A114B104A0
:100A800021F4E130F10509F4DDC161E0A616B104FD
:100A9000F1F481149104D9F43097C9F447E050E09F
:100AA00016C00130110581F4C114D10401F5A1145F
:100AB000B104E9F481149104D1F43097C1F4109792
:100AC000B1F448E050E013C00115110581F4E114C0
:100AD000F10469F461E0C616D10449F4A114B1042B
:100AE00031F4309721F4109711F449E050E02115CA
:100AF0003105E1F4012B09F055C121E0E216F104C2
:100B000009F07BC1C114D10409F0A8C1A114B1043A
:100B100009F0A4C161E08616910409F09FC13097E5
:100B200009F09CC1109709F490C198C1213031059A
:100B300009F038C1012B09F035C1EF2809F032C1A5
:100B4000CD2809F02FC1AB2809F02CC1892809F064
:100B500029C1EF2B09F026C1A130B10501F578C1FB
:100B6000C114D10409F07AC1A114B10409F076C10D
:100B70008114910431F4309721F4A130B10509F4C6
:100B80006AC121E08216910409F068C1309709F02A
:100B900065C1109709F062C14DE050E05FC1AB2B19
:100BA00009F000C14EE050E0FDC0CD2809F0FAC0C8
:100BB000AB2809F0F7C0892809F0F4C0EF2B09F041
:100BC000F1C0AB2B09F0EEC04FE050E0EBC00130BC
:100BD0001105A9F441E0C416D10409F018C161E07F
:100BE000A616B10409F00EC1309709F43DC119C130
:100BF000E130F10509F03BC146E150E044C0011588
:100C0000110509F00EC141E0C416D10409F004C178
:100C100061E0A616B10409F007C1E130F10509F061
:100C200003C147E150E002C141E0A416B10409F05C
:100C300025C1E130F10519F448E150E007C040E179
:100C400050E008C0309709F41CC11DC061E0A61631
:100C5000B104C9F43097B9F442E150E014C041E066
:100C6000A416B10409F0E0C0E130F10509F0DCC0E0
:100C700043E150E0DBC0A114B10429F4E130F105F7
:100C800011F444E150E021303105F9F4013011054F
:100C900009F08BC0E114F10409F0CEC061E0C61682
:100CA000D10409F06CC021E0A216B10409F067C0BC
:100CB0008114910409F063C0E130F10509F05FC0CF
:100CC000A130B10509F05BC0DFC0232B09F06DC076
:100CD0000130110509F069C061E0E616F10409F080
:100CE000D8C021E0C216D10409F0D3C061E0A61635
:100CF000B10409F0CEC021E08216910409F0C9C008
:100D0000E130F10509F0C5C0109709F4C0C0C1C0B9
:100D100061E0C616D10409F0C4C021E0A216B104F6
:100D200009F0BFC061E08616910409F0BAC0E13055
:100D3000F10509F0B6C0109709F4B1C0B2C021E0C6
:100D4000A216B10491F5892881F5319771F51197B3
:100D500061F54CE150E029C061E0C616D10429F5E7
:100D600021E0A216B10409F561E086169104E9F4C8
:100D70003197D9F41197C9F44DE150E016C021E044
:100D8000C216D10491F461E0A616B10471F421E019
:100D90008216910451F4319741F4119731F44EE1E8
:100DA00050E003C021E030E002C020E030E0FC0170
:100DB000EE0FFF1FE80FF91FEE0FFF1FEE0FFF1FD3
:100DC000E60DF71DDF01A857BC4F2C93EC57FB4FE6
:100DD0004083CF91DF911F910F91FF90EF90DF90B3
:100DE000CF90BF90AF909F908F907F906F9008951D
:100DF000C114D10409F06BCE48CEE114F10409F41A
:100E0000AFCE2CC0A114B10409F4F2CE30C0C1148D
:100E1000D10409F409CF05C0C114D10409F41FCFCE
:100E200003C040E150E02FCF40E150E061E0C61642
:100E3000D10409F028CF1FCF21E0E216F10409F414
:100E400067CF35C046E050E020CE4AE050E006C013
:100E50004BE050E0A7CF4CE050E093CE61E0E616C7
:100E6000F10409F09FCFA1CE45E150E00CCF40E165
:100E700050E0A114B10409F4E5CE05CF40E150E003
:100E8000E5CE41E150E0FFCE49E150E078CF4AE1C4
:100E900050E021E0E216F10409F087CF5DCF4BE18D
:100EA00050E061E0C616D10409F07FCF48CFEF28AB
:100EB00009F465CF7ACF2F923F924F925F926F9253
:100EC0007F928F929F92AF92BF92CF92DF92EF92DA
:100ED000FF920F931F93DF93CF93CDB7DEB7299780
:100EE0000FB6F894DEBF0FBECDBF4424552421E0D9
:100EF0002A833FEF3983DDC06E8288E992E0662D58
:100F00004F810E9445048D836114710491F0411456
:100F1000510431F481E0A82EB12C01E010E022C090
:100F200088E992E06B8149810E944504082F10E016
:100F300011C04114510461F401E0C02ED12C11E024
:100F4000A12EB12CB1E0EB2EF12C01E010E038C065
:100F500001E010E088E992E06E8149810E94450439
:100F6000A82EBB2484E16816710421F4A1E0EA2EC6
:100F7000F12C16C04114510421F4F1E0EF2EF12CB4
:100F800008C088E992E06C8149810E944504E82EFE
:100F9000FF246114710421F4E1E0CE2ED12C10C0A5
:100FA00088E992E06B814F810E944504C82EDD24C0
:100FB00094E16916710421F471E0272E312C0BC0E5
:100FC00088E992E06C814F810E944504282E3324E9
:100FD00061147104A9F0EBE04E16510441F421E0D4
:100FE00030E03987288761E0862E912C22C088E97D
:100FF00092E06B814A810E944504882E99240FC09B
:101000003BE04316510441F481E090E099878887E2
:1010100051E0852E912C1FC041E0842E912C88E94F
:1010200092E06E814A810E944504E82FF0E0F98742
:10103000E887F4E16F16710461F02BE04216510469
:1010400041F088E992E06C814A810E94450490E079
:1010500002C081E090E000D000D028853985EDB74E
:10106000FEB73283218394838383C301B2014D8110
:1010700050E09801850151010E94BA040894611C56
:10108000711C3C813F5F3C838B818F5F8B830F9012
:101090000F900F900F90843109F02ECF0894411CCF
:1010A000511C9A819F5F9A83E981EF5FE983EB305E
:1010B00041F066247724F1E0FC832FEF2B834F82ED
:1010C0001BCF29960FB6F894DEBF0FBECDBFCF91D0
:1010D000DF911F910F91FF90EF90DF90CF90BF9025
:1010E000AF909F908F907F906F905F904F903F90C8
:1010F0002F9008952F923F924F925F926F927F921E
:101100008F929F92AF92BF92CF92DF92EF92FF9217
:101110000F931F93DF93CF9300D000D0CDB7DEB7EE
:1011200060918A0570918B0580918C0590918D0559
:1011300020E030E040E85EE30E94FC300E94153081
:101140007B018C01609186057091870580918805EF
:101150009091890520E030E040E85EE30E94FC3099
:101160000E941530FB01EE0FFF1FE60FF71FEE0F79
:10117000FF1FEE0FFF1FEE0DFF1DE857FC4F108203
:1011800066247724CDC0EB81FC818585282F30E053
:101190003A8329834114510471F06114710429F4D4
:1011A00001E010E021E030E01AC0EB81FC81808199
:1011B000282F30E00FC06114710451F4A1E0CA2E51
:1011C000D12C01E010E0A1E0B0E021E030E02DC042
:1011D00021E030E0EB81FC818485082F10E0F4E110
:1011E0004F16510419F4A1E0B0E012C0611471046B
:1011F00019F4A1E0B0E005C0EB81FC81808DA82F3F
:10120000B0E04114510421F4F1E0CF2ED12C0DC0F7
:10121000EB81FC818181C82EDD24F4E14F1651045D
:1012200021F4E1E0AE2EB12C08C0EB81FC81818D70
:10123000A82EBB244114510481F0FBE06F16710409
:1012400031F441E050E071E0872E912C1AC0EB811F
:10125000FC818281882E99240FC0FBE06F167104F7
:1012600041F481E090E041E050E061E0862E912C75
:1012700017C041E0842E912CEB81FC818685482F9C
:1012800050E0F4E14F16510449F08BE06816710408
:1012900029F0EB81FC81828D90E002C081E090E03A
:1012A00000D000D0EDB7FEB752834183948383838F
:1012B000C201B30149815A817D010E94BA040F9095
:1012C0000F900F900F9029813A812230310529F437
:1012D0002FE1F101208322E008C089819A810397E0
:1012E00039F420E2F101208323E0EB81FC812587A2
:1012F0000894411C511C8CE090E0280E391EEB81B3
:10130000FC813C96FC83EB83F5E14F16510409F018
:101310003ACF0894611C711C2CE06216710471F0C4
:1013200094E8292E94E0392E260C371CC3018558E9
:101330009C4F9C838B834424552425CF0F900F9082
:101340000F900F90CF91DF911F910F91FF90EF9031
:10135000DF90CF90BF90AF909F908F907F906F90D5
:101360005F904F903F902F90089520918005822F9D
:1013700090E0009791F00197FC01EE0FFF1FE80F3E
:10138000F91FEE0FFF1FE053FD4F3481332331F47B
:10139000209382058091830505C031E02093830569
:1013A0008091820580938005209180052F5F2730F2
:1013B00008F021E0822F90E00197FC01EE0FFF1F63
:1013C000E80FF91FEE0FFF1FE053FD4F83818823C5
:1013D00069F78481831751F32093800580E090E0C2
:1013E000A0E0B0E08093960590939705A0939805B0
:1013F000B093990588E080939B0510929D0585E048
:10140000809384030895FF920F931F93CF93DF93EC
:10141000C0EDD2E0FF24F39468816E5F49814C5F98
:1014200088E992E00E944504882309F062C068813F
:101430006F5F49814C5F88E992E00E9445048823F0
:1014400009F057C00D810F5F10E02DC068816E5FFD
:1014500049814C5F88E992E00E944504882311F598
:1014600068816F5F49814C5F88E992E00E94450482
:101470008823C1F48981813398F08B81882371F4AA
:101480008C81882331F48091840581508093840578
:1014900005C080918505815080938505FB8202C03F
:1014A0008F5F89831F5F101788F28D818F5F8D8317
:1014B00068816E5F49814D5F88E992E00E94450432
:1014C000813069F068816F5F49814D5F88E992E002
:1014D0000E944504813031F48B81882319F489817D
:1014E00081508983269682E0C43FD80709F094CFC3
:1014F00002C01D82DDCFDF91CF911F910F91FF9030
:10150000089520918105263081F48091800590E036
:101510000197FC01EE0FFF1FE80FF91FEE0FFF1FF1
:10152000E053FD4F8181835023C0253081F48091A9
:10153000800590E00197FC01EE0FFF1FE80FF91FF7
:10154000EE0FFF1FE053FD4F8181825011C0243008
:1015500089F48091800590E00197FC01EE0FFF1F58
:10156000E80FF91FEE0FFF1FE053FD4F81818150FF
:10157000818302C0222319F0215020938105089510
:101580002F923F924F925F926F927F928F929F9293
:10159000AF92BF92CF92DF92EF92FF920F931F9381
:1015A000DF93CF9300D000D0CDB7DEB780919A05FE
:1015B000882309F044C080918005869590E0FC0165
:1015C000EE0FFF1FE80FF91FEE0FFF1FEE0FFF1FBB
:1015D000EC50FD4FAF014F5F5F4F818190E0FC0108
:1015E000EE0FFF1FE80FF91FEE0FFF1FE053FD4F37
:1015F00083818130D9F420E0FA0107C014968C91E0
:10160000882311F4208301C02F5F822F90E0DC013A
:10161000AA0FBB1FA80FB91FAA0FBB1FA053BD4F16
:1016200013968C911397882379F7E8CF85E0809300
:101630009A0584E080939C058AE080939D058091C3
:101640009D05882311F081500AC0E0909B05809190
:101650009C058E1538F4EA94E0929B0581E0809316
:101660009D05E9C08091960590919705A0919805F8
:10167000B091990589839A83AB83BC8360919A0565
:1016800070E0882777FD8095982F0E9448309B0155
:10169000AC0169817A818B819C810E94A92F88236A
:1016A0009CF469817A818B819C8120E030E040E864
:1016B0005FE30E94452F6093960570939705809392
:1016C000980590939905B7C080918005282F30E048
:1016D00021503040F901EE0FFF1FE20FF31FEE0F14
:1016E000FF1FEE52FD4F8081813059F00F2EF0E048
:1016F0002F2EF0E03F2EF0E84F2EFFEB5F2EF02D67
:101700000AC00F2EF0E02F2EF0E03F2EF0E84F2E13
:10171000FFE35F2EF02DFF240894E108F108EE0CA2
:10172000FF1CEE0CFF1CF701E759FE4F6080718033
:10173000828093808901000F111F020F131F000F79
:10174000111F00531D4FD8016C9170E0882777FD61
:101750008095982F0E9448305B016C01C401B30151
:10176000A20191010E94FC309B01AC01C601B501B0
:101770000E94452F609386057093870580938805A6
:1017800090938905E5EAF1E0EE0EFF1ED701AD90DA
:10179000BD90CD90DC90F801618170E0882777FDE5
:1017A0008095982F0E944830A60195010E94452FF0
:1017B00060938A0570938B0580938C0590938D05BB
:1017C00069817A818B819C8120E030E040E450E4A3
:1017D0000E94AD2F7B018C01C401B30120E030E0F9
:1017E00040EA50E40E94AD2FA80197010E94FC300E
:1017F000A20191010E94FC3060938E0570938F05C9
:101800008093900590939105C601B50120E030E0EA
:1018100040EA50E40E94AD2FA80197010E94FC30DD
:10182000609392057093930580939405909395052A
:1018300086E0809384030F900F900F900F90CF91CC
:10184000DF911F910F91FF90EF90DF90CF90BF90AD
:10185000AF909F908F907F906F905F904F903F9050
:101860002F900895CF92DF92EF92FF920F931F93E4
:1018700058E9C52E52E0D52E6091860570918705F6
:1018800080918805909189050E9415307B018C011B
:1018900060918A0570918B0580918C0590918D05E2
:1018A0000E9415309B01AC01C6016E2D422F0E9493
:1018B00070046091860570918705809188059091EC
:1018C000890520E030E040E85FE30E94452F0E9458
:1018D00015307B018C0160918A0570918B05809198
:1018E0008C0590918D050E9415309B01AC01C601BD
:1018F0006E2D422F0E9470046091860570918705BD
:1019000080918805909189050E9415307B018C019A
:1019100060918A0570918B0580918C0590918D0561
:1019200020E030E040E85FE30E94442F0E94153041
:101930009B01AC01C6016E2D422F0E947004609184
:10194000860570918705809188059091890520E032
:1019500030E040E85FE30E94452F0E9415307B0194
:101960008C0160918A0570918B0580918C05909116
:101970008D0520E030E040E85FE30E94442F0E94A4
:1019800015309B01AC01C6016E2D422F0E947004E0
:101990001F910F91FF90EF90DF90CF9008951092DC
:1019A0009B0210929A0285E492E0909399028093B0
:1019B000980208958F929F92AF92BF92CF92DF923A
:1019C000EF92FF920F931F937C01162F8FE6882EC4
:1019D00082E0982E01EEA02E01E0B02E6701B4E067
:1019E000CC0CDD1CBA95E1F7CA0CDB1CC40160E02D
:1019F000F601448520E0012F0E943228C40161E0F5
:101A0000F601408120E00E943228F60120852195D0
:101A1000C40162E042850E94322874E0EE0CFF1C93
:101A20007A95E1F7F60124812A53C40163E04681E7
:101A30000E943228AE0CBF1CC401F5016281F60180
:101A40004685212F0E942C291F910F91FF90EF9026
:101A5000DF90CF90BF90AF909F908F9008955F924E
:101A60006F927F928F929F92AF92BF92CF92DF92AE
:101A7000EF92FF920F931F93CF93DF9360908605B1
:101A8000709087058090880590908905A0908A05C0
:101A9000B0908B05C0908C05D0908D05E0908505A9
:101AA000F090840500ED12E055245394F8018081F4
:101AB000C82FD0E0BE01882777FD8095982F0E941F
:101AC0004830A40193010E94A92F1816CCF1249646
:101AD000BE01882777FD8095982F0E944830A40189
:101AE00093010E94F83088235CF1F8018181C82FAE
:101AF000D0E0BE01882777FD8095982F0E9448305E
:101B0000A60195010E94A92F1816D4F02496BE01B3
:101B1000882777FD8095982F0E944830A60195016F
:101B20000E94F830882364F0F8018381882331F41F
:101B30008481882311F4FA9401C0EA94F801538255
:101B4000F8018181813318F48081843560F0F801D7
:101B50008381882331F48481882311F4FA9401C0AD
:101B6000EA94F80153820A5F1F4FF2E0043F1F0717
:101B700009F09CCFE0928505F0928405FF2019F0D2
:101B8000EE2039F01CC083E090E060E070E00E943D
:101B9000DA0C80918505882331F482E090E060E0E2
:101BA00070E00E94DA0C89E0809384031092800533
:101BB0001092820581E08093830510928105DF9168
:101BC000CF911F910F91FF90EF90DF90CF90BF903A
:101BD000AF909F908F907F906F905F9008952F921D
:101BE0003F924F925F926F927F928F929F92AF92AD
:101BF000BF92CF92DF92EF92FF920F931F93DF93EA
:101C0000CF93CDB7DEB729970FB6F894DEBF0FBEDE
:101C1000CDBF60908A0570908B0580908C05909068
:101C20008D05A0908605B0908705C0908805D0905E
:101C30008905C601B50120E030E048EA52E40E947F
:101C4000F83018161CF487E080938403C601B501B0
:101C500020E030E040E050E00E94A92F88231CF4EF
:101C600087E080938403C401B30120E030E040E4C6
:101C700052E40E94F83018161CF487E08093840325
:101C800060918E0570918F058091900590919105DE
:101C900020E030E040EF51E40E94AD2F6D837E8361
:101CA0008F83988760919205709193058091940538
:101CB0009091950520E030E040EF51E40E94AD2F77
:101CC00069837A838B839C83209086053090870577
:101CD0004090880550908905E0908E05F0908F0522
:101CE000009190051091910560918A0570918B0586
:101CF00080918C0590918D052091920530919305EE
:101D000040919405509195050E94452F9B01AC018F
:101D1000C401B3010E94F83018161CF481E08987D1
:101D200011C01986C201B101A80197010E94452F77
:101D30009B01AC01C601B5010E94F830181614F4DD
:101D4000E1E0E987C601B5010E9415307B018C01F5
:101D5000C401B3010E9415309B01AC0188E992E0F7
:101D60006E2D422F0E9445048130B1F4A092860569
:101D7000B0928705C0928805D092890560928A0545
:101D800070928B0580928C0590928D0587E08093F0
:101D900084030E942F0D18C0F985FF23A9F4C60102
:101DA000B5012D813E814F8158850E94452F5B01F1
:101DB0006C01C401B30129813A814B815C810E948D
:101DC000452F3B014C0180CF29960FB6F894DEBF1A
:101DD0000FBECDBFCF91DF911F910F91FF90EF907C
:101DE000DF90CF90BF90AF909F908F907F906F903B
:101DF0005F904F903F902F9008958AE492E068E6BC
:101E000070E00E9461271092620281E08093840357
:101E1000809386039BE09093850310928005109237
:101E200082058093830583E08093840580938505F4
:101E3000109281050895EF92FF920F931F93CF9315
:101E4000DF93609196057091970580919805909128
:101E5000990520E030E040E050E00E94F83018168C
:101E60000CF059C088E992E060E00E94511D88E9B9
:101E700092E060E04CE22CE004E00E94EA1D88E978
:101E800092E061E00E94511D88E992E060E04CE23E
:101E90000E94700488E992E060E04FE20E947004C2
:101EA00088E992E06BE04CE20E94700488E992E0DD
:101EB0006BE04FE20E947004C1E0D0E00DC088E901
:101EC00092E06C2F4DE20E94700488E992E06C2F42
:101ED0004EE20E9470042196BE01882777FD80950E
:101EE000982F0E9448307B018C016091960570917B
:101EF0009705809198059091990520E030E040E8A1
:101F00005FE30E94452F9B01AC01C801B7010E940D
:101F1000A92F87FDD4CFDF91CF911F910F91FF9013
:101F2000EF9008950F9380918405882371F588E9D7
:101F300092E060E00E94511D88E992E064E045E093
:101F40002CE408E10E94EA1D88E992E061E00E9429
:101F5000511D88E992E065E046E02AE406E10E942E
:101F6000201E8BE08093A20286E18093A10288E983
:101F700092E060E071E00E94A82E87E08093A102C9
:101F800088E992E06AE071E036C088E992E060E0BA
:101F90000E94511D88E992E062E045E020E508E1F9
:101FA0000E94EA1D88E992E061E00E94511D88E9E3
:101FB00092E063E046E02EE406E10E94201E88E005
:101FC0008093A2028AE08093A10288E992E06CE10A
:101FD00071E00E94A82E8EE08093A10288E992E031
:101FE0006DE271E00E94A82E80E18093A10288E951
:101FF00092E06BE371E00E94A82E0F9108958FE1AB
:102000008093A10281E18093A20288E992E068E4D2
:1020100071E00E94A52E089581E28093A10281E1E2
:102020008093A20288E992E06FE471E00E94A52EFD
:1020300008952F923F924F925F926F927F928F926C
:102040009F92AF92BF92CF92DF92EF92FF920F9347
:102050001F93DF93CF93CDB7DEB760970FB6F89499
:10206000DEBF0FBECDBF80919D05823078F588E937
:1020700092E062E00E94511D609186057091870593
:10208000809188059091890520E030E040E85FE389
:102090000E94442F0E9415307B018C0160918A05BB
:1020A00070918B0580918C0590918D0520E030E03A
:1020B00040E85FE30E94442F0E9415309B01AC0171
:1020C00088E992E06E2D422F0E94700480919D0558
:1020D000823009F0BCC088E992E060E00E94511DA6
:1020E000609186057091870580918805909189059A
:1020F00020E030E040E85FE30E94442F0E9415306A
:102100007B018C0160918A0570918B0580918C0513
:1021100090918D0520E030E040E85FE30E94442F7D
:102120000E9415309B01AC0188E992E06E2D422F90
:102130000E94700488E992E062E00E94511DE090E4
:102140008605F090870500918805109189056090BB
:102150008A0570908B0580908C0590908D05C80144
:10216000B70120E030E040E050E40E94442F0E949C
:10217000153069837A838B839C83C401B30120E08B
:1021800030E040E85FE30E94442F0E9415301B01BD
:102190002C01C801B70120E030E040E85FE30E9475
:1021A000442F0E9415305B016C01C401B30120E093
:1021B00030E040E050E40E94442F0E9415307B0143
:1021C0008C0188E992E06981422D2A2D0E2D0E9412
:1021D000591DE0908605F0908705009188051091C3
:1021E000890560908A0570908B0580908C05909091
:1021F0008D05C801B7010E9415306D837E838F83E2
:102200009887C401B30120E030E040E85FE30E941A
:10221000442F0E9415301B012C01C801B70120E09A
:1022200030E040E85FE30E94442F0E9415305B01DC
:102230006C01C401B3010E9415307B018C0188E957
:1022400092E06D81422D2A2D0E2D0E94591D809104
:102250009D05833009F006C188E992E060E00E94A4
:10226000511D609186057091870580918805909138
:10227000890520E030E040E85FE30E94442F0E949F
:1022800015307B018C0160918A0570918B058091DE
:102290008C0590918D0520E030E040E85FE30E94DE
:1022A000442F0E9415309B01AC0188E992E06E2D0D
:1022B000422F22E002E00E94EA1D88E992E062E0FB
:1022C0000E94511D8090860590908705A0908805FA
:1022D000B090890560918A0570918B0580918C057D
:1022E00090918D0520E030E040E050E40E94442FC2
:1022F0000E9415302B013C01C501B40120E030E003
:1023000040E85FE30E94442F0E9415306B017C017E
:10231000C501B4010E9415308B019C0188E992E04F
:102320006C2D442D202F042D0E94591DE0908A050C
:10233000F0908B0500918C0510918D0560918605BC
:1023400070918705809188059091890520E030E0A3
:1023500040E85FE30E94452F0E9415303B014C018D
:10236000C801B70120E030E040E85FE30E94442F5D
:102370000E9415305B016C01C801B7010E94153045
:102380007B018C0188E992E0662D4A2D262D0E2DC9
:102390000E94591DE0908A05F0908B0500918C05F4
:1023A00010918D0560918605709187058091880553
:1023B0009091890520E030E040E050E40E94442FF5
:1023C0000E9415303B014C01C801B70120E030E00C
:1023D00040E85FE30E94442F0E9415305B016C01CE
:1023E000C801B7010E9415307B018C0188E992E099
:1023F000662D4A2D262D0E2D0E94591D8090860592
:1024000090908705A0908805B090890560918A0515
:1024100070918B0580918C0590918D0520E030E0C6
:1024200040E85FE30E94452F0E9415302B013C01DC
:10243000C501B40120E030E040E85FE30E94442F92
:102440000E9415306B017C01C501B4010E9415305A
:102450008B019C0188E992E06C2D442D202F042DE6
:102460000E94591D80919D05843011F40E947A08C4
:1024700080919D05853009F0A4C088E992E060E074
:102480000E94511D60918605709187058091880595
:10249000909189050E9415307B018C0160918A051D
:1024A00070918B0580918C0590918D050E9415305F
:1024B0009B01AC0188E992E06E2D422F0E947004CE
:1024C00088E992E062E00E94511DE0908605F0905C
:1024D00087050091880510918905A0908A05B09024
:1024E0008B05C0908C05D0908D05C801B70120E008
:1024F00030E040E85FE30E94442F0E941530698776
:102500007A878B879C87C601B5010E9415301B0115
:102510002C01C801B7010E9415303B014C01C601D6
:10252000B50120E030E040E85FE30E94442F0E94C4
:1025300015307B018C0188E992E06985422D262DBA
:102540000E2D0E94591DE0908605F09087050091A0
:1025500088051091890560908A0570908B058090A0
:102560008C0590908D05C801B7010E9415306D87CC
:102570007E878F87988BC401B30120E030E040E86C
:102580005FE30E94452F0E9415301B012C01C801FA
:10259000B70120E030E040E85FE30E94452F0E9451
:1025A00015305B016C01C401B3010E9415307B0141
:1025B0008C0188E992E06D85422D2A2D0E2D0E9416
:1025C000591D80919D05863019F588E992E062E0F9
:1025D0000E94511D60918605709187058091880544
:1025E000909189050E9415307B018C0160918A05CC
:1025F00070918B0580918C0590918D050E9415300E
:102600009B01AC0188E992E06E2D422F0E9470047C
:1026100080919D058F5F80939D05883010F00E940A
:10262000B50960960FB6F894DEBF0FBECDBFCF914F
:10263000DF911F910F91FF90EF90DF90CF90BF90AF
:10264000AF909F908F907F906F905F904F903F9052
:102650002F9008952F923F924F925F926F927F92A8
:102660008F929F92AF92BF92CF92DF92EF92FF92A2
:102670000F931F93DF93CF93CDB7DEB728970FB695
:10268000F894DEBF0FBECDBF8091800590E001972A
:10269000FC01EE0FFF1FE80FF91FEE0FFF1FEE52B8
:1026A000FD4F8081813039F0EE24EA9423E0C22E80
:1026B0006624639405C0EE24E394CC2492E0692E52
:1026C00088E992E060E00E94511D0091800510E0D1
:1026D0000150104020919B05822E99240894810876
:1026E00091086E2D70E0882777FD8095982F0E94C5
:1026F00048306D837E838F8398876C2D70E08827A8
:1027000077FD8095982F0E94483069837A838B8368
:102710009C837801EE0CFF1CE00EF11EEE0CFF1CFA
:1027200020ED32E0E20EF31EF701608170E08827B1
:1027300077FD8095982F0E9448305B016C01880CD2
:10274000991C880C991CF401E759FE4F6081718136
:102750008281938120E030E040E050E40E94452FE8
:102760002D813E814F8158850E94FC309B01AC0138
:10277000C601B5010E94452F29813A814B815C81B8
:102780000E94452F20E030E040E050E00E94452FBD
:102790000E9415305B016C01F701618170E08827B0
:1027A00077FD8095982F0E94483025EA31E0820E0F
:1027B000931EF40120813181428153810E94452F73
:1027C00020E030E040E85FE30E94452F0E94153092
:1027D0009B01AC0188E992E06A2D422F0E947004AF
:1027E0008091800590E00197FC01EE0FFF1FE80F3C
:1027F000F91FEE0FFF1FE053FD4F8081680E4181EE
:102800004F5F88E992E0662D0E94700488E992E0AB
:1028100061E00E94511D8091800590E00197209118
:102820009B05822E99240894810891088C01000F41
:10283000111F080F191F000F111F00531D4FF80122
:10284000608170E0882777FD8095982F0E9448303E
:102850006B017C01880C991C880C991CF401E759C8
:10286000FE4F608171818281938120E030E040E001
:1028700050E40E94452F2D813E814F8158850E9452
:10288000FC309B01AC01C701B6010E94452F298194
:102890003A814B815C810E94452F5B016C01F801FC
:1028A000618170E0882777FD8095982F0E944830DD
:1028B00025EA31E0820E931EF401208131814281AC
:1028C00053810E94452F7B018C01C601B50120E098
:1028D00030E040E85FE30E94442F0E9415301B0166
:1028E0002C01C801B70120E030E040E85FE30E941E
:1028F000452F0E9415303B014C01C601B50120E077
:1029000030E040E050E00E94452F0E9415305B010E
:102910006C01C801B70120E030E040E050E00E94C7
:10292000452F0E9415307B018C0188E992E0622DD1
:10293000462D2A2D0E2D0E94591D8091800590E074
:10294000019720919B05822E992408948108910873
:102950008C01000F111F080F191F000F111F0053CA
:102960001D4FF801608170E0882777FD8095982FD2
:102970000E9448306B017C01880C991C880C991CC2
:10298000F401E759FE4F608171818281938120E0DB
:1029900030E040E050E40E94452F2D813E814F8180
:1029A00058850E94FC309B01AC01C701B6010E9412
:1029B000452F29813A814B815C810E94452F5B0123
:1029C0006C01F801618170E0882777FD8095982F70
:1029D0000E94483025EA31E0820E931EF4012081E6
:1029E0003181428153810E94452F7B018C01C601B8
:1029F000B50120E030E040E85FE30E94452F0E94EF
:102A000015301B012C01C801B70120E030E040E87F
:102A10005FE30E94452F0E9415303B014C01C60127
:102A2000B50120E030E040E050E00E94452F0E94D8
:102A300015305B016C01C801B70120E030E040E0D7
:102A400050E40E94452F0E9415307B018C0188E9DB
:102A500092E0622D462D2A2D0E2D0E94591D28969A
:102A60000FB6F894DEBF0FBECDBFCF91DF911F919F
:102A70000F91FF90EF90DF90CF90BF90AF909F901D
:102A80008F907F906F905F904F903F902F90089520
:102A9000EF92FF920F931F93CF93DF9300E010E02C
:102AA000EE2421C08881882389F090E001979C0161
:102AB000220F331F280F391F220F331F2B553E4F74
:102AC00088E992E06F2D4E2D0E9407202C9684E01D
:102AD000F80E84E5F81631F70F5F1F4F84E0E80E1B
:102AE00080E3E81629F0E801CC57DB4FFF24DACF6A
:102AF000DF91CF911F910F91FF90EF900895EF928A
:102B00000F93CF93DF93C0EDD2E08B81882371F5D3
:102B10008A819C81813099F4892F90E04E969C01A6
:102B2000220F331F280F391F220F331F2B553E4F03
:102B300088E992E0688149810E94072034C0688159
:102B40006150892F90E04E969C01220F331F280F71
:102B5000391F220F331F2B553E4F88E992E04981E0
:102B600000E0EE24E3940E9475201DC068816F5F31
:102B700088E992E0498124E00E94E01D8C8188234D
:102B800019F449814F5F09C088E992E06881498161
:102B900023E00E94D61D49814E5F88E992E068815A
:102BA00023E00E94D61D269682E0C43FD80709F094
:102BB000ACCFDF91CF910F91EF9008958F929F92BC
:102BC000AF92BF92CF92DF92EF92FF920F931F933B
:102BD000CF93DF9380918603282F30E0C9010197BE
:102BE00063E070E00E949E31CB0144E0880F991FA2
:102BF0004A95E1F7860F971F4D9714F480E00DC0BA
:102C0000C901049763E070E00E949E31CB0124E08B
:102C1000880F991F2A95E1F7860FDD249BE1892E05
:102C200008E0C02EC81A11E1912EB6E2AB2EB12CED
:102C300043C08D2D63E00E947E31989DE0011124F8
:102C4000CE018C5F482F8D2D0E947E31899DC00161
:102C500011241C2D180FED2CFF24EA9C9001EB9CF5
:102C6000300DFA9C300D11242B593D4F88E992E02C
:102C7000642F412F0E940720CE018D5F682F412FC6
:102C8000415088E992E027E10EE00E94201E08945E
:102C9000E11CF11C8091860390E0E816F90659F4D6
:102CA000CE018E5F682F125088E992E0412F29E112
:102CB00000E10E94201ED39480918503D81608F469
:102CC000B8CF88E992E060E00E94511D88E992E067
:102CD00060E040E024E506E00E94EA1D88E992E019
:102CE00061E00E94511D8CE18093A10288E992E08D
:102CF00065E571E00E94A52E88E992E06091860367
:102D00004AE050E00E94932EDF91CF911F910F91E6
:102D1000FF90EF90DF90CF90BF90AF909F908F90FB
:102D200008952F923F924F925F926F927F928F926F
:102D30009F92AF92BF92CF92DF92EF92FF920F934A
:102D40001F93DF93CF93CDB7DEB7AA970FB6F89452
:102D5000DEBF0FBECDBF8E010F5F1F4FF80180E0B9
:102D600090E001968193919385319105D1F76E01A1
:102D70000894C11CD11C7BE2E72EF12CEC0EFD1E49
:102D800060E070E080E090E025E130E040E050E07D
:102D90000E94262FDC01CB01D8014D915C91119747
:102DA000880F991F8C0D9D1DFC01208131812D9371
:102DB0003D938D0151834083AE15BF0509F73EEC6D
:102DC000E32E32E0F32EAA24BB2465012501F7018E
:102DD00015821682A114B10419F080818F5F868359
:102DE000D70116968C911697823010F016961C9289
:102DF00060E070E080E090E023E030E040E050E010
:102E00000E94262F26E030E040E050E00E945F3133
:102E1000DC01CB018A0D9B1DAC1DBD1D880F991FC8
:102E2000E1E0F0E0EC0FFD1F8E0F9F1FDC018D90A5
:102E30009C90662477240BE010E088E992E0682DEE
:102E4000402F0E944504882369F46114710451F4F1
:102E500088E992E0682D402F0E947004180181E0FB
:102E6000682E712C0150104041F7C1019401220FCE
:102E7000331F220F331FF7012283880F991F880FFA
:102E8000991F838321E024833BE08316910414F08F
:102E90008FEF8483D70117961C92179716963C9153
:102EA0003130E1F5C20195958795FC01EE0FFF1FCA
:102EB000E80FF91FEE0FFF1FEE0FFF1FCF018C5021
:102EC0009D4FDC01AC922A2D215011962C93DF01ED
:102ED000AA50BD4F25E02C9324E0DC0113962C93DF
:102EE0001397E850FD4F1082ECEF1596EC93159771
:102EF000F4E11696FC93169725E017962C931797F6
:102F0000E4E01896EC93189719963C931997F5E519
:102F10001A96FC931A9724E11B962C930894A11CF3
:102F2000B11CC11CD11C86E090E0E80EF91E92EFA6
:102F3000E91692E0F90609F049CFAA960FB6F8947F
:102F4000DEBF0FBECDBFCF91DF911F910F91FF90DC
:102F5000EF90DF90CF90BF90AF909F908F907F9039
:102F60006F905F904F903F902F900895EF92FF9257
:102F70000F93E8E9EE2EE2E0FE2EC70160E00E942A
:102F8000511DC70160E040E025E10CE00E94EA1D10
:102F9000C70161E00E94511D2091870386E2289FAE
:102FA000900111242B593D4FC70160E040E00E9481
:102FB00007200E945B070E949116C70160E00E94F3
:102FC000511DC70160E040E025E10E94EA1DC701F4
:102FD00061E00E94511D83E0809384030F91FF9074
:102FE000EF900895AF92BF92CF92DF92EF92FF924F
:102FF0000F931F93CF93DF9380918403843009F460
:103000006FC0853030F4813059F0833009F07CC2D4
:103010005BC0853009F47CC0893009F075C26AC094
:1030200084E592E063E00E94F71C882379F04091E8
:103030008603242F30E02E5F3F4F8091850390E080
:10304000281739071CF44D5F4093860384E592E00E
:1030500061E00E94F71C882349F020918603822FAB
:1030600090E004971CF023502093860384E592E0BF
:1030700062E00E94F71C882369F040918603242FA8
:1030800030E08091850390E0281739071CF44F5FEA
:103090004093860384E592E060E00E94F71C882359
:1030A00049F020918603822F90E002971CF0215076
:1030B0002093860384E592E064E00E94F71C882355
:1030C00009F422C282E009C084E592E064E00E9433
:1030D000011D882309F418C285E08093840314C27B
:1030E00084E592E064E00E94F71C882309F40CC296
:1030F00083E0F3CF84E592E064E00E94F71C88232C
:1031000009F402C283E08093840580938505E6C1BB
:1031100084E592E064E041E00E940B1D882309F4FD
:10312000DFC1E0909605F090970500919805109109
:103130009905C801B70120E030E040E251E40E9467
:10314000A92F88230CF0CCC1C801B70120E030E0E2
:1031500040E85FE30E94452F6093960570939705C2
:103160008093980590939905CFC186E0809384035E
:1031700080918005C82FD0E02197CE01880F991F3C
:103180008C0F9D1F880F991FFC01EE52FD4F20816F
:10319000FC012130F9F4E053FD4F608170E06C5F79
:1031A0007F4F882777FD8095982F0E944830609345
:1031B00086057093870580938805909389050F2E67
:1031C000F0E0AF2EF0E0BF2EF0E8CF2EFFE3DF2ED1
:1031D000F02D1EC0E053FD4F608170E061507040E3
:1031E000882777FD8095982F0E9448306093860548
:1031F0007093870580938805909389050F2EF0E0E2
:10320000AF2EF0E0BF2EF0E8CF2EFFEBDF2EF02D3B
:10321000FE01EE0FFF1FEC0FFD1FEE0FFF1FE0532F
:10322000FD4F618170E061507040882777FD809587
:10323000982F0E94483060938A0570938B05809385
:103240008C0590938D0560919B05C62FD0E021974A
:10325000C801B70120E030E040E450E40E94AD2F07
:103260007B018C01CC0FDD1FCC0FDD1FFE01E75968
:10327000FE4F608171818281938120E030E040EADD
:1032800050E40E94AD2FA80197010E94FC30A601D6
:1032900095010E94FC3060938E0570938F0580939A
:1032A000900590939105CB55DE4F688179818A8195
:1032B0009B8120E030E040EA50E40E94AD2FA8015D
:1032C00097010E94FC306093920570939305809360
:1032D00094059093950518C184E592E061E041E082
:1032E0000E940B1D882339F080919B05823018F0D5
:1032F000815080939B0584E592E063E041E00E9469
:103300000B1D882339F080919B058F3018F48F5F57
:1033100080939B0584E592E062E00E94F71C88237D
:1033200079F08091800590E00197FC01EE0FFF1F7E
:10333000E80FF91FEE0FFF1FEE52FD4F81E02EC088
:1033400084E592E062E041E00E940B1D882339F1A0
:103350008091800590E00197FC01EE0FFF1FE80FC0
:10336000F91FEE0FFF1FE053FD4F60816C5F41813D
:103370004D5F88E992E00E944504882381F48091A2
:10338000800590E00197FC01EE0FFF1FE80FF91F89
:10339000EE0FFF1FE053FD4F80818F5F808384E538
:1033A00092E060E00E94F71C882379F0809180050C
:1033B00090E00197FC01EE0FFF1FE80FF91FEE0FE1
:1033C000FF1FEE52FD4F10822FC084E592E060E0B7
:1033D00041E00E940B1D882339F18091800590E027
:1033E0000197FC01EE0FFF1FE80FF91FEE0FFF1F03
:1033F000E053FD4F6081615041814D5F88E992E06B
:103400000E944504882381F48091800590E0019713
:10341000FC01EE0FFF1FE80FF91FEE0FFF1FE05337
:10342000FD4F80818150808384E592E065E00E94B9
:10343000F71C882309F44BC080918105882309F08B
:1034400046C060919605709197058091980590917E
:10345000990520E030E040E050E00E94A92F882349
:10346000B1F58091800590E00197FC01EE0FFF1F00
:10347000E80FF91FEE0FFF1FE053FD4F418143504E
:1034800088E992E060810E944504882301F58091DB
:10349000800590E00197FC01EE0FFF1FE80FF91F78
:1034A000EE0FFF1FE053FD4F60816D5F4181435080
:1034B00088E992E00E944504882349F485E090E081
:1034C00060E070E00E94DA0C86E08093810584E57C
:1034D00092E066E00E94F71C8823B1F081E0FDCD08
:1034E000E0909605F0909705009198051091990548
:1034F000C801B70120E030E040E050E00E94F83021
:1035000018160CF432CEE8CEDF91CF911F910F91B7
:10351000FF90EF90DF90CF90BF90AF900895AF9263
:10352000BF92CF92DF92EF92FF920F931F938AE4A4
:1035300092E00E944525882309F44CC180918403C0
:10354000853091F1863078F48230F9F0833020F4C0
:10355000813009F03FC114C0833009F439C184308F
:1035600009F038C11CC0873009F40CC1873008F459
:10357000A2C0883009F41DC1893009F02BC122C1D5
:103580000E94F2170E94DE1525C1809186038150AA
:10359000809387030E94B5090E94B6171BC10E9441
:1035A000F2170E940C1016C10E9448150E947F1548
:1035B0000E941B0F8091800590E00197FC01EE0FA7
:1035C000FF1FE80FF91FEE0FFF1FE053FD4F84812F
:1035D000882319F40E94F21739C00E94C00A809112
:1035E0008005869590E0FC01EE0FFF1FE80FF91FA4
:1035F000EE0FFF1FEE0FFF1FEC50FD4F88E992E02A
:1036000061814AE050E00E94932E8091800586956A
:1036100090E0FC01EE0FFF1FE80FF91FEE0FFF1FF8
:10362000EE0FFF1FEC50FD4F818190E0FC01EE0F8B
:10363000FF1FE80FF91FEE0FFF1FE053FD4F88E952
:1036400092E063814AE050E00E94932E0E94810A3A
:1036500080918105833010F40E94030A80918005D7
:1036600090E00197FC01EE0FFF1FE80FF91FEE0F2E
:10367000FF1FE053FD4F8381813021F40E942F0D05
:103680000E94B50960919605709197058091980503
:103690009091990520E030E040E050E00E94A92F91
:1036A000882309F097C080918105882309F092C092
:1036B0000E942A138FC080E090E060E070E00E94DA
:1036C000DA0C0E9448150E947F15A0908E05B090DC
:1036D0008F05C0909005D0909105609186057091FE
:1036E00087058091880590918905A60195010E9422
:1036F000452F609386057093870580938805909386
:103700008905E0909205F090930500919405109141
:10371000950560918A0570918B0580918C0590913B
:103720008D05A80197010E94452F60938A0570932B
:103730008B0580938C0590938D05C601B50120E023
:1037400030E040E050E00E94452F60938E0570937A
:103750008F058093900590939105C801B7012FE1E3
:1037600035E84BE65EE30E94452F60939205709327
:10377000930580939405909395050E94EF0D0E9408
:10378000320C28C081E090E060E070E00E94DA0C2A
:103790000E9448150E947F150E941B0F0E9419105D
:1037A0000E94F21780919D058730A0F00E94B50914
:1037B00011C00E9448150E947F150E941B0F0E9495
:1037C000FF0F06C00E9448150E947F150E94920FAD
:1037D0000E94F2171F910F91FF90EF90DF90CF9012
:1037E000BF90AF9008958AE492E00E9467270E94FC
:1037F000FD0E0895882319F48CB5806202C08CB543
:103800008F7D8CBD08959CB5937F982B9CBD0895AA
:103810002CB5382F33702C7F322B3CBD2DB590E06A
:10382000959587959595879581702E7F822B8DBD77
:1038300008958AE061E00E94B12C8AE061E00E9474
:10384000722C8CB580618CBD8CB580648CBD8DE094
:1038500061E00E94722C8BE061E00E94722C08955E
:10386000FC0181E08083089585E070E00E94122CC5
:1038700008956F927F928F929F92AF92BF92CF9254
:10388000DF92EF92FF920F931F93CF93DF93EC01A0
:1038900089819A818C0124E0000F111F2A95E1F79C
:1038A000081B190B85E10E94F02BBC01600F711FF2
:1038B00084E0769567958A95E1F77A8369838881B4
:1038C000882381F12E813F816217730710F4B901BB
:1038D00006C0888599858617970708F4BC0100D033
:1038E00000D080E090E040E050E0E884F98400E01F
:1038F00010E0AD80BB24CC24DD246C8077248824A8
:103900009924EDB7FEB761827282838294820E940D
:10391000BB2E6B830F900F900F900F9085E070E09F
:103920000E94122CDF91CF911F910F91FF90EF9089
:10393000DF90CF90BF90AF909F908F907F906F90CF
:103940000895FC018CE39FE09383828384E081836C
:1039500081E084870895CF93DF93EC018C8590E01C
:103960008F719070892B69F584E10E94F02BAA2752
:1039700097FDA095BA2FBC01CD010E94483026EEDC
:103980003FE34EEC50E40E94FC300E941A309B0151
:10399000AC017B836A836115710589F084E08983BA
:1039A000B901FE0120E0848195816817790710F440
:1039B00029830AC02F5F32962430A9F702C08FEF07
:1039C00089838C858F5F8C87DF91CF910895FC016F
:1039D00088E0808389E0818387E0828386E0838337
:1039E00084E0848382E0858381E18683089520E0FA
:1039F000FC01E60FF11D8781813009F421E0822F5F
:103A0000089520E0FC01E60FF11D87818F3F09F446
:103A100021E0822F0895E62FF0E0423040F420E0CC
:103A2000E80FF91F878181508E3F88F40FC0E80F9F
:103A3000F91F87818F3F11F420E009C020E090E05A
:103A4000642F70E00E948A31019709F421E0822FEF
:103A500008950F931F93CF93DF93EC0110E00FEFC6
:103A6000888162E00E94722C88810E94052D2F813E
:103A7000892B19F42F5F2F8307C0222349F02F3F92
:103A800011F41F8201C00F83888160E00E94722CB4
:103A90001F5F2196173021F7DF91CF911F910F9172
:103AA0000895FC01678F60A30895FC01678F40A310
:103AB0000895AF92BF92CF92DF92EF92FF920F9351
:103AC0001F93CF93DF93EC01162FF42EE22EAA243E
:103AD000402F552747FD50958F2D992787FD9095AD
:103AE000481B590B57FF03C0509541955F4F2E2D32
:103AF000332727FD3095812F992787FD9095281B27
:103B0000390B37FF03C0309521953F4F24173507F8
:103B100044F4AA24A3948F2DF12E182F802F0E2D5C
:103B2000E82EE11634F48E2DE12E182F802F0F2D64
:103B3000F82EDE2CD11A202F332727FD30958F2D1C
:103B4000992787FD9095281B390B37FF03C03095C7
:103B500021953F4FB22EF0161CF0CC24CA9402C01F
:103B6000CC24C3948D2DD7FC8F5F082F059511C0F1
:103B7000AA2021F0CE016F2D412F03C0CE01612F6D
:103B80004F2D0E9470040B1907FF02C0FC0C0D0D95
:103B90001F5FE1166CF7DF91CF911F910F91FF909E
:103BA000EF90DF90CF90BF90AF9008950F93042FC8
:103BB000322F262F2150230F0E94591D0F91089557
:103BC0000F93362F042F0150020F232F0E94591DEF
:103BD0000F9108959F92AF92BF92CF92DF92EF9292
:103BE000FF920F931F93CF93DF936C01B62E942E09
:103BF000A02EC0E0D0E0E62EFF24E7FCF094022FD8
:103C0000112707FD10950E0D1F1D06C0C601492D79
:103C10002A2D0E94E01D21966B2D6C0FCE018E0D7A
:103C20009F1D8017910794F3DF91CF911F910F9102
:103C3000FF90EF90DF90CF90BF90AF909F9008954E
:103C4000CF92DF92EF92FF920F931F937C01162F7A
:103C5000D42EC22E0E94D61D4D2D4150400FC701BB
:103C6000612F2C2D0E94D61DC701612F4D2D202FB5
:103C70000E94E01D11501C0DC701612F4D2D202FFA
:103C80000E94E01D1F910F91FF90EF90DF90CF9069
:103C900008952F923F925F926F927F928F929F92A0
:103CA000AF92BF92CF92DF92EF92FF920F931F934A
:103CB000DF93CF9300D000D000D0CDB7DEB79E8386
:103CC0008D83C62ED42EEE24E394E21A8EEF289F25
:103CD000502C1124842E8A94962E9A94A42EA39468
:103CE000B62EB394F22E662423E0722E10E0C801A3
:103CF000847090709A838983F801E270F070FC837D
:103D0000EB8398E0292E312C202231220170107093
:103D100054C0E7FC04C0FA94F2E05F0EE50C639433
:103D200089819A81892B71F04F2D4D0D8D819E8156
:103D30006B2D0E9470046F2D6C0D8D819E814A2D1C
:103D40000E947004EB81FC81EF2B71F04D2D4F1917
:103D50008D819E816B2D0E9470046F2D6C0D8D8165
:103D60009E81482D0E9470042114310471F06C2D45
:103D70006F198D819E814A2D0E9470044F2D4D0D2B
:103D80008D819E81692D0E9470040115110571F0CD
:103D90006C2D6F198D819E81482D0E9470044D2DD0
:103DA0004F198D819E81692D0E947004E70CF2E00D
:103DB0007F0E8A949A94A394B3946F140CF4A9CFB1
:103DC00026960FB6F894DEBF0FBECDBFCF91DF9120
:103DD0001F910F91FF90EF90DF90CF90BF90AF9029
:103DE0009F908F907F906F905F903F902F9008955D
:103DF0004F925F926F927F928F929F92AF92BF92FB
:103E0000CF92DF92EF92FF920F931F93CF93DF93A6
:103E1000EC01A62E742E9E2DFF24F394F21A8EEF41
:103E2000289F802C1124B42EBA9453E0C52ECE0CBA
:103E3000E22EDD2443E0942E10E031E0432E512C9D
:103E400040225122692E63940270107034C0F7FC36
:103E500004C0EA9482E0880EF80CD3944114510413
:103E600089F06D2D6A0D472D4E192E2D220F260D2E
:103E7000CE010E94E01D6E2D6A0DCE014B2D2C2D22
:103E80000E94E01D0115110589F06A2D6D19472D5D
:103E90004E192E2D220F260DCE010E94E01D6A2DF7
:103EA0006E19CE014B2D2C2D0E94E01DF90C82E0E5
:103EB000980EBA94C80EDE1454F2DF91CF911F9180
:103EC0000F91FF90EF90DF90CF90BF90AF909F90B9
:103ED0008F907F906F905F904F9008957F928F9218
:103EE0009F92AF92BF92CF92DF92EF92FF920F9389
:103EF0001F936C01962EA42EF22E7E2C760E1EEFB2
:103F0000E19E102D1124812E820E672D282D0E94F6
:103F1000D61DB02EBA0CBA94C601672D4B2D282D94
:103F20000E94D61DAE0C100FC601692D4A2D212FFF
:103F30000E94E01DF90CFA94C6016F2D4A2D212F25
:103F40000E94E01DC601672D4A2D2E2D01E00E9422
:103F5000491EFE18C6016F2D4A2D2E2D02E00E942B
:103F6000491EBE18C6016F2D4B2D2E2D04E00E9458
:103F7000491EC601672D4B2D2E2D08E00E94491EBB
:103F80001F910F91FF90EF90DF90CF90BF90AF9077
:103F90009F908F907F9008958F929F92AF92BF9243
:103FA000CF92DF92EF92FF920F931F936C01162F27
:103FB000A42E922EF02EBE2C8E2C860E2EEFE29E7C
:103FC000E02C11242E2D290D682D0E94EA1DAB0C2A
:103FD000FA94FE0C1150190D1B19C601612F4A2DC0
:103FE0002B2D01E0EF2C0E94F81EC601682D4A2DF2
:103FF0002B2D02E00E94F81E1F910F91FF90EF9071
:10400000DF90CF90BF90AF909F908F9008953F9298
:104010004F925F926F927F928F929F92AF92BF92D8
:10402000CF92DF92EF92FF920F931F93CF93DF9384
:104030004C01362E442EF901A490319654906F0114
:104040000894C11CD11C8A2D992787FD909507964D
:1040500068E070E00E949E31E62EFF24E7FCF094B9
:1040600000E0C0E0D0E060E8662E712C26C0E12FB1
:10407000E595E595E595FF27E7FDF095EC0FFD1F2C
:10408000EC0DFD1DE4912E2F30E0812F8770A301F0
:1040900002C0559547958A95E2F724233523232BB3
:1040A00031F0612F630DC4014B2D0E9470041F5F1E
:1040B0001A15ECF20F5FCE0DDF1D051524F410E08C
:1040C000B02EB40CF5CFDF91CF911F910F91FF90DF
:1040D000EF90DF90CF90BF90AF909F908F907F90A8
:1040E0006F905F904F903F9008952F923F924F9224
:1040F0005F926F927F928F929F92AF92BF92CF9278
:10410000DF92EF92FF920F931F93DF93CF9300D034
:1041100000D00F92CDB7DEB73C01862E4A83F9015D
:10412000BE2C002329F4EE2019F40E9407207AC047
:10413000A490319694901F010894211C311C0370A7
:1041400009838A2D992787FD9095079668E070E08E
:104150000E949E31462E552447FC5094C92CCA9487
:10416000FF241D821C824A2D41504B8356C0E02FF4
:10417000E595E595E595FF27E7FDF0958C819D8117
:10418000E80FF91FE20DF31DE4912E2F30E0802F90
:104190008770A0E8B0E002C0B595A7958A95E2F7D0
:1041A0002A233B23232B61F1B981B13051F0B13087
:1041B00028F0B23049F0B33061F409C0102FEF2C71
:1041C00008C0ED2C1F2D05C01D2DEC2C02C01C2D90
:1041D000E02EBB2069F0E3E0BE228B2DB0FE03C0D1
:1041E000FA2DF11B1F2F81FF03C0492D4E19E42E1C
:1041F000180D5A81E50EC301612F4E2D0E947004E7
:104200000F5FDA940A150CF4B2CFF3948C819D8180
:10421000840D951D9D838C83CA94F9141CF4DB8056
:1042200000E0F0CF0F900F900F900F900F90CF9174
:10423000DF911F910F91FF90EF90DF90CF90BF9093
:10424000AF909F908F907F906F905F904F903F9036
:104250002F9008953F924F925F926F927F928F922C
:104260009F92AF92BF92CF92DF92EF92FF920F9305
:104270001F93CF93DF93EC01862EA42E422F102F95
:104280003F8C23E526170CF4ABC03FE23A150CF443
:10429000A7C0C02EDD248C8190E001979C01C29EB6
:1042A000C001C39E900DD29E900D1124262F33275E
:1042B00027FD3095820F931F181619060CF090C039
:1042C0008D8190E09C01C29EC001C39E900DD29E44
:1042D000900D11242A2D332727FD3095820F931F2F
:1042E000181619060CF07CC09924442E55246DC074
:1042F0009C01215030404217530711F460E00EC07A
:10430000429EC001439E900D529E900D1124840F39
:10431000951FED8DFE8DE80FF91F64914C9DC00136
:104320004D9D900D5C9D900D1124682C680EBB2452
:10433000792C780C3FC0E62EFF2460FF19C01130A5
:1043400039F44B2D4A0DCE01672D0E9470042EC00A
:104350002C9DC0012D9D900D3C9D900D11244A2D4A
:10436000480FCE01662D212F012F0E94EA1D1EC08D
:1043700098A18F8D9817D1F09F8F113039F44B2D64
:104380004A0DCE01672D0E9470040FC02C9DC00104
:104390002D9D900D3C9D900D11244A2D480FCE016E
:1043A000662D212F012F0E94EA1D3F8EF594E79480
:1043B0006E2DB3942B2D332727FD30958D8190E002
:1043C000281739070CF4B7CF9394492D552747FD8B
:1043D00050958C8190E0481759070CF489CF3F8E97
:1043E000DF91CF911F910F91FF90EF90DF90CF90D1
:1043F000BF90AF909F908F907F906F905F904F9005
:104400003F9008950F93CF93DF93EC01262F6A30EE
:1044100049F48D819885899F802D11249A85980F64
:104420009A8726C06D3029F169854A8508850E94E2
:104430002A219C816885969F402D11248985480FEB
:1044400049878F818823A9F0552747FD5095699F9B
:104450009001112484E590E0821B930B841795074B
:1044600044F49D81699F902D11248A85890F8A8744
:10447000198681E090E0DF91CF910F9108951F930D
:10448000CF93DF93EC01162FF8948E8560E00E94A5
:10449000B12C8F8518161CF460E00E94B12C1EBD53
:1044A0000DB407FEFDCF8EB58F8518161CF461E0A4
:1044B0000E94B12C7894DF91CF911F910895FF92C3
:1044C0000F931F93CF93DF93EC01FF2400E010E0E4
:1044D0006F2D6064CE010E943F22CE0160E80E94F1
:1044E0003F228E8561E00E94B12C8F8518161CF446
:1044F00060E00E94B12CF801E256FA4F90E0808112
:104500008EBD0DB407FEFDCF8EB59F5F31969435FD
:10451000B1F78F8518161CF461E00E94B12CF3945A
:104520000C5A1F4F86E0F81699F6CE0160E40E94FF
:104530003F22DF91CF911F910F91FF900895CF936C
:10454000DF93DC0188EF91E0EEE9F5E0EF019C01FB
:10455000199221503040E1F719961C9219971A963A
:104560001C92DF91CF910895EF920F93CF93DF9339
:10457000EC014D876C872E87E88A0F8781E088875A
:104580008F8F18A28F83E7E0F4E084918F5F8C8394
:10459000319684918F5F8D833196FE8FED8F0E94CF
:1045A000191C81E00E94FA1B85E00E94081C8CE027
:1045B0000E94031C8D8561E00E94722C8C8561E055
:1045C0000E94722C8E8561E00E94722C88891816D8
:1045D0001CF461E00E94722C8F8518161CF461E0B7
:1045E0000E94722C888918166CF460E00E94B12C2D
:1045F0006AE070E080E090E00E945C2B888961E0D6
:104600000E94B12CEC852E2F332727FD3095F90120
:10461000EA5CF84FE491F0E0EE0FFF1FEE5DF84F1B
:10462000859194919C8B8B8B265B384FF9018491FB
:104630008A8FED852E2F332727FD3095F901EA5C0F
:10464000F84FE491F0E0EE0FFF1FEE5DF84F85911B
:1046500094919A8B898B265B384FF9018491898FCD
:10466000EF852E2F332727FD3095F901EA5CF84FAF
:10467000E491F0E0EE0FFF1FEE5DF84F859194910D
:104680009E8B8D8B265B384FF90184918B8FEE8545
:104690002E2F332727FD3095F901EA5CF84FE4917E
:1046A000F0E0EE0FFF1FEE5DF84F85919491988F2B
:1046B0008F8B265B384FF90184918C8FCE0161E29C
:1046C0000E943F22CE0164E10E943F228B8587FF3A
:1046D00002C08FE78B876B856068CE010E943F2206
:1046E000CE0160E20E943F22CE016CE00E943F2298
:1046F000CE010E945F22DF91CF910F91EF9008953C
:10470000CF93DF93DC01E0E8F7E785919491ED0129
:10471000C75ADF4FAD0141595F4F8150904C09F0AE
:104720004EC0E6E9F7E7E491E883E7E9F7E7E491CB
:104730001496EC931497E8E9F7E7E4911596EC9357
:104740001597E9E9F7E78591949117969C938E93D5
:104750001697EBE9F7E78591949119969C938E93C0
:104760001897EDE9F7E7E4919B96EC939B97EEE9B8
:10477000F7E7E4919A96EC939A97EFE9F7E7E491DB
:10478000EA01E883E0EAF7E7859194915D969C93CE
:104790008E935C97E2EAF7E7859194915F969C93FC
:1047A0008E935E97E4EAF7E78591949191969C93B6
:1047B0008E939097E6EAF7E78591949132C08CE367
:1047C000888314961C9214972FEF15962C931597A7
:1047D00080E293E017969C938E93169784ED93E076
:1047E00019969C938E93189781E09B968C939B9738
:1047F0009A968C939A97FA0120838CEA9DE05D96B5
:104800009C938E935C978EED9DE05F969C938E9328
:104810005E9784E79EE091969C938E9390978CE3AD
:104820009FE093969C938E939297DF91CF910895FA
:10483000EF92FF920F931F93CF93DF937C018C0134
:10484000025B1F4FC8010E949F22C8016EEA75E0FB
:104850000E94942DC8010E945F2283E00E94081CE0
:104860008CE591E0EEEFFFE3099584E590E0E80E3A
:10487000F91EF7011082C80169E875E00E94DF2D7A
:10488000C8010E945F22E701CA54D040CE010E94B5
:10489000291DCE0164E00E94F71C882339F462E3ED
:1048A00070E080E090E00E945C2BF0CFDF91CF9130
:1048B0001F910F91FF90EF9008950F931F93CF9347
:1048C000DF93EC018C01025B1F4FC80161E040E007
:1048D0000E94551DFE01E95AFF4FCE5ADF4F85E574
:1048E0009881891B808326961882C855D040698D8F
:1048F000613009F43EC0613028F0888D653008F0E1
:1049000051C04BC0CE0185960E942E28CE0160E09A
:104910000E94341CC8010E949F22CA5ADF4F81E0C6
:104920008883C655D040C8016AEE75E00E94942D78
:104930006A8D7B8DC8014AE050E00E94822EC8013A
:1049400066ED75E00E94942DC8010E945F2283B736
:10495000817F846083BF83B7816083BF83B78160B9
:1049600083BF889583B78E7F83BF83B78E7F83BFD6
:104970001FC0C059DF4F88819981AA81BB818F7088
:104980009070A070B0700897A105B10518F4C80127
:1049900067E00CC0C80168E709C0882349F06B5F75
:1049A000C80104C0882321F0C8016FE20E94B72D1E
:1049B000DF91CF911F910F910895AF92BF92CF9247
:1049C000DF92EF92FF920F931F93CF93DF93EC014F
:1049D000CB57DF4F8881C558D040882309F44AC09F
:1049E0008C3010F010E002C01CE0181BCA5ADF4FD8
:1049F00081E08883C655D0406EE4C62ED12CCC0E03
:104A0000DD1EC60160E00E94511D53E5A52EB12CAC
:104A1000AC0EBD1EF50100814DE2F42E4F2D401B62
:104A2000410F0D5FC60160E024E533E0E32E0E94F4
:104A3000CC1FC60161E00E94511DF5010081F01AF2
:104A4000F10E0D5FC60160E04F2D24E50E946E1F40
:104A5000C95ADF4F84E08993F5018081181B115DED
:104A60001883AB9669917991C6010E94942D888133
:104A700081508883DF91CF911F910F91FF90EF902C
:104A8000DF90CF90BF90AF900895AF92BF92CF923A
:104A9000DF92EF92FF920F931F93CF93DF93EC017E
:104AA000EFE7AE2EB12CA80EB91EF501E080F18023
:104AB000028113810E94282BE61AF70A080B190BB2
:104AC0007EE7C72ED12CCC0EDD1EF601808190E052
:104AD000A0E0B0E08E159F05A007B10708F081C0E7
:104AE0008E0106581F4FF80180819181A281B38108
:104AF0000097A105B10509F474C00E94282BF601A6
:104B00002081620F711D811D911DF50160837183EC
:104B100082839383FE01E059FF4F80819181A281BE
:104B2000B3810196A11DB11D80839183A283B383BC
:104B3000F80110821182128213820E94362BCA5809
:104B4000DF4F688379838A839B83C657D040CE0129
:104B50000E94391CCE010A960E94291DCE0148965A
:104B60000E94AB1C81E032C08E010B5D1F4FC8015B
:104B70000E942A28C8010E942829C8010E94302AC0
:104B8000CE010E94DD24CE010E945D248E01025BD5
:104B90001F4FC8010E945F22CC5ADF4F8881C45545
:104BA000D040882319F4C8010E949F220E94362B0E
:104BB000C658DF4F688379838A839B832497288133
:104BC0003981621B730B7A936A9380E0DF91CF91F6
:104BD0001F910F91FF90EF90DF90CF90BF90AF901B
:104BE0000895C658DF4F88819981AA81BB81CA5731
:104BF000D0400097A105B10541F7B6CF2F923F9263
:104C00004F925F926F927F928F929F92AF92BF92DC
:104C1000CF92DF92EF92FF920F931F93DF93CF9388
:104C2000CDB7DEB72B970FB6F894DEBF0FBECDBF62
:104C30009B878A877A8369835C834B838C010159C4
:104C40001F4FF8018081882309F422C18A859B8542
:104C50008A5A9F4F9B878A8781E0EA85FB858083FC
:104C600012921292E455F040FB87EA87108E9EE480
:104C7000E92EF12CEE0EFF1EC70161E00E94511DCE
:104C80008AE0282E312C8A859B85280E391EB5E2B4
:104C90006B2E712C680E791EE981FA81F491FD83E7
:104CA000A7E58A2E912C880E991EF8E5CF2ED12CDF
:104CB000C80ED91EE2E54E2E512C480E591E8D5AB3
:104CC0009F4F9F838E8370E7A72EB12C8A859B858B
:104CD000A80EB91E198708878A859B850E944525DD
:104CE0008823D1F39D81992311F410E003C0EE8154
:104CF000FF811081C70160E040E027E236E00E94BA
:104D000007208B819C81892B41F0145FC70160E0F3
:104D1000412F2B813C810E940720F40110828CE0FE
:104D2000F6018083C70169817A810E94942DF20186
:104D3000208130E0C901880F991F820F931F909541
:104D400081959F4F8D5AF4018083EE81FF812081F0
:104D500030E0C901880F991F820F931F90958195AC
:104D60009F4F835DF6018083F501808184FF04C03D
:104D7000C70167EA76E003C0C70163EA76E00E94F4
:104D8000DF2DF201208130E0C901880F991F820FC9
:104D9000931F909581959F4F8D5AF4018083F60162
:104DA00080818F5F8083EA85FB8582A5882321F03F
:104DB000C7016FE976E003C0C7016BE976E00E94A6
:104DC000DF2DF201808190E09C01220F331F280F1C
:104DD000391F309521953F4F2D5AF4012083F6015C
:104DE00080818F5F8083C70167E976E00E94DF2DB5
:104DF000C10165E00E94F71C882351F0EA85FB851C
:104E000062A56F5FC3010E94992AC3010E94932A81
:104E1000C10164E00E94F71C882399F4E885F985B4
:104E20006081262F30E040E050E0F50180819181E3
:104E3000A281B38182179307A407B50708F16F3FDA
:104E4000F9F08A859B8581599F4F9B878A878FEFD1
:104E5000EA85FB858083EF56F040FB87EA87C30134
:104E600060E00E94CE27C3010E948D2A81E0EA857E
:104E7000FB85808F0DC08A859B850E9418242CCFCE
:104E8000C10166E00E94F71C882309F425CFF3CF07
:104E90002B960FB6F894DEBF0FBECDBFCF91DF913A
:104EA0001F910F91FF90EF90DF90CF90BF90AF9048
:104EB0009F908F907F906F905F904F903F902F903A
:104EC0000895AB016CEA76E00E94FE250895AF924A
:104ED000BF92CF92DF92EF920F93CF93DF936C014B
:104EE0008EE790E0C80ED91E82E3F601808381E050
:104EF00090E0A0E0B0E0B293A293929382936F010E
:104F000085EF9FEFC80ED91E8FEFF601808381E9F0
:104F10009FEFC80ED91EC6010E948023C6010E94C1
:104F2000301CC6016FEF0E94341C4AE0A42EB12C45
:104F3000AC0CBD1CC5010E94E71CC5010E94291DC7
:104F4000C60148960E94A11CC601825B9F4F6DE07E
:104F50004BE020E10FE03EE0E32E0E94B422E601A8
:104F6000A596CE010E94A62AC50165E00E94F71C05
:104F7000882329F0CE0160E00E94992A06C0CE0164
:104F80006DEA76E040E00E94E027DF91CF910F913B
:104F9000EF90DF90CF90BF90AF900895FC01662313
:104FA00071F4178A158A14A213A2108E10929A0710
:104FB00010929907109297071092B40011820895E9
:104FC0000F931F93CF93DF93EC018B01442371F474
:104FD00060E00E94CE271E870D871B8A1A8A81E017
:104FE000898389E08E8B198E1B8E1D8EDF91CF9168
:104FF0001F910F910895CF93DF93EC01662339F54C
:105000008881882321F18981882309F5898590E0A9
:10501000880F991FEF81F885E80FF91F859194910A
:105020002FEF8F3F920711F4188211C09C8790E0F8
:10503000880F991FEA85FB85E80FF91F6591749128
:10504000CE0140E00E94E02789858F5F8987DF914C
:10505000CF91089560E00E94FB27089560E00E94D0
:10506000CE2708950F93DC01002309F069C0623058
:1050700009F443C0633030F4662359F0613009F01D
:105080005FC00DC0633009F444C0643009F058C0FB
:105090004CC04B3008F04AE056964C9351C0842FD8
:1050A00090E0880F991F1F962D913C915097280FE3
:1050B000391FF9018591949190969C938E935F97F7
:1050C000FC014591549114968C911497849F602D06
:1050D000112491966C939197252F3327862F90E07A
:1050E0002817390708F4652F14968C911497689F38
:1050F000802D112492968C9323C014968C91149732
:10510000489F802D112459968C9359975A962C9329
:1051100017C014968C911497489F802D11245B968C
:105120008C935B975C962C930BC014968C91149780
:10513000489F802D11245D968C935D975E962C93ED
:105140000F9108950F93CF93DF93EC01662309F03D
:105150007BC08981882309F477C08D89882309F071
:1051600073C0EA89FB89EE0FFF1F4D855E85E40F52
:10517000F51F259134912115310509F049C0898920
:10518000813031F41B8A1A8AFA012591349140C08A
:1051900019828881882379F0CE0160E00E94FB2784
:1051A0008A899B89880F991FED85FE85E80FF91F75
:1051B000259134912DC01F8A1D8A1CA21BA2188E16
:1051C00010929A0710929907109297071092B400C4
:1051D0003BC006E0369527950A95E1F76F70422FA0
:1051E0004F71B5E036952795BA95E1F72051CE017C
:1051F00000E00E9432288A899B8901969B8B8A8BCA
:10520000880F991FED85FE85E80FF91F25913491D0
:10521000B901769567957695679520FDDACF862F4B
:105220008F738C8B8C81839F802D11248D8B1DA27D
:105230001CA21BA281E08F8B80939707188E8A890E
:105240009B8901969B8B8A8BDF91CF910F9108955B
:1052500060E00E94A2280895FC01222371F4648B6F
:105260008481489F802D1124858B15A214A213A23E
:1052700081E0878B80939707108E0895CF93DF93FB
:10528000EC01662309F0E9C08F89882309F4E5C0A1
:105290008D89882371F41F8A1D8A1CA21BA2188E77
:1052A00010929A0710929907109297071092B400E3
:1052B000D4C081508D8B8DA1882309F044C08BA16F
:1052C0009CA10196880F991FEF8DF8A1E80FF91F97
:1052D00085919491282F27702EA3AC0173E05695E9
:1052E00047957A95E1F79A0136952795892F992761
:1052F000869586958FA32F738C81289F202D11244E
:105300002DA3417040939B078BA19CA101969CA368
:105310008BA329A130E082179307A8F08AA18823E4
:1053200029F0281B31093CA32BA30DC01F8A1D8A1D
:105330001CA21BA2188E10929A0710929907109225
:1053400097071092B4008DA181508DA3988D9F5F17
:10535000988F2FA18C89280F8C85280F2A836B8D1D
:10536000662369F0892F992787FD909570E00E9448
:105370009E318C8D869F802D1124820F8A838A8195
:1053800090E0CB966BE370E00E949E318A832E8979
:105390002B83698D662379F0888D772767FD70955B
:1053A000992787FD90950E949E318A8D869F802D3A
:1053B0001124820F8B836D8D662399F0888D992738
:1053C00087FD909570E00E949E31CB0162E070E015
:1053D0000E949E319E8D899F802D11249B81890F73
:1053E0008B838B818A300CF089E087FD80E08B8392
:1053F0008C898F3309F41B82F894EA81F0E0EF5234
:10540000F94FE491E09398072D8130E08B81992743
:1054100087FD9095A901489F9001499F300D589FA5
:10542000300D112488A590E0A901489F9001499F63
:10543000300D589F300D11248EA1992787FD90952E
:10544000AC01249FC001259F900D349F900D112425
:105450008093990780939A077894DF91CF9108956C
:1054600060E00E943E29089560919907662381F1CA
:10547000809196078F5F8093960790919807891780
:1054800038F130E080919707882309F431E03093B8
:1054900097071092960780919B078823A9F0809127
:1054A000670123E4829FC0011124895B8093670117
:1054B00090E070E00E948A3180939A0705C0809145
:1054C0009A078093B40008953323C9F780E0F9CF99
:1054D00008951F920F920FB60F9211242F933F93AE
:1054E0004F935F936F937F938F939F93AF93BF93EC
:1054F000EF93FF930E94342AFF91EF91BF91AF91F8
:105500009F918F917F916F915F914F913F912F91DB
:105510000F900FBE0F901F90189569EC76E040E059
:105520000E94E02708956BEB76E040E00E94E027C0
:105530000895FC01862F668170E06F5F7F4F992789
:1055400087FD90950E949E31858308950F93FC01FD
:1055500081E0848384E080A78CE097E0908B87874C
:10556000CF0161E040E020E000E00E94322883E0CB
:1055700061E070E00E94122CE1EBF0E08081887F16
:1055800081608083F89410928000E1E8F0E010825E
:10559000109285001092840088E191E09093890038
:1055A000809388008081886080838081816080838F
:1055B000EFE6F0E080818260808378940F91089517
:1055C0001F920F920FB60F9211242F933F938F9338
:1055D0009F93AF93BF938091A0079091A107A09153
:1055E000A207B091A3073091A4070196A11DB11D98
:1055F000232F2D5F2D3720F02D570196A11DB11DB2
:105600002093A4078093A0079093A107A093A207DB
:10561000B093A30780919C0790919D07A0919E074E
:10562000B0919F070196A11DB11D80939C07909397
:105630009D07A0939E07B0939F07BF91AF919F9145
:105640008F913F912F910F900FBE0F901F90189543
:105650008FB7F8942091A0073091A1074091A2073D
:105660005091A3078FBFB901CA0108959FB7F8945D
:1056700020919C0730919D0740919E0750919F0774
:1056800086B5A89B06C08F3F21F02F5F3F4F4F4F3D
:105690005F4F9FBF542F432F322F2227280F311DDA
:1056A000411D511D82E0220F331F441F551F8A9553
:1056B000D1F7B901CA0108959B01AC017FB7F894F5
:1056C00080919C0790919D07A0919E07B0919F07A4
:1056D00066B5A89B05C06F3F19F00196A11DB11DCD
:1056E0007FBFBA2FA92F982F8827860F911DA11D44
:1056F000B11D62E0880F991FAA1FBB1F6A95D1F7E1
:10570000BC012DC0FFB7F89480919C0790919D0734
:10571000A0919E07B0919F07E6B5A89B05C0EF3FFB
:1057200019F00196A11DB11DFFBFBA2FA92F982F07
:1057300088278E0F911DA11DB11DE2E0880F991FD2
:10574000AA1FBB1FEA95D1F7861B970B885E934073
:10575000C8F2215030404040504068517C4F2115E4
:1057600031054105510571F60895789484B582603C
:1057700084BD84B5816084BD85B5826085BD85B5F5
:10578000816085BDEEE6F0E0808181608083E1E8A4
:10579000F0E01082808182608083808181608083DC
:1057A000E0E8F0E0808181608083E1EBF0E08081DF
:1057B00084608083E0EBF0E0808181608083EAE7B1
:1057C000F0E080818460808380818260808380813A
:1057D000816080838081806880831092C1000895F9
:1057E000982F8E3008F09E509770809168018295B6
:1057F000880F880F807C892B80937C0080917A00B1
:10580000806480937A0080917A0086FDFCCF20919D
:10581000780040917900942F80E030E0282B392BDC
:10582000C90108951F93CF93DF93182FEB0161E017
:105830000E94722C209709F44AC0CF3FD10509F489
:1058400049C0E12FF0E0E25AF84F84918330C1F073
:10585000843028F4813051F08230B1F50CC08630AC
:1058600019F1873049F1843079F514C084B5806826
:1058700084BDC7BD33C084B5806284BDC8BD2EC0A1
:1058800080918000806880938000D0938900C093CD
:10589000880024C080918000806280938000D09333
:1058A0008B00C0938A001AC08091B00080688093FA
:1058B000B000C093B30012C08091B00080628093AA
:1058C000B000C093B4000AC0C038D1051CF4812FC9
:1058D00060E002C0812F61E00E94B12CDF91CF9186
:1058E0001F910895CF93DF93482F50E0CA01865B44
:1058F000984FFC0134914A5C584FFA0184918823F7
:1059000069F190E0880F991FFC01E85EF84FA591BE
:10591000B491FC01EE5DF84FC591D491662351F42A
:105920002FB7F8948C91932F909589238C9388812D
:1059300089230BC0623061F42FB7F8948C91932FB8
:10594000909589238C938881832B88832FBF06C0F1
:105950009FB7F8948C91832B8C939FBFDF91CF914D
:105960000895482F50E0CA01825A984FFC012491B3
:10597000CA01865B984FFC0194914A5C584FFA012A
:105980003491332309F440C0222351F1233071F0C4
:10599000243028F42130A1F0223011F514C0263033
:1059A000B1F02730C1F02430D9F404C080918000D8
:1059B0008F7703C0809180008F7D8093800010C01E
:1059C00084B58F7702C084B58F7D84BD09C0809176
:1059D000B0008F7703C08091B0008F7D8093B000BE
:1059E000E32FF0E0EE0FFF1FEE5DF84FA591B491AD
:1059F0002FB7F894662321F48C919095892302C0E7
:105A00008C91892B8C932FBF0895682F70E0CB0168
:105A1000825A984FFC012491CB01865B984FFC0180
:105A200044916A5C784FFB019491992319F420E02A
:105A300030E03CC0222351F1233071F0243028F4AF
:105A40002130A1F0223011F514C02630B1F02730FA
:105A5000C1F02430D9F404C0809180008F7703C056
:105A6000809180008F7D8093800010C084B58F77F7
:105A700002C084B58F7D84BD09C08091B0008F774E
:105A800003C08091B0008F7D8093B000892F90E09B
:105A9000880F991F845D984FFC01A591B4918C915A
:105AA00020E030E0842311F021E030E0C9010895C6
:105AB0000895CF93DF930E94B52B0E94582D0E942A
:105AC000F31BC0E0D0E00E948F1A2097E1F30E9400
:105AD0000000F9CFCF92DF92EF92FF920F931F93C6
