:100000000C9489030C94B1030C94B1030C94B103C8
:100010000C94B1030C94B1030C94B1030C94B10390
:100020000C94B1030C94B1030C94B1030C940B2801
:100030000C94B1030C94B1030C94B1030C94B10370
:100040000C9468280C94B1030C94B1030C94B10384
:100050000C94B1030C94B1030C94B1030C94B10350
:100060000C94B1030C94B10335193C196919761934
:10007000AE19BB19161A3919D8196C19061A0404C5
:1000800060F06090040490F060900404F0F06090E0
:10009000040460606090180A30900078F0003060CE
:1000A000C048902000004000000078604078600068
:1000B000306000489000150C0000000000000000B7
:1000C00000000000000008400018E00078E0003860
:1000D000C00038E00078F104F8FFFFF8150C0000CC
:1000E00000000000801000C01800C00808C01C38C4
:1000F000C21C78C61C78E61C78F61C78FF3FF8FF17
:10010000FFF8150C000000000000000100010300D2
:1001100001960000BC1000F810807010807838C084
:100120007878E47878FFFFF8150C000000000000F4
:100130000000800001809001C8FC03C8FE07D8F0D1
:100140000FF8E007F8C003F8F807F8FFFFF8150C00
:10015000003FF80009F80000F80000B80200387607
:100160000018FF0038FFC0B8FF81F8FF01F8FF80DA
:10017000F8FFFFF8150C00000000000000000880E8
:100180000018C80008FED808FFFC08FFF008FFA010
:1001900008FF0018FF80F8FFFFF8150C037898039C
:1001A000D00801C0188080088000088007C0C00FF8
:1001B000E8E01FE8C0F878E073387DE798FFFFF8C3
:1001C000150C00000000000000450081FF80C7FF03
:1001D000C0E3FFE0C1FFC0F09380F80000FC000026
:1001E000FE0008FFFFF8150C07C03807E01807806D
:1001F00018030008038000030400810400C00C0001
:10020000E00E00F01E00E0FF80FFFFF8150C00F08C
:100210003800600838C008E0C000C183C081874052
:10022000830FE0021BE0800FB0901FF0D03EF0FF84
:10023000FFF8150C01E03800F018487808FC3F88FA
:10024000FC3FC0F87F80F07F00F0F600D0400890BF
:100250000018800078FFFFF80404F0F0F0F00404C8
:10026000E0F0F0F0040460F0F0F0040470F0F0E06E
:10027000040460F0F070040460F0F0600404000016
:1002800000000404100000000404900000000404B6
:10029000800000100404900000800404900000908E
:1002A00048230000008254000000000000015B159C
:1002B000B5000000000001D255250000000000013B
:1002C0005154A300000000000000000100000000E5
:1002D000000FFFFFFA6000000000000000000000B7
:1002E0000000140000000128000000155A4C14C240
:1002F000A36000001D552A1483AA50000015956ABA
:100300000982A95000000000000000000000000069
:100310000000000000FF8000000000000003FFE07C
:10032000000E0000000007FFE00031800000000F19
:10033000FFF00040400000000FFFF0008F200000A1
:10034000000FFFF00090A00000000FFFE0013FD081
:100350000000000FFFC0013FD0000000027F8001BD
:1003600065500000000FFE0003E0500000000FFC8D
:10037000000566900000000FFE0006B0A00000001F
:100380000A8F80055F600000000007C003AAA0007C
:100390000000003FF00475600001F001FFF8050F58
:1003A000C010011BC1FFF808C3FFF8000FFCFEF8E6
:1003B0000837FCF8007FFCFDE80A0FFFF00007BFDC
:1003C00067D811803FF0021E53FF78107814800325
:1003D000F3EFFDF02007F3000000FFF7F003053F07
:1003E000213F1208120A100A0E1C0E0C1E0C141AC1
:1003F00014161F161E131E1E1B1E1E1F1E3F213FFE
:100400003A2F3A173D173F213F181F02040A041FD5
:100410000E04040E1F0A1F0A0E0E1F04110E2E25B5
:100420002E2F2A2E262929021F02081F08150E0426
:10043000040E150E15151B151B040604040C0400F0
:1004400000000017000300031F0A1F16371A1904C3
:10045000130A153A000300000E11110E000A040AD7
:10046000040E040030000404040010001804031FEC
:10047000111F121F101D151711151F07041F171527
:100480001D1F151D01011F1F151F17151F000A0035
:10049000003200040A110A0A0A110A040115020EA8
:1004A00011171E051E1F150A0E110A1F110E1F150A
:1004B000111F05010E111D1F041F111F1108100F20
:1004C0001F041B1F10101F061F1E040F0E110E1FEE
:1004D00009060E112E1F051A121509011F011F1002
:1004E0001F0F180F1F0C1F1B041B031C03191513D0
:1004F000001F11030418111F000201022020200018
:1005000001020C121E1F120C0C12120C121F0C1ADC
:1005100014041E05242A1E1F021C141D1020201D59
:100520001F0814111F101E041E1E021C0C120C3E6C
:100530000A040C123E1E040214160A020F120E10B8
:100540001E0E100E1E081E120C1226281E322A26FF
:10055000041E21001F00211E040102013F213F0A49
:100560004E6F2053442063617264206F720A6E6F75
:10057000204C4F414445522E4845580A0A153A45E9
:10058000786974001D20466C617368696E670A2083
:10059000206C6F616465722E2E2E0A0A444F4E271E
:1005A00054205455524E204F464621006D560A0A9B
:1005B000504C454153450A5455524E204F46460033
:1005C0004C4F5720424154544552590A0017534446
:1005D00000161378001613140015102000152010B3
:1005E0000000540A03E181867F3E186D830F0F0ED1
:1005F0000183866033186DC3198F1803C38E60336F
:10060000186DE330CF1803C39E603630CDE360CF62
:100610003006C79E7E3E30CDB360CF300CC6F6604C
:100620003330D9B660CF33CFCCF66061B0DB1E601B
:10063000CF30D86CE6C061B0DB1E618F19986CC6F4
:10064000C063B19B0E330F0FB078C6FF7E1F1B0631
:100650001E0F05008930080238024978681400002E
:10066000F6E8DBCFC3B8AEA49B928A827B746E6837
:10067000625C57524E4945413E3A3734312E2C295F
:10068000272523211F1D1C1A1917161514131211C3
:10069000100F0E0D0C0B0A09080706450068010033
:1006A000000500380168010000B106AD060101FF38
:1006B000030101F703000000080002010000030429
:1006C00007000000000000000001020408102040A4
:1006D0008001020408102001020408102004040410
:1006E00004040404040202020202020303030303DB
:1006F0000300000000230026002900000000002560
:100700000028002B0000000000240027002A000021
:100710001F1A11241FBECFEFD8E0DEBFCDBF12E0FD
:10072000A0E0B1E0E6E2FEE502C005900D92A23045
:10073000B107D9F726E0A2E0B2E001C01D92AD34C6
:10074000B207E1F717E0C2E1D7E004C02297FE014B
:100750000E948E2EC031D107C9F70E94822A0C94C4
:10076000112F0C9400008435D8F46033C8F4962F10
:10077000959595959595E82FFF27E7FDF095EA5B10
:10078000FB4F84E59802E00DF11D1124808190E07B
:10079000677002C0959587956A95E2F78170089514
:1007A00080E008950F931F93CF93DF93FC01862F72
:1007B0006435D8F54033C8F5978D042F0595059518
:1007C0000595C62FDD27C7FDD095142F17709230E1
:1007D00031F4642F0E94B3038823B1F002C0911159
:1007E00013C0FE0184E50802E00DF11D1124EA5B4F
:1007F000FB4F81E090E0012E01C0880F0A94EAF7D8
:1008000080959081982310C0FE0184E50802E00DD8
:10081000F11D1124EA5BFB4F81E090E001C0880FDD
:100820001A95EAF79081982B9083DF91CF911F91D1
:100830000F91089560EA72E08FEB93E00E94AE247E
:100840001092D70381E080931603109213039BE06C
:100850009093150394E190930D021092150210925B
:10086000030292E09093080293E090930902809330
:100870000702909306028093020208958FEB93E0A3
:100880000E942C250C941A046F927F928F929F9253
:10089000AF92BF92CF92DF92EF92FF920F931F938E
:1008A000CF93DF93CDB7DEB765970FB6F894DEBF71
:1008B0000FBECDBF40E025E130E0842F90E0E1E0C5
:1008C000F0E0EC0FFD1FE80FF91F880F991F880F4C
:1008D000991FB9010E94372E80834F5F453168F31D
:1008E0004093140225E130E040E050E060E070E029
:1008F000CB010E940E2C1092140240E070E085E1C2
:1009000090E0861B970B01E010E00C0F1D1F060FF7
:10091000171FE42FF0E04F5FE817F90784F421E098
:1009200030E02C0F3D1FE20FF31F50819F01260F77
:10093000371FD9012C912083F8015083EACF109200
:10094000140289E0C82EBB24B3949AE0A92E2BE0B0
:10095000D22E80911402282F30E060910902E0919C
:1009600008024E2F50E06E9FF00111242E173F0712
:100970000CF0DCC0C29EF001C39EF00D1124E15DBD
:10098000FC4F13829091060297830E94092E848364
:100990001582168290E060910702461B5109841768
:1009A00095070CF0B682C29E8001C39E100D1124E3
:1009B000015D1C4FD80118961C921897E1E0F0E0F9
:1009C000EC0FFD1FE20FF31F8080882D880F880F2A
:1009D000F801819399249394980C80FC1FC0119680
:1009E0001C927F01F7017080FAE0F7150CF444C007
:1009F00066246394670C662D892D0E94B3038111D0
:100A000038C062E0670D892D0E94B303813089F5FB
:100A1000770C770CD80111967C921AC0D8011196E8
:100A2000AC927F01F70170801714ACF561E0670D9F
:100A3000892D0E94B30381112AC062E0670D892DC0
:100A40000E94B303813019F5770C770CF80171829D
:100A500080911402C89EF0011124E15DFC4F908149
:100A6000993214F0128201C0B2828F5F8093140217
:100A700070CFF7016082B6CF882D6D2D0E94092EB0
:100A8000892F880F880FD80111968C930DC07A9406
:100A9000D7017C92C7CF882D6D2D0E94092E892FFA
:100AA000880F880FF801818361E0690F892D0E940A
:100AB000B30381111BC061E08DE094E00E94E81B4C
:100AC00080911402E1E0F0E0EC0FFD1FE80FF11D52
:100AD0002081822F6D2D0E94092E9E5F61E0620FA2
:100AE000492F8DE094E00E94D203B2CF60E08DE008
:100AF00094E00E94E81B80911402E1E0F0E0EC0F2A
:100B0000FD1FE80FF11D2081822F6D2D0E94092EFF
:100B10009F5F61E0620F492F8DE094E00E94D20355
:100B200061E08DE094E00E94E81B92CF65960FB6DD
:100B3000F894DEBF0FBECDBFDF91CF911F910F9113
:100B4000FF90EF90DF90CF90BF90AF909F908F90ED
:100B50007F906F90089580910A028530D1F08630A1
:100B600069F0843011F5E0910B0299E0E99FF00102
:100B70001124E15DFC4F9181915015C0E0910B0271
:100B800099E0E99FF0011124E15DFC4F91819350C0
:100B90000AC0E0910B0299E0E99FF0011124E15DA8
:100BA000FC4F91819250918302C0882319F08150AB
:100BB00080930A0208952F923F924F925F926F9214
:100BC0007F928F929F92AF92BF92CF92DF92EF92DD
:100BD000FF920F931F93CF93DF93CDB7DEB7289784
:100BE0000FB6F894DEBF0FBECDBF10921302409037
:100BF000090280910802489E20011124E9E03E2E5E
:100C0000909113029983092F10E0041515050CF03B
:100C1000C4C0309EC001319E900D1124815D9C4F57
:100C200098878F836C019FEFC91AD90AAF81B88565
:100C300011969C9111979C5FFC90692F8F2D9E833C
:100C40000E94B3039E81811190C0692F83E08F0DB4
:100C50000E94B303811189C0109212028F80988480
:100C60007401A5E0EA0EF11C5401B3E0AB0EB11C17
:100C70003401E4E06E0E711CC40107969B838A83E5
:100C8000F701608120901202462F50E0822D90E003
:100C900048175907C4F1F601908154E0590FD40167
:100CA0004C91652F842F4D835C839E830E94B303F8
:100CB0004D815C81811123C0652F83E0840F0E94E8
:100CC000B3039E8181111BC091330CF457C0F50111
:100CD0008081811114C0D301EC91F0E0EE0FFF1F71
:100CE000E95DFC4F80818150808310920502EA818A
:100CF000FB811082D7011C9281E0F501808323944F
:100D000020921202BDCF643050F4AF81B8851396A3
:100D10008C911397811103C06F5F15966C93309E71
:100D20005001319EB00C1124F501E15DFC4F5F01D3
:100D3000F18063E0D62EDF0CE0806D2D82E08E0D19
:100D40000E94B3038130F1F06D2D81E08E0D0E9481
:100D5000B303813029F4D50113968C91882391F047
:100D600089818F5F809313024BCF309EF001319EBB
:100D7000F00D1124E15DFC4F1582D1CF9F5FD601AC
:100D80009C93BDCF309EF001319EF00D1124E15DAA
:100D9000FC4FFA94F1821582E3CF28960FB6F894AF
:100DA000DEBF0FBECDBFDF91CF911F910F91FF909E
:100DB000EF90DF90CF90BF90AF909F908F907F90FB
:100DC0006F905F904F903F902F9008951F93CF9317
:100DD000DF936091090280910802689FB00111249D
:100DE0002091230330E04091240350E0C0910D0294
:100DF000B0910502A0E0D9E011E08A2F90E08617BB
:100E00009707A4F5D89FF001D99FF00D1124E15D5B
:100E1000FC4F8381811128C08081992787FD90959F
:100E2000281739070CF1049682179307ECF081819B
:100E3000992787FD909548175907B4F004968417B1
:100E4000950794F087818150878381110CC01383AB
:100E5000E481F0E0EE0FFF1FE95DFC4F80818150DF
:100E60008083B0E001C0C087AF5FC7CFB0930502F9
:100E7000A0931402DF91CF911F9108952091080251
:100E800080E090E0821758F4E82FF0E0EE0FFF1FAB
:100E9000E95DFC4F308131119F5F8F5FF3CF80930D
:100EA0001402923018F487E08093160308951F937C
:100EB000CF93DF93C0910802D0E080910C0290E0C4
:100EC0000196BE010E94372E9C01220F331FF901AB
:100ED000E95DFC4F5081552391F380930C02C09142
:100EE00009028C9F402D1124D0E0818119E090E00F
:100EF0000196BE010E94372E942F980F199FF00182
:100F00001124E15DFC4F53815111F1CFD901A95D4D
:100F1000BC4F11968C9390930B0280910D028087A9
:100F20001092050284E08093040282E08093200303
:100F30008AE0809321031092220380931603DF91AD
:100F4000CF911F910C943E073091250323E0832F0E
:100F5000622F0E94152E90912303890F8093230303
:100F600040912603842F622F0E94152E9091240316
:100F7000890F8093240320910202240F20932603DB
:100F8000632F772767FD709577FF03C07195619593
:100F900071096D30710544F04CE03402C001112438
:100FA0000E94372E60932503622F772767FD709587
:100FB00077FF03C07195619571096D30710544F03B
:100FC0003CE02302C00111240E94372E60932603C7
:100FD0000895CF9320912303253530F440912403C5
:100FE0008FEC840F833318F4CF910C945707E22FC2
:100FF000E695E6958CE0E89FF0011124842F869514
:101000008695E80FF11DEA5EFD4F80818C3318F460
:1010100086E0809316036091090280910802689F20
:10102000B0011124B0911603A0E0C9E030E050E017
:101030008A2F90E08617970704F5C89FF001C99F93
:10104000F00D1124E15DFC4F8081992787FD90957B
:101050002817390784F004968217930764F081817A
:10106000992787FD9095481759072CF00496841707
:1010700095070CF0B6E0AF5FDBCFB0931603A093FB
:101080001402CF9108955091170390E070E04091C1
:10109000190320911C0330911B035C3308F097C0A7
:1010A0005CE0589FF001599FF00D1124E60FF71FE7
:1010B000EA5EFD4F10824C3340F050911A035C33CE
:1010C00020F02C3310F05AE050833C33A0F05091C4
:1010D0001D035C3380F050911E035C3360F05CE0D4
:1010E000589FF001599FF00D1124E60FF71FEA5E9B
:1010F000FD4F5BE050832C3398F050911E035C331E
:1011000078F050911F035C3358F05CE0589FF00179
:10111000599FF00D1124E60FF71FEA5EFD4F508333
:10112000509118035C33A8F04C3398F03C3360F0D6
:10113000ACE0A89FF001A99FF00D1124E60FF71F66
:10114000EA5EFD4FADE0A083E0911A03EC3308F0B6
:1011500059C13C33D0F02C33C0F0E0911D03EC3387
:10116000A0F0E0911E03EC3380F0E0911F03EC331C
:1011700060F0ACE0A89FF001A99FF00D1124E60FEC
:10118000F71FEA5EFD4FA5E1A0834C3308F432C19E
:10119000A0911A03AC3308F4A8C02C3308F4A5C0FE
:1011A000E0911E03EC3308F4A0C0E0911F03EC3380
:1011B00008F49BC0BCE0B89FF001B99FF00D11246A
:1011C000E60FF71FEA5EFD4FB6E1B0838EC05CE02C
:1011D000589FF001599FF00D1124E60FF71FEA5EAA
:1011E000FD4F5CE350834C3320F42C3310F456E471
:1011F00050833C3380F450911E035C3360F45CE018
:10120000589FF001599FF00D1124E60FF71FEA5E79
:10121000FD4F57E450832C3380F450911E035C3310
:1012200060F45CE0589FF001599FF00D1124E60F27
:10123000F71FEA5EFD4F58E450834C3380F43C3393
:1012400040F55CE0589FF001599FF00D1124E60F26
:10125000F71FEA5EFD4F2C3330F450E505C03C33F8
:1012600008F41CC1089559E450832C3320F55091A3
:101270001E035C3308F0C2C05CE0589FF001599F28
:10128000F00D1124E60FF71FEA5EFD4F51E5508384
:10129000B5C02C3380F440911E034C3360F44CE015
:1012A000489FF001499FF00D1124E60FF71FEA5EF9
:1012B000FD4F42E540833C33B8F430911E033C338C
:1012C00008F0EFC03CE0389FF001399FF00D112489
:1012D000E60FF71FEA5EFD4F83E580832C3308F0AD
:1012E000E0C08EE68083089508955C33F0F04C33BF
:1012F00008F4D7C03C33A0F0E0911D03EC3380F03C
:10130000E0911E03EC3360F0BCE0B89FF001B99FA0
:10131000F00D1124E60FF71FEA5EFD4FB7E1B08331
:10132000AC3318F03C3308F080C0AC33E0F03C3311
:10133000D0F02C33C0F0E0911D03EC33A0F0E0912D
:101340001E03EC3380F0E0911F03EC3360F0ACE05F
:10135000A89FF001A99FF00D1124E60FF71FEA5E88
:10136000FD4FA9E2A0835C3308F49BC04C3308F422
:1013700098C040911A034C33D8F03C3308F46FC046
:101380002C3308F46CC050911E035C33B8F05091BC
:101390001F035C3398F05CE0589FF001599FF00DFB
:1013A0001124E60FF71FEA5EFD4F5AE2508306C094
:1013B0003C3308F454C02C3308F451C050911D0341
:1013C0005C3308F44CC050911E035C3308F447C0F2
:1013D00050911F035C3308F442C05CE0589FF00159
:1013E000599FF00D1124E60FF71FEA5EFD4F5BE2F7
:1013F000508335C05C3308F054C0B5CF4C3308F08F
:1014000050C049CF3C3308F4C3CE2C3308F4A3CEEC
:10141000ACE0A89FF001A99FF00D1124E60FF71F83
:10142000EA5EFD4FA4E1A08396CE2C3308F47DCF75
:10143000E0911D03EC3308F478CFE0911E03EC3308
:1014400008F473CFBCE0B89FF001B99FF00D1124F0
:10145000E60FF71FEA5EFD4FB8E2B08366CF4C336C
:10146000E0F03C33F0F02C33E0F020911D032C33FE
:10147000C0F020911E032C33A0F020911F032C33C9
:1014800080F02CE0289FF001299FF00D1124E60F39
:10149000F71FEA5EFD4F82E325CF08952C3308F451
:1014A000E6CE0895DF92EF92FF920F931F93CF93B2
:1014B000DF9381E080931402DD24D394CCE3809108
:1014C00014028D3008F086C0D092130210911302DE
:1014D000D0911402163108F079C06D2F812F0E942F
:1014E000B303882319F01092170302C0C0931703A7
:1014F000EE24EA94ED0E0FEF010F6E2D802F0E9467
:10150000B303882319F01092180302C0C093180384
:101510006E2D812F0E94B303882319F010921903B6
:1015200002C0C0931903FF24F394F10E6E2D8F2D8A
:101530000E94B303882319F010921A0302C0C093CB
:101540001A036D2F802F0E94B303882319F0109285
:101550001B0302C0C0931B036D2F8F2D0E94B3038A
:10156000882319F010921C0302C0C0931C03EE24C0
:10157000E394ED0E6E2D802F0E94B303882319F0A3
:1015800010921D0302C0C0931D036E2D812F0E9477
:10159000B303882319F010921E0302C0C0931E03E8
:1015A0006E2D8F2D0E94B303882319F010921F0314
:1015B00002C0C0931F036FEF6D0F802F0E9443087E
:1015C000809113028F5F8093130280CFDF5FD093EF
:1015D000140275CFDF91CF911F910F91FF90EF9083
:1015E000DF9008950F9360E08DE094E00E94E81B87
:1015F0000CE025E140E060E08DE094E00E94711C89
:1016000061E08DE094E00E94E81B0EE027E140E0FD
:1016100060E08DE094E00E94A21C2091120386E21B
:10162000289F900111242A543F4F41E061E08DE052
:1016300094E00E94491E0E9444040E94520A60E005
:101640008DE094E00E94E81B27E140E060E08DE03F
:1016500094E00E94711C61E08DE094E00F910C9485
:10166000E81B0F931F93CF93DF9350912503409175
:101670002603709123036091240357FD74C047FD36
:1016800039C0172F16951695212F30E0F9013197A3
:10169000C62FC695C6958C2F90E00CE00E9FD0010A
:1016A0000F9FB00D1124A80FB91FAA5EBD4FEC917A
:1016B000EC3308F0E5C0029FF001039FF00D112408
:1016C000E80FF91FEB5EFD4F00810C3308F0D8C026
:1016D000852F992787FD9095552747FD509555955E
:1016E0004795481759070CF075C01150163108F08E
:1016F000D7C0BCC0C72FC695C6952C2F30E0F901C6
:101700003197862F8695869590E01CE01E9FD0012C
:101710001F9FB00D1124A80FB91FAA5EBD4FEC91F9
:10172000EC3308F0ADC0129FF001139FF00D1124AF
:10173000E80FF91FE95EFD4F10811C3308F0A0C0CF
:10174000252F332727FD3095552741950CF45095CB
:1017500055954795421753070CF08DC0C150C631BF
:1017600008F09EC083C047FD4CC0872F86958695A4
:1017700090E0FC013196C62FC695C6952C2F30E01F
:101780001CE01E9FD0011F9FB00D1124A20FB31F9C
:10179000AA5EBD4FEC91EC3328F5189FF001199F1C
:1017A000F00D1124E20FF31FEB5EFD4F10811C338F
:1017B000C8F4052F112701950CF41095552747FD06
:1017C0005095559547954017510724F445970CF0CF
:1017D00067C04CC0783508F063C0C150CD3008F404
:1017E0005DC05EC0783508F05BC0643308F058C057
:1017F0004CE0489FF001499FF00D1124E20FF31FC8
:101800004BC0272F2695269530E0F9013196862F7B
:101810008695869590E0CCE0CE9FD001CF9FB00D0D
:101820001124A80FB91FAA5EBD4FEC91EC3340F50F
:10183000C29FF001C39FF00D1124E80FF91FE95E6C
:10184000FD4FC081CC33E0F4C52FDD27C1950CF4EA
:10185000D0958E01552741950CF450955595479597
:101860004017510744F425313105D4F46433C0F4F2
:101870008CE38C9315C0783598F40C978CF40EC0DB
:10188000783570F4643360F44CE0429FF001439F7C
:10189000F00D1124E80FF91FEA5EFD4F8CE3808301
:1018A00010921402CCE0809114028C3008F0C6C073
:1018B000109213028091130260911402853108F096
:1018C000B9C0462F50E0282F30E0FA01C89FE00D44
:1018D000F11D1124EA5EFD4F908190931703882338
:1018E00089F0662379F0D9011197CA9FF001CB9F47
:1018F000F00D1124E40FF51FEB5EFD4F90819093E6
:10190000180304C010921803662389F0DA011197B6
:10191000C29FF001C39FF00D1124EA0FFB1FEA5E86
:10192000FD4F908190931903843121F415C01092DA
:10193000190312C0662381F089010F5F1F4FC09FFA
:10194000F001C19FF00D1124EA0FFB1FEA5EFD4F6D
:10195000908190931A0302C010921A03882389F091
:10196000D9011197CA9FF001CB9FF00D1124E40F0C
:10197000F51FEA5EFD4F908190931B038431A1F027
:1019800002C010921B03D9011196CA9FF001CB9F90
:10199000F00D1124E40FF51FEA5EFD4F9081909346
:1019A0001C038823A1F002C010921C036B3078F452
:1019B000D9011197CA9FF001CB9FF00D1124EA5E67
:1019C000FD4FE40FF51F918190931D0304C0109209
:1019D0001D036B3088F44F5F5F4FC29FF001C39FC0
:1019E000F00D1124E40FF51FEA5EFD4F90819093F6
:1019F0001E03843121F414C010921E0311C06B30F9
:101A000078F42F5F3F4FC29FF001C39FF00D112468
:101A1000E40FF51FEA5EFD4F908190931F0302C013
:101A200010921F030E944308809113028F5F8093DE
:101A3000130240CF6F5F6093140235CFDF91CF91D7
:101A40001F910F910895DF92EF92FF920F931F93D2
:101A5000CF93DF9380910302882311F0815059C105
:101A600080912203811139C110921402C9E00CE067
:101A700080911402823008F028C188E0809313021C
:101A80001AE0D1E080911302882309F418C1109262
:101A9000120224E1F22EE09012024091130289E03A
:101AA0008E1508F408C110920E02E0910B0280918D
:101AB0001402282F30E0220F331F2150310931E06A
:101AC000380FCE9FF0011124E15DFC4F8081380F6B
:101AD00050E0DA01A053BE4F8C91612F0E94152E69
:101AE000A82F829F300D11243093230391819F5F93
:101AF000980F90932403E694FA01E752FE4F8081F9
:101B0000612F0E94152E829F202D11242E9D202DA5
:101B1000112420932503AE9DE02C1124E09226038E
:101B200080910E028111C1C01092110240911102E8
:101B300050E09091090280910802989FC001112401
:101B4000481759076CF7C49FF001C59FF00D112489
:101B5000E15DFC4F8081992787FD9095E0902303FC
:101B60002E2D30E0BC0164507109D090240326175B
:101B700037070CF478C00896821793070CF473C0EB
:101B80006181772767FD70958D2D90E0DB011497BB
:101B90008A179B070CF467C0685F7F4F6817790747
:101BA0000CF461C0638161115EC060910B0270E052
:101BB000C69FD001C79FB00D1124A15DBC4FF48119
:101BC0001496EC911497FE1709F44DC0E09122038E
:101BD000E11147C0E1E0F0911402F11101C0E0E031
:101BE0001296EC93E0911302E0932003E09112022D
:101BF000E0932103C49FF001C59FF00D1124E15D26
:101C0000FC4F4081552747FD5095DA0112972A175E
:101C10003B073CF14A5F5F4F4217530714F12181A4
:101C2000332727FD3095A9014250510984179507A4
:101C3000C4F02A5F3F4F281739079CF08381811138
:101C400010C0C69FD001C79FB00D1124A15DBC4F2D
:101C5000948114968C91981721F0D0932203F092DE
:101C60000302D0930E0284E58E1510F4D0930E0279
:101C700080E38D1510F4D0930E02D694D694E6949A
:101C8000E6940E9DF0011124ED0DF11DEA5EFD4F6D
:101C900080818C3310F4D0930E020E94A4078091AF
:101CA00011028F5F8093110241CF809112028F5FEA
:101CB00080931202F0CE415040931302E3CE809104
:101CC00014028F5F80931402D3CE8091220381117E
:101CD00067C081E0809322031BC020910402422F41
:101CE00050E080912003992787FD90954817590768
:101CF00099F08417950724F421502093040250C0D2
:101D00002F5F2093040230E02817390709F048C0FC
:101D100084E18093030244C0C091050280912103B5
:101D2000C81720F4CF5FC09305023AC0E0910B02C0
:101D300089E0E89FF0011124E15DFC4FD2812D2F55
:101D400030E0220F331F21503109DA01A752BE4F74
:101D50008C913AE0632F0E94152E829F202D112432
:101D600090819D0F9F5F920F90932303DA01A05300
:101D7000BE4F8C91632F0E94152E91819F5F980F0B
:101D800090932403C6952C9F202D11242093250386
:101D90008C9FC02D1124C093260385E080931603E9
:101DA000DF91CF911F910F91FF90EF90DF900895F9
:101DB000BF92CF92DF92EF92FF920F931F93CF9338
:101DC000DF93809113032BEA829F212D1124269506
:101DD00091E1299F900111242D3131055CF090E0B3
:101DE000039763E070E00E94372E81E1689FF02C3A
:101DF000112411C00EE027E147E063E08DE094E09C
:101E00000E94A21C26E930E049E064E08DE094E005
:101E10000E94491EF12C10921102C3E0D0E03BE178
:101E2000E32E41E1D42E56E2C52EE09111028091BD
:101E30001503E81708F041C0F0E0CF010196BE019C
:101E40000E94372E8E9DB02C11246D9D102D1124D3
:101E50001F19CE9E9001CF9E300D11242A543F4F62
:101E600048E0410F64E06B0D8DE094E00E94491E54
:101E700047E0410F63E06B0D0EE027E18DE094E059
:101E80000E94A21C2091110230E02F5F3F4FE09191
:101E90001303F0E02E173F0751F446E0410F6B2D7E
:101EA0006E5F00E129E18DE094E00E94A21C809128
:101EB00011028F5F80931102B8CF60E08DE094E053
:101EC0000E94E81B06E024E540E060E08DE094E03D
:101ED0000E94711C61E08DE094E00E94E81B8091FB
:101EE000130381111BC08BE1809316046CE071E039
:101EF0008DE094E00E94F42A00E129E146E062E0EE
:101F00008DE094E00E94A21CDF91CF911F910F9170
:101F1000FF90EF90DF90CF90BF9008958CE1809379
:101F2000160465E171E08DE094E00E94F42A4AE035
:101F300050E0609113038DE094E0DF91CF911F9109
:101F40000F91FF90EF90DF90CF90BF900C94DD2B1E
:101F5000FF920F931F93CF93DF9307E114E0F801F3
:101F60001082C6E1D4E08CE188836CE071E08DE002
:101F700094E00E94F42A8CE0F801808360E1F62E60
:101F8000F8826CE171E08DE094E00E94F42A4AE06E
:101F900050E0609108028DE094E00E94DD2B67E242
:101FA00071E08DE094E00E94F42A82E1F8018083E0
:101FB000F88269E271E08DE094E00E94F42A4AE040
:101FC00050E0609109028DE094E00E94DD2B67E211
:101FD00071E08DE094E00E94F42A88E1F8018083AA
:101FE000F88264E371E08DE094E00E94F42A4AE014
:101FF00050E0609106028DE094E00E94DD2B67E2E4
:1020000071E08DE094E00E94F42A8EE1F801808373
:10201000F8826FE371E08DE094E00E94F42A4AE0D8
:1020200050E0609107028DE094E00E94DD2B67E2B2
:1020300071E08DE094E00E94F42A84E2F80180834C
:10204000F8826AE471E08DE094E00E94F42A4AE0AC
:1020500050E0609102028DE094E00E94DD2B67E287
:1020600071E08DE094E00E94F42A8AE2F801808316
:10207000F88265E571E08DE094E00E94F42A809199
:102080001502482F440F480F440F435F2EE730E0FE
:102090006BE08DE094E0DF91CF911F910F91FF9065
:1020A0000C94491EEF920F931F93CF93DF931092DE
:1020B0001102DCE01AE0C6E0809111028C3008F0D9
:1020C0005EC01092100250911002409111025531E1
:1020D00008F051C0D59FF0011124E40FF11DEA5E14
:1020E000FD4F8081612F0E94092E913009F188F007
:1020F000923059F19330C9F5C89F90011124285AA4
:102100003D4F440F440F652F660F660FE12C01E031
:1021100028C0C89F90011124285A3D4F440F440FF6
:10212000652F660F660F8DE094E00E94491E1DC06A
:10213000C89F90011124285A3D4F440F440F652F2A
:10214000660F660FE12C02E00CC0C89F90011124BD
:10215000285A3D4F440F440F652F660F660FE12C40
:1021600003E08DE094E00E94E11E809110028F5FF9
:1021700080931002A8CF4F5F409311029DCFDF9153
:10218000CF911F910F91EF900895CF93DF9310920D
:102190001102C9E0D6E08091110290E0309109026D
:1021A00020910802329F90011124821793070CF0AE
:1021B00076C0C89FF001C99FF00D1124E15DFC4F6E
:1021C000838181110DC02481D29F90011124225856
:1021D0003F4F418160818DE094E00E94491E59C0CB
:1021E00060816F5F24E041818DE094E00E94681C73
:1021F000E0911102CE9FF0011124E15DFC4F84813A
:102200008130D9F0B8F0823079F1833009F041C0E3
:1022100041814F5F60818DE094E00E94D203E091A4
:102220001102CE9FF0011124E15DFC4F60816E5FD1
:1022300041812BC041814F5F10C023E0418160810B
:102240008DE094E00E949A1CE0911102CE9FF00173
:102250001124E15DFC4F41814E5F23E060818DE000
:1022600094E00E949A1C15C0418160818DE094E049
:102270000E94D203E0911102CE9FF0011124E15D92
:10228000FC4F41814F5F60816E5F8DE094E00E9462
:10229000D203809111028F5F809311027CCFDF9176
:1022A000CF9108950F9380910502882309F447C0C8
:1022B00060E08DE094E00E94E81B04E02CE040E048
:1022C00060E08DE094E00E94711C61E08DE094E09C
:1022D0000E94E81B40E060E08DE094E00E94D203A1
:1022E00043E060E08DE094E00E94D20340E06BE0C8
:1022F0008DE094E00E94D20343E06BE08DE094E037
:102300000E94D20381E0809311026091110220911A
:10231000050230E0862F90E02817390784F041E06D
:102320008DE094E00E94D20342E0609111028DE0C2
:1023300094E00E94D203809111028F5FE4CF0F914D
:102340000895CF9310921102C9E040911102842F99
:1023500090E03091090220910802329F90011124EF
:1023600082179307C4F5C89FF001C99FF00D11248F
:10237000E15DFC4F8381811128C08581811125C0D9
:1023800080910B02481304C080910A0281111DC084
:1023900061E08DE094E00E94E81BE0911102CE9F85
:1023A000F0011124E15DFC4F8781823031F08330F0
:1023B00061F44181435024E003C04181435022E055
:1023C00060818DE094E00E949A1C809111028F5FE1
:1023D00080931102BACFCF910895809105028111A7
:1023E00011C06AE571E08DE094E00E94F42A6091EA
:1023F0000C0270E06F5F7F4F4AE050E08DE094E0A8
:102400000C94C82B08952F923F924F925F926F9237
:102410007F928F929F92AF92BF92CF92DF92EF9274
:10242000FF920F931F93CF93DF9360E08DE094E0D2
:102430000E94E81BE0910B0279E0772E7E9EF0016E
:102440001124E15DFC4F41814F5F60818281680F03
:102450006F5F8DE094E00E94D203E0900B02A090A9
:102460000402B12C7E9C70011124C701815D9C4F38
:102470007C01FC01C281D0E06181772767FD709506
:102480006F5F7F4F882777FD8095982F0E940A2DD8
:102490001B012C01F501E053FE4F80811AE0612FF2
:1024A0000E94152E682F772767FD7095872F972F2D
:1024B0000E940A2D20E030E040EC5FE30E94962D60
:1024C0009B01AC01C201B1010E94732C0E94D72C68
:1024D000062FF7018081BE01680F711D87FD7A9577
:1024E0006F5F7F4F882777FD8095982F0E940A2D78
:1024F0006B017C01F501E752FE4F8081612F0E9444
:10250000152E9E01220F331F21503109482F4203FF
:10251000B001439F700D1124882777FD8095982F77
:102520000E940A2D20E030E040EC5FE30E94962DEF
:102530009B01AC01C701B6010E94732C0E94D72CED
:10254000402F8DE094E00E94D20361E08DE094E0A2
:102550000E94E81BC0910B02C0900402D12C7C9E0B
:10256000E0011124C15DDC4F6981772767FD70951B
:102570006F5F7F4F882777FD8095982F0E940A2DE7
:102580004B015C01F601E053FE4F8081612F0E94F8
:10259000152E682F772767FD7095872F972F0E943C
:1025A0000A2D20E030E040EC5FE30E94962D9B0175
:1025B000AC01C501B4010E94732C4B015C01EA809F
:1025C000F12C8881B701680F711D87FD7A956F5FC7
:1025D0007F4F882777FD8095982F0E940A2D1B0139
:1025E0002C01F601E752FE4F8081612F0E94152ECB
:1025F0009701220F331F21503109482F4203B001A8
:10260000439F700D1124882777FD8095982F0E9495
:102610000A2D20E030E040EC5FE30E94962D9B0104
:10262000AC01C201B1010E94732C6B017C0120E05E
:1026300030E040E85FE3C501B4010E94722C0E94C3
:10264000D72C062F20E030E0A901C701B6010E9477
:10265000732C0E94D72CC62F20E030E0A901C501C1
:10266000B4010E94732C0E94D72CD62F20E030E0BA
:1026700040E85FE3C701B6010E94722C0E94D72C8C
:102680002C2F4D2F8DE094E00E94F01BE0900B0268
:10269000C0910402D0E07E9C70011124C701815DCD
:1026A0009C4F7C01FC016181772767FD70956F5F0E
:1026B0007F4F882777FD8095982F0E940A2D4B0128
:1026C0005C01FE01E053FE4F8081612F0E94152EB8
:1026D000682F772767FD7095872F972F0E940A2D07
:1026E00020E030E040EC5FE30E94962D9B01AC01BE
:1026F000C501B4010E94732C4B015C01F70162809B
:10270000712C8081B301680F711D87FD7A956F5F11
:102710007F4F882777FD8095982F0E940A2D6B01A7
:102720007C01C752DE4F8881612F0E94152E9301D4
:10273000220F331F21503109482F4203B001439F1C
:10274000700D1124882777FD8095982F0E940A2DFF
:1027500020E030E040EC5FE30E94962D9B01AC014D
:10276000C701B6010E94732C6B017C0120E030E0B0
:1027700040E85FE3C501B4010E94732C0E94D72C8E
:10278000062F20E030E0A901C701B6010E94732C9A
:102790000E94D72CC62F20E030E0A901C501B4016A
:1027A0000E94732C0E94D72CD62F20E030E040E806
:1027B0005FE3C701B6010E94732C0E94D72C2C2F17
:1027C0004D2F8DE094E00E94F01BDF91CF911F917F
:1027D0000F91FF90EF90DF90CF90BF90AF909F90C0
:1027E0008F907F906F905F904F903F902F900895C3
:1027F0000F931F93CF93DF9304E213E0C3E2D3E080
:10280000F801408168818DE094E00E94D2036881E4
:102810006F5FF80140818DE094E00E94D203F801DF
:102820004081415068818DE094E00E94D203F8011C
:102830004081415068816F5F8DE094E0DF91CF91DE
:102840001F910F910C94D203CF93DF93109211023A
:10285000C9E0D1E08091110290E03091090220910D
:102860000802329F90011124821793070CF05DC07B
:10287000C89FF001C99FF00D1124E15DFC4F8085D8
:10288000882309F44CC0D0930F02418146508370D5
:10289000481B60816F5F22E08DE094E00E94681C1D
:1028A000E0911102CE9FF0011124E15DFC4F4181C6
:1028B000435080858370481B60818DE094E00E94C6
:1028C000D203E0911102CE9FF0011124E15DFC4F93
:1028D0004181425080858370481B60816F5F8DE02D
:1028E00094E00E94D203E0911102CE9FF0011124E6
:1028F000E15DFC4F4181435080858370481B6081BE
:102900006E5F8DE094E00E94D203E0911102CE9FB1
:10291000F0011124E15DFC4F80858150808780911A
:1029200011028F5F8093110295CFDF91CF910895AF
:1029300010920F020E94241480910F02811103C093
:1029400084E08093160308950F93CF93DF93109242
:102950001102C9E0D3E08091110290E030910902A8
:1029600020910802329F9001112482179307CCF521
:10297000C89FF001C99FF00D1124E15DFC4F8085D7
:102980006D2F0E94092E9230C9F460E08DE094E032
:102990000E94E81BE0911102CE9FF0011124E15D3D
:1029A000FC4F04E024E0418160818DE094E00E94CE
:1029B000711C61E08DE094E00E94E81B809111029F
:1029C000C89FF0011124E15DFC4F9085992329F007
:1029D0009150908791E090930F028F5F8093110246
:1029E000BACFDF91CF910F910895FF920F931F936C
:1029F000CF93DF9307E114E0F8011082C6E1D4E041
:102A00008CE188836CE571E08DE094E00E94F42A0B
:102A10008FE0F8018083B0E1FB2EF88262E671E07E
:102A20008DE094E00E94F42A89E1F8018083F88225
:102A30006FE671E08DE094E00E94F42A8091150227
:102A4000880F482F440F440F480F405F2EE730E0B7
:102A50006BE08DE094E0DF91CF911F910F91FF909B
:102A60000C94491E0F9380910302823009F460C0D8
:102A700038F4882309F450C0813009F44DC0BBC03C
:102A8000853009F47FC0863009F4A7C0833009F08F
:102A9000B2C060E08DE094E00E94E81B4091240306
:102AA000415060912303615002E022E08DE094E008
:102AB0000E94711C62E08DE094E00E94E81B20916E
:102AC00023034091240342506FEF620F042F8DE0E7
:102AD00094E00E94F01B00912403609123036F5F38
:102AE0004FEF400F262F8DE094E00E94F01B0091E5
:102AF00024036091230362504FEF400F262F8DE097
:102B000094E00E94F01B20912303409124034F5F27
:102B10006FEF620F042F5CC062E08DE094E00E94D2
:102B2000E81B4091240341506091230361505EC033
:102B300060E08DE094E00E94E81B40912403415046
:102B40006091230361508DE094E00E94D20362E023
:102B50008DE094E00E94E81B4091240360912303E0
:102B60000EEF040F2FEF260F415062508DE094E0DE
:102B70000E94F01B00912403609123032FEF260F86
:102B80004FEF25C060E08DE094E00E94E81B40918B
:102B90002403609123038DE094E00E94D20362E05D
:102BA0008DE094E00E94E81B4091240320912303D0
:102BB0000FEF040F6FEF620F8DE094E00E94F01BA7
:102BC000009124036091230321E0260F41E0400F90
:102BD0008DE094E00E94F01B0EC062E08DE094E076
:102BE0000E94E81B40912403609123038DE094E050
:102BF0000F910C94D2030F9108950F93CF93DF930D
:102C000060E08DE094E00E94E81B08E12CE445E0E0
:102C100064E08DE094E00E94711C61E08DE094E03E
:102C20000E94E81B06E12AE446E065E08DE094E0BE
:102C30000E94A21C8BE080931704C6E1D4E081E1DE
:102C400088836FE771E08DE094E00E94F42A609140
:102C50000C0270E06F5F7F4F4AE050E08DE094E03F
:102C60000E94C82B67E871E08DE094E00E94132B6E
:102C700087E088836DE871E08DE094E0DF91CF918B
:102C80000F910C94132B0F93CF93DF9398E0899FB0
:102C9000E0011124C056DE4F00E020E04E8160E0EC
:102CA00084EE93E00E94F92520E0488161E084EE03
:102CB00093E00E94F9252C8121954D8162E084EEFC
:102CC00093E00E94F9252A812A534B8163E084EE28
:102CD00093E00E94F92520E04F81698184EE93E022
:102CE000DF91CF910F910C942A261F93CF93DF93FE
:102CF00080911603843009F468C130F4813071F09A
:102D0000833009F419C199C2883009F46AC08A3045
:102D100009F445C1873009F090C237C163E089ECFE
:102D200093E00E944E1B882361F040911303842F8F
:102D300090E002962091150330E0821793070CF47F
:102D400095C161E089EC93E00E944E1B882339F025
:102D500020911303822F90E003970CF08BC162E067
:102D600089EC93E00E944E1B882359F04091130395
:102D7000242F30E08091150390E0281739070CF4D8
:102D80007DC160E089EC93E00E944E1B882321F016
:102D900080911303811176C164E089EC93E00E9475
:102DA0004E1B882369F080911303811106C088E0CF
:102DB000809316031092150203C082E080931603DD
:102DC00066E089EC93E00E944E1B882309F435C22B
:102DD00060EA72E08FEB93E0DF91CF911F910C944A
:102DE000AE2463E089EC93E00E944E1B882329F017
:102DF00080911502853008F449C161E089EC93E0C7
:102E00000E944E1B882321F080911502811142C13E
:102E100062E089EC93E00E944E1B8823E9F18091E7
:102E200015028230D9F028F4882341F0813071F006
:102E300033C08330D9F0843041F12EC08091080234
:102E4000843050F58F5F8093080226C0809109027C
:102E5000843010F58F5F809309021EC080910602B6
:102E60008330D0F48F5F8093060216C04091070232
:102E7000242F30E08091080290E00197281739074D
:102E80005CF44F5F4093070207C0809102028330D9
:102E900018F48F5F8093020260E089EC93E00E9457
:102EA0004E1B8823D1F1809115028230F9F028F46D
:102EB000882341F0813091F030C08330F9F08430C4
:102EC00029F12BC090910802933038F191509093E2
:102ED000080280910702891320C014C08091090262
:102EE0008230D8F081508093090217C08091060289
:102EF000823098F08150809306020FC080910702C3
:102F0000882359F081508093070207C08091020204
:102F1000823018F081508093020264E089EC93E0E3
:102F20000E944E1B882309F44BCF809115028530F7
:102F300009F046CF81E042CF63E089EC93E00E9444
:102F40004E1B882329F080911502823008F4A6C018
:102F500061E089EC93E00E944E1B882321F0809170
:102F6000150281119FC064E089EC93E00E944E1B22
:102F7000882309F425CF80911502882321F0813020
:102F800009F41CCF1DCF84E019CF64E089EC93E0F5
:102F90000E944E1B882309F450C181E064C060E0A8
:102FA00089EC93E00E944E1B811180C062E089ECA5
:102FB00093E00E944E1B811179C065E089EC93E09B
:102FC0000E944E1B811172C038C141E064E089EC5F
:102FD00093E00E94571BC0910502882331F0CA304C
:102FE00020F4CF5FC093050228C1CC2309F468C048
:102FF000E0910B0289E0E89FF0011124E15DFC4FB4
:10300000D2814091040250E02D2F30E0220F331F77
:1030100021503109DA01A752BE4F8C913AE0632F5B
:103020000E94152E829F202D112490819D0F9F5F5D
:10303000920F90932303DA01A053BE4F8C91632F1C
:103040000E94152E91819F5F980F90932403C6953F
:103050002C9F202D1124209325038C9FC02D1124FB
:10306000C093260385E080931603E7C04D5F40932D
:10307000130367CE23502093130371CE4F5F409309
:1030800013037FCE81508093130386CE8F5F80938E
:103090001502B3CE815080931502BACE8F5F809314
:1030A000150256CF8150809315025DCFE0910B023F
:1030B00089E0E89FF0011124E15DFC4F1086BDC05E
:1030C00041E061E089EC93E00E94571B811107C049
:1030D00061E089EC93E00E944E1B882339F08091D7
:1030E0000402882319F081508093040241E063E0D8
:1030F00089EC93E00E94571B811107C063E089ECC3
:1031000093E00E944E1B882339F08091040288309E
:1031100018F48F5F8093040262E089EC93E00E94D0
:103120004E1B882359F0E0910B0289E0E89FF001E3
:103130001124E15DFC4F81E082831BC041E062E02D
:1031400089EC93E00E94571B882399F0C0910B02F1
:1031500089E0C89FE0011124C15DDC4F18816981BD
:103160006D5F84E0810F0E94B303811102C01F5F75
:10317000188360E089EC93E00E944E1B882351F095
:10318000E0910B0289E0E89FF0011124E15DFC4F22
:1031900012821AC041E060E089EC93E00E94571B64
:1031A000882391F0C0910B0289E0C89FE0011124AF
:1031B000C15DDC4F1881115069816D5F812F0E94C4
:1031C000B303811101C0188365E089EC93E00E948C
:1031D0004E1B882301F180910A0281111CC080914D
:1031E0000502811118C0E0910B0289E0E89FF0010F
:1031F0001124E15DFC4FC181C350D0816C2F8D2F14
:103200000E94B303811107C06C2F83E08D0F0E94D1
:10321000B303882359F066E089EC93E00E944E1BCB
:10322000882359F01092150283E01DCF85E00E949B
:10323000431686E080930A02EECFDF91CF911F9173
:1032400008958FEB93E00E947122882309F4F6C061
:103250008091160390E0FC013197EB30F10508F006
:10326000EDC0EC5CFF4F0C948C2E0E9475160C94F4
:10327000D80E0E94A80FE0C0809113038150809364
:1032800012030E94F20A9091080290931403109284
:10329000050284E08093040210920A0210920C024C
:1032A00010920B0280910D02809337032091090246
:1032B00080E0891750F4E82FF0E0EE0FFF1FE95D82
:1032C000FC4F208311828F5FF4CF809314028AE039
:1032D0009AC00E94F514B0C00E9452100E94C510FE
:1032E0000E94A1110E94ED110C9498140E9452109A
:1032F0000E94C510E0910B0289E0E89FF0011124C3
:10330000E15DFC4F8681811103C00E94751602C0E9
:103310000E94230D0E94AB0580910A02833070F455
:103320000E94DB05E0910B0289E0E89FF001112487
:10333000E15DFC4F838181110E9457070E94521169
:103340000E94ED110E94A11180910502811176C0A9
:1033500080910A02811172C00C94031280E00E94D5
:1033600043160E9452100E94C5100E94A4070E949A
:10337000E9070C94F81381E00E9443160E94521052
:103380000E94C510809103028F5F809303020E9408
:10339000321580910302823019F0873019F00895B8
:1033A0000C94310B109203020E94E60689E02BC0B8
:1033B000109214020E9452100E94C5100E94DB0558
:1033C0002091090280910802289F900111245091B8
:1033D000140240E069E0842F90E08217930764F4C0
:1033E000689FF001699FF00D1124E15DFC4F85811C
:1033F000811151E04F5FEFCF5093140240931302BD
:1034000051111CC08BE080931603089510920F0297
:103410000E94C5100E94A4140E94521080910F02B5
:10342000811102C00E9457070C943E070E9452105F
:103430000E94C5100E94FD150C94751608951092F7
:10344000100410920F0486EE91E090930E04809386
:103450000D040895CF93CFB7F8948091450481115E
:1034600027C0E7EEF6E08491E3EDF6E09491E82FD3
:10347000F0E0EE0FFF1FEB5FF84FA591B4918C9138
:10348000892321F461E08AE00E94222A61E08AE037
:103490000E94E9298CB580618CBD8CB580648CBD9F
:1034A00061E08DE00E94E92961E08BE00E94E9295A
:1034B000809145048F5F80934504CFBFCF910895DD
:1034C00021E0FC012083089570E085E00C946129DF
:1034D000AF92BF92CF92DF92EF92FF920F931F9322
:1034E000CF93DF93EC0189819A812FE0289F80019F
:1034F000299F100D112485E10E944429800F911FFE
:1035000024E0969587952A95E1F79A838983288107
:10351000222391F1AC81AD80B12CC12CD12CE88556
:10352000F9857F0100E010E06E817F819B0140E022
:1035300050E08617970728F0BC01E817F90708F450
:10354000BF0180E090E01F921F921F92AF930E94F4
:103550002A2C6B830F900F900F900F9070E085E0F6
:10356000DF91CF911F910F91FF90EF90DF90CF905F
:10357000BF90AF900C946129DF91CF911F910F9173
:10358000FF90EF90DF90CF90BF90AF900895FC0137
:103590008CE39FE09383828384E0818381E084874E
:1035A0000895CF93DF93EC018C858F7151F584E101
:1035B0000E944429BC01882777FD8095982F0E949E
:1035C0000A2D26EE3FE34EEC50E40E94962D0E9419
:1035D000DC2C9B017B836A836115710581F084E09B
:1035E0008983FE0140E0848195812817390710F412
:1035F00049830AC04F5F32964430A9F702C08FEF6B
:1036000089838C858F5F8C87DF91CF910895FC0132
:1036100088E0808389E0818387E0828386E08383FA
:1036200084E0848382E0858381E186830895DF924C
:10363000EF92FF920F931F93CF93DF937C01EC01E6
:1036400000E010E0DD24DA9462E088810E94E9293C
:1036500088810E94582AF701E00FF11F892B21F47D
:1036600087818F5F878308C08781882349F08F3FD8
:1036700011F4178201C0D78260E088810E94E92995
:103680000F5F1F4F219607301105F1F6DF91CF91A3
:103690001F910F91FF90EF90DF900895FC01E60FCE
:1036A000F11D81E09781913009F080E00895262F87
:1036B00030E0FC01E20FF31F8781423028F4815093
:1036C0008E3F48F080E008958F3FE1F3642F0E9421
:1036D000092E9130B9F781E008958EBD00000DB438
:1036E00007FEFDCF8EB508951F93CF93DF93EC01B6
:1036F000162FF89460E08E850E94222A8F85181676
:103700001CF460E00E94222A812F0E946D1B8F858D
:1037100018161CF461E00E94222A7894DF91CF9160
:103720001F91089528EF31E0E6E4F4E0DF01A901FC
:103730001D9241505040E1F7DC0119961C921997F7
:103740001A961C920895DF92EF92FF920F931F93A7
:10375000CF93DF93EC0186E4E82E84E0F82ED12CA1
:103760006D2D6064CE010E94741B60E8CE010E9442
:10377000741B61E08E850E94222A8F8518161CF426
:1037800060E00E94222A00E010E0F701E00FF11F44
:1037900080810E946D1B0F5F1F4F04351105A9F733
:1037A0008F8518161CF461E00E94222AD39484E5C8
:1037B000E80EF11C86E0D812D3CF60E4CE01DF9191
:1037C000CF911F910F91FF90EF90DF900C94741B9D
:1037D000FC01678F60A30895FC01678F40A30895E3
:1037E000AF92BF92CF92DF92EF92FF920F931F930F
:1037F000CF93DF93EC01162FF42EE22EA02FBB27E0
:10380000A7FDB095A41BB10947FDB395B7FF03C051
:10381000B195A195B109EE2DFF27E7FDF095E11BCC
:10382000F10917FDF395F7FF03C0F195E195F10953
:10383000BB24B394EA17FB0714F0B12C06C08E2DFD
:10384000E02E082F812F1F2DF82EE11634F48F2D36
:10385000F02E082F812F1E2DE82ECE2CC11AE02F1E
:10386000FF27E7FDF095EF19F109F7FCF395F7FF56
:1038700003C0F195E195F109AE2EDC2CC7FE03C023
:10388000DD24D394DC0CD594F01614F401E00FC0C1
:103890000FEF0DC0BB2071F0412F6F2DCE010E94A4
:1038A000D203DA18D7FE02C0F00EDC0C1F5FE1165F
:1038B0008CF703C04F2D612FF1CFDF91CF911F9176
:1038C0000F91FF90EF90DF90CF90BF90AF90089551
:1038D0000F93022F0150040F262F0E94F01B0F910F
:1038E0000895DF92EF92FF920F931F93CF93DF9390
:1038F0007C01D42E162FC22FDD27C7FDD095C60F11
:10390000D11D67FDDA95812F992787FD90958C173A
:103910009D0744F4202F4D2D612FC7010E94681C84
:103920001F5FF1CFDF91CF911F910F91FF90EF902B
:10393000DF9008950F932150260F042F0E94F01B53
:103940000F910895EF92FF920F931F93CF93DF9300
:10395000EC01F62E142FE22E0E949A1C4FEF400F1E
:10396000410F2E2D6F2DCE010E949A1C202F412F2A
:103970006F2DCE010E94681C6FEF6E0D6F0D202F12
:10398000412FCE01DF91CF911F910F91FF90EF90CA
:103990000C94681C8F929F92AF92BF92CF92DF924D
:1039A000EF92FF920F931F93CF93DF93EC01E62EDC
:1039B000D42E122FCC24C394C21AB22EB194BB0CB5
:1039C000F12C802F8470A82E802F8270982E802F4B
:1039D0008870882E0170F1160CF04DC0C7FC04C031
:1039E0001150B394B394CB0CF3948F2D880F8F5F49
:1039F000C80EAA2071F0412F4D0D6F2D6E0DCE0116
:103A00000E94D2034F2D4D0D612F6E0DCE010E94ED
:103A1000D203992071F04D2D411B6F2D6E0DCE01FB
:103A20000E94D2034D2D4F19612F6E0DCE010E94C1
:103A3000D203882071F04F2D4D0D6E2D611BCE01EC
:103A40000E94D203412F4D0D6E2D6F19CE010E94A1
:103A5000D203002309F4BFCF4D2D4F196E2D611BEA
:103A6000CE010E94D2034D2D411B6E2D6F19CE0148
:103A70000E94D203B0CFDF91CF911F910F91FF90A1
:103A8000EF90DF90CF90BF90AF909F908F90089570
:103A90008F929F92AF92BF92CF92DF92EF92FF925E
:103AA0000F931F93CF93DF93EC01B62EA42E122F0A
:103AB000DD24D394D21AC22EC194CC0CFF24F394EB
:103AC000802F8170882E992493949E0C02708FEF22
:103AD0008F0D8117C4F5D7FC04C01150C394C39453
:103AE000DC0C8F2D880F8F5FD80E882099F0212F46
:103AF000220F290D4A2D411B6F2D6B0DCE010E9407
:103B0000681C23E02E0D4A2D4F19612F6B0DCE013D
:103B10000E94681C002399F0212F220F290D4A2DA5
:103B2000411B6B2D6F19CE010E94681C23E02E0DE6
:103B30004A2D4F196B2D611BCE010E94681CF39416
:103B4000E394E394C4CFDF91CF911F910F91FF9045
:103B5000EF90DF90CF90BF90AF909F908F9008959F
:103B60009F92AF92BF92CF92DF92EF92FF920F930C
:103B70001F93CF93DF93EC01B62EF42EA22EDE2CF2
:103B8000D194DD0C9D2C920E1E2D160F292D612F28
:103B90000E949A1CCC24CA94C00ECF0C292D4C2D07
:103BA000612FCE010E949A1CD00EFE0C2D2D4F2DA0
:103BB0006B2DCE010E94681CBA0C6FEF6B0D2D2D82
:103BC0004F2DCE010E94681C01E02E2D4F2D612F3C
:103BD000CE010E94CA1CDE2CD094DB0C02E02E2DFC
:103BE0004F2D6D2DCE010E94CA1CCE1804E02E2D43
:103BF0004C2D6D2DCE010E94CA1C08E02E2D4C2D9F
:103C0000612FCE010E94CA1CDF91CF911F910F91AD
:103C1000FF90EF90DF90CF90BF90AF909F9008956E
:103C2000AF92BF92CF92DF92EF92FF920F931F93CA
:103C3000CF93DF93EC01A62EC42EB22EF02E1E2DB4
:103C4000E194EE0CD12ED60E2E2D2B0D6D2D0E9453
:103C5000711CFA94FE0CC10E6FEF6A0D6B0D611BA7
:103C6000EF2C01E0212F4C2DCE010E94481D02E0D7
:103C7000212F4C2D6D2DCE010E94481DDF91CF913B
:103C80001F910F91FF90EF90DF90CF90BF90AF907A
:103C900008952F923F924F925F926F927F928F92F0
:103CA0009F92AF92BF92CF92DF92EF92FF920F93CB
:103CB0001F93CF93DF9300D000D01F92CDB7DEB714
:103CC0007C01262E542FF90104913196A4902901EC
:103CD000F2E04F0E511C10E0B801695F7F4F93E096
:103CE000759567959A95E1F77D836C8320E030E8C0
:103CF000C32ED12CB12C822F992787FD9095801748
:103D000091070CF046C0822F27FF02C087E0820F88
:103D1000682E659465946594822F877887FF03C029
:103D20008150886F8F5F460102C0959487948A9571
:103D3000E2F7312C772467FC7094322F320D832DFB
:103D4000992787FD90958A159B050CF56C817D81DF
:103D5000869FF001879FF00D969FF00D1124E60DD0
:103D6000F71DE40DF51DE491F0E0E821F921EF2BBA
:103D700061F0432D450F632FC70129833B835A838D
:103D80000E94D2035A813B8129813394D8CF2F5F7F
:103D9000B2CF0F900F900F900F900F90DF91CF91B7
:103DA0001F910F91FF90EF90DF90CF90BF90AF9059
:103DB0009F908F907F906F905F904F903F902F904B
:103DC00008952F923F924F925F926F927F928F92BF
:103DD0009F92AF92BF92CF92DF92EF92FF920F939A
:103DE0001F93CF93DF93CDB7DEB72A970FB6F89422
:103DF000DEBF0FBECDBF6C01562F742F01111CC04A
:103E0000E1101AC02A960FB6F894DEBF0FBECDBFE0
:103E1000DF91CF911F910F91FF90EF90DF90CF90A6
:103E2000BF90AF909F908F907F906F905F904F90DA
:103E30003F902F900C94491EF901349031962490B4
:103E4000C90102969A838983A32CB12CD5011796B8
:103E500013E0B595A7951A95E1F7BA87A98703707E
:103E600055245A94530C10E03FEF320DE22DF0E050
:103E7000FC83EB83812F992787FD90958A159B05FD
:103E80000CF071C0812F17FF02C087E0810F682EF0
:103E9000659465946594812F877887FF03C081506E
:103EA000886F8F5FF0E88F2E912C02C095948794D5
:103EB0008A95E2F7432EF12C772467FC70948F2DBE
:103EC000992787FD9095EB81FC818E179F070CF059
:103ED00047C0A985BA858A9FF0018B9FF00D9A9FF4
:103EE000F00D1124E60DF71D89819A81E80FF91F65
:103EF000E491F0E0E821F921EF2B79F1023039F07B
:103F0000033041F0013049F4452D6F2D08C0652D77
:103F1000442D05C0642D412F02C04F2D612FEE208E
:103F200069F02E2D2370E0FE03C0932D961B692FA0
:103F3000E1FE05C0A22DA41B4A2F01C020E0650FA1
:103F4000470FC6012D8338875E837F830E94D2038B
:103F50002D81E22E7F815E813885F3944A94AFCF24
:103F60001F5F5A9487CF2A960FB6F894DEBF0FBE14
:103F7000CDBFDF91CF911F910F91FF90EF90DF9018
:103F8000CF90BF90AF909F908F907F906F905F90F9
:103F90004F903F902F900895DC01FB0184918F5F3B
:103FA00014968C9314973196E491EF5F1596EC93E9
:103FB00015976E5F7F4F5E967C936E935D97089525
:103FC000EF920F93CF93DF93EC014D876C872E8791
:103FD000E88A0F8781E088878F8F18A28F836DED25
:103FE00073E0CE010E94CC1F0E942A1A8CB58F7DEF
:103FF0008CBD8CB58C7F81608CBD8DB581608DBD95
:104000008CB58C608CBD61E08D850E94E92961E0F2
:104010008C850E94E92961E08E850E94E9298889C2
:1040200018161CF461E00E94E9298F8518161CF40B
:1040300061E00E94E929888918166CF460E00E940A
:10404000222A6AE070E080E090E00E94E12861E0CE
:1040500088890E94222A8C85992787FD9095FC01EA
:10406000E352F94FE491F0E0EE0FFF1FE550F94FF6
:10407000259134913C8B2B8BFC01E753F94F8491B4
:104080008A8F8D85992787FD9095FC01E352F94F22
:10409000E491F0E0EE0FFF1FE550F94F25913491C8
:1040A0003A8B298BFC01E753F94F8491898F8F85D7
:1040B000992787FD9095FC01E352F94FE491F0E0D8
:1040C000EE0FFF1FE550F94F259134913E8B2D8B5C
:1040D000FC01E753F94F84918B8F8E85992787FDDB
:1040E0009095FC01E352F94FE491F0E0EE0FFF1FD1
:1040F000E550F94F25913491388F2F8BFC01E75310
:10410000F94F84918C8F61E2CE010E94741B64E1AF
:10411000CE010E94741B8B8587FF02C08FE78B87BF
:104120006B856068CE010E94741B60E2CE010E9424
:10413000741B6CE0CE010E94741BCE01DF91CF9105
:104140000F91EF900C94A31B6F927F928F929F928E
:10415000AF92BF92CF92DF92EF92FF920F931F9395
:10416000CF93DF93EC01162FF42EB02EEF8C643535
:104170000CF081C08FE284170CF47DC0EC81F0E07C
:1041800031970E9FC0010F9F900D1124860F911D36
:1041900067FD9A95181619060CF06DC08D81809FE9
:1041A000C0011124840F911D47FD9A951816190618
:1041B0000CF061C0A62E962EC22ED12C8A2D811B0A
:1041C000992787FD90952C8130E0821793070CF09A
:1041D00051C0215031098217930779F0C29ED00156
:1041E000C39EB00DD29EB00D1124A80FB91FED8D46
:1041F000FE8DEA0FFB1F749001C0712C8F2C6F2C69
:10420000282D2F19332727FD30958D8190E0281711
:1042100039076CF570FE11C081E0B81206C0482D58
:104220006A2DCE010E94D2031EC00B2D2B2D462DD0
:10423000692DCE010E94711C16C088A19F8D89171F
:1042400091F08F8F81E0B81206C0482D6A2DCE0103
:104250000E94D20307C00B2D2B2D462D692DCE01B8
:104260000E94711CEF8E76946B0C8394C9CF9B0CCB
:10427000A394A4CFEF8EDF91CF911F910F91FF9068
:10428000EF90DF90CF90BF90AF909F908F907F90F6
:104290006F9008950F93CF93DF93EC01262F6A3030
:1042A00039F42D8198858A85299F800D112422C09B
:1042B0006D3011F108854A8569850E94A4204885E2
:1042C0005C812985549F200D112429878F818823A3
:1042D00099F0332727FD309584E590E0459F8019BC
:1042E00091091124821793073CF49D818A85499F87
:1042F000800D11248A87198681E090E0DF91CF91AB
:104300000F9108958F929F92AF92BF92CF92DF92BA
:10431000EF92FF920F931F93CF93DF93EC015C0119
:1043200085E8A80EB11CD5018C91882309F44DC0F5
:104330008C3018F41CE0181B01C010E0FE01EA5A92
:10434000FF4F81E080836E01BEE4CB0ED11C60E0A4
:10435000C6010E94E81B4E01E3E58E0E911CD401BC
:104360008C9103E0080F9DE2F92E4F2D481B410F61
:1043700023E0E22E24E560E0C6010E94101E61E009
:10438000C6010E94E81BF401808103E0080F4F2D55
:10439000481B410F24E560E0C6010E94B01DFE01EC
:1043A000E95AFF4F84E080833196D4018C91181B29
:1043B000115D1083CD57DF4F68817981C6010E945E
:1043C000CF2AF501808181508083DF91CF911F91A9
:1043D0000F91FF90EF90DF90CF90BF90AF909F90A4
:1043E0008F9008950F931F93CF93DF93EC018C016F
:1043F000025B1F4F40E061E0C8010E94EC1BFE0120
:10440000E95AFF4FDE01AE5ABF4F85E59C91891BEB
:10441000808331961082698D613009F43CC028F0A8
:10442000888D653008F04EC049C0CE0185960E9447
:10443000B12660E0CE010E94641AC8010E94921B5E
:10444000FE01EA5AFF4F81E0808360EC75E0C8010D
:104450000E94CF2A6A8D7B8D4AE050E0C8010E94FD
:10446000E42B6CEA75E0C8010E94CF2AC8010E94C3
:10447000A31B83B7817F846083BF83B7816083BFC1
:1044800083B7816083BF889583B78E7F83BF83B7EF
:104490008E7F83BF21C0C059DF4F488159816A8117
:1044A0007B814F7055276627772748305105610576
:1044B000710510F467E009C068E707C0882361F060
:1044C0006B5F03C0882341F06FE2C801DF91CF9199
:1044D0001F910F910C94F62ADF91CF911F910F91AC
:1044E00008958F929F92AF92BF92EF92FF920F9397
:1044F0001F93CF93DF93EC017C010FE7E00EF11CDB
:10450000F70180809180A280B3800E94B22895013B
:104510008401061B170B280B390BB901A8015E019A
:104520001EE7A10EB11CF501808190E0A0E0B0E093
:104530008E0106581F4F84179507A607B70750F43A
:10454000F80180819181A281B381892B8A2B8B2BE9
:1045500009F040C0F80180819181A281B381892B4B
:104560008A2B8B2BA9F57E01F5E2EF0EF11CC7011A
:104570000E94AE26C7010E941B27C7010E94DF27A9
:10458000CE010E948221CE010E94F2217E012EE402
:10459000E20EF11CC7010E94A31BFE01EC5AFF4F63
:1045A0008081811103C0C7010E94921B0E94BE2816
:1045B000F8016083718382839383FE01EC58FF4F7F
:1045C000CA58DF4F28813981621B730B7183608366
:1045D00080E036C00E94B228F5012081620F711D73
:1045E000811D911DF7016083718382839383FE0196
:1045F000E059FF4F40815181628173814F5F5F4F6E
:104600006F4F7F4F4083518362837383F801108221
:104610001182128213820E94BE28FE01EA58FF4FC7
:104620006083718382839383CE010E94681ACE01D6
:104630000A960E94171BCE0148960E94D11A81E06B
:10464000DF91CF911F910F91FF90EF90BF90AF90AE
:104650009F908F9008950F931F93CF93DF938C01BA
:10466000EC01C25BDF4FCE010E94921B64E875E053
:10467000CE010E94CF2ACE010E94A31B8CB583607D
:104680008CBD8DB58E7F8DBD8AEE91E0EEEFFFE3A0
:104690000995F801EC5AFF4F10826FE575E0CE01E5
:1046A0000E94012BCE010E94A31B065F1F4FC80171
:1046B0000E94171B64E0C8010E944E1B811107C0B5
:1046C00062E370E080E090E00E94E128F0CFDF91AB
:1046D000CF911F910F9108952F923F924F925F9229
:1046E0006F927F928F929F92AF92BF92CF92DF9202
:1046F000EF92FF920F931F93CF93DF93CDB7DEB767
:1047000029970FB6F894DEBF0FBECDBF9987888773
:104710001B012A013C018FE6680E711CF3018081A8
:10472000882309F402C181E0E885F985EA5AFF4F40
:104730008083E885F985EB5AFF4F1082E885F9857B
:10474000EC5AFF4F1082E885F985108E8F01025BCD
:104750001F4F61E0C8010E94E81B888599858D5A2A
:104760009F4F9C838B83C884D98497E5C90ED11C45
:10477000E884F984E8E5EE0EF11C888599858E5A67
:104780009F4F9A838983E885F985E059FF4FFE831F
:10479000ED8388849984FAE08F0E911CA884B984F3
:1047A00085E2A80EB11C888599850E947122882314
:1047B000D1F3F1018491882321F0EB81FC815081B8
:1047C00001C050E022EE35E040E060E0C8015F83C8
:1047D0000E94491E5F814114510439F04CE0450F9D
:1047E000920160E0C8010E94491EF60110828CE02F
:1047F000F7018083B101C8010E94CF2AE981FA81C3
:104800009081892F880F890F81958D5AF6018083B9
:10481000EB81FC819081892F880F890F8195835DC1
:10482000F7018083ED81FE81808184FF03C06DEDFF
:1048300075E002C069ED75E0C8010E94012BE981B5
:10484000FA819081892F880F890F81958D5AF60101
:104850008083F70180818F5F8083E885F98582A559
:10486000882319F065ED75E002C061ED75E0C801BF
:104870000E94012BE981FA819081892F880F890F8D
:1048800081958D5AF6018083F70180818F5F808347
:104890006DEC75E0C8010E94012B65E0C4010E9427
:1048A0004E1B882351F0E885F98562A56F5FC5012D
:1048B0000E945B28C5010E94452864E0C4010E9453
:1048C0004E1B811113C0F3012081822F90E0A0E0E4
:1048D000B0E0ED81FE814081518162817381481792
:1048E00059076A077B07A8F02F3F99F08FEFF30174
:1048F0008083088519850B5D1F4F60E0C8010E9409
:104900005826C8010E942F2881E0E885F985808F0C
:104910000CC066E0C4010E944E1B882309F443CFFB
:10492000888599850E942B2334CF29960FB6F89459
:10493000DEBF0FBECDBFDF91CF911F910F91FF90D2
:10494000EF90DF90CF90BF90AF909F908F907F902F
:104950006F905F904F903F902F900895AB0161EE64
:1049600075E00C946C23E0E8F7E72591349181E041
:104970002130304C09F080E00895CF93DF93EC01B3
:104980000E94B3249E01275A3F4FDE01A159BF4F19
:10499000882309F43CC0E6E9F7E78491F9018083B4
:1049A000E7E9F7E7E491EC83E8E9F7E7E491ED83E1
:1049B000E9E9F7E7859194919F838E83EBE9F7E727
:1049C0008591949199878887EDE9F7E7E491EBA7C2
:1049D000EEE9F7E7E491EAA7EFE9F7E7E491EC9372
:1049E000E0EAF7E7859194919D8F8C8FE2EAF7E7F3
:1049F000859194919F8F8E8FE4EAF7E7859194914A
:104A000099A388A3E6EAF7E78591949120C08CE307
:104A1000F90180831C822FEF2D8380E293E09F8336
:104A20008E8384ED93E09987888781E08BA78AA79E
:104A30002C938CEA9DE09D8F8C8F8EED9DE09F8F57
:104A40008E8F84E79EE099A388A38CE39FE09BA3CD
:104A50008AA3DF91CF910895CF92DF92EF920F93C7
:104A6000CF93DF93EC01FC01E258FF4F82E3808398
:104A7000349741E050E060E070E04083518362830E
:104A800073833B978FEF8083CE010E94BD24CE01BC
:104A90000E94601A6FEFCE010E94641A6E018AE0D4
:104AA000C80ED11CC6010E94071BC6010E94171B1D
:104AB000CE0148960E94C71A0EE0E02E0FE020E1DA
:104AC0004BE06DE0CE01825B9F4F0E94E01FA596F8
:104AD000CE010E94C42565E0C6010E944E1B8823BA
:104AE00051F060E0CE01DF91CF910F91EF90DF9018
:104AF000CF900C945B2840E062E576E0CE01DF9138
:104B0000CF910F91EF90DF90CF900C946326CF93CD
:104B1000DF9350E0FA01EE0FFF1FE80FF91F378512
:104B20002089E32FF22FE60FF11DE60FF11D2591ED
:104B30003491FA01EE0FFF1FE80FF91F30A3278F02
:104B4000F90165917491FC01D481D69FC02D112487
:104B5000E40FF51FC1A3F901A591B4916B2F70E08B
:104B6000EC2FF0E0DC01A40FB51F6E177F0720F4D7
:104B7000F90125913491C32FCD9FC02D1124929618
:104B8000CC93DF91CF91089521E0FC01248324E0B0
:104B900020A729EA36E0308B278740E060E00E94BA
:104BA000872561E070E083E00E946129E1EBF0E09D
:104BB0008081887F81608083F89410928000E1E892
:104BC000F0E01082109285001092840088E191E05C
:104BD00090938900809388008081886080838081A1
:104BE00081608083EFE6F0E080818260808378944A
:104BF00008950F93FC01862F642F011129C0823084
:104C0000D1F048F4882391F0813011F540E0CF01D4
:104C10000F910C9487258330A9F08430C9F48481E6
:104C2000489F602D1124658F268F12C04B3008F0ED
:104C30006AE0668B0DC08481489F602D1124618FCE
:104C4000228F06C08481489F602D1124638F248F9A
:104C50000F910895FC0121110EC0648B8481489F3F
:104C6000402D1124458B15A214A213A281E0878B3D
:104C700080934206108E089580914206882319F091
:104C800080913F0601C080E08093B4000895FC014C
:104C900061110DC0178A158A14A213A2108E1092EA
:104CA0003F0610924006109242060C943C2608954E
:104CB000CF93DF93EC01611103C00E944726198254
:104CC000DF91CF9108950F931F93CF93DF93EC0162
:104CD0008B0141110EC060E00E9458261E870D878F
:104CE0001B8A1A8A81E0898389E08E8B198E1B8E3C
:104CF0001D8EDF91CF911F910F910895CF93DF9378
:104D0000EC01611128C08881882329F189818111F2
:104D100022C089852F819885E22FF92FE80FF11D98
:104D2000E80FF11D859194918F3F2FEF920711F4B9
:104D3000188211C09C879927880F991FEA85FB85E7
:104D4000E80FF91F6591749140E0CE010E9463263F
:104D500089858F5F8987DF91CF91089560E00C94FA
:104D60007E2660E00C9458260F93CF93DF93EC01DE
:104D700061115DC08981882309F459C08D89811131
:104D800056C02D853E858A899B89880F991F820F81
:104D9000931FFC01859194910097D1F48989882310
:104DA00021F01B8A1A8AF90111C01982888160E0FA
:104DB000882331F0CE010E947E268A899B8925C0F6
:104DC000CE01DF91CF910F910C944726859194915C
:104DD000BC01769567957695679580FF1DC0AC01FF
:104DE000A6E056954795AA95E1F7292F2695269591
:104DF000269520514F716F7000E0CE010E94F92579
:104E00008A899B8901969B8B8A8B880F991FED85D8
:104E1000FE85E80FF91FDACF492F6F7320E0CE012E
:104E20000E942A268A899B8901969B8B8A8BDF9117
:104E3000CF910F91089560E00C94B426CF93DF9347
:104E4000EC016111B9C08F89882309F4B5C08D893F
:104E5000811105C0CE01DF91CF910C94472681507E
:104E60008D8B8DA1811138C08BA19CA101969C01D5
:104E7000220F331FEF8DF8A1E20FF31F259134911C
:104E8000422F47704EA3A90163E0569547956A9556
:104E9000E1F7BA0176956795232F269526952FA3DE
:104EA0006F732C81629F602D11246DA3417040931C
:104EB0003E069CA38BA329A130E08217930760F0E4
:104EC0008AA1882329F0281B31093CA32BA304C005
:104ED00060E0CE010E9447268DA181508DA3288DD0
:104EE0002F5F288F4C893FA1340F8C85380F3A8370
:104EF0006B8D662361F070E0822F992787FD909576
:104F00000E94372E8C8D869F300D11243A838A8122
:104F100090E0CB966BE370E00E94372E8A833E8947
:104F20003B83698D662371F0772767FD7095822F2B
:104F3000992787FD90950E94372E8A8D869F300D88
:104F400011243B836D8D662391F0822F992787FD75
:104F5000909570E00E94372ECB0162E070E00E94D5
:104F6000372E2E8D9B81289F900D11249B838B8142
:104F70004F3339F08A300CF089E087FD80E08B8375
:104F800001C01B82F894EA81F0E0E05AF94FE49105
:104F9000E093410698A58D81989F802D11249B81D7
:104FA000899F802D11249EA1899F802D112480939B
:104FB000400680933F067894DF91CF91089560E09A
:104FC0000C941E2760914006662321F180914306D0
:104FD0008F5F80934306909141068917D8F08091A6
:104FE000420691E089278093420610924306809101
:104FF0003E06882369F090910A0183E4989F802DF2
:105000001124895B80930A010E94092E90933F0628
:105010000C943C2608951F920F920FB60F92112404
:105020002F933F934F935F936F937F938F939F93B0
:10503000AF93BF93EF93FF930E94E227FF91EF910D
:10504000BF91AF919F918F917F916F915F914F91A0
:105050003F912F910F900FBE0F901F901895CF93F7
:10506000DF93EC0160E00E94582681EA96E09E877B
:105070008D871B8A1A8A81E0898389E08E8B198E3D
:105080001B8E1D8EDF91CF910895CF93DF93EC019E
:1050900060E00E9458268BE996E09E878D871B8AE8
:1050A0001A8A81E0898389E08E8B198E1B8E1D8E72
:1050B000DF91CF910895FC01862F992787FD909568
:1050C000668170E06F5F7F4F0E94372E8583089561
:1050D0001F920F920FB60F9211242F933F938F932D
:1050E0009F93AF93BF938091450690914606A09100
:1050F0004706B09148063091440623E0230F2D3730
:1051000020F40196A11DB11D05C026E8230F0296CB
:10511000A11DB11D20934406809345069093460639
:10512000A0934706B09348068091490690914A069D
:10513000A0914B06B0914C060196A11DB11D809324
:10514000490690934A06A0934B06B0934C06BF9134
:10515000AF919F918F913F912F910F900FBE0F9024
:105160001F9018952FB7F8946091450670914606E8
:1051700080914706909148062FBF08953FB7F89455
:105180008091490690914A06A0914B06B0914C0639
:1051900026B5A89B05C02F3F19F00196A11DB11D92
:1051A0003FBF6627782F892F9A2F620F711D811DAF
:1051B000911D42E0660F771F881F991F4A95D1F70E
:1051C0000895CF92DF92EF92FF92CF93DF936B011E
:1051D0007C010E94BE28EB01C114D104E104F1045A
:1051E00089F00E94712C0E94BE286C1B7D0B683ECA
:1051F000734090F381E0C81AD108E108F108C85162
:10520000DC4FEACFDF91CF91FF90EF90DF90CF900E
:105210000895789484B5826084BD84B5816084BD2E
:1052200085B5826085BD85B5816085BDEEE6F0E01F
:10523000808181608083E1E8F0E01082808182607B
:105240008083808181608083E0E8F0E080818160FC
:105250008083E1EBF0E0808184608083E0EBF0E02C
:10526000808181608083EAE7F0E0808184608083D0
:10527000808182608083808181608083808180687A
:1052800080831092C10008958E3008F08E50877090
:1052900020910B0190E4299F90011124822B80938F
:1052A0007C0080917A00806480937A0080917A00FB
:1052B00086FDFCCF809178002091790090E0922BC0
:1052C00008951F93CF93DF93182FEB0161E00E94A5
:1052D000E929209711F460E004C0CF3FD10539F4EB
:1052E00061E0812FDF91CF911F910C94222AE12F51
:1052F000F0E0EB54F94FE491E330F9F048F4E13099
:10530000B9F0E230A1F584B5806284BDC8BD34C077
:10531000E730E9F0E83019F1E43049F58091800098
:10532000806280938000D0938B00C0938A0024C059
:1053300084B5806884BDC7BD1FC08091800080682F
:1053400080938000D0938900C093880015C080911D
:10535000B00080688093B000C093B3000DC080910E
:10536000B00080628093B000C093B40005C0C03824
:10537000D1050CF0B5CFAFCFDF91CF911F9108953C
:10538000833081F028F4813099F08230A1F00895C3
:105390008730A9F08830B9F08430D1F48091800052
:1053A0008F7D03C0809180008F7780938000089567
:1053B00084B58F7702C084B58F7D84BD08958091B8
:1053C000B0008F7703C08091B0008F7D8093B000D4
:1053D0000895CF93DF9390E0FC01E753F94F2491B8
:1053E000FC01E352F94F8491882349F190E0880F42
:1053F000991FFC01EB5FF84FA591B4918550994F2F
:10540000FC01C591D4919FB7611108C0F8948C91AB
:10541000209582238C93888182230AC0623051F4C4
:10542000F8948C91322F309583238C938881822B32
:10543000888304C0F8948C91822B8C939FBFDF915A
:10544000CF9108950F931F93CF93DF931F92CDB702
:10545000DEB7282F30E0F901EB54F94F8491F901C0
:10546000E753F94F1491F901E352F94F04910023E6
:10547000C9F0882321F069830E94C0296981E02F47
:10548000F0E0EE0FFF1FE550F94FA591B4919FB7E3
:10549000F8948C91611103C01095812301C0812B78
:1054A0008C939FBF0F90DF91CF911F910F91089523
:1054B000CF93DF93282F30E0F901EB54F94F84911B
:1054C000F901E753F94FD491F901E352F94FC4912F
:1054D000CC2391F081110E94C029EC2FF0E0EE0F57
:1054E000FF1FEF50F94FA591B4912C912D2381E02E
:1054F00090E021F480E002C080E090E0DF91CF9165
:10550000089508950E9409290E94812A0E943E045C
:10551000C0E0D0E00E9421192097E1F30E94000032
:10552000F9CFCF92DF92EF92FF920F931F93CF9319
:10553000DF936C017A01EB01E60EF71E00E010E04C
:10554000CE15DF0561F06991D601ED91FC910190D6
:10555000F081E02DC6010995080F191FF1CFC80190
:10556000DF91CF911F910F91FF90EF90DF90CF903F
:1055700008956115710581F0DB010D900020E9F7B8
:10558000AD0141505109461B570BDC01ED91FC91D7
:105590000280F381E02D099480E090E00895EF927D
:1055A000FF920F931F93CF93DF938C01FB01C0E019
:1055B000D0E064917F018FEFE81AF80A662361F06A
:1055C000D801ED91FC910190F081E02DC801099581
:1055D000C80FD91FF701EDCFCE01DF91CF911F91F9
:1055E0000F91FF90EF9008950C94B92ADC01ED9192
:1055F000FC910190F081E02D099461EF71E00C9431
:10560000B92A0F931F93CF93DF93EC010E94CF2A07
:105610008C01CE010E94FD2A800F911FDF91CF9156
:105620001F910F9108950F931F93CF93DF93EC0178
:105630000E94B92A8C01CE010E94FD2A800F911F81
:10564000DF91CF911F910F9108958F929F92AF920A
:10565000BF92CF92DF92EF92FF920F931F93CF935F
:10566000DF93CDB7DEB7A1970FB6F894DEBF0FBEBC
:10567000CDBF7C01C42EE52FCB01D22E19A221E093
:105680002D1510F02AE0D22E8E010F5D1F4F8D2CAC
:10569000912CA12CB12C6C2D7E2FA50194010E9480
:1056A0004B2E8C2DD29E80191124015011098A3065
:1056B00014F4805D01C0895CF801808321153105F7
:1056C0004105510521F0C22EE32FCA01E4CFB801F4
:1056D000C7010E94B92AA1960FB6F894DEBF0FBE8B
:1056E000CDBFDF91CF911F910F91FF90EF90DF9091
:1056F000CF90BF90AF909F908F900895CF92DF9200
:10570000EF92FF920F931F93CF93DF93EC016A0107
:105710007B012115310579F4E881F9810190F0814F
:10572000E02D642FDF91CF911F910F91FF90EF90AB
:10573000DF90CF9009942A303105E9F477FF1AC041
:105740006DE20E94F62A8C0144275527BA014C19B4
:105750005D096E097F092AE0CE010E94252B800F8A
:10576000911FDF91CF911F910F91FF90EF90DF90EC
:10577000CF9008952AE0B701A601CE01DF91CF9125
:105780001F910F91FF90EF90DF90CF900C94252BFD
:105790009A01AB01662757FD6095762F0C947E2BFE
:1057A0002115310541F4DC01ED91FC910190F0816E
:1057B000E02D642F09940C94252B9A01462F50E07C
:1057C00060E070E00C94D02B9A01AB0160E070E0D7
:1057D0000C94D02BCF93DF9300D000D0CDB7DEB7A1
:1057E0009B01AC01611571058105910569F0698323
:1057F0003A834B835C830E94FB2E29813A814B8143
:105800005C810E946D2E03C060E070E0CB010F90C0
:105810000F900F900F90DF91CF910895CF92DF926C
:10582000EF92FF926B017C01621773078407950763
:1058300064F4CA01B9016C197D098E099F090E949F
:10584000EA2B6C0D7D1D8E1D9F1DFF90EF90DF904C
:10585000CF9008954F925F926F927F92AF92BF92D6
:10586000CF92DF92EF92FF920F931F93CF93DF932C
:10587000CDB7DEB729013A01621B730B840B950B80
:1058800029893A894B895C892A193B094C095D09A8
:10589000298B3A8B4B8B5C8B9B01AC0169897A8994
:1058A0008B899C890E94F92DE418F50806091709CF
:1058B000A80197010E946D2E2A0D3B1D4C1D5D1DF8
:1058C000CA01B901DF91CF911F910F91FF90EF9025
:1058D000DF90CF90BF90AF907F906F905F904F9090
:1058E000089508955058BB27AA270ED0E5C0D6D0FA
:1058F00030F0DBD020F031F49F3F11F41EF4CBC028
:105900000EF4E095E7FBC1C0E92FE7D080F3BA17AA
:10591000620773078407950718F071F49EF5FFC0BE
:105920000EF4E0950B2EBA2FA02D0B01B9019001BA
:105930000C01CA01A0011124FF27591B99F0593FFE
:1059400050F4503E68F11A16F040A22F232F342F46
:105950004427585FF3CF469537952795A795F04094
:105960005395C9F77EF41F16BA0B620B730B840BA9
:10597000BAF09150A1F0FF0FBB1F661F771F881F61
:10598000C2F70EC0BA0F621F731F841F48F48795B9
:1059900077956795B795F7959E3F08F0B3CF9395A8
:1059A000880F08F09927EE0F97958795089504D0F2
:1059B0006894B111B5C0089598D088F09F5790F0C1
:1059C000B92F9927B751A0F0D1F0660F771F881F24
:1059D000991F1AF0BA95C9F712C0B13081F09FD063
:1059E000B1E008959CC0672F782F8827B85F39F001
:1059F000B93FCCF3869577956795B395D9F73EF483
:105A000090958095709561957F4F8F4F9F4F08952A
:105A1000E89409C097FB3EF4909580957095619548
:105A20007F4F8F4F9F4F9923A9F0F92F96E9BB27FE
:105A30009395F695879577956795B795F111F8CF7A
:105A4000FAF4BB0F11F460FF1BC06F5F7F4F8F4FE5
:105A50009F4F16C0882311F096E911C0772321F0DB
:105A60009EE8872F762F05C0662371F096E8862F73
:105A700070E060E02AF09A95660F771F881FDAF7CA
:105A8000880F9695879597F9089597F99F6780E80D
:105A900070E060E008959FEF80EC089500240A9480
:105AA0001616170618060906089500240A941216F9
:105AB0001306140605060895092E0394000C11F42C
:105AC000882352F0BB0F40F4BF2B11F460FF04C0D9
:105AD0006F5F7F4F8F4F9F4F089557FD9058440F32
