:100000000C94FC030C9424040C9424040C942404F9
:100010000C9424040C9424040C9424040C942404C0
:100020000C9424040C9424040C9424040C9493271E
:100030000C9424040C9424040C9424040C942404A0
:100040000C94F0270C9424040C9424040C942404A1
:100050000C9424040C9424040C9424040C94240480
:100060000C9424040C942404D218D9180A191519D4
:10007000181950195D19A919C219D618B7197E197E
:10008000180A30900078F0003060C04890200000DE
:1000900040000000786040786000306000489000C8
:1000A000150C00000000000000000000000000002F
:1000B00008400018E00078E00038C00038E0007820
:1000C000F104F8FFFFF8150C000000C0000000F07C
:1000D00038000000000000380E000000000180E041
:1000E0000000000000000E0700000000150C0000DA
:1000F00000002000002000002000007000007000C0
:1001000000500000500000F800C0D818F18C78FFB3
:10011000FFF8150C00003830000844D30852AA003C
:1001200036A9000000003020003A8C602AAAA0BB4B
:100130002AC0800000E00000150C000000B800009C
:1001400044F800F0E800483C00486F00400F804051
:1001500017C0500160E00330FFFFF8FFFFF8150CF7
:10016000000000000000000000000000000000008F
:10017000000000000000000000000000000000007F
:1001800000000000150C000000000000801000C0FE
:100190001800C00808C01C38C21C78C61C78E61CB1
:1001A00078F61C78FF3FF8FFFFF8150C0000000000
:1001B000000000010001030001960000BC1000F8DF
:1001C00010807010807838C07878E47878FFFFF875
:1001D000150C00000000000000008000018090016C
:1001E000C8FC03C8FE07D8F00FF8E007F8C003F812
:1001F000F807F8FFFFF8150C003FF80009F80000B9
:10020000F80000B8020038760018FF0038FFC0B8C8
:10021000FF81F8FF01F8FF80F8FFFFF8150C0000E0
:1002200000000000000008800018C80008FED80880
:10023000FFFC08FFF008FFA008FF0018FF80F8FF90
:10024000FFF8150C03789803D00801C018808008C7
:100250008000088007C0C00FE8E01FE8C0F878E021
:1002600073387DE798FFFFF8150C000000000000D0
:1002700000450081FF80C7FFC0E3FFE0C1FFC0F081
:100280009380F80000FC0000FE0008FFFFF8150C4A
:1002900007C03807E0180780180300080380000330
:1002A0000400810400C00C00E00E00F01E00E0FF1E
:1002B00080FFFFF8150C00F03800600838C008E037
:1002C000C000C183C0818740830FE0021BE0800F24
:1002D000B0901FF0D03EF0FFFFF8150C01E03800A1
:1002E000F018487808FC3F88FC3FC0F87F80F07F1A
:1002F00000F0F600D04008900018800078FFFFF86A
:10030000150C0000000000000000000000000000CC
:1003100000300060F9FCF8FF07F8F800F8F800F882
:10032000F800F8F800F8040460F06090040490F01D
:1003300060900404F0F06090040460606090040435
:10034000F0F0F0F00404E0F0F0F0040460F0F0F0FD
:10035000040470F0F0E0040460F0F070040460F055
:10036000F060040400000000040410000000040415
:10037000900000000404100000800404900000803D
:100380000404900000904823000000825400000004
:10039000000000015B15B5000000000001D25525EA
:1003A0000000000000015154A30000000000000004
:1003B000000100000000000FFFFFFA6000000000D5
:1003C00000000000000000001400000001280000F0
:1003D00000155A4C14C2A36000001D552A1483AAAC
:1003E00050000015956A0982A95000000000000025
:1003F0000000000000000000000000FF800000007E
:1004000000000003FFE0000E0000000007FFE00016
:1004100031800000000FFFF00040400000000FFF9F
:10042000F0008F200000000FFFF00090A0000000FF
:100430000FFFE0013FD00000000FFFC0013FD000E0
:100440000000027F800165500000000FFE0003E005
:10045000500000000FFC000566900000000FFE0039
:1004600006B0A00000000A8F80055F600000000059
:1004700007C003AAA0000000003FF004756000015F
:10048000F001FFF8050FC010011BC1FFF808C3FF02
:10049000F8000FFCFEF80837FCF8007FFCFDE80AC6
:1004A0000FFFF00007BF67D811803FF0021E53FF17
:1004B000781078148003F3EFFDF02007F3000000BC
:1004C000FFF7F003053F213F1208120A100A0E1C25
:1004D0000E0C1E0C141A14161F161E131E1E1B1EA5
:1004E0001E1F1E3F213F3A2F3A173D173F213F184D
:1004F0001F02040A041F0E04040E1F0A1F0A0E0E18
:100500001F04110E2E252E2F2A2E262929021F0206
:10051000081F08150E04040E150E15151B151B04D7
:100520000604040C040000000017000300031F0A67
:100530001F16371A1904130A153A000300000E118A
:10054000110E000A040A040E040030000404040022
:1005500010001804031F111F121F101D151711156D
:100560001F07041F17151D1F151D01011F1F151F34
:1005700017151F000A00003200040A110A0A0A11A6
:100580000A040115020E11171E051E1F150A0E1171
:100590000A1F110E1F15111F05010E111D1F041F2B
:1005A000111F1108100F1F041B1F10101F061F1E04
:1005B000040F0E110E1F09060E112E1F051A12151B
:1005C00009011F011F101F0F180F1F0C1F1B041BF9
:1005D000031C03191513001F11030418111F000237
:1005E00001022020200001020C121E1F120C0C120E
:1005F000120C121F0C1A14041E05242A1E1F021CA2
:10060000141D1020201D1F0814111F101E041E1E73
:10061000021C0C120C3E0A040C123E1E040214169C
:100620000A020F120E101E0E100E1E081E120C12C1
:1006300026281E322A26041E21001F00211E040126
:1006400002013F213F0A4E6F2053442063617264D0
:10065000206F720A6E6F204C4F414445522E484520
:10066000580A0A153A45786974001D20466C617372
:1006700068696E670A20206C6F616465722E2E2E89
:100680000A0A444F4E2754205455524E204F464696
:1006900021006D560A0A504C454153450A545552A3
:1006A0004E204F4646004C4F57204241545445522D
:1006B000590A001753440016137800161314001536
:1006C0001020001520100000540A03E181867F3EAF
:1006D000186D830F0F0E0183866033186DC3198F59
:1006E0001803C38E6033186DE330CF1803C39E60C8
:1006F0003630CDE360CF3006C79E7E3E30CDB3604E
:10070000CF300CC6F6603330D9B660CF33CFCCF6DD
:100710006061B0DB1E60CF30D86CE6C061B0DB1E1C
:10072000618F19986CC6C063B19B0E330F0FB07800
:10073000C6FF7E1F1B061E0F050089300802380207
:10074000497868140000F6E8DBCFC3B8AEA49B92EA
:100750008A827B746E68625C57524E4945413E3ACC
:100760003734312E2C29272523211F1D1C1A191738
:10077000161514131211100F0E0D0C0B0A09080791
:100780000645006801000005003801680100009777
:100790000793070101FF030101F7030000000800B0
:1007A0000201000003040700000000000000000137
:1007B00002040810204080010204081020010204F5
:1007C00008102004040404040404040202020202C7
:1007D0000203030303030300000000230026002993
:1007E0000000000000250028002B0000000000246D
:1007F0000027002A0000CB1911241FBECFEFD8E03C
:10080000DEBFCDBF12E0A0E0B1E0E2E6FCE502C051
:1008100005900D92AA34B107D9F726E0AAE4B2E018
:1008200001C01D92A439B207E1F717E0C8EFD7E085
:1008300004C02297FE010E94AC2DC63FD107C9F724
:100840000E940A2A0C942F2E0C9400008435D8F4B0
:100850006033C8F4962F959595959595E82FFF27C9
:10086000E7FDF095E357FB4F84E59802E00DF11D9D
:100870001124808190E0677002C0959587956A95F4
:10088000E2F78170089580E008950F931F93CF934E
:10089000DF93FC01862F6435D8F54033C8F5978D7A
:1008A000042F059505950595C62FDD27C7FDD09525
:1008B000142F1770923031F4642F0E94260488237D
:1008C000B1F002C0911113C0FE0184E50802E00DF1
:1008D000F11D1124E357FB4F81E090E0012E01C090
:1008E000880F0A94EAF780959081982310C0FE0142
:1008F00084E50802E00DF11D1124E357FB4F81E070
:1009000090E001C0880F1A95EAF79081982B9083A8
:10091000DF91CF911F910F91089566E873E086E013
:1009200094E00E94362410921E0481E080935D03BF
:1009300010925A0391E190935C0310925C0292E052
:100940009093500293E09093510280934E029093C3
:100950004F0280934A02089586E094E00E94B424F6
:100960000C948D046F927F928F929F92AF92BF9260
:10097000CF92DF92EF92FF920F931F93CF93DF936B
:10098000CDB7DEB765970FB6F894DEBF0FBECDBF0B
:1009900040E025E130E0842F90E0E1E0F0E0EC0F72
:1009A000FD1FE80FF91F880F991F880F991FB901C4
:1009B0000E94552D80834F5F453168F340935B0261
:1009C00025E130E040E050E060E070E0CB010E94C3
:1009D000962B10925B0240E070E085E190E0861B70
:1009E000970B01E010E00C0F1D1F060F171FE42FDF
:1009F000F0E04F5FE817F90784F421E030E02C0FB6
:100A00003D1FE20FF31F50819F01260F371FD901B1
:100A10002C912083F8015083EACF10925B0289E089
:100A2000C82EBB24B3949AE0A92E2BE0D22E80913D
:100A30005B02282F30E060915102462F50E0E09198
:100A400050026E9FF00111242E173F070CF0DCC0FE
:100A5000C29EF001C39EF00D1124EA58FC4F138290
:100A600090914F0297830E94272D848315821682CE
:100A700090E060914E02461B5109481759070CF44B
:100A8000B682C29E8001C39E100D11240A581C4FCD
:100A9000D80118961C921897E1E0F0E0EC0FFD1FCA
:100AA000E20FF31F8080882D880F880FF801819353
:100AB00099249394980C80FC1FC011961C927F017E
:100AC000F7017080FAE0F71508F444C066246394D7
:100AD000670C662D892D0E942604811138C062E0C2
:100AE000670D892D0E942604813089F5770C770CDB
:100AF000D80111967C921AC0D8011196AC927F0150
:100B0000F70170807720A9F161E0670D892D0E94BF
:100B1000260481112AC062E0670D892D0E942604F7
:100B2000813019F5770C770CF801718280915B02A6
:100B3000C89EF0011124EA58FC4F9081993210F0C0
:100B4000128201C0B2828F5F80935B0270CFF70187
:100B50006082B6CF882D6D2D0E94272D892F880F9A
:100B6000880FD80111968C930DC07A94D7017C928E
:100B7000C7CF882D6D2D0E94272D892F880F880FB4
:100B8000F801818361E0690F892D0E94260481119B
:100B90001BC061E084E594E00E94941B80915B029D
:100BA000E1E0F0E0EC0FFD1FE80FF11D2081822F46
:100BB0006D2D0E94272D9E5F61E0620F492F84E515
:100BC00094E00E944504B2CF60E084E594E00E9486
:100BD000941B80915B02E1E0F0E0EC0FFD1FE80F59
:100BE000F11D2081822F6D2D0E94272D9F5F61E0D6
:100BF000620F492F84E594E00E94450461E084E59A
:100C000094E00E94941B92CF65960FB6F894DEBFD5
:100C10000FBECDBFDF91CF911F910F91FF90EF904D
:100C2000DF90CF90BF90AF909F908F907F906F900C
:100C30000895809152028530D1F0863069F0843079
:100C400011F5E091530299E0E99FF0011124EA586F
:100C5000FC4F9181915015C0E091530299E0E99FBA
:100C6000F0011124EA58FC4F918193500AC0E091A1
:100C7000530299E0E99FF0011124EA58FC4F918159
:100C80009250918302C0882319F0815080935202C0
:100C900008952F923F924F925F926F927F928F9220
:100CA0009F92AF92BF92CF92DF92EF92FF920F93FB
:100CB0001F93CF93DF93CDB7DEB728970FB6F89485
:100CC000DEBF0FBECDBF10925A02409051028091FC
:100CD0005002489E20011124E9E03E2E90915A02D4
:100CE0009983092F10E0041515050CF0C6C0309E3D
:100CF000C001319E900D11248A589C4F98878F8394
:100D00006C019FEFC91AD90AAF81B88511969C91E1
:100D100011979C5FFC90692F8F2D9E830E94260463
:100D20009E81811192C0692F83E08F0D0E9426045D
:100D300081118BC0109259028F8098847401A5E0B4
:100D4000EA0EF11C5401B3E0AB0EB11C3401E4E037
:100D50006E0E711CC40107969B838A83F701608124
:100D600020905902462F50E0822D90E048175907F5
:100D7000D4F1F601908154E0590FD4014C91652FC4
:100D8000842F4D835C839E830E9426044D815C8169
:100D9000811125C0652F83E0840F0E9426049E8167
:100DA00081111DC08FEC890F873908F057C0F501FC
:100DB0008081811114C0D301EC91F0E0EE0FFF1F90
:100DC000E259FC4F80818150808310924D02EA816C
:100DD000FB811082D7011C9281E0F501808323946E
:100DE00020925902BBCF643050F4AF81B88513967E
:100DF0008C911397811103C06F5F15966C93309E91
:100E00005001319EB00C1124F501EA58FC4F5F01EE
:100E1000F18063E0D62EDF0CE0806D2D82E08E0D38
:100E20000E9426048130F1F06D2D81E08E0D0E942C
:100E30002604813029F4D50113968C91882391F0F2
:100E400089818F5F80935A0249CF309EF001319E95
:100E5000F00D1124EA58FC4F1582D1CF9F5FD601C7
:100E60009C93BDCF309EF001319EF00D1124EA58C5
:100E7000FC4FFA94F1821582E3CF28960FB6F894CE
:100E8000DEBF0FBECDBFDF91CF911F910F91FF90BD
:100E9000EF90DF90CF90BF90AF909F908F907F901A
:100EA0006F905F904F903F902F9008951F93CF9336
:100EB000DF936091510280915002689FB00111242C
:100EC00020916A03332727FD309540916B03552706
:100ED00047FD5095B0914D02A0E0C9E0D4E111E08A
:100EE0008A2F90E08617970784F5C89FF001C99F65
:100EF000F00D1124EA58FC4F8381811124C08081B8
:100F000090E028173907FCF0049682179307DCF06D
:100F1000818190E048175907B4F00496841795072B
:100F200094F087818150878381110CC01383E48101
:100F3000F0E0EE0FFF1FE259FC4F8081815080836B
:100F4000B0E001C0D087AF5FCBCFB0934D02A0938C
:100F50005B02DF91CF911F9108952091500280E0B4
:100F600090E0821758F4E82FF0E0EE0FFF1FE259EF
:100F7000FC4F308131119F5F8F5FF3CF80935B0215
:100F8000923018F489E080935D0308951F93CF9306
:100F9000DF93C0915002D0E08091540290E001961E
:100FA000BE010E94552D9C01220F331FF901E25909
:100FB000FC4F5081552391F380935402C09151020C
:100FC0008C9F402D1124D0E0818119E090E00196A2
:100FD000BE010E94552D942F980F199FF0011124E6
:100FE000EA58FC4F53815111F1CFD901A259BC4F9E
:100FF00011968C939093530284E1808710924D0256
:1010000084E080934C0282E080935E038AE08093C8
:101010005F03109260038BE080935D03DF91CF91BB
:101020001F910C94AD0730916C0323E0832F622F46
:101030000E94332D90916A03890F80936A03409137
:101040006D03842F622F0E94332D90916B03890FC3
:1010500080936B0320914A02240F20936D03632F2A
:10106000772767FD709577FF03C0719561957109CA
:101070006D30710544F04CE03402C00111240E942F
:10108000552D60936C03622F772767FD709577FF6E
:1010900003C07195619571096D30710544F03CE0B4
:1010A0002302C00111240E94552D60936D03089501
:1010B000CF9320916A03253530F440916B038FEC78
:1010C000840F833318F4CF910C94C607842F47FF05
:1010D00002C083E0840F85958595E22FE595E5951F
:1010E0009CE0E902F0011124E80FF11D87FDFA955B
:1010F000E35AFD4F80818C3328F44D3F1CF087E08C
:1011000080935D036091510280915002689FB0010D
:101110001124B0915D03A0E0C9E0332727FD30958D
:10112000552747FD50958A2F90E086179707E4F4DE
:10113000C89FF001C99FF00D1124EA58FC4F80812F
:1011400090E02817390774F004968217930754F03B
:10115000818190E0481759072CF004968417950771
:101160000CF0B7E0AF5FDFCFB0935D03A0935B02FD
:10117000CF9108955091610390E070E04091630336
:1011800020916603309165035C3308F097C05CE002
:10119000589FF001599FF00D1124E60FF71FE35AF5
:1011A000FD4F10824C3340F0509164035C3320F0CB
:1011B0002C3310F05AE050833C33A0F05091670379
:1011C0005C3380F0509168035C3360F05CE0589FC2
:1011D000F001599FF00D1124E60FF71FE35AFD4F60
:1011E0005BE050832C3398F0509168035C3378F0C7
:1011F000509169035C3358F05CE0589FF001599FAF
:10120000F00D1124E60FF71FE35AFD4F5083509164
:1012100062035C33A8F04C3398F03C3360F0ACE0F0
:10122000A89FF001A99FF00D1124E60FF71FE35AC4
:10123000FD4FADE0A083E0916403EC3308F059C1A9
:101240003C33D0F02C33C0F0E0916703EC33A0F0D6
:10125000E0916803EC3380F0E0916903EC3360F0D7
:10126000ACE0A89FF001A99FF00D1124E60FF71F35
:10127000E35AFD4FA5E1A0834C3308F432C1A0919D
:101280006403AC3308F4A8C02C3308F4A5C0E09183
:101290006803EC3308F4A0C0E0916903EC3308F470
:1012A0009BC0BCE0B89FF001B99FF00D1124E60F80
:1012B000F71FE35AFD4FB6E1B0838EC05CE0589F44
:1012C000F001599FF00D1124E60FF71FE35AFD4F6F
:1012D0005CE350834C3320F42C3310F456E45083F9
:1012E0003C3380F4509168035C3360F45CE0589FB9
:1012F000F001599FF00D1124E60FF71FE35AFD4F3F
:1013000057E450832C3380F4509168035C3360F4CD
:101310005CE0589FF001599FF00D1124E60FF71F74
:10132000E35AFD4F58E450834C3380F43C3340F58E
:101330005CE0589FF001599FF00D1124E60FF71F54
:10134000E35AFD4F2C3330F450E505C03C3308F42C
:101350001CC1089559E450832C3320F55091680343
:101360005C3308F0C2C05CE0589FF001599FF00D5B
:101370001124E60FF71FE35AFD4F51E55083B5C026
:101380002C3380F4409168034C3360F44CE0489F68
:10139000F001499FF00D1124E60FF71FE35AFD4FAE
:1013A00042E540833C33B8F4309168033C3308F0A5
:1013B000EFC03CE0389FF001399FF00D1124E60F9B
:1013C000F71FE35AFD4F83E580832C3308F0E0C01C
:1013D0008EE68083089508955C33F0F04C3308F472
:1013E000D7C03C33A0F0E0916703EC3380F0E0918C
:1013F0006803EC3360F0BCE0B89FF001B99FF00DDA
:101400001124E60FF71FE35AFD4FB7E1B083AC3369
:1014100018F03C3308F080C0AC33E0F03C33D0F03F
:101420002C33C0F0E0916703EC33A0F0E091680347
:10143000EC3380F0E0916903EC3360F0ACE0A89FFE
:10144000F001A99FF00D1124E60FF71FE35AFD4F9D
:10145000A9E2A0835C3308F49BC04C3308F498C025
:10146000409164034C33D8F03C3308F46FC02C3304
:1014700008F46CC0509168035C33B8F05091690374
:101480005C3398F05CE0589FF001599FF00D1124F7
:10149000E60FF71FE35AFD4F5AE2508306C03C3374
:1014A00008F454C02C3308F451C0509167035C33E6
:1014B00008F44CC0509168035C3308F447C0509165
:1014C00069035C3308F442C05CE0589FF001599F07
:1014D000F00D1124E60FF71FE35AFD4F5BE2508336
:1014E00035C05C3308F054C0B5CF4C3308F050C061
:1014F00049CF3C3308F4C3CE2C3308F4A3CEACE080
:10150000A89FF001A99FF00D1124E60FF71FE35AE1
:10151000FD4FA4E1A08396CE2C3308F47DCFE0915B
:101520006703EC3308F478CFE0916803EC3308F4F8
:1015300073CFBCE0B89FF001B99FF00D1124E60F06
:10154000F71FE35AFD4FB8E2B08366CF4C33E0F0AB
:101550003C33F0F02C33E0F0209167032C33C0F0E3
:10156000209168032C33A0F0209169032C3380F084
:101570002CE0289FF001299FF00D1124E60FF71FA2
:10158000E35AFD4F82E325CF08952C3308F4E6CECD
:101590000895DF92EF92FF920F931F93CF93DF9303
:1015A00081E080935B02DD24D394CCE380915B02E5
:1015B0008D3008F086C0D0925A0210915A02D09114
:1015C0005B02163108F079C06D2F812F0E9426042E
:1015D000882319F01092610302C0C0936103EE24C6
:1015E000EA94ED0E0FEF010F6E2D802F0E9426045E
:1015F000882319F01092620302C0C09362036E2D1B
:10160000812F0E942604882319F01092630302C0E0
:10161000C0936303FF24F394F10E6E2D8F2D0E946F
:101620002604882319F01092640302C0C093640357
:101630006D2F802F0E942604882319F010926503D5
:1016400002C0C09365036D2F8F2D0E94260488234E
:1016500019F01092660302C0C0936603EE24E3946F
:10166000ED0E6E2D802F0E942604882319F0109213
:10167000670302C0C09367036E2D812F0E9426046A
:10168000882319F01092680302C0C09368036E2D7E
:101690008F2D0E942604882319F01092690302C03E
:1016A000C09369036FEF6D0F802F0E94BA0880917D
:1016B0005A028F5F80935A0280CFDF5FD0935B0224
:1016C00075CFDF91CF911F910F91FF90EF90DF9039
:1016D00008950F9360E084E594E00E94941B0CE071
:1016E00025E140E060E084E594E00E941D1C61E09B
:1016F00084E594E00E94941B0EE027E140E060E066
:1017000084E594E00E944E1C2091590386E2289FB4
:101710009001112420563F4F41E061E084E594E0C0
:101720000E94F51D0E94B2040E94C90A60E084E58F
:1017300094E00E94941B27E140E060E084E594E09F
:101740000E941D1C61E084E594E00F910C94941BB1
:101750000F931F93CF93DF93D0916C03C0916D03D0
:1017600070916A0360916B03D7FD94C0C7FD40C0C0
:10177000272F77FF02C023E0270F259525953327D4
:1017800027FD3095A90141505109862F67FF02C0FE
:1017900083E0860F85958595992787FD90951CE0B8
:1017A000149FD001159FB00D1124A80FB91FA35A83
:1017B000BD4F4C914C3308F018C1129FF001139F9C
:1017C000F00D1124E80FF91FE45AFD4F40814C330E
:1017D00008F00BC18D2F992787FD9095DD27C7FD58
:1017E000D095D595C795C817D9070CF093C03EC0C2
:1017F000872F77FF02C083E0870F8595859599270E
:1018000087FD9095AC0141505109262F67FF02C01A
:1018100023E0260F25952595332727FD30951CE0DD
:10182000149FD001159FB00D1124A20FB31FA35A0E
:10183000BD4F4C914C33F8F4189FF001199FF00DF7
:101840001124E20FF31FE25AFD4F40814C3398F40C
:101850008D2F992787FD9095DD27C1950CF4D095A4
:10186000D595C795C817D9070CF0B8C0745078350E
:1018700008F0CDC0ADC07D5F7B3508F0C8C06D5F9E
:10188000673308F0C4C04CE0489FF001499FF00D59
:10189000112457C0C7FD58C0472F77FF02C043E04F
:1018A000470F45954595552747FD5095CA01019627
:1018B000262F67FF02C023E0260F259525953327A5
:1018C00027FD30951CE0189FD001199FB00D112401
:1018D000A20FB31FA35ABD4F8C918C3320F5149FD8
:1018E000F001159FF00D1124E20FF31FE45AFD4F94
:1018F00080818C33C0F44D2F552741950CF45095C1
:101900008C2F992787FD9095959587958417950736
:101910000CF45BC07D5F7B3508F079C064506433A4
:1019200008F075C072C07D5F7B3508F070C06D5FD8
:10193000673308F06CC08CE0849FF001859FF00D48
:101940001124E20FF31F5FC0272F77FF02C023E0AF
:10195000270F25952595332727FD3095A9014F5F42
:101960005F4F862F67FF02C083E0860F85958595C0
:10197000992787FD90951CE0149FD001159FB00D0D
:101980001124A80FB91FA35ABD4F4C914C3368F5D1
:10199000129FF001139FF00D1124E80FF91FE25A76
:1019A000FD4F40814C3308F58D2F992781950CF41C
:1019B00090959C014C2F552741950CF45095CA01E8
:1019C00095958795821793074CF4795F7B35F8F4EA
:1019D0006D5F6733E0F48CE38C9319C07D5F7B35DA
:1019E000B0F4695F673398F410C07D5F7B3578F49D
:1019F0006D5F673360F44CE0429FF001439FF00D50
:101A00001124E80FF91FE35AFD4F8CE380831092F5
:101A10005B02CCE080915B028C3008F0C6C0109273
:101A20005A0280915A0260915B02853108F0B9C078
:101A3000462F50E0282F30E0FA01C89FE00DF11D3D
:101A40001124E35AFD4F908190936103882389F01C
:101A5000662379F0D9011197CA9FF001CB9FF00D51
:101A60001124E40FF51FE45AFD4F90819093620317
:101A700004C010926203662389F0DA011197C29FB5
:101A8000F001C39FF00D1124EA0FFB1FE35AFD4F35
:101A9000908190936303843121F415C01092630305
:101AA00012C0662381F089010F5F1F4FC09FF001B4
:101AB000C19FF00D1124EA0FFB1FE35AFD4F9081E7
:101AC0009093640302C010926403882389F0D901C3
:101AD0001197CA9FF001CB9FF00D1124E40FF51F61
:101AE000E35AFD4F9081909365038431A1F002C0C9
:101AF00010926503D9011196CA9FF001CB9FF00D9A
:101B00001124E40FF51FE35AFD4F90819093660373
:101B10008823A1F002C0109266036B3078F4D901DB
:101B20001197CA9FF001CB9FF00D1124E35AFD4F8E
:101B3000E40FF51F91819093670304C0109267032F
:101B40006B3088F44F5F5F4FC29FF001C39FF00D71
:101B50001124E40FF51FE35AFD4F90819093680321
:101B6000843121F414C01092680311C06B3078F4F2
:101B70002F5F3F4FC29FF001C39FF00D1124E40F70
:101B8000F51FE35AFD4F90819093690302C01092B4
:101B900069030E94BA0880915A028F5F80935A02AB
:101BA00040CF6F5F60935B0235CFDF91CF911F9184
:101BB0000F910895DF92EF92FF920F931F93CF93AF
:101BC000DF9380914B02882311F0815054C18091A2
:101BD000600381113EC110925B02C9E00CE080916C
:101BE0005B02823008F02DC188E080935A021AE02F
:101BF000D1E080915A02882309F41DC11092590244
:101C000024E1F22EE090590240915A0289E08E15AB
:101C100008F40DC110925502E091530280915B02CD
:101C2000282F30E0220F331F21503109CE9FF001C1
:101C30001124EA58FC4F3081380F3F5F50E0DA0141
:101C4000A75EBD4F8C91612F0E94332DA82F829FDC
:101C5000300D112430936A0391819F5F980F909308
:101C60006B03E694FA01EE5DFD4F8081612F0E94C7
:101C7000332D829F202D11242E9D202D1124209361
:101C80006C03AE9DE02C1124E0926D03809155020F
:101C90008111C7C0109258024091580250E09091B3
:101CA000510280915002989FC00111244817590792
:101CB0006CF7C49FF001C59FF00D1124EA58FC4F4A
:101CC000808190E0E0906A032E2D332727FD309528
:101CD000BC0164507109D0906B03261737070CF4D0
:101CE00074C00896821793070CF46FC0618170E08E
:101CF0008D2D992787FD9095DB0114978A179B07F7
:101D00000CF463C0685F7F4F681779070CF45DC0FF
:101D1000638161115AC06091530270E0C69FD00187
:101D2000C79FB00D1124AA58BC4FF4811496EC91B2
:101D30001497FE1709F449C0E0916003E11143C014
:101D4000E1E0F0915B02F11101C0E0E01296EC934A
:101D5000E0915A02E0935E03E0915902E0935F0341
:101D6000C49FF001C59FF00D1124EA58FC4F40813B
:101D700050E0DA0112972A173B072CF14A5F5F4FB8
:101D80004217530704F1218130E0A9014250510963
:101D900084179507C4F02A5F3F4F281739079CF036
:101DA0008381811110C0C69FD001C79FB00D11243F
:101DB000AA58BC4F948114968C91981721F0D09317
:101DC0006003F0924B02D093550284E58E1510F417
:101DD000D093550280E38D1514F4D09355028D2DC8
:101DE000D7FC8D5F85958595992787FD9095EE2D7C
:101DF000E7FCED5F2E2F259525952003F00111249A
:101E0000E80FF91FE35AFD4F80818C3310F4D09313
:101E100055020E941308809158028F5F80935802E8
:101E20003BCF809159028F5F80935902EBCE415096
:101E300040935A02DECE80915B028F5F80935B02FB
:101E4000CECE8091600381115EC081E080936003FB
:101E500011C040914C0280915E03481779F08417BD
:101E600020F4415040934C024EC04F5F40934C02CF
:101E7000481349C084E180934B0245C0C0914D0294
:101E800080915F03C81720F4CF5FC0934D023BC021
:101E9000E091530289E0E89FF0011124EA58FC4FD9
:101EA000D28150E02D2F30E0220F331F2150310915
:101EB000DA01AE5DBD4F8C913AE0632F0E94332D65
:101EC000829F202D112490819F5F9D0F920F9093F0
:101ED0006A03DA01A75EBD4F8C91632F0E94332DF8
:101EE00091819F5F980F90936B03C6952C9F202D37
:101EF000112420936C038C9FC02D1124C0936D037B
:101F000086E080935D03DF91CF911F910F91FF9049
:101F1000EF90DF900895BF92CF92DF92EF92FF9201
:101F20000F931F93CF93DF9380915A032BEA829FE5
:101F3000212D1124269591E1299F900111242D3105
:101F400031055CF090E0039763E070E00E94552D4E
:101F500081E1689FF02C112411C00EE027E147E0D9
:101F600063E084E594E00E944E1C20E830E049E004
:101F700064E084E594E00E94F51DF12C1092580273
:101F8000C3E0D0E03BE1E32E41E1D42E56E2C52E82
:101F9000E091580280915C03E81708F041C0F0E03E
:101FA000CF010196BE010E94552D8E9DB02C1124AB
:101FB0006D9D102D11241F19CE9E9001CF9E300DC6
:101FC000112420563F4F48E0410F64E06B0D84E53B
:101FD00094E00E94F51D47E0410F63E06B0D0EE0B9
:101FE00027E184E594E00E944E1C2091580230E0E5
:101FF0002F5F3F4FE0915A03F0E02E173F0751F457
:1020000046E0410F6B2D6E5F00E129E184E594E02D
:102010000E944E1C809158028F5F80935802B8CF67
:1020200060E084E594E00E94941B06E024E540E033
:1020300060E084E594E00E941D1C61E084E594E08A
:102040000E94941B80915A0381111BC08BE18093E5
:102050005D046CE071E084E594E00E947C2A00E17C
:1020600029E146E062E084E594E00E944E1CDF91A5
:10207000CF911F910F91FF90EF90DF90CF90BF9085
:1020800008958CE180935D0465E171E084E594E05E
:102090000E947C2A4AE050E060915A0384E594E073
:1020A000DF91CF911F910F91FF90EF90DF90CF9034
:1020B000BF900C94652BFF920F931F93CF93DF93E8
:1020C0000EE514E0F8011082CDE5D4E08CE18883C0
:1020D0006CE071E084E594E00E947C2A8CE0F801D9
:1020E000808360E1F62EF8826CE171E084E594E093
:1020F0000E947C2A4AE050E06091500284E594E01E
:102100000E94652B69E271E084E594E00E947C2ADC
:1021100082E1F8018083F8826BE271E084E594E06B
:102120000E947C2A4AE050E06091510284E594E0EC
:102130000E94652B69E271E084E594E00E947C2AAC
:1021400088E1F8018083F88268E371E084E594E037
:102150000E947C2A4AE050E060914F0284E594E0BE
:102160000E94652B69E271E084E594E00E947C2A7C
:102170008EE1F8018083F88265E471E084E594E003
:102180000E947C2A4AE050E060914E0284E594E08F
:102190000E94652B69E271E084E594E00E947C2A4C
:1021A00084E2F8018083F88262E571E084E594E0DE
:1021B0000E947C2A4AE050E060914A0284E594E063
:1021C0000E94652B69E271E084E594E00E947C2A1C
:1021D0008AE2F8018083F8826FE571E084E594E09B
:1021E0000E947C2A80915C02482F440F480F440FC4
:1021F000435F26E233E06BE084E594E0DF91CF912A
:102200001F910F91FF900C94F51D64E671E084E539
:1022100094E00C947C2AEF920F931F93CF93DF935B
:1022200010925802DCE01AE0C6E0809158028C302F
:1022300008F05CC01092570250915702409158022A
:10224000553108F04FC0D59FF0011124E40FF11D66
:10225000E35AFD4F8081612F0E94272D9130F9F0C4
:1022600088F0923049F19330B9F5C89F900111245C
:10227000225C3C4F440F440F652F660F660FE12C24
:1022800001E026C0C89F90011124225C3C4F440FFE
:10229000440F652F660F660FE12C00E019C0C89F40
:1022A00090011124225C3C4F440F440F652F660FB0
:1022B000660FE12C02E00CC0C89F90011124225C43
:1022C0003C4F440F440F652F660F660FE12C03E06F
:1022D00084E594E00E94751E809157028F5F809381
:1022E0005702AACF4F5F409358029FCFDF91CF9103
:1022F0001F910F91EF900895CF93DF9310925802A2
:10230000C9E0D6E08091580290E0309151022091CE
:102310005002329F90011124821793070CF076C06F
:10232000C89FF001C99FF00D1124EA58FC4F83812A
:1023300081110DC02481D29F900111242A5D3C4F50
:102340004181608184E594E00E94F51D59C060815F
:102350006F5F24E0418184E594E00E94141CE091C9
:102360005802CE9FF0011124EA58FC4F848181303D
:10237000D9F0B8F0823079F1833009F041C0418161
:102380004F5F608184E594E00E944504E09158022B
:10239000CE9FF0011124EA58FC4F60816E5F4181AD
:1023A0002BC041814F5F10C023E04181608184E5F3
:1023B00094E00E94461CE0915802CE9FF001112447
:1023C000EA58FC4F41814E5F23E0608184E594E050
:1023D0000E94461C15C04181608184E594E00E9402
:1023E0004504E0915802CE9FF0011124EA58FC4FB9
:1023F00041814F5F60816E5F84E594E00E944504F7
:10240000809158028F5F809358027CCFDF91CF91EB
:1024100008950F93CF93DF9310925802C9E0D3E051
:102420008091580290E03091510220915002329FE9
:1024300090011124821793070CF040C0C89FF0014F
:10244000C99FF00D1124EA58FC4F8381811130C0DF
:1024500080856D2F0E94272D9130C9F460E084E5BE
:1024600094E00E94941BE0915802CE9FF001112449
:10247000EA58FC4F04E024E04181608184E594E067
:102480000E941D1C61E084E594E00E94941BE09191
:102490005802CE9FF0011124EA58FC4F808590919C
:1024A0005602980F90935602882311F0815080872E
:1024B000809158028F5F80935802B2CFDF91CF9105
:1024C0000F9108950F93CF93DF9310925802C9E0B4
:1024D000D5E08091580290E0309151022091500255
:1024E000329F90011124821793070CF06AC0C89F95
:1024F000F001C99FF00D1124EA58FC4F8085882314
:1025000009F459C062E084E594E00E94941BE091D4
:102510005802CE9FF0011124EA58FC4F41814850E7
:1025200080856D2F0E94272D491B60816F5F22E0FF
:1025300084E594E00E94141CE0915802CE9FF001C3
:102540001124EA58FC4F80856D2F0E94272D418170
:10255000491B60810CEF040F21E0260F455084E5F4
:1025600094E00E949C1BE0915802CE9FF001112440
:10257000EA58FC4F4181455080856D2F0E94272DE0
:10258000491B60816E5F84E594E00E94450461E030
:1025900084E594E00E94941BE0915802CE9FF001E4
:1025A0001124EA58FC4F8085815080879091560213
:1025B000980F90935602809158028F5F8093580233
:1025C00088CFDF91CF910F910895109256020E940B
:1025D000621280915602811103C085E080935D03F1
:1025E00008950F9380914D02882309F447C060E05D
:1025F00084E594E00E94941B04E02CE040E060E05D
:1026000084E594E00E941D1C61E084E594E00E9452
:10261000941B40E060E084E594E00E94450443E0C0
:1026200060E084E594E00E94450440E06BE084E5CE
:1026300094E00E94450443E06BE084E594E00E944E
:10264000450481E0809358026091580220914D0228
:1026500030E0862F90E02817390784F041E084E5C8
:1026600094E00E94450442E06091580284E594E0C1
:102670000E944504809158028F5FE4CF0F91089526
:10268000CF9310925802C9E040915802842F90E0F5
:102690003091510220915002329F900111248217F3
:1026A0009307C4F5C89FF001C99FF00D1124EA58A3
:1026B000FC4F8381811128C08581811125C08091C3
:1026C0005302481304C08091520281111DC061E081
:1026D00084E594E00E94941BE0915802CE9FF001A3
:1026E0001124EA58FC4F8781823031F0833061F445
:1026F0004181435024E003C04181435022E0608186
:1027000084E594E00E94461C809158028F5F80937C
:102710005802BACFCF91089580914D02811111C016
:1027200063E771E084E594E00E947C2A60915402A2
:1027300070E06F5F7F4F4AE050E084E594E00C94D6
:10274000502B08950F931F93CF93DF9360E084E5A0
:1027500094E00E94941BA091530219E01A9FD001AB
:102760001124AA58BC4F11964C9111974F5F6C9150
:102770006F5F12968C91680F84E594E00E94450487
:10278000E0915302A0914C02B0E01E9FF001112491
:10279000EA58FC4F328141814F5FCD01875E9D4FEA
:1027A000EC018881DAE06D2F0E94332D880F480FED
:1027B00050815F5F530FAE5DBD4F8C916D2F0E94B6
:1027C000332D232F30E0220F331F21503109829FF8
:1027D000202D1124220F520F652F84E594E00E94D2
:1027E000450461E084E594E00E94941BA0915302AB
:1027F00040914C0250E0FA01E75EFD4F80816D2F61
:102800000E94332D082F000F1A9FD0011124AA58BF
:10281000BC4F11968C911197080F12963C9112970C
:10282000EC91E30FDA01AE5DBD4F8C916D2F0E94EC
:10283000332D232F30E0220F331F21503109829F87
:10284000202D1124220FE20F21E02E0F41E0400F36
:102850006E2F84E594E00E949C1B20915302A0916E
:102860004C02B0E0FD01E75EFD4F80816D2F0E94BC
:10287000332D482F440F129FF0011124EA58FC4FCA
:102880008181480F32815081530FAE5DBD4F8C91D5
:102890006D2F0E94332D232F30E0220F331F215044
:1028A0003109829F202D1124220F520F02E0040FC4
:1028B00021E0250F4F5F62E0650F84E594E00E9400
:1028C0009C1BDF91CF911F910F9108950F931F9340
:1028D000CF93DF930BE613E0CAE6D3E0F801408123
:1028E000688184E594E00E94450468816F5FF80187
:1028F000408184E594E00E944504F8014081415004
:10290000688184E594E00E944504F80140814150CB
:1029100068816F5F84E594E0DF91CF911F910F9103
:102920000C944504FF920F931F93CF93DF930EE512
:1029300014E0F8011082CDE5D4E08CE1888365E7EE
:1029400071E084E594E00E947C2A8FE0F8018083A6
:10295000B0E1FB2EF8826BE771E084E594E00E9421
:102960007C2A89E1F8018083F88268E871E084E5D7
:1029700094E00E947C2A80915C02880F482F440FCB
:10298000440F480F405F26E233E06BE084E594E0BB
:10299000DF91CF911F910F91FF900C94F51D0F9334
:1029A00080914B02823009F460C038F4882309F426
:1029B00050C0813009F44DC0BBC0853009F47FC0E0
:1029C000863009F4A7C0833009F0B2C060E084E526
:1029D00094E00E94941B40916B03415060916A0304
:1029E000615002E022E084E594E00E941D1C62E058
:1029F00084E594E00E94941B40916B034250209127
:102A00006A036FEF620F042F84E594E00E949C1B21
:102A100000916B0360916A036F5F4FEF400F262FA9
:102A200084E594E00E949C1B00916B0360916A0313
:102A300062504FEF400F262F84E594E00E949C1BCC
:102A400040916B034F5F20916A036FEF620F042F79
:102A50005CC062E084E594E00E94941B40916B03AB
:102A6000415060916A0361505EC060E084E594E08B
:102A70000E94941B40916B03415060916A03615026
:102A800084E594E00E94450462E084E594E00E94BD
:102A9000941B40916B0360916A030EEF040F2FEFBC
:102AA000260F4150625084E594E00E949C1B609187
:102AB0006A0300916B032FEF260F4FEF25C060E0F4
:102AC00084E594E00E94941B40916B0360916A033B
:102AD00084E594E00E94450462E084E594E00E946D
:102AE000941B40916B0320916A030FEF040F6FEF6B
:102AF000620F84E594E00E949C1B60916A03009140
:102B00006B0321E0260F41E0400F84E594E00E9432
:102B10009C1B0EC062E084E594E00E94941B4091EF
:102B20006B0360916A0384E594E00F910C94450473
:102B30000F9108950F93CF93DF9360E084E594E0C5
:102B40000E94941B08E12CE445E064E084E594E0F5
:102B50000E941D1C61E084E594E00E94941B06E144
:102B60002AE446E065E084E594E00E944E1C8BE098
:102B700080935E04CDE5D4E081E1888368E971E06B
:102B800084E594E00E947C2A6091540270E06F5FBB
:102B90007F4F4AE050E084E594E00E94502B60EAC9
:102BA00071E084E594E00E949B2A87E0888366EACE
:102BB00071E084E594E0DF91CF910F910C949B2A12
:102BC0000F93CF93DF9390E1899FE0011124C754C5
:102BD000DE4F00E020E04C8560E08BE294E00E9454
:102BE000812520E0488161E08BE294E00E9481250C
:102BF000288521954A8562E08BE294E00E94812538
:102C00002C812A534E8163E08BE294E00E9481255F
:102C100020E04E856A818BE294E0DF91CF910F91A5
:102C20000C94B2251F93CF93DF9380915D03853081
:102C300009F468C130F4813071F0843009F419C1AD
:102C400099C28A3009F46AC08B3009F445C18930D1
:102C500009F090C237C163E080E194E00E94FA1A63
:102C6000882361F040915A03842F90E002962091CE
:102C70005C0330E0821793070CF495C161E080E1BA
:102C800094E00E94FA1A882339F020915A03822F87
:102C900090E003970CF08BC162E080E194E00E9429
:102CA000FA1A882359F040915A03242F30E080917A
:102CB0005C0390E0281739070CF47DC160E080E1E7
:102CC00094E00E94FA1A882321F080915A0381111E
:102CD00076C164E080E194E00E94FA1A882369F0EA
:102CE00080915A03811106C08AE080935D0310929F
:102CF0005C0203C082E080935D0366E080E194E0C3
:102D00000E94FA1A882309F435C266E873E086E067
:102D100094E0DF91CF911F910C94362463E080E121
:102D200094E00E94FA1A882329F080915C02853091
:102D300008F449C161E080E194E00E94FA1A882316
:102D400021F080915C02811142C162E080E194E057
:102D50000E94FA1A8823E9F180915C028230D9F04E
:102D600028F4882341F0813071F033C08330D9F0EA
:102D7000843041F12EC080915002843050F58F5F35
:102D80008093500226C080915102843010F58F5FED
:102D9000809351021EC080914F028330D0F48F5F28
:102DA00080934F0216C040914E02242F30E0809154
:102DB000500290E00197281739075CF44F5F409369
:102DC0004E0207C080914A02833018F48F5F8093CF
:102DD0004A0260E080E194E00E94FA1A8823D1F16F
:102DE00080915C028230F9F028F4882341F0813030
:102DF00091F030C08330F9F0843029F12BC09091EC
:102E00005002933038F191509093500280914E02CD
:102E1000891320C014C0809151028230D8F08150B3
:102E20008093510217C080914F02823098F08150F8
:102E300080934F020FC080914E02882359F0815039
:102E400080934E0207C080914A02823018F0815070
:102E500080934A0264E080E194E00E94FA1A882399
:102E600009F44BCF80915C02853009F046CF81E0B8
:102E700042CF63E080E194E00E94FA1A882329F0AF
:102E800080915C02823008F4A6C061E080E194E0A9
:102E90000E94FA1A882321F080915C0281119FC060
:102EA00064E080E194E00E94FA1A882309F425CFB7
:102EB00080915C02882321F0813009F41CCF1DCF62
:102EC00085E019CF64E080E194E00E94FA1A88233B
:102ED00009F450C181E064C060E080E194E00E94A8
:102EE000FA1A811180C062E080E194E00E94FA1A2F
:102EF000811179C065E080E194E00E94FA1A8111A5
:102F000072C038C141E064E080E194E00E94031B9C
:102F1000C0914D02882331F0CA3020F4CF5FC093B6
:102F20004D0228C1CC2309F468C0E091530289E026
:102F3000E89FF0011124EA58FC4FD28140914C02E5
:102F400050E02D2F30E0220F331F21503109DA01DC
:102F5000AE5DBD4F8C913AE0632F0E94332D829F6E
:102F6000202D112490819F5F9D0F920F90936A03F3
:102F7000DA01A75EBD4F8C91632F0E94332D9181A2
:102F80009F5F980F90936B03C6952C9F202D112463
:102F900020936C038C9FC02D1124C0936D0386E099
:102FA00080935D03E7C04D5F40935A0367CE235083
:102FB00020935A0371CE4F5F40935A037FCE8150C6
:102FC00080935A0386CE8F5F80935C02B3CE81508C
:102FD00080935C02BACE8F5F80935C0256CF8150A3
:102FE00080935C025DCFE091530289E0E89FF0019D
:102FF0001124EA58FC4F1086BDC041E061E080E139
:1030000094E00E94031B811107C061E080E194E01D
:103010000E94FA1A882339F080914C02882319F013
:10302000815080934C0241E063E080E194E00E9493
:10303000031B811107C063E080E194E00E94FA1A4B
:10304000882339F080914C02883018F48F5F809388
:103050004C0262E080E194E00E94FA1A882359F061
:10306000E091530289E0E89FF0011124EA58FC4FF7
:1030700081E082831BC041E062E080E194E00E9435
:10308000031B882399F0C091530289E0C89FE00197
:103090001124CA58DC4F188169816D5F84E0810F6B
:1030A0000E942604811102C01F5F188360E080E146
:1030B00094E00E94FA1A882351F0E091530289E0CB
:1030C000E89FF0011124EA58FC4F12821AC041E037
:1030D00060E080E194E00E94031B882391F0C0919E
:1030E000530289E0C89FE0011124CA58DC4F1881BF
:1030F000115069816D5F812F0E942604811101C0EA
:10310000188365E080E194E00E94FA1A882301F1B7
:103110008091520281111CC080914D02811118C012
:10312000E091530289E0E89FF0011124EA58FC4F36
:10313000C181C350D0816C2F8D2F0E942604811134
:1031400007C06C2F83E08D0F0E942604882359F05E
:1031500066E080E194E00E94FA1A882359F0109208
:103160005C0284E01DCF85E00E94E01586E080933C
:103170005202EECFDF91CF911F91089586E094E047
:103180000E94F921882309F405C180915D0390E034
:10319000FC013197EC30F10508F0FCC0EC5CFF4F0E
:1031A0000C94AA2D0E9412160C948B0F0E945B1097
:1031B000EFC080915A038150809359030E94690B9C
:1031C0009091500290935B0310924D0284E08093A3
:1031D0004C028AE080934B021092520210925402E9
:1031E0001092530284E180937E032091510280E08B
:1031F000891750F4E82FF0E0EE0FFF1FE259FC4F63
:10320000208311828F5FF4CF80935B021092600362
:1032100083E09CC00E94051180914B0281508093F5
:103220004B028111B7C08BE091C00E949214B0C0D4
:103230000E940B110E947C11E091530289E0E89FEB
:10324000F0011124EA58FC4F8681811103C00E94CD
:10325000121602C00E94DA0D0E94190680915202D5
:10326000833010F40E944906E091530289E0E89F00
:10327000F0011124EA58FC4F838181110E94C60796
:103280000E94F1120E948C130E94401380914D0203
:10329000811180C08091520281117CC00C94A213D4
:1032A00080E00E94E0150E940B110E947C110E9498
:1032B00013080E9458080C94661481E00E94E015DF
:1032C0000E947C110E940B1180914B028F5F8093B2
:1032D0004B020E94CF1480914B02823021F40E9455
:1032E00056070E94A80B80914B02873008F450C00B
:1032F00010924B028CE080935D034AC00E940B1138
:103300000E947C110E944906209151028091500236
:10331000289F9001112450E040E069E0842F90E064
:103320008217930764F4689FF001699FF00D1124E0
:10333000EA58FC4F8581811151E04F5FEFCF4093F8
:103340005B0250935502511125C088E080935D03C4
:103350000895109256020E947C110E9409120E9448
:103360000B1180915602811115C00C94C6070E9462
:103370000B110E947C110E9440130E948C130E942A
:10338000E51206C00E940B110E947C110E949A1542
:103390000C941216089510925704109256048FE25E
:1033A00092E090935504809354040895CF93CFB73F
:1033B000F89480918C04811127C0EDECF7E08491A2
:1033C000E9EBF7E09491E82FF0E0EE0FFF1FE551F5
:1033D000F84FA591B4918C91892321F461E08AE0A2
:1033E0000E94AA2961E08AE00E9471298CB580615F
:1033F0008CBD8CB580648CBD61E08DE00E9471292C
:1034000061E08BE00E94712980918C048F5F809332
:103410008C04CFBFCF91089521E0FC012083089553
:1034200070E085E00C94E928AF92BF92CF92DF92D2
:10343000EF92FF920F931F93CF93DF93EC0189815B
:103440009A812FE0289F8001299F100D112485E18A
:103450000E94CC28800F911F24E0969587952A958D
:10346000E1F79A8389832881222391F1AC81AD8091
:10347000B12CC12CD12CE885F9857F0100E010E04A
:103480006E817F819B0140E050E08617970728F00E
:10349000BC01E817F90708F4BF0180E090E01F9233
:1034A0001F921F92AF930E94B22B6B830F900F90CD
:1034B0000F900F9070E085E0DF91CF911F910F91F9
:1034C000FF90EF90DF90CF90BF90AF900C94E928E1
:1034D000DF91CF911F910F91FF90EF90DF90CF90F0
:1034E000BF90AF900895FC018CE39FE093838283AB
:1034F00084E0818381E084870895CF93DF93EC019A
:103500008C858F7151F584E10E94CC28BC018827FD
:1035100077FD8095982F0E94282C26EE3FE34EECF5
:1035200050E40E94B42C0E94FA2B9B017B836A8397
:103530006115710581F084E08983FE0140E084819A
:1035400095812817390710F449830AC04F5F3296D6
:103550004430A9F702C08FEF89838C858F5F8C87F9
:10356000DF91CF910895FC0188E0808389E0818319
:1035700087E0828386E0838384E0848382E085839E
:1035800081E186830895DF92EF92FF920F931F935C
:10359000CF93DF937C01EC0100E010E0DD24DA94AE
:1035A00062E088810E94712988810E94E029F701E8
:1035B000E00FF11F892B21F487818F5F878308C07B
:1035C0008781882349F08F3F11F4178201C0D78289
:1035D00060E088810E9471290F5F1F4F219607309C
:1035E0001105F1F6DF91CF911F910F91FF90EF90B0
:1035F000DF900895FC01E60FF11D81E09781913085
:1036000009F080E00895262F30E0FC01E20FF31F5F
:103610008781423028F481508E3F48F080E0089541
:103620008F3FE1F3642F0E94272D9130B9F781E09D
:1036300008958EBD00000DB407FEFDCF8EB5089530
:103640001F93CF93DF93EC01162FF89460E08E85E3
:103650000E94AA298F8518161CF460E00E94AA29EE
:10366000812F0E94191B8F8518161CF461E00E949F
:10367000AA297894DF91CF911F91089528EF31E026
:10368000EDE8F4E0DF01A9011D9241505040E1F75F
:10369000DC0119961C9219971A961C920895DF92D4
:1036A000EF92FF920F931F93CF93DF93EC018DE87E
:1036B000E82E84E0F82ED12C6D2D6064CE010E949E
:1036C000201B60E8CE010E94201B61E08E850E94D5
:1036D000AA298F8518161CF460E00E94AA2900E030
:1036E00010E0F701E00FF11F80810E94191B0F5FAE
:1036F0001F4F04351105A9F78F8518161CF461E0DA
:103700000E94AA29D39484E5E80EF11C86E0D81221
:10371000D3CF60E4CE01DF91CF911F910F91FF9045
:10372000EF90DF900C94201BFC01678F60A308953D
:10373000FC01678F40A30895AF92BF92CF92DF92B2
:10374000EF92FF920F931F93CF93DF93EC01162F0D
:10375000F42EE22EA02FBB27A7FDB095A41BB10924
:1037600047FDB395B7FF03C0B195A195B109EE2D03
:10377000FF27E7FDF095E11BF10917FDF395F7FF32
:1037800003C0F195E195F109BB24B394EA17FB0757
:1037900014F0B12C06C08E2DE02E082F812F1F2D86
:1037A000F82EE11634F48F2DF02E082F812F1E2DC8
:1037B000E82ECE2CC11AE02FFF27E7FDF095EF1978
:1037C000F109F7FCF395F7FF03C0F195E195F109D5
:1037D000AE2EDC2CC7FE03C0DD24D394DC0CD594C4
:1037E000F01614F401E00FC00FEF0DC0BB2071F014
:1037F000412F6F2DCE010E944504DA18D7FE02C07A
:10380000F00EDC0C1F5FE1168CF703C04F2D612F0B
:10381000F1CFDF91CF911F910F91FF90EF90DF904B
:10382000CF90BF90AF9008950F93022F0150040FD7
:10383000262F0E949C1B0F910895DF92EF92FF921A
:103840000F931F93CF93DF937C01D42E162FC22F9B
:10385000DD27C7FDD095C60FD11D67FDDA95812FF5
:10386000992787FD90958C179D0744F4202F4D2DA7
:10387000612FC7010E94141C1F5FF1CFDF91CF9110
:103880001F910F91FF90EF90DF9008950F932150BB
:10389000260F042F0E949C1B0F910895EF92FF9218
:1038A0000F931F93CF93DF93EC01F62E142FE22E8C
:1038B0000E94461C4FEF400F410F2E2D6F2DCE0161
:1038C0000E94461C202F412F6F2DCE010E94141CF8
:1038D0006FEF6E0D6F0D202F412FCE01DF91CF9135
:1038E0001F910F91FF90EF900C94141C8F929F9258
:1038F000AF92BF92CF92DF92EF92FF920F931F93FE
:10390000CF93DF93EC01E62ED42E122FCC24C39458
:10391000C21AB22EB194BB0CF12C802F8470A82E49
:10392000802F8270982E802F8870882E0170F1165B
:103930000CF04DC0C7FC04C01150B394B394CB0C31
:10394000F3948F2D880F8F5FC80EAA2071F0412F3E
:103950004D0D6F2D6E0DCE010E9445044F2D4D0D66
:10396000612F6E0DCE010E944504992071F04D2DFE
:10397000411B6F2D6E0DCE010E9445044D2D4F1938
:10398000612F6E0DCE010E944504882071F04F2DED
:103990004D0D6E2D611BCE010E944504412F4D0D32
:1039A0006E2D6F19CE010E944504002309F4BFCF8C
:1039B0004D2D4F196E2D611BCE010E9445044D2DDA
:1039C000411B6E2D6F19CE010E944504B0CFDF91CF
:1039D000CF911F910F91FF90EF90DF90CF90BF900C
:1039E000AF909F908F9008958F929F92AF92BF92C9
:1039F000CF92DF92EF92FF920F931F93CF93DF93BB
:103A0000EC01B62EA42E122FDD24D394D21AC22E8E
:103A1000C194CC0CFF24F394802F8170882E9924BC
:103A200093949E0C02708FEF8F0D8117C4F5D7FC15
:103A300004C01150C394C394DC0C8F2D880F8F5F8A
:103A4000D80E882099F0212F220F290D4A2D411BD5
:103A50006F2D6B0DCE010E94141C23E02E0D4A2DFC
:103A60004F19612F6B0DCE010E94141C002399F099
:103A7000212F220F290D4A2D411B6B2D6F19CE01CD
:103A80000E94141C23E02E0D4A2D4F196B2D611B33
:103A9000CE010E94141CF394E394E394C4CFDF910D
:103AA000CF911F910F91FF90EF90DF90CF90BF903B
:103AB000AF909F908F9008959F92AF92BF92CF92B8
:103AC000DF92EF92FF920F931F93CF93DF93EC015E
:103AD000B62EF42EA22EDE2CD194DD0C9D2C920E4F
:103AE0001E2D160F292D612F0E94461CCC24CA942E
:103AF000C00ECF0C292D4C2D612FCE010E94461CEB
:103B0000D00EFE0C2D2D4F2D6B2DCE010E94141CBE
:103B1000BA0C6FEF6B0D2D2D4F2DCE010E94141C92
:103B200001E02E2D4F2D612FCE010E94761CDE2C40
:103B3000D094DB0C02E02E2D4F2D6D2DCE010E9476
:103B4000761CCE1804E02E2D4C2D6D2DCE010E943A
:103B5000761C08E02E2D4C2D612FCE010E94761C84
:103B6000DF91CF911F910F91FF90EF90DF90CF9059
:103B7000BF90AF909F900895AF92BF92CF92DF9287
:103B8000EF92FF920F931F93CF93DF93EC01A62E3A
:103B9000C42EB22EF02E1E2DE194EE0CD12ED60E98
:103BA0002E2D2B0D6D2D0E941D1CFA94FE0CC10EA6
:103BB0006FEF6A0D6B0D611BEF2C01E0212F4C2D77
:103BC000CE010E94F41C02E0212F4C2D6D2DCE0160
:103BD0000E94F41CDF91CF911F910F91FF90EF9005
:103BE000DF90CF90BF90AF9008952F923F924F9269
:103BF0005F926F927F928F929F92AF92BF92CF927D
:103C0000DF92EF92FF920F931F93CF93DF931F9258
:103C1000CDB7DEB78C01862E942EF90174903196C3
:103C200064907901F2E0EF0EF11C872D992787FD52
:103C30009095DC011796B7FD17966D0193E0D5942A
:103C4000C7949A95E1F7212C312C512C20E8A22E13
:103C5000B12C5614B4F520E0452C490C27156CF511
:103C6000822F27FF02C087E0820F85958595859575
:103C7000F101E80FF11D87FDFA95EE0DFF1DE491AE
:103C8000F0E0A22FA778A7FF03C0A150A86FAF5FF5
:103C9000C50102C095958795AA95E2F7DC01AE2390
:103CA000BF23AB2B41F0442D622F680DC80129833F
:103CB0000E94450429812F5FD1CF53942C0C3D1CC9
:103CC000C8CF0F90DF91CF911F910F91FF90EF9090
:103CD000DF90CF90BF90AF909F908F907F906F902C
:103CE0005F904F903F902F9008952F923F924F9268
:103CF0005F926F927F928F929F92AF92BF92CF927C
:103D0000DF92EF92FF920F931F93CF93DF9300D038
:103D100000D000D0CDB7DEB76C01762E642E011135
:103D20001CC0E1101AC026960FB6F894DEBF0FBE75
:103D3000CDBFDF91CF911F910F91FF90EF90DF905A
:103D4000CF90BF90AF909F908F907F906F905F903B
:103D50004F903F902F900C94F51DF90144903196AF
:103D600024905901F2E0AF0EB11C302F3370842D36
:103D7000992787FD90954C0127E0820E911C97FEB4
:103D800004C04C01EEE08E0E911C43E095948794A4
:103D90004A95E1F733243A94320C1E821D82F12CAD
:103DA0005FEF540D00E810E0F2140CF064C0552EE3
:103DB00020E024150CF056C0822F27FF02C087E0B8
:103DC000820F859585958595ED81FE81E80FF11D22
:103DD00087FDFA95EA0DFB1DE491F0E0A22FA7788C
:103DE000A7FF03C0A150A86FAF5FC80102C095959F
:103DF0008795AA95E2F7DC01AE23BF23AB2B79F1BF
:103E0000323039F0333041F0313049F4452D6F2DE7
:103E100008C0652D432D05C0632D422F02C04F2DD4
:103E2000622FEE2069F07E2D7370E0FE03C0942DAA
:103E3000961B692FE1FE05C0E22DE41B4E2F01C049
:103E400070E0670D460DC6012A833B835C8379834E
:103E50000E9445047981E72E5C813B812A812F5F96
:103E60005A94A7CFF3948D819E81880D991D9E83CE
:103E70008D833A9499CF26960FB6F894DEBF0FBE85
:103E8000CDBFDF91CF911F910F91FF90EF90DF9009
:103E9000CF90BF90AF909F908F907F906F905F90EA
:103EA0004F903F902F900895DC01FB0184918F5F2C
:103EB00014968C9314973196E491EF5F1596EC93DA
:103EC00015976E5F7F4F5E967C936E935D97089516
:103ED000EF920F93CF93DF93EC014D876C872E8782
:103EE000E88A0F8781E088878F8F18A28F8363EC21
:103EF00074E0CE010E94541F0E94D6198CB58F7DAC
:103F00008CBD8CB58C7F81608CBD8DB581608DBD85
:103F10008CB58C608CBD61E08D850E94712961E05B
:103F20008C850E94712961E08E850E9471298889A3
:103F300018161CF461E00E9471298F8518161CF474
:103F400061E00E947129888918166CF460E00E9473
:103F5000AA296AE070E080E090E00E94692861E0B0
:103F600088890E94AA298C85992787FD9095FC0154
:103F7000ED53F84FE491F0E0EE0FFF1FEF51F84FD3
:103F8000259134913C8B2B8BFC01E155F84F8491AA
:103F90008A8F8D85992787FD9095FC01ED53F84F09
:103FA000E491F0E0EE0FFF1FEF51F84F25913491AF
:103FB0003A8B298BFC01E155F84F8491898F8F85CD
:103FC000992787FD9095FC01ED53F84FE491F0E0BF
:103FD000EE0FFF1FEF51F84F259134913E8B2D8B43
:103FE000FC01E155F84F84918B8F8E85992787FDD1
:103FF0009095FC01ED53F84FE491F0E0EE0FFF1FB8
:10400000EF51F84F25913491388F2F8BFC01E155FA
:10401000F84F84918C8F61E2CE010E94201B64E1F5
:10402000CE010E94201B8B8587FF02C08FE78B8704
:104030006B856068CE010E94201B60E2CE010E9469
:10404000201B6CE0CE010E94201BCE01DF91CF919E
:104050000F91EF900C944F1B6F927F928F929F92D3
:10406000AF92BF92CF92DF92EF92FF920F931F9386
:10407000CF93DF93EC01162FF42EB02EEF8C643526
:104080000CF081C08FE284170CF47DC0EC81F0E06D
:1040900031970E9FC0010F9F900D1124860F911D27
:1040A00067FD9A95181619060CF06DC08D81809FDA
:1040B000C0011124840F911D47FD9A951816190609
:1040C0000CF061C0A62E962EC22ED12C8A2D811BFB
:1040D000992787FD90952C8130E0821793070CF08B
:1040E00051C0215031098217930779F0C29ED00147
:1040F000C39EB00DD29EB00D1124A80FB91FED8D37
:10410000FE8DEA0FFB1F749001C0712C8F2C6F2C59
:10411000282D2F19332727FD30958D8190E0281702
:1041200039076CF570FE11C081E0B81206C0482D49
:104130006A2DCE010E9445041EC00B2D2B2D462D4D
:10414000692DCE010E941D1C16C088A19F8D891764
:1041500091F08F8F81E0B81206C0482D6A2DCE01F4
:104160000E94450407C00B2D2B2D462D692DCE0135
:104170000E941D1CEF8E76946B0C8394C9CF9B0C10
:10418000A394A4CFEF8EDF91CF911F910F91FF9059
:10419000EF90DF90CF90BF90AF909F908F907F90E7
:1041A0006F9008950F93CF93DF93EC01262F6A3021
:1041B00039F42D8198858A85299F800D112422C08C
:1041C0006D3011F108854A8569850E942C2048854B
:1041D0005C812985549F200D112429878F81882394
:1041E00099F0332727FD309584E590E0459F8019AD
:1041F00091091124821793073CF49D818A85499F78
:10420000800D11248A87198681E090E0DF91CF919B
:104210000F9108958F929F92AF92BF92CF92DF92AB
:10422000EF92FF920F931F93CF93DF93EC015C010A
:1042300085E8A80EB11CD5018C91882309F44DC0E6
:104240008C3018F41CE0181B01C010E0FE01EA5A83
:10425000FF4F81E080836E01BEE4CB0ED11C60E095
:10426000C6010E94941B4E01E3E58E0E911CD40101
:104270008C9103E0080F9DE2F92E4F2D481B410F52
:1042800023E0E22E24E560E0C6010E94BC1D61E04F
:10429000C6010E94941BF401808103E0080F4F2D9A
:1042A000481B410F24E560E0C6010E945C1DFE0131
:1042B000E95AFF4F84E080833196D4018C91181B1A
:1042C000115D1083CD57DF4F68817981C6010E944F
:1042D000572AF501808181508083DF91CF911F9112
:1042E0000F91FF90EF90DF90CF90BF90AF909F9095
:1042F0008F9008950F931F93CF93DF93EC018C0160
:10430000025B1F4F40E061E0C8010E94981BFE0164
:10431000E95AFF4FDE01AE5ABF4F85E59C91891BDC
:10432000808331961082698D613009F43CC028F099
:10433000888D653008F04EC049C0CE0185960E9438
:10434000392660E0CE010E94101AC8010E943E1B6F
:10435000FE01EA5AFF4F81E0808366EA76E0C801F9
:104360000E94572A6A8D7B8D4AE050E0C8010E9466
:104370006C2B62E976E0C8010E94572AC8010E94AE
:104380004F1B83B7817F846083BF83B7816083BF06
:1043900083B7816083BF889583B78E7F83BF83B7E0
:1043A0008E7F83BF21C0C059DF4F488159816A8108
:1043B0007B814F7055276627772748305105610567
:1043C000710510F467E009C068E707C0882361F051
:1043D0006B5F03C0882341F06FE2C801DF91CF918A
:1043E0001F910F910C947E2ADF91CF911F910F9115
:1043F00008958F929F92AF92BF92EF92FF920F9388
:104400001F93CF93DF93EC017C010FE7E00EF11CCB
:10441000F70180809180A280B3800E943A289501A4
:104420008401061B170B280B390BB901A8015E018B
:104430001EE7A10EB11CF501808190E0A0E0B0E084
:104440008E0106581F4F84179507A607B70750F42B
:10445000F80180819181A281B381892B8A2B8B2BDA
:1044600009F040C0F80180819181A281B381892B3C
:104470008A2B8B2BA9F57E01F5E2EF0EF11CC7010B
:104480000E943626C7010E94A326C7010E94672703
:10449000CE010E940A21CE010E947A217E012EE4E3
:1044A000E20EF11CC7010E944F1BFE01EC5AFF4FA8
:1044B0008081811103C0C7010E943E1B0E944628D3
:1044C000F8016083718382839383FE01EC58FF4F70
:1044D000CA58DF4F28813981621B730B7183608357
:1044E00080E036C00E943A28F5012081620F711DDC
:1044F000811D911DF7016083718382839383FE0187
:10450000E059FF4F40815181628173814F5F5F4F5E
:104510006F4F7F4F4083518362837383F801108212
:104520001182128213820E944628FE01EA58FF4F30
:104530006083718382839383CE010E94141ACE011B
:104540000A960E94C31ACE0148960E947D1A81E005
:10455000DF91CF911F910F91FF90EF90BF90AF909F
:104560009F908F9008950F931F93CF93DF938C01AB
:10457000EC01C25BDF4FCE010E943E1B6AE676E093
:10458000CE010E94572ACE010E944F1B8CB583603A
:104590008CBD8DB58E7F8DBD83E392E0EEEFFFE3A2
:1045A0000995F801EC5AFF4F108265E476E0CE01E0
:1045B0000E94892ACE010E944F1B065F1F4FC8012F
:1045C0000E94C31A64E0C8010E94FA1A811107C050
:1045D00062E370E080E090E00E946928F0CFDF9114
:1045E000CF911F910F9108952F923F924F925F921A
:1045F0006F927F928F929F92AF92BF92CF92DF92F3
:10460000EF92FF920F931F93CF93DF93CDB7DEB757
:1046100029970FB6F894DEBF0FBECDBF9987888764
:104620001B012A013C018FE6680E711CF301808199
:10463000882309F402C181E0E885F985EA5AFF4F31
:104640008083E885F985EB5AFF4F1082E885F9856C
:10465000EC5AFF4F1082E885F985108E8F01025BBE
:104660001F4F61E0C8010E94941B888599858D5A6F
:104670009F4F9C838B83C884D98497E5C90ED11C36
:10468000E884F984E8E5EE0EF11C888599858E5A58
:104690009F4F9A838983E885F985E059FF4FFE8310
:1046A000ED8388849984FAE08F0E911CA884B984E4
:1046B00085E2A80EB11C888599850E94F92188237E
:1046C000D1F3F1018491882321F0EB81FC815081A9
:1046D00001C050E028EC36E040E060E0C8015F83B4
:1046E0000E94F51D5F814114510439F04CE0450FE3
:1046F000920160E0C8010E94F51DF60110828CE075
:10470000F7018083B101C8010E94572AE981FA812B
:104710009081892F880F890F81958D5AF6018083AA
:10472000EB81FC819081892F880F890F8195835DB2
:10473000F7018083ED81FE81808184FF03C063ECFB
:1047400076E002C06FEB76E0C8010E94892AE98119
:10475000FA819081892F880F890F81958D5AF601F2
:104760008083F70180818F5F8083E885F98582A54A
:10477000882319F06BEB76E002C067EB76E0C801A6
:104780000E94892AE981FA819081892F880F890FF7
:1047900081958D5AF6018083F70180818F5F808338
:1047A00063EB76E0C8010E94892A65E0C4010E949B
:1047B000FA1A882351F0E885F98562A56F5FC50173
:1047C0000E94E327C5010E94CD2764E0C4010E9436
:1047D000FA1A811113C0F3012081822F90E0A0E02A
:1047E000B0E0ED81FE814081518162817381481783
:1047F00059076A077B07A8F02F3F99F08FEFF30165
:104800008083088519850B5D1F4F60E0C8010E94F9
:10481000E025C8010E94B72781E0E885F985808FEF
:104820000CC066E0C4010E94FA1A882309F443CF41
:10483000888599850E94B32234CF29960FB6F894C3
:10484000DEBF0FBECDBFDF91CF911F910F91FF90C3
:10485000EF90DF90CF90BF90AF909F908F907F9020
:104860006F905F904F903F902F900895AB0167EC51
:1048700076E00C94F422E0E8F7E72591349181E0AA
:104880002130304C09F080E00895CF93DF93EC01A4
:104890000E943B249E01275A3F4FDE01A159BF4F82
:1048A000882309F43CC0E6E9F7E78491F9018083A5
:1048B000E7E9F7E7E491EC83E8E9F7E7E491ED83D2
:1048C000E9E9F7E7859194919F838E83EBE9F7E718
:1048D0008591949199878887EDE9F7E7E491EBA7B3
:1048E000EEE9F7E7E491EAA7EFE9F7E7E491EC9363
:1048F000E0EAF7E7859194919D8F8C8FE2EAF7E7E4
:10490000859194919F8F8E8FE4EAF7E7859194913A
:1049100099A388A3E6EAF7E78591949120C08CE3F8
:10492000F90180831C822FEF2D8380E293E09F8327
:104930008E8384ED93E09987888781E08BA78AA78F
:104940002C938CEA9DE09D8F8C8F8EED9DE09F8F48
:104950008E8F84E79EE099A388A38CE39FE09BA3BE
:104960008AA3DF91CF910895CF92DF92EF920F93B8
:10497000CF93DF93EC01FC01E258FF4F82E3808389
:10498000349741E050E060E070E0408351836283FF
:1049900073833B978FEF8083CE010E944524CE0125
:1049A0000E940C1A6FEFCE010E94101A6E018AE06D
:1049B000C80ED11CC6010E94B31AC6010E94C31AB8
:1049C000CE0148960E94731A0EE0E02E0FE020E11F
:1049D0004BE06DE0CE01825B9F4F0E94681FA59661
:1049E000CE010E944C2565E0C6010E94FA1A882378
:1049F00051F060E0CE01DF91CF910F91EF90DF9009
:104A0000CF900C94E32740E068E377E0CE01DF919C
:104A1000CF910F91EF90DF90CF900C94EB25CF9337
:104A2000DF9350E0FA01EE0FFF1FE80FF91F378503
:104A30002089E32FF22FE60FF11DE60FF11D2591DE
:104A40003491FA01EE0FFF1FE80FF91F30A3278FF3
:104A5000F90165917491FC01D481D69FC02D112478
:104A6000E40FF51FC1A3F901A591B4916B2F70E07C
:104A7000EC2FF0E0DC01A40FB51F6E177F0720F4C8
:104A8000F90125913491C32FCD9FC02D1124929609
:104A9000CC93DF91CF91089521E0FC01248324E0A1
:104AA00020A72FE837E0308B278740E060E00E94A6
:104AB0000F2561E070E083E00E94E928E1EBF0E07F
:104AC0008081887F81608083F89410928000E1E883
:104AD000F0E01082109285001092840088E191E04D
:104AE0009093890080938800808188608083808192
:104AF00081608083EFE6F0E080818260808378943B
:104B000008950F93FC01862F642F011129C0823074
:104B1000D1F048F4882391F0813011F540E0CF01C5
:104B20000F910C940F258330A9F08430C9F484814F
:104B3000489F602D1124658F268F12C04B3008F0DE
:104B40006AE0668B0DC08481489F602D1124618FBF
:104B5000228F06C08481489F602D1124638F248F8B
:104B60000F910895FC0121110EC0648B8481489F30
:104B7000402D1124458B15A214A213A281E0878B2E
:104B800080938906108E089580918906882319F0F4
:104B90008091860601C080E08093B4000895FC01F6
:104BA00061110DC0178A158A14A213A2108E1092DB
:104BB000860610928706109289060C94C4250895E3
:104BC000CF93DF93EC01611103C00E94CF251982BE
:104BD000DF91CF9108950F931F93CF93DF93EC0153
:104BE0008B0141110EC060E00E94E0251E870D87F9
:104BF0001B8A1A8A81E0898389E08E8B198E1B8E2D
:104C00001D8EDF91CF911F910F910895CF93DF9368
:104C1000EC01611128C08881882329F189818111E3
:104C200022C089852F819885E22FF92FE80FF11D89
:104C3000E80FF11D859194918F3F2FEF920711F4AA
:104C4000188211C09C879927880F991FEA85FB85D8
:104C5000E80FF91F6591749140E0CE010E94EB25A9
:104C600089858F5F8987DF91CF91089560E00C94EB
:104C7000062660E00C94E0250F93CF93DF93EC01C0
:104C800061115DC08981882309F459C08D89811122
:104C900056C02D853E858A899B89880F991F820F72
:104CA000931FFC01859194910097D1F48989882301
:104CB00021F01B8A1A8AF90111C01982888160E0EB
:104CC000882331F0CE010E9406268A899B8925C05F
:104CD000CE01DF91CF910F910C94CF2585919491C6
:104CE000BC01769567957695679580FF1DC0AC01F0
:104CF000A6E056954795AA95E1F7292F2695269582
:104D0000269520514F716F7000E0CE010E948125E1
:104D10008A899B8901969B8B8A8B880F991FED85C9
:104D2000FE85E80FF91FDACF492F6F7320E0CE011F
:104D30000E94B2258A899B8901969B8B8A8BDF9181
:104D4000CF910F91089560E00C943C26CF93DF93B0
:104D5000EC016111B9C08F89882309F4B5C08D8930
:104D6000811105C0CE01DF91CF910C94CF258150E8
:104D70008D8B8DA1811138C08BA19CA101969C01C6
:104D8000220F331FEF8DF8A1E20FF31F259134910D
:104D9000422F47704EA3A90163E0569547956A9547
:104DA000E1F7BA0176956795232F269526952FA3CF
:104DB0006F732C81629F602D11246DA3417040930D
:104DC00085069CA38BA329A130E08217930760F08E
:104DD0008AA1882329F0281B31093CA32BA304C0F6
:104DE00060E0CE010E94CF258DA181508DA3288D3A
:104DF0002F5F288F4C893FA1340F8C85380F3A8361
:104E00006B8D662361F070E0822F992787FD909566
:104E10000E94552D8C8D869F300D11243A838A81F6
:104E200090E0CB966BE370E00E94552D8A833E891B
:104E30003B83698D662371F0772767FD7095822F1C
:104E4000992787FD90950E94552D8A8D869F300D5C
:104E500011243B836D8D662391F0822F992787FD66
:104E6000909570E00E94552DCB0162E070E00E94A9
:104E7000552D2E8D9B81289F900D11249B838B8116
:104E80004F3339F08A300CF089E087FD80E08B8366
:104E900001C01B82F894EA81F0E0EA5BF84FE491EC
:104EA000E093880698A58D81989F802D11249B8181
:104EB000899F802D11249EA1899F802D112480938C
:104EC0008706809386067894DF91CF91089560E0FD
:104ED0000C94A62660918706662321F180918A06AC
:104EE0008F5F80938A06909188068917D8F0809109
:104EF000890691E089278093890610928A0680911D
:104F00008506882369F090910A0183E4989F802D9B
:104F10001124895B80930A010E94272D90938606B5
:104F20000C94C42508951F920F920FB60F9211246E
:104F30002F933F934F935F936F937F938F939F93A1
:104F4000AF93BF93EF93FF930E946A27FF91EF9176
:104F5000BF91AF919F918F917F916F915F914F9191
:104F60003F912F910F900FBE0F901F901895CF93E8
:104F7000DF93EC0160E00E94E02587E897E09E87E0
:104F80008D871B8A1A8A81E0898389E08E8B198E2E
:104F90001B8E1D8EDF91CF910895CF93DF93EC018F
:104FA00060E00E94E02581E897E09E878D871B8A5C
:104FB0001A8A81E0898389E08E8B198E1B8E1D8E63
:104FC000DF91CF910895FC01862F992787FD909559
:104FD000668170E06F5F7F4F0E94552D8583089535
:104FE0001F920F920FB60F9211242F933F938F931E
:104FF0009F93AF93BF9380918C0690918D06A09163
:105000008E06B0918F0630918B0623E0230F2D374B
:1050100020F40196A11DB11D05C026E8230F0296BC
:10502000A11DB11D20938B0680938C0690938D0655
:10503000A0938E06B0938F06809190069091910672
:10504000A0919206B09193060196A11DB11D809387
:10505000900690939106A0939206B0939306BF9109
:10506000AF919F918F913F912F910F900FBE0F9015
:105070001F9018952FB7F89460918C0670918D064B
:1050800080918E0690918F062FBF08953FB7F894B8
:105090008091900690919106A0919206B09193060E
:1050A00026B5A89B05C02F3F19F00196A11DB11D83
:1050B0003FBF6627782F892F9A2F620F711D811DA0
:1050C000911D42E0660F771F881F991F4A95D1F7FF
:1050D0000895CF92DF92EF92FF92CF93DF936B010F
:1050E0007C010E944628EB01C114D104E104F104C3
:1050F00089F00E94F92B0E9446286C1B7D0B683EAC
:10510000734090F381E0C81AD108E108F108C85152
:10511000DC4FEACFDF91CF91FF90EF90DF90CF90FF
:105120000895789484B5826084BD84B5816084BD1F
:1051300085B5826085BD85B5816085BDEEE6F0E010
:10514000808181608083E1E8F0E01082808182606C
:105150008083808181608083E0E8F0E080818160ED
:105160008083E1EBF0E0808184608083E0EBF0E01D
:10517000808181608083EAE7F0E0808184608083C1
:10518000808182608083808181608083808180686B
:1051900080831092C10008958E3008F08E50877081
:1051A00020910B0190E4299F90011124822B809380
:1051B0007C0080917A00806480937A0080917A00EC
:1051C00086FDFCCF809178002091790090E0922BB1
:1051D00008951F93CF93DF93182FEB0161E00E9496
:1051E0007129209711F460E004C0CF3FD10539F454
:1051F00061E0812FDF91CF911F910C94AA29E12FBB
:10520000F0E0E556F84FE491E330F9F048F4E1308E
:10521000B9F0E230A1F584B5806284BDC8BD34C068
:10522000E730E9F0E83019F1E43049F58091800089
:10523000806280938000D0938B00C0938A0024C04A
:1052400084B5806884BDC7BD1FC080918000806820
:1052500080938000D0938900C093880015C080910E
:10526000B00080688093B000C093B3000DC08091FF
:10527000B00080628093B000C093B40005C0C03815
:10528000D1050CF0B5CFAFCFDF91CF911F9108952D
:10529000833081F028F4813099F08230A1F00895B4
:1052A0008730A9F08830B9F08430D1F48091800043
:1052B0008F7D03C0809180008F7780938000089558
:1052C00084B58F7702C084B58F7D84BD08958091A9
:1052D000B0008F7703C08091B0008F7D8093B000C5
:1052E0000895CF93DF9390E0FC01E155F84F2491AE
:1052F000FC01ED53F84F8491882349F190E0880F29
:10530000991FFC01E551F84FA591B4918F51984F29
:10531000FC01C591D4919FB7611108C0F8948C919C
:10532000209582238C93888182230AC0623051F4B5
:10533000F8948C91322F309583238C938881822B23
:10534000888304C0F8948C91822B8C939FBFDF914B
:10535000CF9108950F931F93CF93DF931F92CDB7F3
:10536000DEB7282F30E0F901E556F84F8491F901B6
:10537000E155F84F1491F901ED53F84F04910023D2
:10538000C9F0882321F069830E9448296981E02FB0
:10539000F0E0EE0FFF1FEF51F84FA591B4919FB7CA
:1053A000F8948C91611103C01095812301C0812B69
:1053B0008C939FBF0F90DF91CF911F910F91089514
:1053C000CF93DF93282F30E0F901E556F84F849111
:1053D000F901E155F84FD491F901ED53F84FC4911B
:1053E000CC2391F081110E944829EC2FF0E0EE0FC0
:1053F000FF1FE952F84FA591B4912C912D2381E024
:1054000090E021F480E002C080E090E0DF91CF9155
:10541000089508950E9491280E94092A0E94AC04D0
:10542000C0E0D0E00E94BE182097E1F30E94000087
:10543000F9CFCF92DF92EF92FF920F931F93CF930A
:10544000DF936C017A01EB01E60EF71E00E010E03D
:10545000CE15DF0561F06991D601ED91FC910190C7
:10546000F081E02DC6010995080F191FF1CFC80181
:10547000DF91CF911F910F91FF90EF90DF90CF9030
:1054800008956115710581F0DB010D900020E9F7A9
:10549000AD0141505109461B570BDC01ED91FC91C8
:1054A0000280F381E02D099480E090E00895EF926E
:1054B000FF920F931F93CF93DF938C01FB01C0E00A
:1054C000D0E064917F018FEFE81AF80A662361F05B
:1054D000D801ED91FC910190F081E02DC801099572
:1054E000C80FD91FF701EDCFCE01DF91CF911F91EA
:1054F0000F91FF90EF9008950C94412ADC01ED91FB
:10550000FC910190F081E02D09946AE372E00C9423
:10551000412A0F931F93CF93DF93EC010E94572AE8
:105520008C01CE010E94852A800F911FDF91CF91BF
:105530001F910F9108950F931F93CF93DF93EC0169
:105540000E94412A8C01CE010E94852A800F911F62
:10555000DF91CF911F910F9108958F929F92AF92FB
:10556000BF92CF92DF92EF92FF920F931F93CF9350
:10557000DF93CDB7DEB7A1970FB6F894DEBF0FBEAD
:10558000CDBF7C01C42EE52FCB01D22E19A221E084
:105590002D1510F02AE0D22E8E010F5D1F4F8D2C9D
:1055A000912CA12CB12C6C2D7E2FA50194010E9471
:1055B000692D8C2DD29E80191124015011098A3039
:1055C00014F4805D01C0895CF801808321153105E8
:1055D0004105510521F0C22EE32FCA01E4CFB801E5
:1055E000C7010E94412AA1960FB6F894DEBF0FBEF4
:1055F000CDBFDF91CF911F910F91FF90EF90DF9082
:10560000CF90BF90AF909F908F900895CF92DF92F0
:10561000EF92FF920F931F93CF93DF93EC016A01F8
:105620007B012115310579F4E881F9810190F08140
:10563000E02D642FDF91CF911F910F91FF90EF909C
:10564000DF90CF9009942A303105E9F477FF1AC032
:105650006DE20E947E2A8C0144275527BA014C191D
:105660005D096E097F092AE0CE010E94AD2A800FF4
:10567000911FDF91CF911F910F91FF90EF90DF90DD
:10568000CF9008952AE0B701A601CE01DF91CF9116
:105690001F910F91FF90EF90DF90CF900C94AD2A67
:1056A0009A01AB01662757FD6095762F0C94062B67
:1056B0002115310541F4DC01ED91FC910190F0815F
:1056C000E02D642F09940C94AD2A9A01462F50E0E6
:1056D00060E070E00C94582B9A01AB0160E070E040
:1056E0000C94582BCF93DF9300D000D0CDB7DEB70A
:1056F0009B01AC01611571058105910569F0698314
:105700003A834B835C830E94192E29813A814B8115
:105710005C810E948B2D03C060E070E0CB010F9094
:105720000F900F900F90DF91CF910895CF92DF925D
:10573000EF92FF926B017C01621773078407950754
:1057400064F4CA01B9016C197D098E099F090E9490
:10575000722B6C0D7D1D8E1D9F1DFF90EF90DF90B5
:10576000CF9008954F925F926F927F92AF92BF92C7
:10577000CF92DF92EF92FF920F931F93CF93DF931D
:10578000CDB7DEB729013A01621B730B840B950B71
:1057900029893A894B895C892A193B094C095D0999
:1057A000298B3A8B4B8B5C8B9B01AC0169897A8985
:1057B0008B899C890E94172DE418F50806091709A2
:1057C000A80197010E948B2D2A0D3B1D4C1D5D1DCC
:1057D000CA01B901DF91CF911F910F91FF90EF9016
:1057E000DF90CF90BF90AF907F906F905F904F9081
:1057F0000895089598D088F09F5790F0B92F992771
:10580000B751A0F0D1F0660F771F881F991F1AF0CB
:10581000BA95C9F712C0B13081F09FD0B1E00895B8
:105820009CC0672F782F8827B85F39F0B93FCCF339
:10583000869577956795B395D9F73EF490958095C1
:10584000709561957F4F8F4F9F4F0895E89409C0E1
:1058500097FB3EF490958095709561957F4F8F4FA3
:105860009F4F9923A9F0F92F96E9BB279395F695B9
:10587000879577956795B795F111F8CFFAF4BB0F37
:1058800011F460FF1BC06F5F7F4F8F4F9F4F16C09B
:10589000882311F096E911C0772321F09EE8872F25
:1058A000762F05C0662371F096E8862F70E060E0E1
:1058B0002AF09A95660F771F881FDAF7880F96955A
:1058C000879597F9089597F99F6780E870E060E001
:1058D00008959FEF80EC089500240A941616170689
:1058E00018060906089500240A94121613061406D1
:1058F00005060895092E0394000C11F4882352F034
:10590000BB0F40F4BF2B11F460FF04C06F5F7F4FEB
:105910008F4F9F4F089557FD9058440F551F59F0D2
:105920005F3F71F04795880F97FB991F61F09F3F8C
:1059300079F087950895121613061406551FF2CFB5
:105940004695F1DF08C0161617061806991FF1CF05
:1059500086957105610508940895E894BB2766272C
:105960007727CB0197F908950BD0C4CFB5DF28F086
:10597000BADF18F0952309F0A6CFABCF1124EECFF4
:10598000CADFA0F3959FD1F3950F50E0551F629F9A
:10599000F001729FBB27F00DB11D639FAA27F00D88
:1059A000B11DAA1F649F6627B00DA11D661F829FAF
:1059B0002227B00DA11D621F739FB00DA11D621F94
:1059C000839FA00D611D221F749F3327A00D611DB1
:1059D000231F849F600D211D822F762F6A2F112493
:1059E0009F5750408AF0E1F088234AF0EE0FFF1FE6
:1059F000BB1F661F771F881F91505040A9F79E3F1D
:105A0000510570F060CFAACF5F3FECF3983EDCF316
:105A1000869577956795B795F795E7959F5FC1F759
:105A2000FE2B880F911D9695879597F90895DB01B8
:105A30008F939F930E94B02DBF91AF91A29F800D35
:105A4000911DA39F900DB29F900D11240895991B55
:105A500079E004C0991F961708F0961B881F7A9565
:105A6000C9F78095089587FB082E062687FD819546
:105A700067FD61950E94272D0EF4919507FC819595
:105A80000895AA1BBB1B51E107C0AA1FBB1FA61785
:105A9000B70710F0A61BB70B881F991F5A95A9F7D7
:105AA00080959095BC01CD01089597FB072E16F4C3
:105AB000009407D077FD09D00E94412D07FC05D046
:105AC0003EF4909581959F4F0895709561957F4F15
:105AD0000895A1E21A2EAA1BBB1BFD010DC0AA1F2F
